{
	"Pendu.sol": {
		"Pendu": {
			"abi": [
				{
					"inputs": [
						{
							"internalType": "uint256",
							"name": "_gameId",
							"type": "uint256"
						}
					],
					"name": "anotherGame",
					"outputs": [],
					"stateMutability": "nonpayable",
					"type": "function"
				},
				{
					"inputs": [],
					"name": "gameCount",
					"outputs": [
						{
							"internalType": "uint256",
							"name": "",
							"type": "uint256"
						}
					],
					"stateMutability": "view",
					"type": "function"
				},
				{
					"inputs": [
						{
							"internalType": "uint256",
							"name": "",
							"type": "uint256"
						}
					],
					"name": "games",
					"outputs": [
						{
							"internalType": "address",
							"name": "launcher",
							"type": "address"
						},
						{
							"internalType": "address",
							"name": "challenger",
							"type": "address"
						},
						{
							"internalType": "uint256",
							"name": "lowerLimit",
							"type": "uint256"
						},
						{
							"internalType": "uint256",
							"name": "upperLimit",
							"type": "uint256"
						},
						{
							"internalType": "uint256",
							"name": "randomNumber",
							"type": "uint256"
						},
						{
							"internalType": "enum Pendu.Status",
							"name": "status",
							"type": "uint8"
						},
						{
							"internalType": "enum Pendu.Winner",
							"name": "winner",
							"type": "uint8"
						}
					],
					"stateMutability": "view",
					"type": "function"
				},
				{
					"inputs": [
						{
							"internalType": "uint256",
							"name": "_gameId",
							"type": "uint256"
						},
						{
							"internalType": "uint256",
							"name": "_guessedNumber",
							"type": "uint256"
						}
					],
					"name": "guessTheCorrectNumber",
					"outputs": [
						{
							"internalType": "string",
							"name": "",
							"type": "string"
						}
					],
					"stateMutability": "nonpayable",
					"type": "function"
				},
				{
					"inputs": [
						{
							"internalType": "address",
							"name": "_player2Addr",
							"type": "address"
						},
						{
							"internalType": "uint256",
							"name": "_lowerLimit",
							"type": "uint256"
						},
						{
							"internalType": "uint256",
							"name": "_upperLimit",
							"type": "uint256"
						}
					],
					"name": "newGame",
					"outputs": [],
					"stateMutability": "nonpayable",
					"type": "function"
				},
				{
					"inputs": [
						{
							"internalType": "string",
							"name": "_playerName",
							"type": "string"
						}
					],
					"name": "setPlayerName",
					"outputs": [],
					"stateMutability": "nonpayable",
					"type": "function"
				},
				{
					"inputs": [
						{
							"internalType": "uint256",
							"name": "_gameId",
							"type": "uint256"
						},
						{
							"internalType": "uint256",
							"name": "_newLowerLimit",
							"type": "uint256"
						},
						{
							"internalType": "uint256",
							"name": "_newUpperLimit",
							"type": "uint256"
						}
					],
					"name": "updateGameIntervals",
					"outputs": [],
					"stateMutability": "nonpayable",
					"type": "function"
				}
			],
			"devdoc": {
				"kind": "dev",
				"methods": {},
				"version": 1
			},
			"evm": {
				"assembly": "    /* \"Pendu.sol\":216:4360  contract Pendu {... */\n  mstore(0x40, 0x80)\n    /* \"Pendu.sol\":264:265  0 */\n  0x00\n    /* \"Pendu.sol\":237:265  uint256 public gameCount = 0 */\n  dup1\n  sstore\n    /* \"Pendu.sol\":216:4360  contract Pendu {... */\n  callvalue\n  dup1\n  iszero\n  tag_1\n  jumpi\n  0x00\n  dup1\n  revert\ntag_1:\n  pop\n  dataSize(sub_0)\n  dup1\n  dataOffset(sub_0)\n  0x00\n  codecopy\n  0x00\n  return\nstop\n\nsub_0: assembly {\n        /* \"Pendu.sol\":216:4360  contract Pendu {... */\n      mstore(0x40, 0x80)\n      callvalue\n      dup1\n      iszero\n      tag_1\n      jumpi\n      0x00\n      dup1\n      revert\n    tag_1:\n      pop\n      jumpi(tag_2, lt(calldatasize, 0x04))\n      shr(0xe0, calldataload(0x00))\n      dup1\n      0x407db5ba\n      gt\n      tag_10\n      jumpi\n      dup1\n      0x407db5ba\n      eq\n      tag_6\n      jumpi\n      dup1\n      0x4d1975b4\n      eq\n      tag_7\n      jumpi\n      dup1\n      0x9f193a7c\n      eq\n      tag_8\n      jumpi\n      dup1\n      0xd8177369\n      eq\n      tag_9\n      jumpi\n      jump(tag_2)\n    tag_10:\n      dup1\n      0x0ff9edbc\n      eq\n      tag_3\n      jumpi\n      dup1\n      0x117a5b90\n      eq\n      tag_4\n      jumpi\n      dup1\n      0x1281e092\n      eq\n      tag_5\n      jumpi\n    tag_2:\n      0x00\n      dup1\n      revert\n        /* \"Pendu.sol\":2594:3024  function updateGameIntervals(... */\n    tag_3:\n      tag_11\n      0x04\n      dup1\n      calldatasize\n      sub\n      dup2\n      add\n      swap1\n      tag_12\n      swap2\n      swap1\n      tag_13\n      jump\t// in\n    tag_12:\n      tag_14\n      jump\t// in\n    tag_11:\n      stop\n        /* \"Pendu.sol\":523:560  mapping(uint256 => Game) public games */\n    tag_4:\n      tag_15\n      0x04\n      dup1\n      calldatasize\n      sub\n      dup2\n      add\n      swap1\n      tag_16\n      swap2\n      swap1\n      tag_17\n      jump\t// in\n    tag_16:\n      tag_18\n      jump\t// in\n    tag_15:\n      mload(0x40)\n      tag_19\n      swap8\n      swap7\n      swap6\n      swap5\n      swap4\n      swap3\n      swap2\n      swap1\n      tag_20\n      jump\t// in\n    tag_19:\n      mload(0x40)\n      dup1\n      swap2\n      sub\n      swap1\n      return\n        /* \"Pendu.sol\":4093:4358  function anotherGame(uint256 _gameId)... */\n    tag_5:\n      tag_21\n      0x04\n      dup1\n      calldatasize\n      sub\n      dup2\n      add\n      swap1\n      tag_22\n      swap2\n      swap1\n      tag_17\n      jump\t// in\n    tag_22:\n      tag_23\n      jump\t// in\n    tag_21:\n      stop\n        /* \"Pendu.sol\":3030:4087  function guessTheCorrectNumber(uint256 _gameId, uint256 _guessedNumber)... */\n    tag_6:\n      tag_24\n      0x04\n      dup1\n      calldatasize\n      sub\n      dup2\n      add\n      swap1\n      tag_25\n      swap2\n      swap1\n      tag_26\n      jump\t// in\n    tag_25:\n      tag_27\n      jump\t// in\n    tag_24:\n      mload(0x40)\n      tag_28\n      swap2\n      swap1\n      tag_29\n      jump\t// in\n    tag_28:\n      mload(0x40)\n      dup1\n      swap2\n      sub\n      swap1\n      return\n        /* \"Pendu.sol\":237:265  uint256 public gameCount = 0 */\n    tag_7:\n      tag_30\n      tag_31\n      jump\t// in\n    tag_30:\n      mload(0x40)\n      tag_32\n      swap2\n      swap1\n      tag_33\n      jump\t// in\n    tag_32:\n      mload(0x40)\n      dup1\n      swap2\n      sub\n      swap1\n      return\n        /* \"Pendu.sol\":1325:2083  function newGame(... */\n    tag_8:\n      tag_34\n      0x04\n      dup1\n      calldatasize\n      sub\n      dup2\n      add\n      swap1\n      tag_35\n      swap2\n      swap1\n      tag_36\n      jump\t// in\n    tag_35:\n      tag_37\n      jump\t// in\n    tag_34:\n      stop\n        /* \"Pendu.sol\":2089:2196  function setPlayerName(string memory _playerName) public {... */\n    tag_9:\n      tag_38\n      0x04\n      dup1\n      calldatasize\n      sub\n      dup2\n      add\n      swap1\n      tag_39\n      swap2\n      swap1\n      tag_40\n      jump\t// in\n    tag_39:\n      tag_41\n      jump\t// in\n    tag_38:\n      stop\n        /* \"Pendu.sol\":2594:3024  function updateGameIntervals(... */\n    tag_14:\n        /* \"Pendu.sol\":2735:2742  _gameId */\n      dup3\n        /* \"Pendu.sol\":818:824  isGame */\n      0x04\n        /* \"Pendu.sol\":818:833  isGame[_gameId] */\n      0x00\n        /* \"Pendu.sol\":825:832  _gameId */\n      dup3\n        /* \"Pendu.sol\":818:833  isGame[_gameId] */\n      dup2\n      mstore\n      0x20\n      add\n      swap1\n      dup2\n      mstore\n      0x20\n      add\n      0x00\n      keccak256\n      0x00\n      swap1\n      sload\n      swap1\n      0x0100\n      exp\n      swap1\n      div\n      0xff\n      and\n        /* \"Pendu.sol\":810:862  require(isGame[_gameId], \"The game doesn't exist !\") */\n      tag_43\n      jumpi\n      mload(0x40)\n      0x08c379a000000000000000000000000000000000000000000000000000000000\n      dup2\n      mstore\n      0x04\n      add\n      tag_44\n      swap1\n      tag_45\n      jump\t// in\n    tag_44:\n      mload(0x40)\n      dup1\n      swap2\n      sub\n      swap1\n      revert\n    tag_43:\n        /* \"Pendu.sol\":2757:2764  _gameId */\n      dup4\n        /* \"Pendu.sol\":983:993  msg.sender */\n      caller\n        /* \"Pendu.sol\":956:993  games[_gameId].launcher == msg.sender */\n      0xffffffffffffffffffffffffffffffffffffffff\n      and\n        /* \"Pendu.sol\":956:961  games */\n      0x02\n        /* \"Pendu.sol\":956:970  games[_gameId] */\n      0x00\n        /* \"Pendu.sol\":962:969  _gameId */\n      dup4\n        /* \"Pendu.sol\":956:970  games[_gameId] */\n      dup2\n      mstore\n      0x20\n      add\n      swap1\n      dup2\n      mstore\n      0x20\n      add\n      0x00\n      keccak256\n        /* \"Pendu.sol\":956:979  games[_gameId].launcher */\n      0x00\n      add\n      0x00\n      swap1\n      sload\n      swap1\n      0x0100\n      exp\n      swap1\n      div\n      0xffffffffffffffffffffffffffffffffffffffff\n      and\n        /* \"Pendu.sol\":956:993  games[_gameId].launcher == msg.sender */\n      0xffffffffffffffffffffffffffffffffffffffff\n      and\n      eq\n        /* \"Pendu.sol\":935:1055  require(... */\n      tag_47\n      jumpi\n      mload(0x40)\n      0x08c379a000000000000000000000000000000000000000000000000000000000\n      dup2\n      mstore\n      0x04\n      add\n      tag_48\n      swap1\n      tag_49\n      jump\t// in\n    tag_48:\n      mload(0x40)\n      dup1\n      swap2\n      sub\n      swap1\n      revert\n    tag_47:\n        /* \"Pendu.sol\":2804:2818  _newLowerLimit */\n      dup4\n        /* \"Pendu.sol\":2776:2781  games */\n      0x02\n        /* \"Pendu.sol\":2776:2790  games[_gameId] */\n      0x00\n        /* \"Pendu.sol\":2782:2789  _gameId */\n      dup8\n        /* \"Pendu.sol\":2776:2790  games[_gameId] */\n      dup2\n      mstore\n      0x20\n      add\n      swap1\n      dup2\n      mstore\n      0x20\n      add\n      0x00\n      keccak256\n        /* \"Pendu.sol\":2776:2801  games[_gameId].lowerLimit */\n      0x02\n      add\n        /* \"Pendu.sol\":2776:2818  games[_gameId].lowerLimit = _newLowerLimit */\n      dup2\n      swap1\n      sstore\n      pop\n        /* \"Pendu.sol\":2856:2870  _newUpperLimit */\n      dup3\n        /* \"Pendu.sol\":2828:2833  games */\n      0x02\n        /* \"Pendu.sol\":2828:2842  games[_gameId] */\n      0x00\n        /* \"Pendu.sol\":2834:2841  _gameId */\n      dup8\n        /* \"Pendu.sol\":2828:2842  games[_gameId] */\n      dup2\n      mstore\n      0x20\n      add\n      swap1\n      dup2\n      mstore\n      0x20\n      add\n      0x00\n      keccak256\n        /* \"Pendu.sol\":2828:2853  games[_gameId].upperLimit */\n      0x03\n      add\n        /* \"Pendu.sol\":2828:2870  games[_gameId].upperLimit = _newUpperLimit */\n      dup2\n      swap1\n      sstore\n      pop\n        /* \"Pendu.sol\":2910:3017  generateRandomNumber(... */\n      tag_51\n        /* \"Pendu.sol\":2944:2951  _gameId */\n      dup6\n        /* \"Pendu.sol\":2965:2979  _newLowerLimit */\n      dup6\n        /* \"Pendu.sol\":2993:3007  _newUpperLimit */\n      dup6\n        /* \"Pendu.sol\":2910:2930  generateRandomNumber */\n      tag_52\n        /* \"Pendu.sol\":2910:3017  generateRandomNumber(... */\n      jump\t// in\n    tag_51:\n        /* \"Pendu.sol\":2880:2885  games */\n      0x02\n        /* \"Pendu.sol\":2880:2894  games[_gameId] */\n      0x00\n        /* \"Pendu.sol\":2886:2893  _gameId */\n      dup8\n        /* \"Pendu.sol\":2880:2894  games[_gameId] */\n      dup2\n      mstore\n      0x20\n      add\n      swap1\n      dup2\n      mstore\n      0x20\n      add\n      0x00\n      keccak256\n        /* \"Pendu.sol\":2880:2907  games[_gameId].randomNumber */\n      0x04\n      add\n        /* \"Pendu.sol\":2880:3017  games[_gameId].randomNumber = generateRandomNumber(... */\n      dup2\n      swap1\n      sstore\n      pop\n        /* \"Pendu.sol\":872:873  _ */\n      pop\n        /* \"Pendu.sol\":2594:3024  function updateGameIntervals(... */\n      pop\n      pop\n      pop\n      pop\n      jump\t// out\n        /* \"Pendu.sol\":523:560  mapping(uint256 => Game) public games */\n    tag_18:\n      mstore(0x20, 0x02)\n      dup1\n      0x00\n      mstore\n      keccak256(0x00, 0x40)\n      0x00\n      swap2\n      pop\n      swap1\n      pop\n      dup1\n      0x00\n      add\n      0x00\n      swap1\n      sload\n      swap1\n      0x0100\n      exp\n      swap1\n      div\n      0xffffffffffffffffffffffffffffffffffffffff\n      and\n      swap1\n      dup1\n      0x01\n      add\n      0x00\n      swap1\n      sload\n      swap1\n      0x0100\n      exp\n      swap1\n      div\n      0xffffffffffffffffffffffffffffffffffffffff\n      and\n      swap1\n      dup1\n      0x02\n      add\n      sload\n      swap1\n      dup1\n      0x03\n      add\n      sload\n      swap1\n      dup1\n      0x04\n      add\n      sload\n      swap1\n      dup1\n      0x05\n      add\n      0x00\n      swap1\n      sload\n      swap1\n      0x0100\n      exp\n      swap1\n      div\n      0xff\n      and\n      swap1\n      dup1\n      0x05\n      add\n      0x01\n      swap1\n      sload\n      swap1\n      0x0100\n      exp\n      swap1\n      div\n      0xff\n      and\n      swap1\n      pop\n      dup8\n      jump\t// out\n        /* \"Pendu.sol\":4093:4358  function anotherGame(uint256 _gameId)... */\n    tag_23:\n        /* \"Pendu.sol\":4164:4171  _gameId */\n      dup1\n        /* \"Pendu.sol\":818:824  isGame */\n      0x04\n        /* \"Pendu.sol\":818:833  isGame[_gameId] */\n      0x00\n        /* \"Pendu.sol\":825:832  _gameId */\n      dup3\n        /* \"Pendu.sol\":818:833  isGame[_gameId] */\n      dup2\n      mstore\n      0x20\n      add\n      swap1\n      dup2\n      mstore\n      0x20\n      add\n      0x00\n      keccak256\n      0x00\n      swap1\n      sload\n      swap1\n      0x0100\n      exp\n      swap1\n      div\n      0xff\n      and\n        /* \"Pendu.sol\":810:862  require(isGame[_gameId], \"The game doesn't exist !\") */\n      tag_54\n      jumpi\n      mload(0x40)\n      0x08c379a000000000000000000000000000000000000000000000000000000000\n      dup2\n      mstore\n      0x04\n      add\n      tag_55\n      swap1\n      tag_45\n      jump\t// in\n    tag_55:\n      mload(0x40)\n      dup1\n      swap2\n      sub\n      swap1\n      revert\n    tag_54:\n        /* \"Pendu.sol\":4194:4201  _gameId */\n      dup2\n        /* \"Pendu.sol\":983:993  msg.sender */\n      caller\n        /* \"Pendu.sol\":956:993  games[_gameId].launcher == msg.sender */\n      0xffffffffffffffffffffffffffffffffffffffff\n      and\n        /* \"Pendu.sol\":956:961  games */\n      0x02\n        /* \"Pendu.sol\":956:970  games[_gameId] */\n      0x00\n        /* \"Pendu.sol\":962:969  _gameId */\n      dup4\n        /* \"Pendu.sol\":956:970  games[_gameId] */\n      dup2\n      mstore\n      0x20\n      add\n      swap1\n      dup2\n      mstore\n      0x20\n      add\n      0x00\n      keccak256\n        /* \"Pendu.sol\":956:979  games[_gameId].launcher */\n      0x00\n      add\n      0x00\n      swap1\n      sload\n      swap1\n      0x0100\n      exp\n      swap1\n      div\n      0xffffffffffffffffffffffffffffffffffffffff\n      and\n        /* \"Pendu.sol\":956:993  games[_gameId].launcher == msg.sender */\n      0xffffffffffffffffffffffffffffffffffffffff\n      and\n      eq\n        /* \"Pendu.sol\":935:1055  require(... */\n      tag_57\n      jumpi\n      mload(0x40)\n      0x08c379a000000000000000000000000000000000000000000000000000000000\n      dup2\n      mstore\n      0x04\n      add\n      tag_58\n      swap1\n      tag_49\n      jump\t// in\n    tag_58:\n      mload(0x40)\n      dup1\n      swap2\n      sub\n      swap1\n      revert\n    tag_57:\n        /* \"Pendu.sol\":4217:4351  newGame(... */\n      tag_60\n        /* \"Pendu.sol\":4238:4243  games */\n      0x02\n        /* \"Pendu.sol\":4238:4252  games[_gameId] */\n      0x00\n        /* \"Pendu.sol\":4244:4251  _gameId */\n      dup6\n        /* \"Pendu.sol\":4238:4252  games[_gameId] */\n      dup2\n      mstore\n      0x20\n      add\n      swap1\n      dup2\n      mstore\n      0x20\n      add\n      0x00\n      keccak256\n        /* \"Pendu.sol\":4238:4263  games[_gameId].challenger */\n      0x01\n      add\n      0x00\n      swap1\n      sload\n      swap1\n      0x0100\n      exp\n      swap1\n      div\n      0xffffffffffffffffffffffffffffffffffffffff\n      and\n        /* \"Pendu.sol\":4277:4282  games */\n      0x02\n        /* \"Pendu.sol\":4277:4291  games[_gameId] */\n      0x00\n        /* \"Pendu.sol\":4283:4290  _gameId */\n      dup7\n        /* \"Pendu.sol\":4277:4291  games[_gameId] */\n      dup2\n      mstore\n      0x20\n      add\n      swap1\n      dup2\n      mstore\n      0x20\n      add\n      0x00\n      keccak256\n        /* \"Pendu.sol\":4277:4302  games[_gameId].lowerLimit */\n      0x02\n      add\n      sload\n        /* \"Pendu.sol\":4316:4321  games */\n      0x02\n        /* \"Pendu.sol\":4316:4330  games[_gameId] */\n      0x00\n        /* \"Pendu.sol\":4322:4329  _gameId */\n      dup8\n        /* \"Pendu.sol\":4316:4330  games[_gameId] */\n      dup2\n      mstore\n      0x20\n      add\n      swap1\n      dup2\n      mstore\n      0x20\n      add\n      0x00\n      keccak256\n        /* \"Pendu.sol\":4316:4341  games[_gameId].upperLimit */\n      0x03\n      add\n      sload\n        /* \"Pendu.sol\":4217:4224  newGame */\n      tag_37\n        /* \"Pendu.sol\":4217:4351  newGame(... */\n      jump\t// in\n    tag_60:\n        /* \"Pendu.sol\":872:873  _ */\n      pop\n        /* \"Pendu.sol\":4093:4358  function anotherGame(uint256 _gameId)... */\n      pop\n      pop\n      jump\t// out\n        /* \"Pendu.sol\":3030:4087  function guessTheCorrectNumber(uint256 _gameId, uint256 _guessedNumber)... */\n    tag_27:\n        /* \"Pendu.sol\":3189:3202  string memory */\n      0x60\n        /* \"Pendu.sol\":3135:3142  _gameId */\n      dup3\n        /* \"Pendu.sol\":818:824  isGame */\n      0x04\n        /* \"Pendu.sol\":818:833  isGame[_gameId] */\n      0x00\n        /* \"Pendu.sol\":825:832  _gameId */\n      dup3\n        /* \"Pendu.sol\":818:833  isGame[_gameId] */\n      dup2\n      mstore\n      0x20\n      add\n      swap1\n      dup2\n      mstore\n      0x20\n      add\n      0x00\n      keccak256\n      0x00\n      swap1\n      sload\n      swap1\n      0x0100\n      exp\n      swap1\n      div\n      0xff\n      and\n        /* \"Pendu.sol\":810:862  require(isGame[_gameId], \"The game doesn't exist !\") */\n      tag_62\n      jumpi\n      mload(0x40)\n      0x08c379a000000000000000000000000000000000000000000000000000000000\n      dup2\n      mstore\n      0x04\n      add\n      tag_63\n      swap1\n      tag_45\n      jump\t// in\n    tag_63:\n      mload(0x40)\n      dup1\n      swap2\n      sub\n      swap1\n      revert\n    tag_62:\n        /* \"Pendu.sol\":3163:3170  _gameId */\n      dup4\n        /* \"Pendu.sol\":1161:1166  games */\n      0x02\n        /* \"Pendu.sol\":1161:1175  games[_gameId] */\n      0x00\n        /* \"Pendu.sol\":1167:1174  _gameId */\n      dup3\n        /* \"Pendu.sol\":1161:1175  games[_gameId] */\n      dup2\n      mstore\n      0x20\n      add\n      swap1\n      dup2\n      mstore\n      0x20\n      add\n      0x00\n      keccak256\n        /* \"Pendu.sol\":1161:1184  games[_gameId].launcher */\n      0x00\n      add\n      0x00\n      swap1\n      sload\n      swap1\n      0x0100\n      exp\n      swap1\n      div\n      0xffffffffffffffffffffffffffffffffffffffff\n      and\n        /* \"Pendu.sol\":1147:1184  msg.sender == games[_gameId].launcher */\n      0xffffffffffffffffffffffffffffffffffffffff\n      and\n        /* \"Pendu.sol\":1147:1157  msg.sender */\n      caller\n        /* \"Pendu.sol\":1147:1184  msg.sender == games[_gameId].launcher */\n      0xffffffffffffffffffffffffffffffffffffffff\n      and\n      eq\n        /* \"Pendu.sol\":1147:1243  msg.sender == games[_gameId].launcher ||... */\n      dup1\n      tag_65\n      jumpi\n      pop\n        /* \"Pendu.sol\":1218:1223  games */\n      0x02\n        /* \"Pendu.sol\":1218:1232  games[_gameId] */\n      0x00\n        /* \"Pendu.sol\":1224:1231  _gameId */\n      dup3\n        /* \"Pendu.sol\":1218:1232  games[_gameId] */\n      dup2\n      mstore\n      0x20\n      add\n      swap1\n      dup2\n      mstore\n      0x20\n      add\n      0x00\n      keccak256\n        /* \"Pendu.sol\":1218:1243  games[_gameId].challenger */\n      0x01\n      add\n      0x00\n      swap1\n      sload\n      swap1\n      0x0100\n      exp\n      swap1\n      div\n      0xffffffffffffffffffffffffffffffffffffffff\n      and\n        /* \"Pendu.sol\":1204:1243  msg.sender == games[_gameId].challenger */\n      0xffffffffffffffffffffffffffffffffffffffff\n      and\n        /* \"Pendu.sol\":1204:1214  msg.sender */\n      caller\n        /* \"Pendu.sol\":1204:1243  msg.sender == games[_gameId].challenger */\n      0xffffffffffffffffffffffffffffffffffffffff\n      and\n      eq\n        /* \"Pendu.sol\":1147:1243  msg.sender == games[_gameId].launcher ||... */\n    tag_65:\n        /* \"Pendu.sol\":1126:1301  require(... */\n      tag_66\n      jumpi\n      mload(0x40)\n      0x08c379a000000000000000000000000000000000000000000000000000000000\n      dup2\n      mstore\n      0x04\n      add\n      tag_67\n      swap1\n      tag_68\n      jump\t// in\n    tag_67:\n      mload(0x40)\n      dup1\n      swap2\n      sub\n      swap1\n      revert\n    tag_66:\n        /* \"Pendu.sol\":3251:3265  Status.ONGOING */\n      0x00\n        /* \"Pendu.sol\":3226:3265  games[_gameId].status == Status.ONGOING */\n      0x01\n      dup2\n      gt\n      iszero\n      tag_70\n      jumpi\n      tag_71\n      tag_72\n      jump\t// in\n    tag_71:\n    tag_70:\n        /* \"Pendu.sol\":3226:3231  games */\n      0x02\n        /* \"Pendu.sol\":3226:3240  games[_gameId] */\n      0x00\n        /* \"Pendu.sol\":3232:3239  _gameId */\n      dup8\n        /* \"Pendu.sol\":3226:3240  games[_gameId] */\n      dup2\n      mstore\n      0x20\n      add\n      swap1\n      dup2\n      mstore\n      0x20\n      add\n      0x00\n      keccak256\n        /* \"Pendu.sol\":3226:3247  games[_gameId].status */\n      0x05\n      add\n      0x00\n      swap1\n      sload\n      swap1\n      0x0100\n      exp\n      swap1\n      div\n      0xff\n      and\n        /* \"Pendu.sol\":3226:3265  games[_gameId].status == Status.ONGOING */\n      0x01\n      dup2\n      gt\n      iszero\n      tag_73\n      jumpi\n      tag_74\n      tag_72\n      jump\t// in\n    tag_74:\n    tag_73:\n      eq\n        /* \"Pendu.sol\":3218:3288  require(games[_gameId].status == Status.ONGOING, \"The game has ended\") */\n      tag_75\n      jumpi\n      mload(0x40)\n      0x08c379a000000000000000000000000000000000000000000000000000000000\n      dup2\n      mstore\n      0x04\n      add\n      tag_76\n      swap1\n      tag_77\n      jump\t// in\n    tag_76:\n      mload(0x40)\n      dup1\n      swap2\n      sub\n      swap1\n      revert\n    tag_75:\n        /* \"Pendu.sol\":3337:3342  games */\n      0x02\n        /* \"Pendu.sol\":3337:3351  games[_gameId] */\n      0x00\n        /* \"Pendu.sol\":3343:3350  _gameId */\n      dup7\n        /* \"Pendu.sol\":3337:3351  games[_gameId] */\n      dup2\n      mstore\n      0x20\n      add\n      swap1\n      dup2\n      mstore\n      0x20\n      add\n      0x00\n      keccak256\n        /* \"Pendu.sol\":3337:3362  games[_gameId].lowerLimit */\n      0x02\n      add\n      sload\n        /* \"Pendu.sol\":3319:3333  _guessedNumber */\n      dup5\n        /* \"Pendu.sol\":3319:3362  _guessedNumber >= games[_gameId].lowerLimit */\n      lt\n      iszero\n        /* \"Pendu.sol\":3319:3425  _guessedNumber >= games[_gameId].lowerLimit &&... */\n      dup1\n      iszero\n      tag_78\n      jumpi\n      pop\n        /* \"Pendu.sol\":3400:3405  games */\n      0x02\n        /* \"Pendu.sol\":3400:3414  games[_gameId] */\n      0x00\n        /* \"Pendu.sol\":3406:3413  _gameId */\n      dup7\n        /* \"Pendu.sol\":3400:3414  games[_gameId] */\n      dup2\n      mstore\n      0x20\n      add\n      swap1\n      dup2\n      mstore\n      0x20\n      add\n      0x00\n      keccak256\n        /* \"Pendu.sol\":3400:3425  games[_gameId].upperLimit */\n      0x03\n      add\n      sload\n        /* \"Pendu.sol\":3382:3396  _guessedNumber */\n      dup5\n        /* \"Pendu.sol\":3382:3425  _guessedNumber <= games[_gameId].upperLimit */\n      gt\n      iszero\n        /* \"Pendu.sol\":3319:3425  _guessedNumber >= games[_gameId].lowerLimit &&... */\n    tag_78:\n        /* \"Pendu.sol\":3298:3478  require(... */\n      tag_79\n      jumpi\n      mload(0x40)\n      0x08c379a000000000000000000000000000000000000000000000000000000000\n      dup2\n      mstore\n      0x04\n      add\n      tag_80\n      swap1\n      tag_81\n      jump\t// in\n    tag_80:\n      mload(0x40)\n      dup1\n      swap2\n      sub\n      swap1\n      revert\n    tag_79:\n        /* \"Pendu.sol\":3510:3515  games */\n      0x02\n        /* \"Pendu.sol\":3510:3524  games[_gameId] */\n      0x00\n        /* \"Pendu.sol\":3516:3523  _gameId */\n      dup7\n        /* \"Pendu.sol\":3510:3524  games[_gameId] */\n      dup2\n      mstore\n      0x20\n      add\n      swap1\n      dup2\n      mstore\n      0x20\n      add\n      0x00\n      keccak256\n        /* \"Pendu.sol\":3510:3537  games[_gameId].randomNumber */\n      0x04\n      add\n      sload\n        /* \"Pendu.sol\":3493:3507  _guessedNumber */\n      dup5\n        /* \"Pendu.sol\":3493:3537  _guessedNumber > games[_gameId].randomNumber */\n      gt\n        /* \"Pendu.sol\":3489:4081  if (_guessedNumber > games[_gameId].randomNumber)... */\n      iszero\n      tag_82\n      jumpi\n        /* \"Pendu.sol\":3551:3584  return \"Your number is too great\" */\n      mload(0x40)\n      dup1\n      0x40\n      add\n      0x40\n      mstore\n      dup1\n      0x18\n      dup2\n      mstore\n      0x20\n      add\n      0x596f7572206e756d62657220697320746f6f2067726561740000000000000000\n      dup2\n      mstore\n      pop\n      swap3\n      pop\n      jump(tag_69)\n        /* \"Pendu.sol\":3489:4081  if (_guessedNumber > games[_gameId].randomNumber)... */\n    tag_82:\n        /* \"Pendu.sol\":3620:3625  games */\n      0x02\n        /* \"Pendu.sol\":3620:3634  games[_gameId] */\n      0x00\n        /* \"Pendu.sol\":3626:3633  _gameId */\n      dup7\n        /* \"Pendu.sol\":3620:3634  games[_gameId] */\n      dup2\n      mstore\n      0x20\n      add\n      swap1\n      dup2\n      mstore\n      0x20\n      add\n      0x00\n      keccak256\n        /* \"Pendu.sol\":3620:3647  games[_gameId].randomNumber */\n      0x04\n      add\n      sload\n        /* \"Pendu.sol\":3603:3617  _guessedNumber */\n      dup5\n        /* \"Pendu.sol\":3603:3647  _guessedNumber < games[_gameId].randomNumber */\n      lt\n        /* \"Pendu.sol\":3599:4081  if (_guessedNumber < games[_gameId].randomNumber)... */\n      iszero\n      tag_84\n      jumpi\n        /* \"Pendu.sol\":3661:3694  return \"Your number is too small\" */\n      mload(0x40)\n      dup1\n      0x40\n      add\n      0x40\n      mstore\n      dup1\n      0x18\n      dup2\n      mstore\n      0x20\n      add\n      0x596f7572206e756d62657220697320746f6f20736d616c6c0000000000000000\n      dup2\n      mstore\n      pop\n      swap3\n      pop\n      jump(tag_69)\n        /* \"Pendu.sol\":3599:4081  if (_guessedNumber < games[_gameId].randomNumber)... */\n    tag_84:\n        /* \"Pendu.sol\":3747:3762  Status.FINISHED */\n      0x01\n        /* \"Pendu.sol\":3723:3728  games */\n      0x02\n        /* \"Pendu.sol\":3723:3737  games[_gameId] */\n      0x00\n        /* \"Pendu.sol\":3729:3736  _gameId */\n      dup8\n        /* \"Pendu.sol\":3723:3737  games[_gameId] */\n      dup2\n      mstore\n      0x20\n      add\n      swap1\n      dup2\n      mstore\n      0x20\n      add\n      0x00\n      keccak256\n        /* \"Pendu.sol\":3723:3744  games[_gameId].status */\n      0x05\n      add\n      0x00\n        /* \"Pendu.sol\":3723:3762  games[_gameId].status = Status.FINISHED */\n      0x0100\n      exp\n      dup2\n      sload\n      dup2\n      0xff\n      mul\n      not\n      and\n      swap1\n      dup4\n      0x01\n      dup2\n      gt\n      iszero\n      tag_86\n      jumpi\n      tag_87\n      tag_72\n      jump\t// in\n    tag_87:\n    tag_86:\n      mul\n      or\n      swap1\n      sstore\n      pop\n        /* \"Pendu.sol\":3795:3800  games */\n      0x02\n        /* \"Pendu.sol\":3795:3809  games[_gameId] */\n      0x00\n        /* \"Pendu.sol\":3801:3808  _gameId */\n      dup7\n        /* \"Pendu.sol\":3795:3809  games[_gameId] */\n      dup2\n      mstore\n      0x20\n      add\n      swap1\n      dup2\n      mstore\n      0x20\n      add\n      0x00\n      keccak256\n        /* \"Pendu.sol\":3795:3818  games[_gameId].launcher */\n      0x00\n      add\n      0x00\n      swap1\n      sload\n      swap1\n      0x0100\n      exp\n      swap1\n      div\n      0xffffffffffffffffffffffffffffffffffffffff\n      and\n        /* \"Pendu.sol\":3781:3818  msg.sender == games[_gameId].launcher */\n      0xffffffffffffffffffffffffffffffffffffffff\n      and\n        /* \"Pendu.sol\":3781:3791  msg.sender */\n      caller\n        /* \"Pendu.sol\":3781:3818  msg.sender == games[_gameId].launcher */\n      0xffffffffffffffffffffffffffffffffffffffff\n      and\n      sub\n        /* \"Pendu.sol\":3777:3996  if (msg.sender == games[_gameId].launcher)... */\n      tag_88\n      jumpi\n        /* \"Pendu.sol\":3860:3875  Winner.LAUNCHER */\n      0x00\n        /* \"Pendu.sol\":3836:3841  games */\n      0x02\n        /* \"Pendu.sol\":3836:3850  games[_gameId] */\n      0x00\n        /* \"Pendu.sol\":3842:3849  _gameId */\n      dup8\n        /* \"Pendu.sol\":3836:3850  games[_gameId] */\n      dup2\n      mstore\n      0x20\n      add\n      swap1\n      dup2\n      mstore\n      0x20\n      add\n      0x00\n      keccak256\n        /* \"Pendu.sol\":3836:3857  games[_gameId].winner */\n      0x05\n      add\n      0x01\n        /* \"Pendu.sol\":3836:3875  games[_gameId].winner = Winner.LAUNCHER */\n      0x0100\n      exp\n      dup2\n      sload\n      dup2\n      0xff\n      mul\n      not\n      and\n      swap1\n      dup4\n      0x01\n      dup2\n      gt\n      iszero\n      tag_89\n      jumpi\n      tag_90\n      tag_72\n      jump\t// in\n    tag_90:\n    tag_89:\n      mul\n      or\n      swap1\n      sstore\n      pop\n        /* \"Pendu.sol\":3777:3996  if (msg.sender == games[_gameId].launcher)... */\n      jump(tag_91)\n    tag_88:\n        /* \"Pendu.sol\":3912:3917  games */\n      0x02\n        /* \"Pendu.sol\":3912:3926  games[_gameId] */\n      0x00\n        /* \"Pendu.sol\":3918:3925  _gameId */\n      dup7\n        /* \"Pendu.sol\":3912:3926  games[_gameId] */\n      dup2\n      mstore\n      0x20\n      add\n      swap1\n      dup2\n      mstore\n      0x20\n      add\n      0x00\n      keccak256\n        /* \"Pendu.sol\":3912:3937  games[_gameId].challenger */\n      0x01\n      add\n      0x00\n      swap1\n      sload\n      swap1\n      0x0100\n      exp\n      swap1\n      div\n      0xffffffffffffffffffffffffffffffffffffffff\n      and\n        /* \"Pendu.sol\":3898:3937  msg.sender == games[_gameId].challenger */\n      0xffffffffffffffffffffffffffffffffffffffff\n      and\n        /* \"Pendu.sol\":3898:3908  msg.sender */\n      caller\n        /* \"Pendu.sol\":3898:3937  msg.sender == games[_gameId].challenger */\n      0xffffffffffffffffffffffffffffffffffffffff\n      and\n      sub\n        /* \"Pendu.sol\":3894:3996  if (msg.sender == games[_gameId].challenger)... */\n      tag_92\n      jumpi\n        /* \"Pendu.sol\":3979:3996  Winner.CHALLENGER */\n      0x01\n        /* \"Pendu.sol\":3955:3960  games */\n      0x02\n        /* \"Pendu.sol\":3955:3969  games[_gameId] */\n      0x00\n        /* \"Pendu.sol\":3961:3968  _gameId */\n      dup8\n        /* \"Pendu.sol\":3955:3969  games[_gameId] */\n      dup2\n      mstore\n      0x20\n      add\n      swap1\n      dup2\n      mstore\n      0x20\n      add\n      0x00\n      keccak256\n        /* \"Pendu.sol\":3955:3976  games[_gameId].winner */\n      0x05\n      add\n      0x01\n        /* \"Pendu.sol\":3955:3996  games[_gameId].winner = Winner.CHALLENGER */\n      0x0100\n      exp\n      dup2\n      sload\n      dup2\n      0xff\n      mul\n      not\n      and\n      swap1\n      dup4\n      0x01\n      dup2\n      gt\n      iszero\n      tag_93\n      jumpi\n      tag_94\n      tag_72\n      jump\t// in\n    tag_94:\n    tag_93:\n      mul\n      or\n      swap1\n      sstore\n      pop\n        /* \"Pendu.sol\":3894:3996  if (msg.sender == games[_gameId].challenger)... */\n    tag_92:\n        /* \"Pendu.sol\":3777:3996  if (msg.sender == games[_gameId].launcher)... */\n    tag_91:\n        /* \"Pendu.sol\":4050:4057  players */\n      0x01\n        /* \"Pendu.sol\":4050:4069  players[msg.sender] */\n      0x00\n        /* \"Pendu.sol\":4058:4068  msg.sender */\n      caller\n        /* \"Pendu.sol\":4050:4069  players[msg.sender] */\n      0xffffffffffffffffffffffffffffffffffffffff\n      and\n      0xffffffffffffffffffffffffffffffffffffffff\n      and\n      dup2\n      mstore\n      0x20\n      add\n      swap1\n      dup2\n      mstore\n      0x20\n      add\n      0x00\n      keccak256\n        /* \"Pendu.sol\":4018:4070  string.concat(\"The winner is \", players[msg.sender]) */\n      add(0x20, mload(0x40))\n      tag_95\n      swap2\n      swap1\n      tag_96\n      jump\t// in\n    tag_95:\n      mload(0x40)\n      0x20\n      dup2\n      dup4\n      sub\n      sub\n      dup2\n      mstore\n      swap1\n      0x40\n      mstore\n        /* \"Pendu.sol\":4011:4070  return string.concat(\"The winner is \", players[msg.sender]) */\n      swap3\n      pop\n        /* \"Pendu.sol\":1311:1312  _ */\n    tag_69:\n        /* \"Pendu.sol\":872:873  _ */\n      pop\n        /* \"Pendu.sol\":3030:4087  function guessTheCorrectNumber(uint256 _gameId, uint256 _guessedNumber)... */\n      pop\n      swap3\n      swap2\n      pop\n      pop\n      jump\t// out\n        /* \"Pendu.sol\":237:265  uint256 public gameCount = 0 */\n    tag_31:\n      sload(0x00)\n      dup2\n      jump\t// out\n        /* \"Pendu.sol\":1325:2083  function newGame(... */\n    tag_37:\n        /* \"Pendu.sol\":1475:1487  _player2Addr */\n      dup3\n        /* \"Pendu.sol\":1461:1487  msg.sender != _player2Addr */\n      0xffffffffffffffffffffffffffffffffffffffff\n      and\n        /* \"Pendu.sol\":1461:1471  msg.sender */\n      caller\n        /* \"Pendu.sol\":1461:1487  msg.sender != _player2Addr */\n      0xffffffffffffffffffffffffffffffffffffffff\n      and\n      sub\n        /* \"Pendu.sol\":1453:1523  require(msg.sender != _player2Addr, \"You can't play against yourself\") */\n      tag_98\n      jumpi\n      mload(0x40)\n      0x08c379a000000000000000000000000000000000000000000000000000000000\n      dup2\n      mstore\n      0x04\n      add\n      tag_99\n      swap1\n      tag_100\n      jump\t// in\n    tag_99:\n      mload(0x40)\n      dup1\n      swap2\n      sub\n      swap1\n      revert\n    tag_98:\n        /* \"Pendu.sol\":1568:1579  _upperLimit */\n      dup1\n        /* \"Pendu.sol\":1554:1565  _lowerLimit */\n      dup3\n        /* \"Pendu.sol\":1554:1579  _lowerLimit < _upperLimit */\n      lt\n        /* \"Pendu.sol\":1533:1650  require(... */\n      tag_101\n      jumpi\n      mload(0x40)\n      0x08c379a000000000000000000000000000000000000000000000000000000000\n      dup2\n      mstore\n      0x04\n      add\n      tag_102\n      swap1\n      tag_103\n      jump\t// in\n    tag_102:\n      mload(0x40)\n      dup1\n      swap2\n      sub\n      swap1\n      revert\n    tag_101:\n        /* \"Pendu.sol\":1660:1669  gameCount */\n      0x00\n      dup1\n        /* \"Pendu.sol\":1660:1671  gameCount++ */\n      dup2\n      sload\n      dup1\n      swap3\n      swap2\n      swap1\n      tag_104\n      swap1\n      tag_105\n      jump\t// in\n    tag_104:\n      swap2\n      swap1\n      pop\n      sstore\n      pop\n        /* \"Pendu.sol\":1701:1705  true */\n      0x01\n        /* \"Pendu.sol\":1681:1687  isGame */\n      0x04\n        /* \"Pendu.sol\":1681:1698  isGame[gameCount] */\n      0x00\n        /* \"Pendu.sol\":1688:1697  gameCount */\n      dup1\n      sload\n        /* \"Pendu.sol\":1681:1698  isGame[gameCount] */\n      dup2\n      mstore\n      0x20\n      add\n      swap1\n      dup2\n      mstore\n      0x20\n      add\n      0x00\n      keccak256\n      0x00\n        /* \"Pendu.sol\":1681:1705  isGame[gameCount] = true */\n      0x0100\n      exp\n      dup2\n      sload\n      dup2\n      0xff\n      mul\n      not\n      and\n      swap1\n      dup4\n      iszero\n      iszero\n      mul\n      or\n      swap1\n      sstore\n      pop\n        /* \"Pendu.sol\":1715:1732  Game storage game */\n      0x00\n        /* \"Pendu.sol\":1735:1740  games */\n      0x02\n        /* \"Pendu.sol\":1735:1751  games[gameCount] */\n      0x00\n        /* \"Pendu.sol\":1741:1750  gameCount */\n      dup1\n      sload\n        /* \"Pendu.sol\":1735:1751  games[gameCount] */\n      dup2\n      mstore\n      0x20\n      add\n      swap1\n      dup2\n      mstore\n      0x20\n      add\n      0x00\n      keccak256\n        /* \"Pendu.sol\":1715:1751  Game storage game = games[gameCount] */\n      swap1\n      pop\n        /* \"Pendu.sol\":1777:1787  msg.sender */\n      caller\n        /* \"Pendu.sol\":1761:1765  game */\n      dup2\n        /* \"Pendu.sol\":1761:1774  game.launcher */\n      0x00\n      add\n      0x00\n        /* \"Pendu.sol\":1761:1787  game.launcher = msg.sender */\n      0x0100\n      exp\n      dup2\n      sload\n      dup2\n      0xffffffffffffffffffffffffffffffffffffffff\n      mul\n      not\n      and\n      swap1\n      dup4\n      0xffffffffffffffffffffffffffffffffffffffff\n      and\n      mul\n      or\n      swap1\n      sstore\n      pop\n        /* \"Pendu.sol\":1815:1827  _player2Addr */\n      dup4\n        /* \"Pendu.sol\":1797:1801  game */\n      dup2\n        /* \"Pendu.sol\":1797:1812  game.challenger */\n      0x01\n      add\n      0x00\n        /* \"Pendu.sol\":1797:1827  game.challenger = _player2Addr */\n      0x0100\n      exp\n      dup2\n      sload\n      dup2\n      0xffffffffffffffffffffffffffffffffffffffff\n      mul\n      not\n      and\n      swap1\n      dup4\n      0xffffffffffffffffffffffffffffffffffffffff\n      and\n      mul\n      or\n      swap1\n      sstore\n      pop\n        /* \"Pendu.sol\":1855:1866  _lowerLimit */\n      dup3\n        /* \"Pendu.sol\":1837:1841  game */\n      dup2\n        /* \"Pendu.sol\":1837:1852  game.lowerLimit */\n      0x02\n      add\n        /* \"Pendu.sol\":1837:1866  game.lowerLimit = _lowerLimit */\n      dup2\n      swap1\n      sstore\n      pop\n        /* \"Pendu.sol\":1894:1905  _upperLimit */\n      dup2\n        /* \"Pendu.sol\":1876:1880  game */\n      dup2\n        /* \"Pendu.sol\":1876:1891  game.upperLimit */\n      0x03\n      add\n        /* \"Pendu.sol\":1876:1905  game.upperLimit = _upperLimit */\n      dup2\n      swap1\n      sstore\n      pop\n        /* \"Pendu.sol\":1929:1943  Status.ONGOING */\n      0x00\n        /* \"Pendu.sol\":1915:1919  game */\n      dup2\n        /* \"Pendu.sol\":1915:1926  game.status */\n      0x05\n      add\n      0x00\n        /* \"Pendu.sol\":1915:1943  game.status = Status.ONGOING */\n      0x0100\n      exp\n      dup2\n      sload\n      dup2\n      0xff\n      mul\n      not\n      and\n      swap1\n      dup4\n      0x01\n      dup2\n      gt\n      iszero\n      tag_106\n      jumpi\n      tag_107\n      tag_72\n      jump\t// in\n    tag_107:\n    tag_106:\n      mul\n      or\n      swap1\n      sstore\n      pop\n        /* \"Pendu.sol\":1973:2076  generateRandomNumber(... */\n      tag_108\n        /* \"Pendu.sol\":2007:2016  gameCount */\n      sload(0x00)\n        /* \"Pendu.sol\":2030:2041  _lowerLimit */\n      dup5\n        /* \"Pendu.sol\":2055:2066  _upperLimit */\n      dup5\n        /* \"Pendu.sol\":1973:1993  generateRandomNumber */\n      tag_52\n        /* \"Pendu.sol\":1973:2076  generateRandomNumber(... */\n      jump\t// in\n    tag_108:\n        /* \"Pendu.sol\":1953:1957  game */\n      dup2\n        /* \"Pendu.sol\":1953:1970  game.randomNumber */\n      0x04\n      add\n        /* \"Pendu.sol\":1953:2076  game.randomNumber = generateRandomNumber(... */\n      dup2\n      swap1\n      sstore\n      pop\n        /* \"Pendu.sol\":1443:2083  {... */\n      pop\n        /* \"Pendu.sol\":1325:2083  function newGame(... */\n      pop\n      pop\n      pop\n      jump\t// out\n        /* \"Pendu.sol\":2089:2196  function setPlayerName(string memory _playerName) public {... */\n    tag_41:\n        /* \"Pendu.sol\":2178:2189  _playerName */\n      dup1\n        /* \"Pendu.sol\":2156:2163  players */\n      0x01\n        /* \"Pendu.sol\":2156:2175  players[msg.sender] */\n      0x00\n        /* \"Pendu.sol\":2164:2174  msg.sender */\n      caller\n        /* \"Pendu.sol\":2156:2175  players[msg.sender] */\n      0xffffffffffffffffffffffffffffffffffffffff\n      and\n      0xffffffffffffffffffffffffffffffffffffffff\n      and\n      dup2\n      mstore\n      0x20\n      add\n      swap1\n      dup2\n      mstore\n      0x20\n      add\n      0x00\n      keccak256\n        /* \"Pendu.sol\":2156:2189  players[msg.sender] = _playerName */\n      swap1\n      dup2\n      tag_110\n      swap2\n      swap1\n      tag_111\n      jump\t// in\n    tag_110:\n      pop\n        /* \"Pendu.sol\":2089:2196  function setPlayerName(string memory _playerName) public {... */\n      pop\n      jump\t// out\n        /* \"Pendu.sol\":2202:2588  function generateRandomNumber(... */\n    tag_52:\n        /* \"Pendu.sol\":2363:2370  uint256 */\n      0x00\n        /* \"Pendu.sol\":2331:2338  _gameId */\n      dup4\n        /* \"Pendu.sol\":818:824  isGame */\n      0x04\n        /* \"Pendu.sol\":818:833  isGame[_gameId] */\n      0x00\n        /* \"Pendu.sol\":825:832  _gameId */\n      dup3\n        /* \"Pendu.sol\":818:833  isGame[_gameId] */\n      dup2\n      mstore\n      0x20\n      add\n      swap1\n      dup2\n      mstore\n      0x20\n      add\n      0x00\n      keccak256\n      0x00\n      swap1\n      sload\n      swap1\n      0x0100\n      exp\n      swap1\n      div\n      0xff\n      and\n        /* \"Pendu.sol\":810:862  require(isGame[_gameId], \"The game doesn't exist !\") */\n      tag_113\n      jumpi\n      mload(0x40)\n      0x08c379a000000000000000000000000000000000000000000000000000000000\n      dup2\n      mstore\n      0x04\n      add\n      tag_114\n      swap1\n      tag_45\n      jump\t// in\n    tag_114:\n      mload(0x40)\n      dup1\n      swap2\n      sub\n      swap1\n      revert\n    tag_113:\n        /* \"Pendu.sol\":2382:2402  uint256 randomNumber */\n      0x00\n        /* \"Pendu.sol\":2540:2551  _lowerLimit */\n      dup5\n        /* \"Pendu.sol\":2534:2535  1 */\n      0x01\n        /* \"Pendu.sol\":2520:2531  _lowerLimit */\n      dup7\n        /* \"Pendu.sol\":2506:2517  _upperLimit */\n      dup7\n        /* \"Pendu.sol\":2506:2531  _upperLimit - _lowerLimit */\n      tag_116\n      swap2\n      swap1\n      tag_117\n      jump\t// in\n    tag_116:\n        /* \"Pendu.sol\":2506:2535  _upperLimit - _lowerLimit + 1 */\n      tag_118\n      swap2\n      swap1\n      tag_119\n      jump\t// in\n    tag_118:\n        /* \"Pendu.sol\":2454:2469  block.timestamp */\n      timestamp\n        /* \"Pendu.sol\":2471:2481  msg.sender */\n      caller\n        /* \"Pendu.sol\":2483:2490  _gameId */\n      dup10\n        /* \"Pendu.sol\":2437:2491  abi.encodePacked(block.timestamp, msg.sender, _gameId) */\n      add(0x20, mload(0x40))\n      tag_120\n      swap4\n      swap3\n      swap2\n      swap1\n      tag_121\n      jump\t// in\n    tag_120:\n      mload(0x40)\n      0x20\n      dup2\n      dup4\n      sub\n      sub\n      dup2\n      mstore\n      swap1\n      0x40\n      mstore\n        /* \"Pendu.sol\":2427:2492  keccak256(abi.encodePacked(block.timestamp, msg.sender, _gameId)) */\n      dup1\n      mload\n      swap1\n      0x20\n      add\n      keccak256\n        /* \"Pendu.sol\":2406:2502  uint256(... */\n      0x00\n      shr\n        /* \"Pendu.sol\":2406:2536  uint256(... */\n      tag_122\n      swap2\n      swap1\n      tag_123\n      jump\t// in\n    tag_122:\n        /* \"Pendu.sol\":2405:2551  (uint256(... */\n      tag_124\n      swap2\n      swap1\n      tag_119\n      jump\t// in\n    tag_124:\n        /* \"Pendu.sol\":2382:2551  uint256 randomNumber = (uint256(... */\n      swap1\n      pop\n        /* \"Pendu.sol\":2569:2581  randomNumber */\n      dup1\n        /* \"Pendu.sol\":2562:2581  return randomNumber */\n      swap3\n      pop\n      pop\n        /* \"Pendu.sol\":2202:2588  function generateRandomNumber(... */\n      pop\n      swap4\n      swap3\n      pop\n      pop\n      pop\n      jump\t// out\n        /* \"#utility.yul\":7:82   */\n    tag_125:\n        /* \"#utility.yul\":40:46   */\n      0x00\n        /* \"#utility.yul\":73:75   */\n      0x40\n        /* \"#utility.yul\":67:76   */\n      mload\n        /* \"#utility.yul\":57:76   */\n      swap1\n      pop\n        /* \"#utility.yul\":7:82   */\n      swap1\n      jump\t// out\n        /* \"#utility.yul\":88:205   */\n    tag_126:\n        /* \"#utility.yul\":197:198   */\n      0x00\n        /* \"#utility.yul\":194:195   */\n      dup1\n        /* \"#utility.yul\":187:199   */\n      revert\n        /* \"#utility.yul\":211:328   */\n    tag_127:\n        /* \"#utility.yul\":320:321   */\n      0x00\n        /* \"#utility.yul\":317:318   */\n      dup1\n        /* \"#utility.yul\":310:322   */\n      revert\n        /* \"#utility.yul\":334:411   */\n    tag_128:\n        /* \"#utility.yul\":371:378   */\n      0x00\n        /* \"#utility.yul\":400:405   */\n      dup2\n        /* \"#utility.yul\":389:405   */\n      swap1\n      pop\n        /* \"#utility.yul\":334:411   */\n      swap2\n      swap1\n      pop\n      jump\t// out\n        /* \"#utility.yul\":417:539   */\n    tag_129:\n        /* \"#utility.yul\":490:514   */\n      tag_207\n        /* \"#utility.yul\":508:513   */\n      dup2\n        /* \"#utility.yul\":490:514   */\n      tag_128\n      jump\t// in\n    tag_207:\n        /* \"#utility.yul\":483:488   */\n      dup2\n        /* \"#utility.yul\":480:515   */\n      eq\n        /* \"#utility.yul\":470:533   */\n      tag_208\n      jumpi\n        /* \"#utility.yul\":529:530   */\n      0x00\n        /* \"#utility.yul\":526:527   */\n      dup1\n        /* \"#utility.yul\":519:531   */\n      revert\n        /* \"#utility.yul\":470:533   */\n    tag_208:\n        /* \"#utility.yul\":417:539   */\n      pop\n      jump\t// out\n        /* \"#utility.yul\":545:684   */\n    tag_130:\n        /* \"#utility.yul\":591:596   */\n      0x00\n        /* \"#utility.yul\":629:635   */\n      dup2\n        /* \"#utility.yul\":616:636   */\n      calldataload\n        /* \"#utility.yul\":607:636   */\n      swap1\n      pop\n        /* \"#utility.yul\":645:678   */\n      tag_210\n        /* \"#utility.yul\":672:677   */\n      dup2\n        /* \"#utility.yul\":645:678   */\n      tag_129\n      jump\t// in\n    tag_210:\n        /* \"#utility.yul\":545:684   */\n      swap3\n      swap2\n      pop\n      pop\n      jump\t// out\n        /* \"#utility.yul\":690:1309   */\n    tag_13:\n        /* \"#utility.yul\":767:773   */\n      0x00\n        /* \"#utility.yul\":775:781   */\n      dup1\n        /* \"#utility.yul\":783:789   */\n      0x00\n        /* \"#utility.yul\":832:834   */\n      0x60\n        /* \"#utility.yul\":820:829   */\n      dup5\n        /* \"#utility.yul\":811:818   */\n      dup7\n        /* \"#utility.yul\":807:830   */\n      sub\n        /* \"#utility.yul\":803:835   */\n      slt\n        /* \"#utility.yul\":800:919   */\n      iszero\n      tag_212\n      jumpi\n        /* \"#utility.yul\":838:917   */\n      tag_213\n      tag_126\n      jump\t// in\n    tag_213:\n        /* \"#utility.yul\":800:919   */\n    tag_212:\n        /* \"#utility.yul\":958:959   */\n      0x00\n        /* \"#utility.yul\":983:1036   */\n      tag_214\n        /* \"#utility.yul\":1028:1035   */\n      dup7\n        /* \"#utility.yul\":1019:1025   */\n      dup3\n        /* \"#utility.yul\":1008:1017   */\n      dup8\n        /* \"#utility.yul\":1004:1026   */\n      add\n        /* \"#utility.yul\":983:1036   */\n      tag_130\n      jump\t// in\n    tag_214:\n        /* \"#utility.yul\":973:1036   */\n      swap4\n      pop\n        /* \"#utility.yul\":929:1046   */\n      pop\n        /* \"#utility.yul\":1085:1087   */\n      0x20\n        /* \"#utility.yul\":1111:1164   */\n      tag_215\n        /* \"#utility.yul\":1156:1163   */\n      dup7\n        /* \"#utility.yul\":1147:1153   */\n      dup3\n        /* \"#utility.yul\":1136:1145   */\n      dup8\n        /* \"#utility.yul\":1132:1154   */\n      add\n        /* \"#utility.yul\":1111:1164   */\n      tag_130\n      jump\t// in\n    tag_215:\n        /* \"#utility.yul\":1101:1164   */\n      swap3\n      pop\n        /* \"#utility.yul\":1056:1174   */\n      pop\n        /* \"#utility.yul\":1213:1215   */\n      0x40\n        /* \"#utility.yul\":1239:1292   */\n      tag_216\n        /* \"#utility.yul\":1284:1291   */\n      dup7\n        /* \"#utility.yul\":1275:1281   */\n      dup3\n        /* \"#utility.yul\":1264:1273   */\n      dup8\n        /* \"#utility.yul\":1260:1282   */\n      add\n        /* \"#utility.yul\":1239:1292   */\n      tag_130\n      jump\t// in\n    tag_216:\n        /* \"#utility.yul\":1229:1292   */\n      swap2\n      pop\n        /* \"#utility.yul\":1184:1302   */\n      pop\n        /* \"#utility.yul\":690:1309   */\n      swap3\n      pop\n      swap3\n      pop\n      swap3\n      jump\t// out\n        /* \"#utility.yul\":1315:1644   */\n    tag_17:\n        /* \"#utility.yul\":1374:1380   */\n      0x00\n        /* \"#utility.yul\":1423:1425   */\n      0x20\n        /* \"#utility.yul\":1411:1420   */\n      dup3\n        /* \"#utility.yul\":1402:1409   */\n      dup5\n        /* \"#utility.yul\":1398:1421   */\n      sub\n        /* \"#utility.yul\":1394:1426   */\n      slt\n        /* \"#utility.yul\":1391:1510   */\n      iszero\n      tag_218\n      jumpi\n        /* \"#utility.yul\":1429:1508   */\n      tag_219\n      tag_126\n      jump\t// in\n    tag_219:\n        /* \"#utility.yul\":1391:1510   */\n    tag_218:\n        /* \"#utility.yul\":1549:1550   */\n      0x00\n        /* \"#utility.yul\":1574:1627   */\n      tag_220\n        /* \"#utility.yul\":1619:1626   */\n      dup5\n        /* \"#utility.yul\":1610:1616   */\n      dup3\n        /* \"#utility.yul\":1599:1608   */\n      dup6\n        /* \"#utility.yul\":1595:1617   */\n      add\n        /* \"#utility.yul\":1574:1627   */\n      tag_130\n      jump\t// in\n    tag_220:\n        /* \"#utility.yul\":1564:1627   */\n      swap2\n      pop\n        /* \"#utility.yul\":1520:1637   */\n      pop\n        /* \"#utility.yul\":1315:1644   */\n      swap3\n      swap2\n      pop\n      pop\n      jump\t// out\n        /* \"#utility.yul\":1650:1776   */\n    tag_131:\n        /* \"#utility.yul\":1687:1694   */\n      0x00\n        /* \"#utility.yul\":1727:1769   */\n      0xffffffffffffffffffffffffffffffffffffffff\n        /* \"#utility.yul\":1720:1725   */\n      dup3\n        /* \"#utility.yul\":1716:1770   */\n      and\n        /* \"#utility.yul\":1705:1770   */\n      swap1\n      pop\n        /* \"#utility.yul\":1650:1776   */\n      swap2\n      swap1\n      pop\n      jump\t// out\n        /* \"#utility.yul\":1782:1878   */\n    tag_132:\n        /* \"#utility.yul\":1819:1826   */\n      0x00\n        /* \"#utility.yul\":1848:1872   */\n      tag_223\n        /* \"#utility.yul\":1866:1871   */\n      dup3\n        /* \"#utility.yul\":1848:1872   */\n      tag_131\n      jump\t// in\n    tag_223:\n        /* \"#utility.yul\":1837:1872   */\n      swap1\n      pop\n        /* \"#utility.yul\":1782:1878   */\n      swap2\n      swap1\n      pop\n      jump\t// out\n        /* \"#utility.yul\":1884:2002   */\n    tag_133:\n        /* \"#utility.yul\":1971:1995   */\n      tag_225\n        /* \"#utility.yul\":1989:1994   */\n      dup2\n        /* \"#utility.yul\":1971:1995   */\n      tag_132\n      jump\t// in\n    tag_225:\n        /* \"#utility.yul\":1966:1969   */\n      dup3\n        /* \"#utility.yul\":1959:1996   */\n      mstore\n        /* \"#utility.yul\":1884:2002   */\n      pop\n      pop\n      jump\t// out\n        /* \"#utility.yul\":2008:2126   */\n    tag_134:\n        /* \"#utility.yul\":2095:2119   */\n      tag_227\n        /* \"#utility.yul\":2113:2118   */\n      dup2\n        /* \"#utility.yul\":2095:2119   */\n      tag_128\n      jump\t// in\n    tag_227:\n        /* \"#utility.yul\":2090:2093   */\n      dup3\n        /* \"#utility.yul\":2083:2120   */\n      mstore\n        /* \"#utility.yul\":2008:2126   */\n      pop\n      pop\n      jump\t// out\n        /* \"#utility.yul\":2132:2312   */\n    tag_72:\n        /* \"#utility.yul\":2180:2257   */\n      0x4e487b7100000000000000000000000000000000000000000000000000000000\n        /* \"#utility.yul\":2177:2178   */\n      0x00\n        /* \"#utility.yul\":2170:2258   */\n      mstore\n        /* \"#utility.yul\":2277:2281   */\n      0x21\n        /* \"#utility.yul\":2274:2275   */\n      0x04\n        /* \"#utility.yul\":2267:2282   */\n      mstore\n        /* \"#utility.yul\":2301:2305   */\n      0x24\n        /* \"#utility.yul\":2298:2299   */\n      0x00\n        /* \"#utility.yul\":2291:2306   */\n      revert\n        /* \"#utility.yul\":2318:2432   */\n    tag_135:\n        /* \"#utility.yul\":2400:2401   */\n      0x02\n        /* \"#utility.yul\":2393:2398   */\n      dup2\n        /* \"#utility.yul\":2390:2402   */\n      lt\n        /* \"#utility.yul\":2380:2426   */\n      tag_230\n      jumpi\n        /* \"#utility.yul\":2406:2424   */\n      tag_231\n      tag_72\n      jump\t// in\n    tag_231:\n        /* \"#utility.yul\":2380:2426   */\n    tag_230:\n        /* \"#utility.yul\":2318:2432   */\n      pop\n      jump\t// out\n        /* \"#utility.yul\":2438:2567   */\n    tag_136:\n        /* \"#utility.yul\":2484:2491   */\n      0x00\n        /* \"#utility.yul\":2513:2518   */\n      dup2\n        /* \"#utility.yul\":2502:2518   */\n      swap1\n      pop\n        /* \"#utility.yul\":2519:2561   */\n      tag_233\n        /* \"#utility.yul\":2555:2560   */\n      dup3\n        /* \"#utility.yul\":2519:2561   */\n      tag_135\n      jump\t// in\n    tag_233:\n        /* \"#utility.yul\":2438:2567   */\n      swap2\n      swap1\n      pop\n      jump\t// out\n        /* \"#utility.yul\":2573:2702   */\n    tag_137:\n        /* \"#utility.yul\":2630:2639   */\n      0x00\n        /* \"#utility.yul\":2663:2696   */\n      tag_235\n        /* \"#utility.yul\":2690:2695   */\n      dup3\n        /* \"#utility.yul\":2663:2696   */\n      tag_136\n      jump\t// in\n    tag_235:\n        /* \"#utility.yul\":2650:2696   */\n      swap1\n      pop\n        /* \"#utility.yul\":2573:2702   */\n      swap2\n      swap1\n      pop\n      jump\t// out\n        /* \"#utility.yul\":2708:2853   */\n    tag_138:\n        /* \"#utility.yul\":2802:2846   */\n      tag_237\n        /* \"#utility.yul\":2840:2845   */\n      dup2\n        /* \"#utility.yul\":2802:2846   */\n      tag_137\n      jump\t// in\n    tag_237:\n        /* \"#utility.yul\":2797:2800   */\n      dup3\n        /* \"#utility.yul\":2790:2847   */\n      mstore\n        /* \"#utility.yul\":2708:2853   */\n      pop\n      pop\n      jump\t// out\n        /* \"#utility.yul\":2859:2973   */\n    tag_139:\n        /* \"#utility.yul\":2941:2942   */\n      0x02\n        /* \"#utility.yul\":2934:2939   */\n      dup2\n        /* \"#utility.yul\":2931:2943   */\n      lt\n        /* \"#utility.yul\":2921:2967   */\n      tag_239\n      jumpi\n        /* \"#utility.yul\":2947:2965   */\n      tag_240\n      tag_72\n      jump\t// in\n    tag_240:\n        /* \"#utility.yul\":2921:2967   */\n    tag_239:\n        /* \"#utility.yul\":2859:2973   */\n      pop\n      jump\t// out\n        /* \"#utility.yul\":2979:3108   */\n    tag_140:\n        /* \"#utility.yul\":3025:3032   */\n      0x00\n        /* \"#utility.yul\":3054:3059   */\n      dup2\n        /* \"#utility.yul\":3043:3059   */\n      swap1\n      pop\n        /* \"#utility.yul\":3060:3102   */\n      tag_242\n        /* \"#utility.yul\":3096:3101   */\n      dup3\n        /* \"#utility.yul\":3060:3102   */\n      tag_139\n      jump\t// in\n    tag_242:\n        /* \"#utility.yul\":2979:3108   */\n      swap2\n      swap1\n      pop\n      jump\t// out\n        /* \"#utility.yul\":3114:3243   */\n    tag_141:\n        /* \"#utility.yul\":3171:3180   */\n      0x00\n        /* \"#utility.yul\":3204:3237   */\n      tag_244\n        /* \"#utility.yul\":3231:3236   */\n      dup3\n        /* \"#utility.yul\":3204:3237   */\n      tag_140\n      jump\t// in\n    tag_244:\n        /* \"#utility.yul\":3191:3237   */\n      swap1\n      pop\n        /* \"#utility.yul\":3114:3243   */\n      swap2\n      swap1\n      pop\n      jump\t// out\n        /* \"#utility.yul\":3249:3394   */\n    tag_142:\n        /* \"#utility.yul\":3343:3387   */\n      tag_246\n        /* \"#utility.yul\":3381:3386   */\n      dup2\n        /* \"#utility.yul\":3343:3387   */\n      tag_141\n      jump\t// in\n    tag_246:\n        /* \"#utility.yul\":3338:3341   */\n      dup3\n        /* \"#utility.yul\":3331:3388   */\n      mstore\n        /* \"#utility.yul\":3249:3394   */\n      pop\n      pop\n      jump\t// out\n        /* \"#utility.yul\":3400:4314   */\n    tag_20:\n        /* \"#utility.yul\":3675:3679   */\n      0x00\n        /* \"#utility.yul\":3713:3716   */\n      0xe0\n        /* \"#utility.yul\":3702:3711   */\n      dup3\n        /* \"#utility.yul\":3698:3717   */\n      add\n        /* \"#utility.yul\":3690:3717   */\n      swap1\n      pop\n        /* \"#utility.yul\":3727:3798   */\n      tag_248\n        /* \"#utility.yul\":3795:3796   */\n      0x00\n        /* \"#utility.yul\":3784:3793   */\n      dup4\n        /* \"#utility.yul\":3780:3797   */\n      add\n        /* \"#utility.yul\":3771:3777   */\n      dup11\n        /* \"#utility.yul\":3727:3798   */\n      tag_133\n      jump\t// in\n    tag_248:\n        /* \"#utility.yul\":3808:3880   */\n      tag_249\n        /* \"#utility.yul\":3876:3878   */\n      0x20\n        /* \"#utility.yul\":3865:3874   */\n      dup4\n        /* \"#utility.yul\":3861:3879   */\n      add\n        /* \"#utility.yul\":3852:3858   */\n      dup10\n        /* \"#utility.yul\":3808:3880   */\n      tag_133\n      jump\t// in\n    tag_249:\n        /* \"#utility.yul\":3890:3962   */\n      tag_250\n        /* \"#utility.yul\":3958:3960   */\n      0x40\n        /* \"#utility.yul\":3947:3956   */\n      dup4\n        /* \"#utility.yul\":3943:3961   */\n      add\n        /* \"#utility.yul\":3934:3940   */\n      dup9\n        /* \"#utility.yul\":3890:3962   */\n      tag_134\n      jump\t// in\n    tag_250:\n        /* \"#utility.yul\":3972:4044   */\n      tag_251\n        /* \"#utility.yul\":4040:4042   */\n      0x60\n        /* \"#utility.yul\":4029:4038   */\n      dup4\n        /* \"#utility.yul\":4025:4043   */\n      add\n        /* \"#utility.yul\":4016:4022   */\n      dup8\n        /* \"#utility.yul\":3972:4044   */\n      tag_134\n      jump\t// in\n    tag_251:\n        /* \"#utility.yul\":4054:4127   */\n      tag_252\n        /* \"#utility.yul\":4122:4125   */\n      0x80\n        /* \"#utility.yul\":4111:4120   */\n      dup4\n        /* \"#utility.yul\":4107:4126   */\n      add\n        /* \"#utility.yul\":4098:4104   */\n      dup7\n        /* \"#utility.yul\":4054:4127   */\n      tag_134\n      jump\t// in\n    tag_252:\n        /* \"#utility.yul\":4137:4217   */\n      tag_253\n        /* \"#utility.yul\":4212:4215   */\n      0xa0\n        /* \"#utility.yul\":4201:4210   */\n      dup4\n        /* \"#utility.yul\":4197:4216   */\n      add\n        /* \"#utility.yul\":4188:4194   */\n      dup6\n        /* \"#utility.yul\":4137:4217   */\n      tag_138\n      jump\t// in\n    tag_253:\n        /* \"#utility.yul\":4227:4307   */\n      tag_254\n        /* \"#utility.yul\":4302:4305   */\n      0xc0\n        /* \"#utility.yul\":4291:4300   */\n      dup4\n        /* \"#utility.yul\":4287:4306   */\n      add\n        /* \"#utility.yul\":4278:4284   */\n      dup5\n        /* \"#utility.yul\":4227:4307   */\n      tag_142\n      jump\t// in\n    tag_254:\n        /* \"#utility.yul\":3400:4314   */\n      swap9\n      swap8\n      pop\n      pop\n      pop\n      pop\n      pop\n      pop\n      pop\n      pop\n      jump\t// out\n        /* \"#utility.yul\":4320:4794   */\n    tag_26:\n        /* \"#utility.yul\":4388:4394   */\n      0x00\n        /* \"#utility.yul\":4396:4402   */\n      dup1\n        /* \"#utility.yul\":4445:4447   */\n      0x40\n        /* \"#utility.yul\":4433:4442   */\n      dup4\n        /* \"#utility.yul\":4424:4431   */\n      dup6\n        /* \"#utility.yul\":4420:4443   */\n      sub\n        /* \"#utility.yul\":4416:4448   */\n      slt\n        /* \"#utility.yul\":4413:4532   */\n      iszero\n      tag_256\n      jumpi\n        /* \"#utility.yul\":4451:4530   */\n      tag_257\n      tag_126\n      jump\t// in\n    tag_257:\n        /* \"#utility.yul\":4413:4532   */\n    tag_256:\n        /* \"#utility.yul\":4571:4572   */\n      0x00\n        /* \"#utility.yul\":4596:4649   */\n      tag_258\n        /* \"#utility.yul\":4641:4648   */\n      dup6\n        /* \"#utility.yul\":4632:4638   */\n      dup3\n        /* \"#utility.yul\":4621:4630   */\n      dup7\n        /* \"#utility.yul\":4617:4639   */\n      add\n        /* \"#utility.yul\":4596:4649   */\n      tag_130\n      jump\t// in\n    tag_258:\n        /* \"#utility.yul\":4586:4649   */\n      swap3\n      pop\n        /* \"#utility.yul\":4542:4659   */\n      pop\n        /* \"#utility.yul\":4698:4700   */\n      0x20\n        /* \"#utility.yul\":4724:4777   */\n      tag_259\n        /* \"#utility.yul\":4769:4776   */\n      dup6\n        /* \"#utility.yul\":4760:4766   */\n      dup3\n        /* \"#utility.yul\":4749:4758   */\n      dup7\n        /* \"#utility.yul\":4745:4767   */\n      add\n        /* \"#utility.yul\":4724:4777   */\n      tag_130\n      jump\t// in\n    tag_259:\n        /* \"#utility.yul\":4714:4777   */\n      swap2\n      pop\n        /* \"#utility.yul\":4669:4787   */\n      pop\n        /* \"#utility.yul\":4320:4794   */\n      swap3\n      pop\n      swap3\n      swap1\n      pop\n      jump\t// out\n        /* \"#utility.yul\":4800:4899   */\n    tag_143:\n        /* \"#utility.yul\":4852:4858   */\n      0x00\n        /* \"#utility.yul\":4886:4891   */\n      dup2\n        /* \"#utility.yul\":4880:4892   */\n      mload\n        /* \"#utility.yul\":4870:4892   */\n      swap1\n      pop\n        /* \"#utility.yul\":4800:4899   */\n      swap2\n      swap1\n      pop\n      jump\t// out\n        /* \"#utility.yul\":4905:5074   */\n    tag_144:\n        /* \"#utility.yul\":4989:5000   */\n      0x00\n        /* \"#utility.yul\":5023:5029   */\n      dup3\n        /* \"#utility.yul\":5018:5021   */\n      dup3\n        /* \"#utility.yul\":5011:5030   */\n      mstore\n        /* \"#utility.yul\":5063:5067   */\n      0x20\n        /* \"#utility.yul\":5058:5061   */\n      dup3\n        /* \"#utility.yul\":5054:5068   */\n      add\n        /* \"#utility.yul\":5039:5068   */\n      swap1\n      pop\n        /* \"#utility.yul\":4905:5074   */\n      swap3\n      swap2\n      pop\n      pop\n      jump\t// out\n        /* \"#utility.yul\":5080:5219   */\n    tag_145:\n        /* \"#utility.yul\":5169:5175   */\n      dup3\n        /* \"#utility.yul\":5164:5167   */\n      dup2\n        /* \"#utility.yul\":5159:5162   */\n      dup4\n        /* \"#utility.yul\":5153:5176   */\n      mcopy\n        /* \"#utility.yul\":5210:5211   */\n      0x00\n        /* \"#utility.yul\":5201:5207   */\n      dup4\n        /* \"#utility.yul\":5196:5199   */\n      dup4\n        /* \"#utility.yul\":5192:5208   */\n      add\n        /* \"#utility.yul\":5185:5212   */\n      mstore\n        /* \"#utility.yul\":5080:5219   */\n      pop\n      pop\n      pop\n      jump\t// out\n        /* \"#utility.yul\":5225:5327   */\n    tag_146:\n        /* \"#utility.yul\":5266:5272   */\n      0x00\n        /* \"#utility.yul\":5317:5319   */\n      0x1f\n        /* \"#utility.yul\":5313:5320   */\n      not\n        /* \"#utility.yul\":5308:5310   */\n      0x1f\n        /* \"#utility.yul\":5301:5306   */\n      dup4\n        /* \"#utility.yul\":5297:5311   */\n      add\n        /* \"#utility.yul\":5293:5321   */\n      and\n        /* \"#utility.yul\":5283:5321   */\n      swap1\n      pop\n        /* \"#utility.yul\":5225:5327   */\n      swap2\n      swap1\n      pop\n      jump\t// out\n        /* \"#utility.yul\":5333:5710   */\n    tag_147:\n        /* \"#utility.yul\":5421:5424   */\n      0x00\n        /* \"#utility.yul\":5449:5488   */\n      tag_265\n        /* \"#utility.yul\":5482:5487   */\n      dup3\n        /* \"#utility.yul\":5449:5488   */\n      tag_143\n      jump\t// in\n    tag_265:\n        /* \"#utility.yul\":5504:5575   */\n      tag_266\n        /* \"#utility.yul\":5568:5574   */\n      dup2\n        /* \"#utility.yul\":5563:5566   */\n      dup6\n        /* \"#utility.yul\":5504:5575   */\n      tag_144\n      jump\t// in\n    tag_266:\n        /* \"#utility.yul\":5497:5575   */\n      swap4\n      pop\n        /* \"#utility.yul\":5584:5649   */\n      tag_267\n        /* \"#utility.yul\":5642:5648   */\n      dup2\n        /* \"#utility.yul\":5637:5640   */\n      dup6\n        /* \"#utility.yul\":5630:5634   */\n      0x20\n        /* \"#utility.yul\":5623:5628   */\n      dup7\n        /* \"#utility.yul\":5619:5635   */\n      add\n        /* \"#utility.yul\":5584:5649   */\n      tag_145\n      jump\t// in\n    tag_267:\n        /* \"#utility.yul\":5674:5703   */\n      tag_268\n        /* \"#utility.yul\":5696:5702   */\n      dup2\n        /* \"#utility.yul\":5674:5703   */\n      tag_146\n      jump\t// in\n    tag_268:\n        /* \"#utility.yul\":5669:5672   */\n      dup5\n        /* \"#utility.yul\":5665:5704   */\n      add\n        /* \"#utility.yul\":5658:5704   */\n      swap2\n      pop\n        /* \"#utility.yul\":5425:5710   */\n      pop\n        /* \"#utility.yul\":5333:5710   */\n      swap3\n      swap2\n      pop\n      pop\n      jump\t// out\n        /* \"#utility.yul\":5716:6029   */\n    tag_29:\n        /* \"#utility.yul\":5829:5833   */\n      0x00\n        /* \"#utility.yul\":5867:5869   */\n      0x20\n        /* \"#utility.yul\":5856:5865   */\n      dup3\n        /* \"#utility.yul\":5852:5870   */\n      add\n        /* \"#utility.yul\":5844:5870   */\n      swap1\n      pop\n        /* \"#utility.yul\":5916:5925   */\n      dup2\n        /* \"#utility.yul\":5910:5914   */\n      dup2\n        /* \"#utility.yul\":5906:5926   */\n      sub\n        /* \"#utility.yul\":5902:5903   */\n      0x00\n        /* \"#utility.yul\":5891:5900   */\n      dup4\n        /* \"#utility.yul\":5887:5904   */\n      add\n        /* \"#utility.yul\":5880:5927   */\n      mstore\n        /* \"#utility.yul\":5944:6022   */\n      tag_270\n        /* \"#utility.yul\":6017:6021   */\n      dup2\n        /* \"#utility.yul\":6008:6014   */\n      dup5\n        /* \"#utility.yul\":5944:6022   */\n      tag_147\n      jump\t// in\n    tag_270:\n        /* \"#utility.yul\":5936:6022   */\n      swap1\n      pop\n        /* \"#utility.yul\":5716:6029   */\n      swap3\n      swap2\n      pop\n      pop\n      jump\t// out\n        /* \"#utility.yul\":6035:6257   */\n    tag_33:\n        /* \"#utility.yul\":6128:6132   */\n      0x00\n        /* \"#utility.yul\":6166:6168   */\n      0x20\n        /* \"#utility.yul\":6155:6164   */\n      dup3\n        /* \"#utility.yul\":6151:6169   */\n      add\n        /* \"#utility.yul\":6143:6169   */\n      swap1\n      pop\n        /* \"#utility.yul\":6179:6250   */\n      tag_272\n        /* \"#utility.yul\":6247:6248   */\n      0x00\n        /* \"#utility.yul\":6236:6245   */\n      dup4\n        /* \"#utility.yul\":6232:6249   */\n      add\n        /* \"#utility.yul\":6223:6229   */\n      dup5\n        /* \"#utility.yul\":6179:6250   */\n      tag_134\n      jump\t// in\n    tag_272:\n        /* \"#utility.yul\":6035:6257   */\n      swap3\n      swap2\n      pop\n      pop\n      jump\t// out\n        /* \"#utility.yul\":6263:6385   */\n    tag_148:\n        /* \"#utility.yul\":6336:6360   */\n      tag_274\n        /* \"#utility.yul\":6354:6359   */\n      dup2\n        /* \"#utility.yul\":6336:6360   */\n      tag_132\n      jump\t// in\n    tag_274:\n        /* \"#utility.yul\":6329:6334   */\n      dup2\n        /* \"#utility.yul\":6326:6361   */\n      eq\n        /* \"#utility.yul\":6316:6379   */\n      tag_275\n      jumpi\n        /* \"#utility.yul\":6375:6376   */\n      0x00\n        /* \"#utility.yul\":6372:6373   */\n      dup1\n        /* \"#utility.yul\":6365:6377   */\n      revert\n        /* \"#utility.yul\":6316:6379   */\n    tag_275:\n        /* \"#utility.yul\":6263:6385   */\n      pop\n      jump\t// out\n        /* \"#utility.yul\":6391:6530   */\n    tag_149:\n        /* \"#utility.yul\":6437:6442   */\n      0x00\n        /* \"#utility.yul\":6475:6481   */\n      dup2\n        /* \"#utility.yul\":6462:6482   */\n      calldataload\n        /* \"#utility.yul\":6453:6482   */\n      swap1\n      pop\n        /* \"#utility.yul\":6491:6524   */\n      tag_277\n        /* \"#utility.yul\":6518:6523   */\n      dup2\n        /* \"#utility.yul\":6491:6524   */\n      tag_148\n      jump\t// in\n    tag_277:\n        /* \"#utility.yul\":6391:6530   */\n      swap3\n      swap2\n      pop\n      pop\n      jump\t// out\n        /* \"#utility.yul\":6536:7155   */\n    tag_36:\n        /* \"#utility.yul\":6613:6619   */\n      0x00\n        /* \"#utility.yul\":6621:6627   */\n      dup1\n        /* \"#utility.yul\":6629:6635   */\n      0x00\n        /* \"#utility.yul\":6678:6680   */\n      0x60\n        /* \"#utility.yul\":6666:6675   */\n      dup5\n        /* \"#utility.yul\":6657:6664   */\n      dup7\n        /* \"#utility.yul\":6653:6676   */\n      sub\n        /* \"#utility.yul\":6649:6681   */\n      slt\n        /* \"#utility.yul\":6646:6765   */\n      iszero\n      tag_279\n      jumpi\n        /* \"#utility.yul\":6684:6763   */\n      tag_280\n      tag_126\n      jump\t// in\n    tag_280:\n        /* \"#utility.yul\":6646:6765   */\n    tag_279:\n        /* \"#utility.yul\":6804:6805   */\n      0x00\n        /* \"#utility.yul\":6829:6882   */\n      tag_281\n        /* \"#utility.yul\":6874:6881   */\n      dup7\n        /* \"#utility.yul\":6865:6871   */\n      dup3\n        /* \"#utility.yul\":6854:6863   */\n      dup8\n        /* \"#utility.yul\":6850:6872   */\n      add\n        /* \"#utility.yul\":6829:6882   */\n      tag_149\n      jump\t// in\n    tag_281:\n        /* \"#utility.yul\":6819:6882   */\n      swap4\n      pop\n        /* \"#utility.yul\":6775:6892   */\n      pop\n        /* \"#utility.yul\":6931:6933   */\n      0x20\n        /* \"#utility.yul\":6957:7010   */\n      tag_282\n        /* \"#utility.yul\":7002:7009   */\n      dup7\n        /* \"#utility.yul\":6993:6999   */\n      dup3\n        /* \"#utility.yul\":6982:6991   */\n      dup8\n        /* \"#utility.yul\":6978:7000   */\n      add\n        /* \"#utility.yul\":6957:7010   */\n      tag_130\n      jump\t// in\n    tag_282:\n        /* \"#utility.yul\":6947:7010   */\n      swap3\n      pop\n        /* \"#utility.yul\":6902:7020   */\n      pop\n        /* \"#utility.yul\":7059:7061   */\n      0x40\n        /* \"#utility.yul\":7085:7138   */\n      tag_283\n        /* \"#utility.yul\":7130:7137   */\n      dup7\n        /* \"#utility.yul\":7121:7127   */\n      dup3\n        /* \"#utility.yul\":7110:7119   */\n      dup8\n        /* \"#utility.yul\":7106:7128   */\n      add\n        /* \"#utility.yul\":7085:7138   */\n      tag_130\n      jump\t// in\n    tag_283:\n        /* \"#utility.yul\":7075:7138   */\n      swap2\n      pop\n        /* \"#utility.yul\":7030:7148   */\n      pop\n        /* \"#utility.yul\":6536:7155   */\n      swap3\n      pop\n      swap3\n      pop\n      swap3\n      jump\t// out\n        /* \"#utility.yul\":7161:7278   */\n    tag_150:\n        /* \"#utility.yul\":7270:7271   */\n      0x00\n        /* \"#utility.yul\":7267:7268   */\n      dup1\n        /* \"#utility.yul\":7260:7272   */\n      revert\n        /* \"#utility.yul\":7284:7401   */\n    tag_151:\n        /* \"#utility.yul\":7393:7394   */\n      0x00\n        /* \"#utility.yul\":7390:7391   */\n      dup1\n        /* \"#utility.yul\":7383:7395   */\n      revert\n        /* \"#utility.yul\":7407:7587   */\n    tag_152:\n        /* \"#utility.yul\":7455:7532   */\n      0x4e487b7100000000000000000000000000000000000000000000000000000000\n        /* \"#utility.yul\":7452:7453   */\n      0x00\n        /* \"#utility.yul\":7445:7533   */\n      mstore\n        /* \"#utility.yul\":7552:7556   */\n      0x41\n        /* \"#utility.yul\":7549:7550   */\n      0x04\n        /* \"#utility.yul\":7542:7557   */\n      mstore\n        /* \"#utility.yul\":7576:7580   */\n      0x24\n        /* \"#utility.yul\":7573:7574   */\n      0x00\n        /* \"#utility.yul\":7566:7581   */\n      revert\n        /* \"#utility.yul\":7593:7874   */\n    tag_153:\n        /* \"#utility.yul\":7676:7703   */\n      tag_288\n        /* \"#utility.yul\":7698:7702   */\n      dup3\n        /* \"#utility.yul\":7676:7703   */\n      tag_146\n      jump\t// in\n    tag_288:\n        /* \"#utility.yul\":7668:7674   */\n      dup2\n        /* \"#utility.yul\":7664:7704   */\n      add\n        /* \"#utility.yul\":7806:7812   */\n      dup2\n        /* \"#utility.yul\":7794:7804   */\n      dup2\n        /* \"#utility.yul\":7791:7813   */\n      lt\n        /* \"#utility.yul\":7770:7788   */\n      0xffffffffffffffff\n        /* \"#utility.yul\":7758:7768   */\n      dup3\n        /* \"#utility.yul\":7755:7789   */\n      gt\n        /* \"#utility.yul\":7752:7814   */\n      or\n        /* \"#utility.yul\":7749:7837   */\n      iszero\n      tag_289\n      jumpi\n        /* \"#utility.yul\":7817:7835   */\n      tag_290\n      tag_152\n      jump\t// in\n    tag_290:\n        /* \"#utility.yul\":7749:7837   */\n    tag_289:\n        /* \"#utility.yul\":7857:7867   */\n      dup1\n        /* \"#utility.yul\":7853:7855   */\n      0x40\n        /* \"#utility.yul\":7846:7868   */\n      mstore\n        /* \"#utility.yul\":7636:7874   */\n      pop\n        /* \"#utility.yul\":7593:7874   */\n      pop\n      pop\n      jump\t// out\n        /* \"#utility.yul\":7880:8009   */\n    tag_154:\n        /* \"#utility.yul\":7914:7920   */\n      0x00\n        /* \"#utility.yul\":7941:7961   */\n      tag_292\n      tag_125\n      jump\t// in\n    tag_292:\n        /* \"#utility.yul\":7931:7961   */\n      swap1\n      pop\n        /* \"#utility.yul\":7970:8003   */\n      tag_293\n        /* \"#utility.yul\":7998:8002   */\n      dup3\n        /* \"#utility.yul\":7990:7996   */\n      dup3\n        /* \"#utility.yul\":7970:8003   */\n      tag_153\n      jump\t// in\n    tag_293:\n        /* \"#utility.yul\":7880:8009   */\n      swap2\n      swap1\n      pop\n      jump\t// out\n        /* \"#utility.yul\":8015:8323   */\n    tag_155:\n        /* \"#utility.yul\":8077:8081   */\n      0x00\n        /* \"#utility.yul\":8167:8185   */\n      0xffffffffffffffff\n        /* \"#utility.yul\":8159:8165   */\n      dup3\n        /* \"#utility.yul\":8156:8186   */\n      gt\n        /* \"#utility.yul\":8153:8209   */\n      iszero\n      tag_295\n      jumpi\n        /* \"#utility.yul\":8189:8207   */\n      tag_296\n      tag_152\n      jump\t// in\n    tag_296:\n        /* \"#utility.yul\":8153:8209   */\n    tag_295:\n        /* \"#utility.yul\":8227:8256   */\n      tag_297\n        /* \"#utility.yul\":8249:8255   */\n      dup3\n        /* \"#utility.yul\":8227:8256   */\n      tag_146\n      jump\t// in\n    tag_297:\n        /* \"#utility.yul\":8219:8256   */\n      swap1\n      pop\n        /* \"#utility.yul\":8311:8315   */\n      0x20\n        /* \"#utility.yul\":8305:8309   */\n      dup2\n        /* \"#utility.yul\":8301:8316   */\n      add\n        /* \"#utility.yul\":8293:8316   */\n      swap1\n      pop\n        /* \"#utility.yul\":8015:8323   */\n      swap2\n      swap1\n      pop\n      jump\t// out\n        /* \"#utility.yul\":8329:8477   */\n    tag_156:\n        /* \"#utility.yul\":8427:8433   */\n      dup3\n        /* \"#utility.yul\":8422:8425   */\n      dup2\n        /* \"#utility.yul\":8417:8420   */\n      dup4\n        /* \"#utility.yul\":8404:8434   */\n      calldatacopy\n        /* \"#utility.yul\":8468:8469   */\n      0x00\n        /* \"#utility.yul\":8459:8465   */\n      dup4\n        /* \"#utility.yul\":8454:8457   */\n      dup4\n        /* \"#utility.yul\":8450:8466   */\n      add\n        /* \"#utility.yul\":8443:8470   */\n      mstore\n        /* \"#utility.yul\":8329:8477   */\n      pop\n      pop\n      pop\n      jump\t// out\n        /* \"#utility.yul\":8483:8908   */\n    tag_157:\n        /* \"#utility.yul\":8561:8566   */\n      0x00\n        /* \"#utility.yul\":8586:8652   */\n      tag_300\n        /* \"#utility.yul\":8602:8651   */\n      tag_301\n        /* \"#utility.yul\":8644:8650   */\n      dup5\n        /* \"#utility.yul\":8602:8651   */\n      tag_155\n      jump\t// in\n    tag_301:\n        /* \"#utility.yul\":8586:8652   */\n      tag_154\n      jump\t// in\n    tag_300:\n        /* \"#utility.yul\":8577:8652   */\n      swap1\n      pop\n        /* \"#utility.yul\":8675:8681   */\n      dup3\n        /* \"#utility.yul\":8668:8673   */\n      dup2\n        /* \"#utility.yul\":8661:8682   */\n      mstore\n        /* \"#utility.yul\":8713:8717   */\n      0x20\n        /* \"#utility.yul\":8706:8711   */\n      dup2\n        /* \"#utility.yul\":8702:8718   */\n      add\n        /* \"#utility.yul\":8751:8754   */\n      dup5\n        /* \"#utility.yul\":8742:8748   */\n      dup5\n        /* \"#utility.yul\":8737:8740   */\n      dup5\n        /* \"#utility.yul\":8733:8749   */\n      add\n        /* \"#utility.yul\":8730:8755   */\n      gt\n        /* \"#utility.yul\":8727:8839   */\n      iszero\n      tag_302\n      jumpi\n        /* \"#utility.yul\":8758:8837   */\n      tag_303\n      tag_151\n      jump\t// in\n    tag_303:\n        /* \"#utility.yul\":8727:8839   */\n    tag_302:\n        /* \"#utility.yul\":8848:8902   */\n      tag_304\n        /* \"#utility.yul\":8895:8901   */\n      dup5\n        /* \"#utility.yul\":8890:8893   */\n      dup3\n        /* \"#utility.yul\":8885:8888   */\n      dup6\n        /* \"#utility.yul\":8848:8902   */\n      tag_156\n      jump\t// in\n    tag_304:\n        /* \"#utility.yul\":8567:8908   */\n      pop\n        /* \"#utility.yul\":8483:8908   */\n      swap4\n      swap3\n      pop\n      pop\n      pop\n      jump\t// out\n        /* \"#utility.yul\":8928:9268   */\n    tag_158:\n        /* \"#utility.yul\":8984:8989   */\n      0x00\n        /* \"#utility.yul\":9033:9036   */\n      dup3\n        /* \"#utility.yul\":9026:9030   */\n      0x1f\n        /* \"#utility.yul\":9018:9024   */\n      dup4\n        /* \"#utility.yul\":9014:9031   */\n      add\n        /* \"#utility.yul\":9010:9037   */\n      slt\n        /* \"#utility.yul\":9000:9122   */\n      tag_306\n      jumpi\n        /* \"#utility.yul\":9041:9120   */\n      tag_307\n      tag_150\n      jump\t// in\n    tag_307:\n        /* \"#utility.yul\":9000:9122   */\n    tag_306:\n        /* \"#utility.yul\":9158:9164   */\n      dup2\n        /* \"#utility.yul\":9145:9165   */\n      calldataload\n        /* \"#utility.yul\":9183:9262   */\n      tag_308\n        /* \"#utility.yul\":9258:9261   */\n      dup5\n        /* \"#utility.yul\":9250:9256   */\n      dup3\n        /* \"#utility.yul\":9243:9247   */\n      0x20\n        /* \"#utility.yul\":9235:9241   */\n      dup7\n        /* \"#utility.yul\":9231:9248   */\n      add\n        /* \"#utility.yul\":9183:9262   */\n      tag_157\n      jump\t// in\n    tag_308:\n        /* \"#utility.yul\":9174:9262   */\n      swap2\n      pop\n        /* \"#utility.yul\":8990:9268   */\n      pop\n        /* \"#utility.yul\":8928:9268   */\n      swap3\n      swap2\n      pop\n      pop\n      jump\t// out\n        /* \"#utility.yul\":9274:9783   */\n    tag_40:\n        /* \"#utility.yul\":9343:9349   */\n      0x00\n        /* \"#utility.yul\":9392:9394   */\n      0x20\n        /* \"#utility.yul\":9380:9389   */\n      dup3\n        /* \"#utility.yul\":9371:9378   */\n      dup5\n        /* \"#utility.yul\":9367:9390   */\n      sub\n        /* \"#utility.yul\":9363:9395   */\n      slt\n        /* \"#utility.yul\":9360:9479   */\n      iszero\n      tag_310\n      jumpi\n        /* \"#utility.yul\":9398:9477   */\n      tag_311\n      tag_126\n      jump\t// in\n    tag_311:\n        /* \"#utility.yul\":9360:9479   */\n    tag_310:\n        /* \"#utility.yul\":9546:9547   */\n      0x00\n        /* \"#utility.yul\":9535:9544   */\n      dup3\n        /* \"#utility.yul\":9531:9548   */\n      add\n        /* \"#utility.yul\":9518:9549   */\n      calldataload\n        /* \"#utility.yul\":9576:9594   */\n      0xffffffffffffffff\n        /* \"#utility.yul\":9568:9574   */\n      dup2\n        /* \"#utility.yul\":9565:9595   */\n      gt\n        /* \"#utility.yul\":9562:9679   */\n      iszero\n      tag_312\n      jumpi\n        /* \"#utility.yul\":9598:9677   */\n      tag_313\n      tag_127\n      jump\t// in\n    tag_313:\n        /* \"#utility.yul\":9562:9679   */\n    tag_312:\n        /* \"#utility.yul\":9703:9766   */\n      tag_314\n        /* \"#utility.yul\":9758:9765   */\n      dup5\n        /* \"#utility.yul\":9749:9755   */\n      dup3\n        /* \"#utility.yul\":9738:9747   */\n      dup6\n        /* \"#utility.yul\":9734:9756   */\n      add\n        /* \"#utility.yul\":9703:9766   */\n      tag_158\n      jump\t// in\n    tag_314:\n        /* \"#utility.yul\":9693:9766   */\n      swap2\n      pop\n        /* \"#utility.yul\":9489:9776   */\n      pop\n        /* \"#utility.yul\":9274:9783   */\n      swap3\n      swap2\n      pop\n      pop\n      jump\t// out\n        /* \"#utility.yul\":9789:9963   */\n    tag_159:\n        /* \"#utility.yul\":9929:9955   */\n      0x5468652067616d6520646f65736e277420657869737420210000000000000000\n        /* \"#utility.yul\":9925:9926   */\n      0x00\n        /* \"#utility.yul\":9917:9923   */\n      dup3\n        /* \"#utility.yul\":9913:9927   */\n      add\n        /* \"#utility.yul\":9906:9956   */\n      mstore\n        /* \"#utility.yul\":9789:9963   */\n      pop\n      jump\t// out\n        /* \"#utility.yul\":9969:10335   */\n    tag_160:\n        /* \"#utility.yul\":10111:10114   */\n      0x00\n        /* \"#utility.yul\":10132:10199   */\n      tag_317\n        /* \"#utility.yul\":10196:10198   */\n      0x18\n        /* \"#utility.yul\":10191:10194   */\n      dup4\n        /* \"#utility.yul\":10132:10199   */\n      tag_144\n      jump\t// in\n    tag_317:\n        /* \"#utility.yul\":10125:10199   */\n      swap2\n      pop\n        /* \"#utility.yul\":10208:10301   */\n      tag_318\n        /* \"#utility.yul\":10297:10300   */\n      dup3\n        /* \"#utility.yul\":10208:10301   */\n      tag_159\n      jump\t// in\n    tag_318:\n        /* \"#utility.yul\":10326:10328   */\n      0x20\n        /* \"#utility.yul\":10321:10324   */\n      dup3\n        /* \"#utility.yul\":10317:10329   */\n      add\n        /* \"#utility.yul\":10310:10329   */\n      swap1\n      pop\n        /* \"#utility.yul\":9969:10335   */\n      swap2\n      swap1\n      pop\n      jump\t// out\n        /* \"#utility.yul\":10341:10760   */\n    tag_45:\n        /* \"#utility.yul\":10507:10511   */\n      0x00\n        /* \"#utility.yul\":10545:10547   */\n      0x20\n        /* \"#utility.yul\":10534:10543   */\n      dup3\n        /* \"#utility.yul\":10530:10548   */\n      add\n        /* \"#utility.yul\":10522:10548   */\n      swap1\n      pop\n        /* \"#utility.yul\":10594:10603   */\n      dup2\n        /* \"#utility.yul\":10588:10592   */\n      dup2\n        /* \"#utility.yul\":10584:10604   */\n      sub\n        /* \"#utility.yul\":10580:10581   */\n      0x00\n        /* \"#utility.yul\":10569:10578   */\n      dup4\n        /* \"#utility.yul\":10565:10582   */\n      add\n        /* \"#utility.yul\":10558:10605   */\n      mstore\n        /* \"#utility.yul\":10622:10753   */\n      tag_320\n        /* \"#utility.yul\":10748:10752   */\n      dup2\n        /* \"#utility.yul\":10622:10753   */\n      tag_160\n      jump\t// in\n    tag_320:\n        /* \"#utility.yul\":10614:10753   */\n      swap1\n      pop\n        /* \"#utility.yul\":10341:10760   */\n      swap2\n      swap1\n      pop\n      jump\t// out\n        /* \"#utility.yul\":10766:10989   */\n    tag_161:\n        /* \"#utility.yul\":10906:10940   */\n      0x596f75277265206e6f7420746865206c61756e63686572206f66207468697320\n        /* \"#utility.yul\":10902:10903   */\n      0x00\n        /* \"#utility.yul\":10894:10900   */\n      dup3\n        /* \"#utility.yul\":10890:10904   */\n      add\n        /* \"#utility.yul\":10883:10941   */\n      mstore\n        /* \"#utility.yul\":10975:10981   */\n      0x67616d6500000000000000000000000000000000000000000000000000000000\n        /* \"#utility.yul\":10970:10972   */\n      0x20\n        /* \"#utility.yul\":10962:10968   */\n      dup3\n        /* \"#utility.yul\":10958:10973   */\n      add\n        /* \"#utility.yul\":10951:10982   */\n      mstore\n        /* \"#utility.yul\":10766:10989   */\n      pop\n      jump\t// out\n        /* \"#utility.yul\":10995:11361   */\n    tag_162:\n        /* \"#utility.yul\":11137:11140   */\n      0x00\n        /* \"#utility.yul\":11158:11225   */\n      tag_323\n        /* \"#utility.yul\":11222:11224   */\n      0x24\n        /* \"#utility.yul\":11217:11220   */\n      dup4\n        /* \"#utility.yul\":11158:11225   */\n      tag_144\n      jump\t// in\n    tag_323:\n        /* \"#utility.yul\":11151:11225   */\n      swap2\n      pop\n        /* \"#utility.yul\":11234:11327   */\n      tag_324\n        /* \"#utility.yul\":11323:11326   */\n      dup3\n        /* \"#utility.yul\":11234:11327   */\n      tag_161\n      jump\t// in\n    tag_324:\n        /* \"#utility.yul\":11352:11354   */\n      0x40\n        /* \"#utility.yul\":11347:11350   */\n      dup3\n        /* \"#utility.yul\":11343:11355   */\n      add\n        /* \"#utility.yul\":11336:11355   */\n      swap1\n      pop\n        /* \"#utility.yul\":10995:11361   */\n      swap2\n      swap1\n      pop\n      jump\t// out\n        /* \"#utility.yul\":11367:11786   */\n    tag_49:\n        /* \"#utility.yul\":11533:11537   */\n      0x00\n        /* \"#utility.yul\":11571:11573   */\n      0x20\n        /* \"#utility.yul\":11560:11569   */\n      dup3\n        /* \"#utility.yul\":11556:11574   */\n      add\n        /* \"#utility.yul\":11548:11574   */\n      swap1\n      pop\n        /* \"#utility.yul\":11620:11629   */\n      dup2\n        /* \"#utility.yul\":11614:11618   */\n      dup2\n        /* \"#utility.yul\":11610:11630   */\n      sub\n        /* \"#utility.yul\":11606:11607   */\n      0x00\n        /* \"#utility.yul\":11595:11604   */\n      dup4\n        /* \"#utility.yul\":11591:11608   */\n      add\n        /* \"#utility.yul\":11584:11631   */\n      mstore\n        /* \"#utility.yul\":11648:11779   */\n      tag_326\n        /* \"#utility.yul\":11774:11778   */\n      dup2\n        /* \"#utility.yul\":11648:11779   */\n      tag_162\n      jump\t// in\n    tag_326:\n        /* \"#utility.yul\":11640:11779   */\n      swap1\n      pop\n        /* \"#utility.yul\":11367:11786   */\n      swap2\n      swap1\n      pop\n      jump\t// out\n        /* \"#utility.yul\":11792:11974   */\n    tag_163:\n        /* \"#utility.yul\":11932:11966   */\n      0x596f75277265206e6f74206120706c61796572206f6620746869732067616d65\n        /* \"#utility.yul\":11928:11929   */\n      0x00\n        /* \"#utility.yul\":11920:11926   */\n      dup3\n        /* \"#utility.yul\":11916:11930   */\n      add\n        /* \"#utility.yul\":11909:11967   */\n      mstore\n        /* \"#utility.yul\":11792:11974   */\n      pop\n      jump\t// out\n        /* \"#utility.yul\":11980:12346   */\n    tag_164:\n        /* \"#utility.yul\":12122:12125   */\n      0x00\n        /* \"#utility.yul\":12143:12210   */\n      tag_329\n        /* \"#utility.yul\":12207:12209   */\n      0x20\n        /* \"#utility.yul\":12202:12205   */\n      dup4\n        /* \"#utility.yul\":12143:12210   */\n      tag_144\n      jump\t// in\n    tag_329:\n        /* \"#utility.yul\":12136:12210   */\n      swap2\n      pop\n        /* \"#utility.yul\":12219:12312   */\n      tag_330\n        /* \"#utility.yul\":12308:12311   */\n      dup3\n        /* \"#utility.yul\":12219:12312   */\n      tag_163\n      jump\t// in\n    tag_330:\n        /* \"#utility.yul\":12337:12339   */\n      0x20\n        /* \"#utility.yul\":12332:12335   */\n      dup3\n        /* \"#utility.yul\":12328:12340   */\n      add\n        /* \"#utility.yul\":12321:12340   */\n      swap1\n      pop\n        /* \"#utility.yul\":11980:12346   */\n      swap2\n      swap1\n      pop\n      jump\t// out\n        /* \"#utility.yul\":12352:12771   */\n    tag_68:\n        /* \"#utility.yul\":12518:12522   */\n      0x00\n        /* \"#utility.yul\":12556:12558   */\n      0x20\n        /* \"#utility.yul\":12545:12554   */\n      dup3\n        /* \"#utility.yul\":12541:12559   */\n      add\n        /* \"#utility.yul\":12533:12559   */\n      swap1\n      pop\n        /* \"#utility.yul\":12605:12614   */\n      dup2\n        /* \"#utility.yul\":12599:12603   */\n      dup2\n        /* \"#utility.yul\":12595:12615   */\n      sub\n        /* \"#utility.yul\":12591:12592   */\n      0x00\n        /* \"#utility.yul\":12580:12589   */\n      dup4\n        /* \"#utility.yul\":12576:12593   */\n      add\n        /* \"#utility.yul\":12569:12616   */\n      mstore\n        /* \"#utility.yul\":12633:12764   */\n      tag_332\n        /* \"#utility.yul\":12759:12763   */\n      dup2\n        /* \"#utility.yul\":12633:12764   */\n      tag_164\n      jump\t// in\n    tag_332:\n        /* \"#utility.yul\":12625:12764   */\n      swap1\n      pop\n        /* \"#utility.yul\":12352:12771   */\n      swap2\n      swap1\n      pop\n      jump\t// out\n        /* \"#utility.yul\":12777:12945   */\n    tag_165:\n        /* \"#utility.yul\":12917:12937   */\n      0x5468652067616d652068617320656e6465640000000000000000000000000000\n        /* \"#utility.yul\":12913:12914   */\n      0x00\n        /* \"#utility.yul\":12905:12911   */\n      dup3\n        /* \"#utility.yul\":12901:12915   */\n      add\n        /* \"#utility.yul\":12894:12938   */\n      mstore\n        /* \"#utility.yul\":12777:12945   */\n      pop\n      jump\t// out\n        /* \"#utility.yul\":12951:13317   */\n    tag_166:\n        /* \"#utility.yul\":13093:13096   */\n      0x00\n        /* \"#utility.yul\":13114:13181   */\n      tag_335\n        /* \"#utility.yul\":13178:13180   */\n      0x12\n        /* \"#utility.yul\":13173:13176   */\n      dup4\n        /* \"#utility.yul\":13114:13181   */\n      tag_144\n      jump\t// in\n    tag_335:\n        /* \"#utility.yul\":13107:13181   */\n      swap2\n      pop\n        /* \"#utility.yul\":13190:13283   */\n      tag_336\n        /* \"#utility.yul\":13279:13282   */\n      dup3\n        /* \"#utility.yul\":13190:13283   */\n      tag_165\n      jump\t// in\n    tag_336:\n        /* \"#utility.yul\":13308:13310   */\n      0x20\n        /* \"#utility.yul\":13303:13306   */\n      dup3\n        /* \"#utility.yul\":13299:13311   */\n      add\n        /* \"#utility.yul\":13292:13311   */\n      swap1\n      pop\n        /* \"#utility.yul\":12951:13317   */\n      swap2\n      swap1\n      pop\n      jump\t// out\n        /* \"#utility.yul\":13323:13742   */\n    tag_77:\n        /* \"#utility.yul\":13489:13493   */\n      0x00\n        /* \"#utility.yul\":13527:13529   */\n      0x20\n        /* \"#utility.yul\":13516:13525   */\n      dup3\n        /* \"#utility.yul\":13512:13530   */\n      add\n        /* \"#utility.yul\":13504:13530   */\n      swap1\n      pop\n        /* \"#utility.yul\":13576:13585   */\n      dup2\n        /* \"#utility.yul\":13570:13574   */\n      dup2\n        /* \"#utility.yul\":13566:13586   */\n      sub\n        /* \"#utility.yul\":13562:13563   */\n      0x00\n        /* \"#utility.yul\":13551:13560   */\n      dup4\n        /* \"#utility.yul\":13547:13564   */\n      add\n        /* \"#utility.yul\":13540:13587   */\n      mstore\n        /* \"#utility.yul\":13604:13735   */\n      tag_338\n        /* \"#utility.yul\":13730:13734   */\n      dup2\n        /* \"#utility.yul\":13604:13735   */\n      tag_166\n      jump\t// in\n    tag_338:\n        /* \"#utility.yul\":13596:13735   */\n      swap1\n      pop\n        /* \"#utility.yul\":13323:13742   */\n      swap2\n      swap1\n      pop\n      jump\t// out\n        /* \"#utility.yul\":13748:13925   */\n    tag_167:\n        /* \"#utility.yul\":13888:13917   */\n      0x546865206e756d626572206973206f7574206f66206c696d6974730000000000\n        /* \"#utility.yul\":13884:13885   */\n      0x00\n        /* \"#utility.yul\":13876:13882   */\n      dup3\n        /* \"#utility.yul\":13872:13886   */\n      add\n        /* \"#utility.yul\":13865:13918   */\n      mstore\n        /* \"#utility.yul\":13748:13925   */\n      pop\n      jump\t// out\n        /* \"#utility.yul\":13931:14297   */\n    tag_168:\n        /* \"#utility.yul\":14073:14076   */\n      0x00\n        /* \"#utility.yul\":14094:14161   */\n      tag_341\n        /* \"#utility.yul\":14158:14160   */\n      0x1b\n        /* \"#utility.yul\":14153:14156   */\n      dup4\n        /* \"#utility.yul\":14094:14161   */\n      tag_144\n      jump\t// in\n    tag_341:\n        /* \"#utility.yul\":14087:14161   */\n      swap2\n      pop\n        /* \"#utility.yul\":14170:14263   */\n      tag_342\n        /* \"#utility.yul\":14259:14262   */\n      dup3\n        /* \"#utility.yul\":14170:14263   */\n      tag_167\n      jump\t// in\n    tag_342:\n        /* \"#utility.yul\":14288:14290   */\n      0x20\n        /* \"#utility.yul\":14283:14286   */\n      dup3\n        /* \"#utility.yul\":14279:14291   */\n      add\n        /* \"#utility.yul\":14272:14291   */\n      swap1\n      pop\n        /* \"#utility.yul\":13931:14297   */\n      swap2\n      swap1\n      pop\n      jump\t// out\n        /* \"#utility.yul\":14303:14722   */\n    tag_81:\n        /* \"#utility.yul\":14469:14473   */\n      0x00\n        /* \"#utility.yul\":14507:14509   */\n      0x20\n        /* \"#utility.yul\":14496:14505   */\n      dup3\n        /* \"#utility.yul\":14492:14510   */\n      add\n        /* \"#utility.yul\":14484:14510   */\n      swap1\n      pop\n        /* \"#utility.yul\":14556:14565   */\n      dup2\n        /* \"#utility.yul\":14550:14554   */\n      dup2\n        /* \"#utility.yul\":14546:14566   */\n      sub\n        /* \"#utility.yul\":14542:14543   */\n      0x00\n        /* \"#utility.yul\":14531:14540   */\n      dup4\n        /* \"#utility.yul\":14527:14544   */\n      add\n        /* \"#utility.yul\":14520:14567   */\n      mstore\n        /* \"#utility.yul\":14584:14715   */\n      tag_344\n        /* \"#utility.yul\":14710:14714   */\n      dup2\n        /* \"#utility.yul\":14584:14715   */\n      tag_168\n      jump\t// in\n    tag_344:\n        /* \"#utility.yul\":14576:14715   */\n      swap1\n      pop\n        /* \"#utility.yul\":14303:14722   */\n      swap2\n      swap1\n      pop\n      jump\t// out\n        /* \"#utility.yul\":14728:14920   */\n    tag_169:\n        /* \"#utility.yul\":14897:14913   */\n      0x5468652077696e6e657220697320000000000000000000000000000000000000\n        /* \"#utility.yul\":14892:14895   */\n      dup2\n        /* \"#utility.yul\":14885:14914   */\n      mstore\n        /* \"#utility.yul\":14728:14920   */\n      pop\n      jump\t// out\n        /* \"#utility.yul\":14926:15106   */\n    tag_170:\n        /* \"#utility.yul\":14974:15051   */\n      0x4e487b7100000000000000000000000000000000000000000000000000000000\n        /* \"#utility.yul\":14971:14972   */\n      0x00\n        /* \"#utility.yul\":14964:15052   */\n      mstore\n        /* \"#utility.yul\":15071:15075   */\n      0x22\n        /* \"#utility.yul\":15068:15069   */\n      0x04\n        /* \"#utility.yul\":15061:15076   */\n      mstore\n        /* \"#utility.yul\":15095:15099   */\n      0x24\n        /* \"#utility.yul\":15092:15093   */\n      0x00\n        /* \"#utility.yul\":15085:15100   */\n      revert\n        /* \"#utility.yul\":15112:15432   */\n    tag_171:\n        /* \"#utility.yul\":15156:15162   */\n      0x00\n        /* \"#utility.yul\":15193:15194   */\n      0x02\n        /* \"#utility.yul\":15187:15191   */\n      dup3\n        /* \"#utility.yul\":15183:15195   */\n      div\n        /* \"#utility.yul\":15173:15195   */\n      swap1\n      pop\n        /* \"#utility.yul\":15240:15241   */\n      0x01\n        /* \"#utility.yul\":15234:15238   */\n      dup3\n        /* \"#utility.yul\":15230:15242   */\n      and\n        /* \"#utility.yul\":15261:15279   */\n      dup1\n        /* \"#utility.yul\":15251:15332   */\n      tag_348\n      jumpi\n        /* \"#utility.yul\":15317:15321   */\n      0x7f\n        /* \"#utility.yul\":15309:15315   */\n      dup3\n        /* \"#utility.yul\":15305:15322   */\n      and\n        /* \"#utility.yul\":15295:15322   */\n      swap2\n      pop\n        /* \"#utility.yul\":15251:15332   */\n    tag_348:\n        /* \"#utility.yul\":15379:15381   */\n      0x20\n        /* \"#utility.yul\":15371:15377   */\n      dup3\n        /* \"#utility.yul\":15368:15382   */\n      lt\n        /* \"#utility.yul\":15348:15366   */\n      dup2\n        /* \"#utility.yul\":15345:15383   */\n      sub\n        /* \"#utility.yul\":15342:15426   */\n      tag_349\n      jumpi\n        /* \"#utility.yul\":15398:15416   */\n      tag_350\n      tag_170\n      jump\t// in\n    tag_350:\n        /* \"#utility.yul\":15342:15426   */\n    tag_349:\n        /* \"#utility.yul\":15163:15432   */\n      pop\n        /* \"#utility.yul\":15112:15432   */\n      swap2\n      swap1\n      pop\n      jump\t// out\n        /* \"#utility.yul\":15438:15586   */\n    tag_172:\n        /* \"#utility.yul\":15540:15551   */\n      0x00\n        /* \"#utility.yul\":15577:15580   */\n      dup2\n        /* \"#utility.yul\":15562:15580   */\n      swap1\n      pop\n        /* \"#utility.yul\":15438:15586   */\n      swap3\n      swap2\n      pop\n      pop\n      jump\t// out\n        /* \"#utility.yul\":15592:15733   */\n    tag_173:\n        /* \"#utility.yul\":15641:15645   */\n      0x00\n        /* \"#utility.yul\":15664:15667   */\n      dup2\n        /* \"#utility.yul\":15656:15667   */\n      swap1\n      pop\n        /* \"#utility.yul\":15687:15690   */\n      dup2\n        /* \"#utility.yul\":15684:15685   */\n      0x00\n        /* \"#utility.yul\":15677:15691   */\n      mstore\n        /* \"#utility.yul\":15721:15725   */\n      0x20\n        /* \"#utility.yul\":15718:15719   */\n      0x00\n        /* \"#utility.yul\":15708:15726   */\n      keccak256\n        /* \"#utility.yul\":15700:15726   */\n      swap1\n      pop\n        /* \"#utility.yul\":15592:15733   */\n      swap2\n      swap1\n      pop\n      jump\t// out\n        /* \"#utility.yul\":15763:16637   */\n    tag_174:\n        /* \"#utility.yul\":15866:15869   */\n      0x00\n        /* \"#utility.yul\":15903:15908   */\n      dup2\n        /* \"#utility.yul\":15897:15909   */\n      sload\n        /* \"#utility.yul\":15932:15968   */\n      tag_354\n        /* \"#utility.yul\":15958:15967   */\n      dup2\n        /* \"#utility.yul\":15932:15968   */\n      tag_171\n      jump\t// in\n    tag_354:\n        /* \"#utility.yul\":15984:16073   */\n      tag_355\n        /* \"#utility.yul\":16066:16072   */\n      dup2\n        /* \"#utility.yul\":16061:16064   */\n      dup7\n        /* \"#utility.yul\":15984:16073   */\n      tag_172\n      jump\t// in\n    tag_355:\n        /* \"#utility.yul\":15977:16073   */\n      swap5\n      pop\n        /* \"#utility.yul\":16104:16105   */\n      0x01\n        /* \"#utility.yul\":16093:16102   */\n      dup3\n        /* \"#utility.yul\":16089:16106   */\n      and\n        /* \"#utility.yul\":16120:16121   */\n      0x00\n        /* \"#utility.yul\":16115:16281   */\n      dup2\n      eq\n      tag_357\n      jumpi\n        /* \"#utility.yul\":16295:16296   */\n      0x01\n        /* \"#utility.yul\":16290:16631   */\n      dup2\n      eq\n      tag_358\n      jumpi\n        /* \"#utility.yul\":16082:16631   */\n      jump(tag_356)\n        /* \"#utility.yul\":16115:16281   */\n    tag_357:\n        /* \"#utility.yul\":16199:16203   */\n      0xff\n        /* \"#utility.yul\":16195:16204   */\n      not\n        /* \"#utility.yul\":16184:16193   */\n      dup4\n        /* \"#utility.yul\":16180:16205   */\n      and\n        /* \"#utility.yul\":16175:16178   */\n      dup7\n        /* \"#utility.yul\":16168:16206   */\n      mstore\n        /* \"#utility.yul\":16261:16267   */\n      dup2\n        /* \"#utility.yul\":16254:16268   */\n      iszero\n        /* \"#utility.yul\":16247:16269   */\n      iszero\n        /* \"#utility.yul\":16239:16245   */\n      dup3\n        /* \"#utility.yul\":16235:16270   */\n      mul\n        /* \"#utility.yul\":16230:16233   */\n      dup7\n        /* \"#utility.yul\":16226:16271   */\n      add\n        /* \"#utility.yul\":16219:16271   */\n      swap4\n      pop\n        /* \"#utility.yul\":16115:16281   */\n      jump(tag_356)\n        /* \"#utility.yul\":16290:16631   */\n    tag_358:\n        /* \"#utility.yul\":16357:16395   */\n      tag_359\n        /* \"#utility.yul\":16389:16394   */\n      dup6\n        /* \"#utility.yul\":16357:16395   */\n      tag_173\n      jump\t// in\n    tag_359:\n        /* \"#utility.yul\":16417:16418   */\n      0x00\n        /* \"#utility.yul\":16431:16585   */\n    tag_360:\n        /* \"#utility.yul\":16445:16451   */\n      dup4\n        /* \"#utility.yul\":16442:16443   */\n      dup2\n        /* \"#utility.yul\":16439:16452   */\n      lt\n        /* \"#utility.yul\":16431:16585   */\n      iszero\n      tag_362\n      jumpi\n        /* \"#utility.yul\":16519:16526   */\n      dup2\n        /* \"#utility.yul\":16513:16527   */\n      sload\n        /* \"#utility.yul\":16509:16510   */\n      dup2\n        /* \"#utility.yul\":16504:16507   */\n      dup10\n        /* \"#utility.yul\":16500:16511   */\n      add\n        /* \"#utility.yul\":16493:16528   */\n      mstore\n        /* \"#utility.yul\":16569:16570   */\n      0x01\n        /* \"#utility.yul\":16560:16567   */\n      dup3\n        /* \"#utility.yul\":16556:16571   */\n      add\n        /* \"#utility.yul\":16545:16571   */\n      swap2\n      pop\n        /* \"#utility.yul\":16467:16471   */\n      0x20\n        /* \"#utility.yul\":16464:16465   */\n      dup2\n        /* \"#utility.yul\":16460:16472   */\n      add\n        /* \"#utility.yul\":16455:16472   */\n      swap1\n      pop\n        /* \"#utility.yul\":16431:16585   */\n      jump(tag_360)\n    tag_362:\n        /* \"#utility.yul\":16614:16620   */\n      dup4\n        /* \"#utility.yul\":16609:16612   */\n      dup9\n        /* \"#utility.yul\":16605:16621   */\n      add\n        /* \"#utility.yul\":16598:16621   */\n      swap6\n      pop\n        /* \"#utility.yul\":16297:16631   */\n      pop\n      pop\n        /* \"#utility.yul\":16082:16631   */\n    tag_356:\n      pop\n        /* \"#utility.yul\":15870:16637   */\n      pop\n      pop\n        /* \"#utility.yul\":15763:16637   */\n      swap3\n      swap2\n      pop\n      pop\n      jump\t// out\n        /* \"#utility.yul\":16643:17179   */\n    tag_96:\n        /* \"#utility.yul\":16863:16866   */\n      0x00\n        /* \"#utility.yul\":16878:17016   */\n      tag_364\n        /* \"#utility.yul\":17012:17015   */\n      dup3\n        /* \"#utility.yul\":16878:17016   */\n      tag_169\n      jump\t// in\n    tag_364:\n        /* \"#utility.yul\":17041:17043   */\n      0x0e\n        /* \"#utility.yul\":17036:17039   */\n      dup3\n        /* \"#utility.yul\":17032:17044   */\n      add\n        /* \"#utility.yul\":17025:17044   */\n      swap2\n      pop\n        /* \"#utility.yul\":17061:17153   */\n      tag_365\n        /* \"#utility.yul\":17149:17152   */\n      dup3\n        /* \"#utility.yul\":17140:17146   */\n      dup5\n        /* \"#utility.yul\":17061:17153   */\n      tag_174\n      jump\t// in\n    tag_365:\n        /* \"#utility.yul\":17054:17153   */\n      swap2\n      pop\n        /* \"#utility.yul\":17170:17173   */\n      dup2\n        /* \"#utility.yul\":17163:17173   */\n      swap1\n      pop\n        /* \"#utility.yul\":16643:17179   */\n      swap3\n      swap2\n      pop\n      pop\n      jump\t// out\n        /* \"#utility.yul\":17185:17366   */\n    tag_175:\n        /* \"#utility.yul\":17325:17358   */\n      0x596f752063616e277420706c617920616761696e737420796f757273656c6600\n        /* \"#utility.yul\":17321:17322   */\n      0x00\n        /* \"#utility.yul\":17313:17319   */\n      dup3\n        /* \"#utility.yul\":17309:17323   */\n      add\n        /* \"#utility.yul\":17302:17359   */\n      mstore\n        /* \"#utility.yul\":17185:17366   */\n      pop\n      jump\t// out\n        /* \"#utility.yul\":17372:17738   */\n    tag_176:\n        /* \"#utility.yul\":17514:17517   */\n      0x00\n        /* \"#utility.yul\":17535:17602   */\n      tag_368\n        /* \"#utility.yul\":17599:17601   */\n      0x1f\n        /* \"#utility.yul\":17594:17597   */\n      dup4\n        /* \"#utility.yul\":17535:17602   */\n      tag_144\n      jump\t// in\n    tag_368:\n        /* \"#utility.yul\":17528:17602   */\n      swap2\n      pop\n        /* \"#utility.yul\":17611:17704   */\n      tag_369\n        /* \"#utility.yul\":17700:17703   */\n      dup3\n        /* \"#utility.yul\":17611:17704   */\n      tag_175\n      jump\t// in\n    tag_369:\n        /* \"#utility.yul\":17729:17731   */\n      0x20\n        /* \"#utility.yul\":17724:17727   */\n      dup3\n        /* \"#utility.yul\":17720:17732   */\n      add\n        /* \"#utility.yul\":17713:17732   */\n      swap1\n      pop\n        /* \"#utility.yul\":17372:17738   */\n      swap2\n      swap1\n      pop\n      jump\t// out\n        /* \"#utility.yul\":17744:18163   */\n    tag_100:\n        /* \"#utility.yul\":17910:17914   */\n      0x00\n        /* \"#utility.yul\":17948:17950   */\n      0x20\n        /* \"#utility.yul\":17937:17946   */\n      dup3\n        /* \"#utility.yul\":17933:17951   */\n      add\n        /* \"#utility.yul\":17925:17951   */\n      swap1\n      pop\n        /* \"#utility.yul\":17997:18006   */\n      dup2\n        /* \"#utility.yul\":17991:17995   */\n      dup2\n        /* \"#utility.yul\":17987:18007   */\n      sub\n        /* \"#utility.yul\":17983:17984   */\n      0x00\n        /* \"#utility.yul\":17972:17981   */\n      dup4\n        /* \"#utility.yul\":17968:17985   */\n      add\n        /* \"#utility.yul\":17961:18008   */\n      mstore\n        /* \"#utility.yul\":18025:18156   */\n      tag_371\n        /* \"#utility.yul\":18151:18155   */\n      dup2\n        /* \"#utility.yul\":18025:18156   */\n      tag_176\n      jump\t// in\n    tag_371:\n        /* \"#utility.yul\":18017:18156   */\n      swap1\n      pop\n        /* \"#utility.yul\":17744:18163   */\n      swap2\n      swap1\n      pop\n      jump\t// out\n        /* \"#utility.yul\":18169:18401   */\n    tag_177:\n        /* \"#utility.yul\":18309:18343   */\n      0x546865206c6f776572206c696d69742073686f756c64206265206c6573732074\n        /* \"#utility.yul\":18305:18306   */\n      0x00\n        /* \"#utility.yul\":18297:18303   */\n      dup3\n        /* \"#utility.yul\":18293:18307   */\n      add\n        /* \"#utility.yul\":18286:18344   */\n      mstore\n        /* \"#utility.yul\":18378:18393   */\n      0x68616e2074686520757070657200000000000000000000000000000000000000\n        /* \"#utility.yul\":18373:18375   */\n      0x20\n        /* \"#utility.yul\":18365:18371   */\n      dup3\n        /* \"#utility.yul\":18361:18376   */\n      add\n        /* \"#utility.yul\":18354:18394   */\n      mstore\n        /* \"#utility.yul\":18169:18401   */\n      pop\n      jump\t// out\n        /* \"#utility.yul\":18407:18773   */\n    tag_178:\n        /* \"#utility.yul\":18549:18552   */\n      0x00\n        /* \"#utility.yul\":18570:18637   */\n      tag_374\n        /* \"#utility.yul\":18634:18636   */\n      0x2d\n        /* \"#utility.yul\":18629:18632   */\n      dup4\n        /* \"#utility.yul\":18570:18637   */\n      tag_144\n      jump\t// in\n    tag_374:\n        /* \"#utility.yul\":18563:18637   */\n      swap2\n      pop\n        /* \"#utility.yul\":18646:18739   */\n      tag_375\n        /* \"#utility.yul\":18735:18738   */\n      dup3\n        /* \"#utility.yul\":18646:18739   */\n      tag_177\n      jump\t// in\n    tag_375:\n        /* \"#utility.yul\":18764:18766   */\n      0x40\n        /* \"#utility.yul\":18759:18762   */\n      dup3\n        /* \"#utility.yul\":18755:18767   */\n      add\n        /* \"#utility.yul\":18748:18767   */\n      swap1\n      pop\n        /* \"#utility.yul\":18407:18773   */\n      swap2\n      swap1\n      pop\n      jump\t// out\n        /* \"#utility.yul\":18779:19198   */\n    tag_103:\n        /* \"#utility.yul\":18945:18949   */\n      0x00\n        /* \"#utility.yul\":18983:18985   */\n      0x20\n        /* \"#utility.yul\":18972:18981   */\n      dup3\n        /* \"#utility.yul\":18968:18986   */\n      add\n        /* \"#utility.yul\":18960:18986   */\n      swap1\n      pop\n        /* \"#utility.yul\":19032:19041   */\n      dup2\n        /* \"#utility.yul\":19026:19030   */\n      dup2\n        /* \"#utility.yul\":19022:19042   */\n      sub\n        /* \"#utility.yul\":19018:19019   */\n      0x00\n        /* \"#utility.yul\":19007:19016   */\n      dup4\n        /* \"#utility.yul\":19003:19020   */\n      add\n        /* \"#utility.yul\":18996:19043   */\n      mstore\n        /* \"#utility.yul\":19060:19191   */\n      tag_377\n        /* \"#utility.yul\":19186:19190   */\n      dup2\n        /* \"#utility.yul\":19060:19191   */\n      tag_178\n      jump\t// in\n    tag_377:\n        /* \"#utility.yul\":19052:19191   */\n      swap1\n      pop\n        /* \"#utility.yul\":18779:19198   */\n      swap2\n      swap1\n      pop\n      jump\t// out\n        /* \"#utility.yul\":19204:19384   */\n    tag_179:\n        /* \"#utility.yul\":19252:19329   */\n      0x4e487b7100000000000000000000000000000000000000000000000000000000\n        /* \"#utility.yul\":19249:19250   */\n      0x00\n        /* \"#utility.yul\":19242:19330   */\n      mstore\n        /* \"#utility.yul\":19349:19353   */\n      0x11\n        /* \"#utility.yul\":19346:19347   */\n      0x04\n        /* \"#utility.yul\":19339:19354   */\n      mstore\n        /* \"#utility.yul\":19373:19377   */\n      0x24\n        /* \"#utility.yul\":19370:19371   */\n      0x00\n        /* \"#utility.yul\":19363:19378   */\n      revert\n        /* \"#utility.yul\":19390:19623   */\n    tag_105:\n        /* \"#utility.yul\":19429:19432   */\n      0x00\n        /* \"#utility.yul\":19452:19476   */\n      tag_380\n        /* \"#utility.yul\":19470:19475   */\n      dup3\n        /* \"#utility.yul\":19452:19476   */\n      tag_128\n      jump\t// in\n    tag_380:\n        /* \"#utility.yul\":19443:19476   */\n      swap2\n      pop\n        /* \"#utility.yul\":19498:19564   */\n      0xffffffffffffffffffffffffffffffffffffffffffffffffffffffffffffffff\n        /* \"#utility.yul\":19491:19496   */\n      dup3\n        /* \"#utility.yul\":19488:19565   */\n      sub\n        /* \"#utility.yul\":19485:19588   */\n      tag_381\n      jumpi\n        /* \"#utility.yul\":19568:19586   */\n      tag_382\n      tag_179\n      jump\t// in\n    tag_382:\n        /* \"#utility.yul\":19485:19588   */\n    tag_381:\n        /* \"#utility.yul\":19615:19616   */\n      0x01\n        /* \"#utility.yul\":19608:19613   */\n      dup3\n        /* \"#utility.yul\":19604:19617   */\n      add\n        /* \"#utility.yul\":19597:19617   */\n      swap1\n      pop\n        /* \"#utility.yul\":19390:19623   */\n      swap2\n      swap1\n      pop\n      jump\t// out\n        /* \"#utility.yul\":19629:19722   */\n    tag_180:\n        /* \"#utility.yul\":19666:19672   */\n      0x00\n        /* \"#utility.yul\":19713:19715   */\n      0x20\n        /* \"#utility.yul\":19708:19710   */\n      0x1f\n        /* \"#utility.yul\":19701:19706   */\n      dup4\n        /* \"#utility.yul\":19697:19711   */\n      add\n        /* \"#utility.yul\":19693:19716   */\n      div\n        /* \"#utility.yul\":19683:19716   */\n      swap1\n      pop\n        /* \"#utility.yul\":19629:19722   */\n      swap2\n      swap1\n      pop\n      jump\t// out\n        /* \"#utility.yul\":19728:19835   */\n    tag_181:\n        /* \"#utility.yul\":19772:19780   */\n      0x00\n        /* \"#utility.yul\":19822:19827   */\n      dup3\n        /* \"#utility.yul\":19816:19820   */\n      dup3\n        /* \"#utility.yul\":19812:19828   */\n      shl\n        /* \"#utility.yul\":19791:19828   */\n      swap1\n      pop\n        /* \"#utility.yul\":19728:19835   */\n      swap3\n      swap2\n      pop\n      pop\n      jump\t// out\n        /* \"#utility.yul\":19841:20234   */\n    tag_182:\n        /* \"#utility.yul\":19910:19916   */\n      0x00\n        /* \"#utility.yul\":19960:19961   */\n      0x08\n        /* \"#utility.yul\":19948:19958   */\n      dup4\n        /* \"#utility.yul\":19944:19962   */\n      mul\n        /* \"#utility.yul\":19983:20080   */\n      tag_386\n        /* \"#utility.yul\":20013:20079   */\n      0xffffffffffffffffffffffffffffffffffffffffffffffffffffffffffffffff\n        /* \"#utility.yul\":20002:20011   */\n      dup3\n        /* \"#utility.yul\":19983:20080   */\n      tag_181\n      jump\t// in\n    tag_386:\n        /* \"#utility.yul\":20101:20140   */\n      tag_387\n        /* \"#utility.yul\":20131:20139   */\n      dup7\n        /* \"#utility.yul\":20120:20129   */\n      dup4\n        /* \"#utility.yul\":20101:20140   */\n      tag_181\n      jump\t// in\n    tag_387:\n        /* \"#utility.yul\":20089:20140   */\n      swap6\n      pop\n        /* \"#utility.yul\":20173:20177   */\n      dup1\n        /* \"#utility.yul\":20169:20178   */\n      not\n        /* \"#utility.yul\":20162:20167   */\n      dup5\n        /* \"#utility.yul\":20158:20179   */\n      and\n        /* \"#utility.yul\":20149:20179   */\n      swap4\n      pop\n        /* \"#utility.yul\":20222:20226   */\n      dup1\n        /* \"#utility.yul\":20212:20220   */\n      dup7\n        /* \"#utility.yul\":20208:20227   */\n      and\n        /* \"#utility.yul\":20201:20206   */\n      dup5\n        /* \"#utility.yul\":20198:20228   */\n      or\n        /* \"#utility.yul\":20188:20228   */\n      swap3\n      pop\n        /* \"#utility.yul\":19917:20234   */\n      pop\n      pop\n        /* \"#utility.yul\":19841:20234   */\n      swap4\n      swap3\n      pop\n      pop\n      pop\n      jump\t// out\n        /* \"#utility.yul\":20240:20300   */\n    tag_183:\n        /* \"#utility.yul\":20268:20271   */\n      0x00\n        /* \"#utility.yul\":20289:20294   */\n      dup2\n        /* \"#utility.yul\":20282:20294   */\n      swap1\n      pop\n        /* \"#utility.yul\":20240:20300   */\n      swap2\n      swap1\n      pop\n      jump\t// out\n        /* \"#utility.yul\":20306:20448   */\n    tag_184:\n        /* \"#utility.yul\":20356:20365   */\n      0x00\n        /* \"#utility.yul\":20389:20442   */\n      tag_390\n        /* \"#utility.yul\":20407:20441   */\n      tag_391\n        /* \"#utility.yul\":20416:20440   */\n      tag_392\n        /* \"#utility.yul\":20434:20439   */\n      dup5\n        /* \"#utility.yul\":20416:20440   */\n      tag_128\n      jump\t// in\n    tag_392:\n        /* \"#utility.yul\":20407:20441   */\n      tag_183\n      jump\t// in\n    tag_391:\n        /* \"#utility.yul\":20389:20442   */\n      tag_128\n      jump\t// in\n    tag_390:\n        /* \"#utility.yul\":20376:20442   */\n      swap1\n      pop\n        /* \"#utility.yul\":20306:20448   */\n      swap2\n      swap1\n      pop\n      jump\t// out\n        /* \"#utility.yul\":20454:20529   */\n    tag_185:\n        /* \"#utility.yul\":20497:20500   */\n      0x00\n        /* \"#utility.yul\":20518:20523   */\n      dup2\n        /* \"#utility.yul\":20511:20523   */\n      swap1\n      pop\n        /* \"#utility.yul\":20454:20529   */\n      swap2\n      swap1\n      pop\n      jump\t// out\n        /* \"#utility.yul\":20535:20804   */\n    tag_186:\n        /* \"#utility.yul\":20645:20684   */\n      tag_395\n        /* \"#utility.yul\":20676:20683   */\n      dup4\n        /* \"#utility.yul\":20645:20684   */\n      tag_184\n      jump\t// in\n    tag_395:\n        /* \"#utility.yul\":20706:20797   */\n      tag_396\n        /* \"#utility.yul\":20755:20796   */\n      tag_397\n        /* \"#utility.yul\":20779:20795   */\n      dup3\n        /* \"#utility.yul\":20755:20796   */\n      tag_185\n      jump\t// in\n    tag_397:\n        /* \"#utility.yul\":20747:20753   */\n      dup5\n        /* \"#utility.yul\":20740:20744   */\n      dup5\n        /* \"#utility.yul\":20734:20745   */\n      sload\n        /* \"#utility.yul\":20706:20797   */\n      tag_182\n      jump\t// in\n    tag_396:\n        /* \"#utility.yul\":20700:20704   */\n      dup3\n        /* \"#utility.yul\":20693:20798   */\n      sstore\n        /* \"#utility.yul\":20611:20804   */\n      pop\n        /* \"#utility.yul\":20535:20804   */\n      pop\n      pop\n      pop\n      jump\t// out\n        /* \"#utility.yul\":20810:20883   */\n    tag_187:\n        /* \"#utility.yul\":20855:20858   */\n      0x00\n        /* \"#utility.yul\":20810:20883   */\n      swap1\n      jump\t// out\n        /* \"#utility.yul\":20889:21078   */\n    tag_188:\n        /* \"#utility.yul\":20966:20998   */\n      tag_400\n      tag_187\n      jump\t// in\n    tag_400:\n        /* \"#utility.yul\":21007:21072   */\n      tag_401\n        /* \"#utility.yul\":21065:21071   */\n      dup2\n        /* \"#utility.yul\":21057:21063   */\n      dup5\n        /* \"#utility.yul\":21051:21055   */\n      dup5\n        /* \"#utility.yul\":21007:21072   */\n      tag_186\n      jump\t// in\n    tag_401:\n        /* \"#utility.yul\":20942:21078   */\n      pop\n        /* \"#utility.yul\":20889:21078   */\n      pop\n      pop\n      jump\t// out\n        /* \"#utility.yul\":21084:21270   */\n    tag_189:\n        /* \"#utility.yul\":21144:21264   */\n    tag_403:\n        /* \"#utility.yul\":21161:21164   */\n      dup2\n        /* \"#utility.yul\":21154:21159   */\n      dup2\n        /* \"#utility.yul\":21151:21165   */\n      lt\n        /* \"#utility.yul\":21144:21264   */\n      iszero\n      tag_405\n      jumpi\n        /* \"#utility.yul\":21215:21254   */\n      tag_406\n        /* \"#utility.yul\":21252:21253   */\n      0x00\n        /* \"#utility.yul\":21245:21250   */\n      dup3\n        /* \"#utility.yul\":21215:21254   */\n      tag_188\n      jump\t// in\n    tag_406:\n        /* \"#utility.yul\":21188:21189   */\n      0x01\n        /* \"#utility.yul\":21181:21186   */\n      dup2\n        /* \"#utility.yul\":21177:21190   */\n      add\n        /* \"#utility.yul\":21168:21190   */\n      swap1\n      pop\n        /* \"#utility.yul\":21144:21264   */\n      jump(tag_403)\n    tag_405:\n        /* \"#utility.yul\":21084:21270   */\n      pop\n      pop\n      jump\t// out\n        /* \"#utility.yul\":21276:21819   */\n    tag_190:\n        /* \"#utility.yul\":21377:21379   */\n      0x1f\n        /* \"#utility.yul\":21372:21375   */\n      dup3\n        /* \"#utility.yul\":21369:21380   */\n      gt\n        /* \"#utility.yul\":21366:21812   */\n      iszero\n      tag_408\n      jumpi\n        /* \"#utility.yul\":21411:21449   */\n      tag_409\n        /* \"#utility.yul\":21443:21448   */\n      dup2\n        /* \"#utility.yul\":21411:21449   */\n      tag_173\n      jump\t// in\n    tag_409:\n        /* \"#utility.yul\":21495:21524   */\n      tag_410\n        /* \"#utility.yul\":21513:21523   */\n      dup5\n        /* \"#utility.yul\":21495:21524   */\n      tag_180\n      jump\t// in\n    tag_410:\n        /* \"#utility.yul\":21485:21493   */\n      dup2\n        /* \"#utility.yul\":21481:21525   */\n      add\n        /* \"#utility.yul\":21678:21680   */\n      0x20\n        /* \"#utility.yul\":21666:21676   */\n      dup6\n        /* \"#utility.yul\":21663:21681   */\n      lt\n        /* \"#utility.yul\":21660:21709   */\n      iszero\n      tag_411\n      jumpi\n        /* \"#utility.yul\":21699:21707   */\n      dup2\n        /* \"#utility.yul\":21684:21707   */\n      swap1\n      pop\n        /* \"#utility.yul\":21660:21709   */\n    tag_411:\n        /* \"#utility.yul\":21722:21802   */\n      tag_412\n        /* \"#utility.yul\":21778:21800   */\n      tag_413\n        /* \"#utility.yul\":21796:21799   */\n      dup6\n        /* \"#utility.yul\":21778:21800   */\n      tag_180\n      jump\t// in\n    tag_413:\n        /* \"#utility.yul\":21768:21776   */\n      dup4\n        /* \"#utility.yul\":21764:21801   */\n      add\n        /* \"#utility.yul\":21751:21762   */\n      dup3\n        /* \"#utility.yul\":21722:21802   */\n      tag_189\n      jump\t// in\n    tag_412:\n        /* \"#utility.yul\":21381:21812   */\n      pop\n      pop\n        /* \"#utility.yul\":21366:21812   */\n    tag_408:\n        /* \"#utility.yul\":21276:21819   */\n      pop\n      pop\n      pop\n      jump\t// out\n        /* \"#utility.yul\":21825:21942   */\n    tag_191:\n        /* \"#utility.yul\":21879:21887   */\n      0x00\n        /* \"#utility.yul\":21929:21934   */\n      dup3\n        /* \"#utility.yul\":21923:21927   */\n      dup3\n        /* \"#utility.yul\":21919:21935   */\n      shr\n        /* \"#utility.yul\":21898:21935   */\n      swap1\n      pop\n        /* \"#utility.yul\":21825:21942   */\n      swap3\n      swap2\n      pop\n      pop\n      jump\t// out\n        /* \"#utility.yul\":21948:22117   */\n    tag_192:\n        /* \"#utility.yul\":21992:21998   */\n      0x00\n        /* \"#utility.yul\":22025:22076   */\n      tag_416\n        /* \"#utility.yul\":22073:22074   */\n      0x00\n        /* \"#utility.yul\":22069:22075   */\n      not\n        /* \"#utility.yul\":22061:22066   */\n      dup5\n        /* \"#utility.yul\":22058:22059   */\n      0x08\n        /* \"#utility.yul\":22054:22067   */\n      mul\n        /* \"#utility.yul\":22025:22076   */\n      tag_191\n      jump\t// in\n    tag_416:\n        /* \"#utility.yul\":22021:22077   */\n      not\n        /* \"#utility.yul\":22106:22110   */\n      dup1\n        /* \"#utility.yul\":22100:22104   */\n      dup4\n        /* \"#utility.yul\":22096:22111   */\n      and\n        /* \"#utility.yul\":22086:22111   */\n      swap2\n      pop\n        /* \"#utility.yul\":21999:22117   */\n      pop\n        /* \"#utility.yul\":21948:22117   */\n      swap3\n      swap2\n      pop\n      pop\n      jump\t// out\n        /* \"#utility.yul\":22122:22417   */\n    tag_193:\n        /* \"#utility.yul\":22198:22202   */\n      0x00\n        /* \"#utility.yul\":22344:22373   */\n      tag_418\n        /* \"#utility.yul\":22369:22372   */\n      dup4\n        /* \"#utility.yul\":22363:22367   */\n      dup4\n        /* \"#utility.yul\":22344:22373   */\n      tag_192\n      jump\t// in\n    tag_418:\n        /* \"#utility.yul\":22336:22373   */\n      swap2\n      pop\n        /* \"#utility.yul\":22406:22409   */\n      dup3\n        /* \"#utility.yul\":22403:22404   */\n      0x02\n        /* \"#utility.yul\":22399:22410   */\n      mul\n        /* \"#utility.yul\":22393:22397   */\n      dup3\n        /* \"#utility.yul\":22390:22411   */\n      or\n        /* \"#utility.yul\":22382:22411   */\n      swap1\n      pop\n        /* \"#utility.yul\":22122:22417   */\n      swap3\n      swap2\n      pop\n      pop\n      jump\t// out\n        /* \"#utility.yul\":22422:23817   */\n    tag_111:\n        /* \"#utility.yul\":22539:22576   */\n      tag_420\n        /* \"#utility.yul\":22572:22575   */\n      dup3\n        /* \"#utility.yul\":22539:22576   */\n      tag_143\n      jump\t// in\n    tag_420:\n        /* \"#utility.yul\":22641:22659   */\n      0xffffffffffffffff\n        /* \"#utility.yul\":22633:22639   */\n      dup2\n        /* \"#utility.yul\":22630:22660   */\n      gt\n        /* \"#utility.yul\":22627:22683   */\n      iszero\n      tag_421\n      jumpi\n        /* \"#utility.yul\":22663:22681   */\n      tag_422\n      tag_152\n      jump\t// in\n    tag_422:\n        /* \"#utility.yul\":22627:22683   */\n    tag_421:\n        /* \"#utility.yul\":22707:22745   */\n      tag_423\n        /* \"#utility.yul\":22739:22743   */\n      dup3\n        /* \"#utility.yul\":22733:22744   */\n      sload\n        /* \"#utility.yul\":22707:22745   */\n      tag_171\n      jump\t// in\n    tag_423:\n        /* \"#utility.yul\":22792:22859   */\n      tag_424\n        /* \"#utility.yul\":22852:22858   */\n      dup3\n        /* \"#utility.yul\":22844:22850   */\n      dup3\n        /* \"#utility.yul\":22838:22842   */\n      dup6\n        /* \"#utility.yul\":22792:22859   */\n      tag_190\n      jump\t// in\n    tag_424:\n        /* \"#utility.yul\":22886:22887   */\n      0x00\n        /* \"#utility.yul\":22910:22914   */\n      0x20\n        /* \"#utility.yul\":22897:22914   */\n      swap1\n      pop\n        /* \"#utility.yul\":22942:22944   */\n      0x1f\n        /* \"#utility.yul\":22934:22940   */\n      dup4\n        /* \"#utility.yul\":22931:22945   */\n      gt\n        /* \"#utility.yul\":22959:22960   */\n      0x01\n        /* \"#utility.yul\":22954:23572   */\n      dup2\n      eq\n      tag_426\n      jumpi\n        /* \"#utility.yul\":23616:23617   */\n      0x00\n        /* \"#utility.yul\":23633:23639   */\n      dup5\n        /* \"#utility.yul\":23630:23707   */\n      iszero\n      tag_427\n      jumpi\n        /* \"#utility.yul\":23682:23691   */\n      dup3\n        /* \"#utility.yul\":23677:23680   */\n      dup8\n        /* \"#utility.yul\":23673:23692   */\n      add\n        /* \"#utility.yul\":23667:23693   */\n      mload\n        /* \"#utility.yul\":23658:23693   */\n      swap1\n      pop\n        /* \"#utility.yul\":23630:23707   */\n    tag_427:\n        /* \"#utility.yul\":23733:23800   */\n      tag_428\n        /* \"#utility.yul\":23793:23799   */\n      dup6\n        /* \"#utility.yul\":23786:23791   */\n      dup3\n        /* \"#utility.yul\":23733:23800   */\n      tag_193\n      jump\t// in\n    tag_428:\n        /* \"#utility.yul\":23727:23731   */\n      dup7\n        /* \"#utility.yul\":23720:23801   */\n      sstore\n        /* \"#utility.yul\":23589:23811   */\n      pop\n        /* \"#utility.yul\":22924:23811   */\n      jump(tag_425)\n        /* \"#utility.yul\":22954:23572   */\n    tag_426:\n        /* \"#utility.yul\":23006:23010   */\n      0x1f\n        /* \"#utility.yul\":23002:23011   */\n      not\n        /* \"#utility.yul\":22994:23000   */\n      dup5\n        /* \"#utility.yul\":22990:23012   */\n      and\n        /* \"#utility.yul\":23040:23077   */\n      tag_429\n        /* \"#utility.yul\":23072:23076   */\n      dup7\n        /* \"#utility.yul\":23040:23077   */\n      tag_173\n      jump\t// in\n    tag_429:\n        /* \"#utility.yul\":23099:23100   */\n      0x00\n        /* \"#utility.yul\":23113:23321   */\n    tag_430:\n        /* \"#utility.yul\":23127:23134   */\n      dup3\n        /* \"#utility.yul\":23124:23125   */\n      dup2\n        /* \"#utility.yul\":23121:23135   */\n      lt\n        /* \"#utility.yul\":23113:23321   */\n      iszero\n      tag_432\n      jumpi\n        /* \"#utility.yul\":23206:23215   */\n      dup5\n        /* \"#utility.yul\":23201:23204   */\n      dup10\n        /* \"#utility.yul\":23197:23216   */\n      add\n        /* \"#utility.yul\":23191:23217   */\n      mload\n        /* \"#utility.yul\":23183:23189   */\n      dup3\n        /* \"#utility.yul\":23176:23218   */\n      sstore\n        /* \"#utility.yul\":23257:23258   */\n      0x01\n        /* \"#utility.yul\":23249:23255   */\n      dup3\n        /* \"#utility.yul\":23245:23259   */\n      add\n        /* \"#utility.yul\":23235:23259   */\n      swap2\n      pop\n        /* \"#utility.yul\":23304:23306   */\n      0x20\n        /* \"#utility.yul\":23293:23302   */\n      dup6\n        /* \"#utility.yul\":23289:23307   */\n      add\n        /* \"#utility.yul\":23276:23307   */\n      swap5\n      pop\n        /* \"#utility.yul\":23150:23154   */\n      0x20\n        /* \"#utility.yul\":23147:23148   */\n      dup2\n        /* \"#utility.yul\":23143:23155   */\n      add\n        /* \"#utility.yul\":23138:23155   */\n      swap1\n      pop\n        /* \"#utility.yul\":23113:23321   */\n      jump(tag_430)\n    tag_432:\n        /* \"#utility.yul\":23349:23355   */\n      dup7\n        /* \"#utility.yul\":23340:23347   */\n      dup4\n        /* \"#utility.yul\":23337:23356   */\n      lt\n        /* \"#utility.yul\":23334:23513   */\n      iszero\n      tag_433\n      jumpi\n        /* \"#utility.yul\":23407:23416   */\n      dup5\n        /* \"#utility.yul\":23402:23405   */\n      dup10\n        /* \"#utility.yul\":23398:23417   */\n      add\n        /* \"#utility.yul\":23392:23418   */\n      mload\n        /* \"#utility.yul\":23450:23498   */\n      tag_434\n        /* \"#utility.yul\":23492:23496   */\n      0x1f\n        /* \"#utility.yul\":23484:23490   */\n      dup10\n        /* \"#utility.yul\":23480:23497   */\n      and\n        /* \"#utility.yul\":23469:23478   */\n      dup3\n        /* \"#utility.yul\":23450:23498   */\n      tag_192\n      jump\t// in\n    tag_434:\n        /* \"#utility.yul\":23442:23448   */\n      dup4\n        /* \"#utility.yul\":23435:23499   */\n      sstore\n        /* \"#utility.yul\":23357:23513   */\n      pop\n        /* \"#utility.yul\":23334:23513   */\n    tag_433:\n        /* \"#utility.yul\":23559:23560   */\n      0x01\n        /* \"#utility.yul\":23555:23556   */\n      0x02\n        /* \"#utility.yul\":23547:23553   */\n      dup9\n        /* \"#utility.yul\":23543:23557   */\n      mul\n        /* \"#utility.yul\":23539:23561   */\n      add\n        /* \"#utility.yul\":23533:23537   */\n      dup9\n        /* \"#utility.yul\":23526:23562   */\n      sstore\n        /* \"#utility.yul\":22961:23572   */\n      pop\n      pop\n      pop\n        /* \"#utility.yul\":22924:23811   */\n    tag_425:\n      pop\n        /* \"#utility.yul\":22514:23817   */\n      pop\n      pop\n      pop\n        /* \"#utility.yul\":22422:23817   */\n      pop\n      pop\n      jump\t// out\n        /* \"#utility.yul\":23823:24017   */\n    tag_117:\n        /* \"#utility.yul\":23863:23867   */\n      0x00\n        /* \"#utility.yul\":23883:23903   */\n      tag_436\n        /* \"#utility.yul\":23901:23902   */\n      dup3\n        /* \"#utility.yul\":23883:23903   */\n      tag_128\n      jump\t// in\n    tag_436:\n        /* \"#utility.yul\":23878:23903   */\n      swap2\n      pop\n        /* \"#utility.yul\":23917:23937   */\n      tag_437\n        /* \"#utility.yul\":23935:23936   */\n      dup4\n        /* \"#utility.yul\":23917:23937   */\n      tag_128\n      jump\t// in\n    tag_437:\n        /* \"#utility.yul\":23912:23937   */\n      swap3\n      pop\n        /* \"#utility.yul\":23961:23962   */\n      dup3\n        /* \"#utility.yul\":23958:23959   */\n      dup3\n        /* \"#utility.yul\":23954:23963   */\n      sub\n        /* \"#utility.yul\":23946:23963   */\n      swap1\n      pop\n        /* \"#utility.yul\":23985:23986   */\n      dup2\n        /* \"#utility.yul\":23979:23983   */\n      dup2\n        /* \"#utility.yul\":23976:23987   */\n      gt\n        /* \"#utility.yul\":23973:24010   */\n      iszero\n      tag_438\n      jumpi\n        /* \"#utility.yul\":23990:24008   */\n      tag_439\n      tag_179\n      jump\t// in\n    tag_439:\n        /* \"#utility.yul\":23973:24010   */\n    tag_438:\n        /* \"#utility.yul\":23823:24017   */\n      swap3\n      swap2\n      pop\n      pop\n      jump\t// out\n        /* \"#utility.yul\":24023:24214   */\n    tag_119:\n        /* \"#utility.yul\":24063:24066   */\n      0x00\n        /* \"#utility.yul\":24082:24102   */\n      tag_441\n        /* \"#utility.yul\":24100:24101   */\n      dup3\n        /* \"#utility.yul\":24082:24102   */\n      tag_128\n      jump\t// in\n    tag_441:\n        /* \"#utility.yul\":24077:24102   */\n      swap2\n      pop\n        /* \"#utility.yul\":24116:24136   */\n      tag_442\n        /* \"#utility.yul\":24134:24135   */\n      dup4\n        /* \"#utility.yul\":24116:24136   */\n      tag_128\n      jump\t// in\n    tag_442:\n        /* \"#utility.yul\":24111:24136   */\n      swap3\n      pop\n        /* \"#utility.yul\":24159:24160   */\n      dup3\n        /* \"#utility.yul\":24156:24157   */\n      dup3\n        /* \"#utility.yul\":24152:24161   */\n      add\n        /* \"#utility.yul\":24145:24161   */\n      swap1\n      pop\n        /* \"#utility.yul\":24180:24183   */\n      dup1\n        /* \"#utility.yul\":24177:24178   */\n      dup3\n        /* \"#utility.yul\":24174:24184   */\n      gt\n        /* \"#utility.yul\":24171:24207   */\n      iszero\n      tag_443\n      jumpi\n        /* \"#utility.yul\":24187:24205   */\n      tag_444\n      tag_179\n      jump\t// in\n    tag_444:\n        /* \"#utility.yul\":24171:24207   */\n    tag_443:\n        /* \"#utility.yul\":24023:24214   */\n      swap3\n      swap2\n      pop\n      pop\n      jump\t// out\n        /* \"#utility.yul\":24220:24299   */\n    tag_194:\n        /* \"#utility.yul\":24259:24266   */\n      0x00\n        /* \"#utility.yul\":24288:24293   */\n      dup2\n        /* \"#utility.yul\":24277:24293   */\n      swap1\n      pop\n        /* \"#utility.yul\":24220:24299   */\n      swap2\n      swap1\n      pop\n      jump\t// out\n        /* \"#utility.yul\":24305:24462   */\n    tag_195:\n        /* \"#utility.yul\":24410:24455   */\n      tag_447\n        /* \"#utility.yul\":24430:24454   */\n      tag_448\n        /* \"#utility.yul\":24448:24453   */\n      dup3\n        /* \"#utility.yul\":24430:24454   */\n      tag_128\n      jump\t// in\n    tag_448:\n        /* \"#utility.yul\":24410:24455   */\n      tag_194\n      jump\t// in\n    tag_447:\n        /* \"#utility.yul\":24405:24408   */\n      dup3\n        /* \"#utility.yul\":24398:24456   */\n      mstore\n        /* \"#utility.yul\":24305:24462   */\n      pop\n      pop\n      jump\t// out\n        /* \"#utility.yul\":24468:24562   */\n    tag_196:\n        /* \"#utility.yul\":24501:24509   */\n      0x00\n        /* \"#utility.yul\":24549:24554   */\n      dup2\n        /* \"#utility.yul\":24545:24547   */\n      0x60\n        /* \"#utility.yul\":24541:24555   */\n      shl\n        /* \"#utility.yul\":24520:24555   */\n      swap1\n      pop\n        /* \"#utility.yul\":24468:24562   */\n      swap2\n      swap1\n      pop\n      jump\t// out\n        /* \"#utility.yul\":24568:24662   */\n    tag_197:\n        /* \"#utility.yul\":24607:24614   */\n      0x00\n        /* \"#utility.yul\":24636:24656   */\n      tag_451\n        /* \"#utility.yul\":24650:24655   */\n      dup3\n        /* \"#utility.yul\":24636:24656   */\n      tag_196\n      jump\t// in\n    tag_451:\n        /* \"#utility.yul\":24625:24656   */\n      swap1\n      pop\n        /* \"#utility.yul\":24568:24662   */\n      swap2\n      swap1\n      pop\n      jump\t// out\n        /* \"#utility.yul\":24668:24768   */\n    tag_198:\n        /* \"#utility.yul\":24707:24714   */\n      0x00\n        /* \"#utility.yul\":24736:24762   */\n      tag_453\n        /* \"#utility.yul\":24756:24761   */\n      dup3\n        /* \"#utility.yul\":24736:24762   */\n      tag_197\n      jump\t// in\n    tag_453:\n        /* \"#utility.yul\":24725:24762   */\n      swap1\n      pop\n        /* \"#utility.yul\":24668:24768   */\n      swap2\n      swap1\n      pop\n      jump\t// out\n        /* \"#utility.yul\":24774:24931   */\n    tag_199:\n        /* \"#utility.yul\":24879:24924   */\n      tag_455\n        /* \"#utility.yul\":24899:24923   */\n      tag_456\n        /* \"#utility.yul\":24917:24922   */\n      dup3\n        /* \"#utility.yul\":24899:24923   */\n      tag_132\n      jump\t// in\n    tag_456:\n        /* \"#utility.yul\":24879:24924   */\n      tag_198\n      jump\t// in\n    tag_455:\n        /* \"#utility.yul\":24874:24877   */\n      dup3\n        /* \"#utility.yul\":24867:24925   */\n      mstore\n        /* \"#utility.yul\":24774:24931   */\n      pop\n      pop\n      jump\t// out\n        /* \"#utility.yul\":24937:25475   */\n    tag_121:\n        /* \"#utility.yul\":25105:25108   */\n      0x00\n        /* \"#utility.yul\":25120:25195   */\n      tag_458\n        /* \"#utility.yul\":25191:25194   */\n      dup3\n        /* \"#utility.yul\":25182:25188   */\n      dup7\n        /* \"#utility.yul\":25120:25195   */\n      tag_195\n      jump\t// in\n    tag_458:\n        /* \"#utility.yul\":25220:25222   */\n      0x20\n        /* \"#utility.yul\":25215:25218   */\n      dup3\n        /* \"#utility.yul\":25211:25223   */\n      add\n        /* \"#utility.yul\":25204:25223   */\n      swap2\n      pop\n        /* \"#utility.yul\":25233:25308   */\n      tag_459\n        /* \"#utility.yul\":25304:25307   */\n      dup3\n        /* \"#utility.yul\":25295:25301   */\n      dup6\n        /* \"#utility.yul\":25233:25308   */\n      tag_199\n      jump\t// in\n    tag_459:\n        /* \"#utility.yul\":25333:25335   */\n      0x14\n        /* \"#utility.yul\":25328:25331   */\n      dup3\n        /* \"#utility.yul\":25324:25336   */\n      add\n        /* \"#utility.yul\":25317:25336   */\n      swap2\n      pop\n        /* \"#utility.yul\":25346:25421   */\n      tag_460\n        /* \"#utility.yul\":25417:25420   */\n      dup3\n        /* \"#utility.yul\":25408:25414   */\n      dup5\n        /* \"#utility.yul\":25346:25421   */\n      tag_195\n      jump\t// in\n    tag_460:\n        /* \"#utility.yul\":25446:25448   */\n      0x20\n        /* \"#utility.yul\":25441:25444   */\n      dup3\n        /* \"#utility.yul\":25437:25449   */\n      add\n        /* \"#utility.yul\":25430:25449   */\n      swap2\n      pop\n        /* \"#utility.yul\":25466:25469   */\n      dup2\n        /* \"#utility.yul\":25459:25469   */\n      swap1\n      pop\n        /* \"#utility.yul\":24937:25475   */\n      swap5\n      swap4\n      pop\n      pop\n      pop\n      pop\n      jump\t// out\n        /* \"#utility.yul\":25481:25661   */\n    tag_200:\n        /* \"#utility.yul\":25529:25606   */\n      0x4e487b7100000000000000000000000000000000000000000000000000000000\n        /* \"#utility.yul\":25526:25527   */\n      0x00\n        /* \"#utility.yul\":25519:25607   */\n      mstore\n        /* \"#utility.yul\":25626:25630   */\n      0x12\n        /* \"#utility.yul\":25623:25624   */\n      0x04\n        /* \"#utility.yul\":25616:25631   */\n      mstore\n        /* \"#utility.yul\":25650:25654   */\n      0x24\n        /* \"#utility.yul\":25647:25648   */\n      0x00\n        /* \"#utility.yul\":25640:25655   */\n      revert\n        /* \"#utility.yul\":25667:25843   */\n    tag_123:\n        /* \"#utility.yul\":25699:25700   */\n      0x00\n        /* \"#utility.yul\":25716:25736   */\n      tag_463\n        /* \"#utility.yul\":25734:25735   */\n      dup3\n        /* \"#utility.yul\":25716:25736   */\n      tag_128\n      jump\t// in\n    tag_463:\n        /* \"#utility.yul\":25711:25736   */\n      swap2\n      pop\n        /* \"#utility.yul\":25750:25770   */\n      tag_464\n        /* \"#utility.yul\":25768:25769   */\n      dup4\n        /* \"#utility.yul\":25750:25770   */\n      tag_128\n      jump\t// in\n    tag_464:\n        /* \"#utility.yul\":25745:25770   */\n      swap3\n      pop\n        /* \"#utility.yul\":25789:25790   */\n      dup3\n        /* \"#utility.yul\":25779:25814   */\n      tag_465\n      jumpi\n        /* \"#utility.yul\":25794:25812   */\n      tag_466\n      tag_200\n      jump\t// in\n    tag_466:\n        /* \"#utility.yul\":25779:25814   */\n    tag_465:\n        /* \"#utility.yul\":25835:25836   */\n      dup3\n        /* \"#utility.yul\":25832:25833   */\n      dup3\n        /* \"#utility.yul\":25828:25837   */\n      mod\n        /* \"#utility.yul\":25823:25837   */\n      swap1\n      pop\n        /* \"#utility.yul\":25667:25843   */\n      swap3\n      swap2\n      pop\n      pop\n      jump\t// out\n\n    auxdata: 0xa26469706673582212209d324cb12ab02067a5c74998cb11aa2e75479570185a197d33e06ae97ab54f8864736f6c634300081a0033\n}\n",
				"bytecode": {
					"linkReferences": {},
					"object": "60806040525f80553480156011575f80fd5b50611aa58061001f5f395ff3fe608060405234801561000f575f80fd5b506004361061007b575f3560e01c8063407db5ba11610059578063407db5ba146100ed5780634d1975b41461011d5780639f193a7c1461013b578063d8177369146101575761007b565b80630ff9edbc1461007f578063117a5b901461009b5780631281e092146100d1575b5f80fd5b61009960048036038101906100949190610d12565b610173565b005b6100b560048036038101906100b09190610d62565b6102ce565b6040516100c89796959493929190610e94565b60405180910390f35b6100eb60048036038101906100e69190610d62565b610363565b005b61010760048036038101906101029190610f01565b6104cd565b6040516101149190610faf565b60405180910390f35b6101256109d4565b6040516101329190610fcf565b60405180910390f35b61015560048036038101906101509190611012565b6109d9565b005b610171600480360381019061016c919061118e565b610bb8565b005b8260045f8281526020019081526020015f205f9054906101000a900460ff166101d1576040517f08c379a00000000000000000000000000000000000000000000000000000000081526004016101c89061121f565b60405180910390fd5b833373ffffffffffffffffffffffffffffffffffffffff1660025f8381526020019081526020015f205f015f9054906101000a900473ffffffffffffffffffffffffffffffffffffffff1673ffffffffffffffffffffffffffffffffffffffff1614610272576040517f08c379a0000000000000000000000000000000000000000000000000000000008152600401610269906112ad565b60405180910390fd5b8360025f8781526020019081526020015f20600201819055508260025f8781526020019081526020015f20600301819055506102af858585610c06565b60025f8781526020019081526020015f20600401819055505050505050565b6002602052805f5260405f205f91509050805f015f9054906101000a900473ffffffffffffffffffffffffffffffffffffffff1690806001015f9054906101000a900473ffffffffffffffffffffffffffffffffffffffff1690806002015490806003015490806004015490806005015f9054906101000a900460ff16908060050160019054906101000a900460ff16905087565b8060045f8281526020019081526020015f205f9054906101000a900460ff166103c1576040517f08c379a00000000000000000000000000000000000000000000000000000000081526004016103b89061121f565b60405180910390fd5b813373ffffffffffffffffffffffffffffffffffffffff1660025f8381526020019081526020015f205f015f9054906101000a900473ffffffffffffffffffffffffffffffffffffffff1673ffffffffffffffffffffffffffffffffffffffff1614610462576040517f08c379a0000000000000000000000000000000000000000000000000000000008152600401610459906112ad565b60405180910390fd5b6104c860025f8581526020019081526020015f206001015f9054906101000a900473ffffffffffffffffffffffffffffffffffffffff1660025f8681526020019081526020015f206002015460025f8781526020019081526020015f20600301546109d9565b505050565b60608260045f8281526020019081526020015f205f9054906101000a900460ff1661052d576040517f08c379a00000000000000000000000000000000000000000000000000000000081526004016105249061121f565b60405180910390fd5b8360025f8281526020019081526020015f205f015f9054906101000a900473ffffffffffffffffffffffffffffffffffffffff1673ffffffffffffffffffffffffffffffffffffffff163373ffffffffffffffffffffffffffffffffffffffff1614806105f8575060025f8281526020019081526020015f206001015f9054906101000a900473ffffffffffffffffffffffffffffffffffffffff1673ffffffffffffffffffffffffffffffffffffffff163373ffffffffffffffffffffffffffffffffffffffff16145b610637576040517f08c379a000000000000000000000000000000000000000000000000000000000815260040161062e90611315565b60405180910390fd5b5f600181111561064a57610649610ddb565b5b60025f8781526020019081526020015f206005015f9054906101000a900460ff16600181111561067d5761067c610ddb565b5b146106bd576040517f08c379a00000000000000000000000000000000000000000000000000000000081526004016106b49061137d565b60405180910390fd5b60025f8681526020019081526020015f206002015484101580156106f5575060025f8681526020019081526020015f20600301548411155b610734576040517f08c379a000000000000000000000000000000000000000000000000000000000815260040161072b906113e5565b60405180910390fd5b60025f8681526020019081526020015f206004015484111561078d576040518060400160405280601881526020017f596f7572206e756d62657220697320746f6f206772656174000000000000000081525092506109cc565b60025f8681526020019081526020015f20600401548410156107e6576040518060400160405280601881526020017f596f7572206e756d62657220697320746f6f20736d616c6c000000000000000081525092506109cc565b600160025f8781526020019081526020015f206005015f6101000a81548160ff0219169083600181111561081d5761081c610ddb565b5b021790555060025f8681526020019081526020015f205f015f9054906101000a900473ffffffffffffffffffffffffffffffffffffffff1673ffffffffffffffffffffffffffffffffffffffff163373ffffffffffffffffffffffffffffffffffffffff16036108c8575f60025f8781526020019081526020015f2060050160016101000a81548160ff021916908360018111156108be576108bd610ddb565b5b021790555061096d565b60025f8681526020019081526020015f206001015f9054906101000a900473ffffffffffffffffffffffffffffffffffffffff1673ffffffffffffffffffffffffffffffffffffffff163373ffffffffffffffffffffffffffffffffffffffff160361096c57600160025f8781526020019081526020015f2060050160016101000a81548160ff0219169083600181111561096657610965610ddb565b5b02179055505b5b60015f3373ffffffffffffffffffffffffffffffffffffffff1673ffffffffffffffffffffffffffffffffffffffff1681526020019081526020015f206040516020016109ba9190611522565b60405160208183030381529060405292505b505092915050565b5f5481565b8273ffffffffffffffffffffffffffffffffffffffff163373ffffffffffffffffffffffffffffffffffffffff1603610a47576040517f08c379a0000000000000000000000000000000000000000000000000000000008152600401610a3e90611591565b60405180910390fd5b808210610a89576040517f08c379a0000000000000000000000000000000000000000000000000000000008152600401610a809061161f565b60405180910390fd5b5f80815480929190610a9a9061166a565b9190505550600160045f805481526020019081526020015f205f6101000a81548160ff0219169083151502179055505f60025f805481526020019081526020015f20905033815f015f6101000a81548173ffffffffffffffffffffffffffffffffffffffff021916908373ffffffffffffffffffffffffffffffffffffffff16021790555083816001015f6101000a81548173ffffffffffffffffffffffffffffffffffffffff021916908373ffffffffffffffffffffffffffffffffffffffff1602179055508281600201819055508181600301819055505f816005015f6101000a81548160ff02191690836001811115610b9957610b98610ddb565b5b0217905550610baa5f548484610c06565b816004018190555050505050565b8060015f3373ffffffffffffffffffffffffffffffffffffffff1673ffffffffffffffffffffffffffffffffffffffff1681526020019081526020015f209081610c02919061183c565b5050565b5f8360045f8281526020019081526020015f205f9054906101000a900460ff16610c65576040517f08c379a0000000000000000000000000000000000000000000000000000000008152600401610c5c9061121f565b60405180910390fd5b5f8460018686610c75919061190b565b610c7f919061193e565b423389604051602001610c94939291906119d6565b604051602081830303815290604052805190602001205f1c610cb69190611a3f565b610cc0919061193e565b905080925050509392505050565b5f604051905090565b5f80fd5b5f80fd5b5f819050919050565b610cf181610cdf565b8114610cfb575f80fd5b50565b5f81359050610d0c81610ce8565b92915050565b5f805f60608486031215610d2957610d28610cd7565b5b5f610d3686828701610cfe565b9350506020610d4786828701610cfe565b9250506040610d5886828701610cfe565b9150509250925092565b5f60208284031215610d7757610d76610cd7565b5b5f610d8484828501610cfe565b91505092915050565b5f73ffffffffffffffffffffffffffffffffffffffff82169050919050565b5f610db682610d8d565b9050919050565b610dc681610dac565b82525050565b610dd581610cdf565b82525050565b7f4e487b71000000000000000000000000000000000000000000000000000000005f52602160045260245ffd5b60028110610e1957610e18610ddb565b5b50565b5f819050610e2982610e08565b919050565b5f610e3882610e1c565b9050919050565b610e4881610e2e565b82525050565b60028110610e5f57610e5e610ddb565b5b50565b5f819050610e6f82610e4e565b919050565b5f610e7e82610e62565b9050919050565b610e8e81610e74565b82525050565b5f60e082019050610ea75f83018a610dbd565b610eb46020830189610dbd565b610ec16040830188610dcc565b610ece6060830187610dcc565b610edb6080830186610dcc565b610ee860a0830185610e3f565b610ef560c0830184610e85565b98975050505050505050565b5f8060408385031215610f1757610f16610cd7565b5b5f610f2485828601610cfe565b9250506020610f3585828601610cfe565b9150509250929050565b5f81519050919050565b5f82825260208201905092915050565b8281835e5f83830152505050565b5f601f19601f8301169050919050565b5f610f8182610f3f565b610f8b8185610f49565b9350610f9b818560208601610f59565b610fa481610f67565b840191505092915050565b5f6020820190508181035f830152610fc78184610f77565b905092915050565b5f602082019050610fe25f830184610dcc565b92915050565b610ff181610dac565b8114610ffb575f80fd5b50565b5f8135905061100c81610fe8565b92915050565b5f805f6060848603121561102957611028610cd7565b5b5f61103686828701610ffe565b935050602061104786828701610cfe565b925050604061105886828701610cfe565b9150509250925092565b5f80fd5b5f80fd5b7f4e487b71000000000000000000000000000000000000000000000000000000005f52604160045260245ffd5b6110a082610f67565b810181811067ffffffffffffffff821117156110bf576110be61106a565b5b80604052505050565b5f6110d1610cce565b90506110dd8282611097565b919050565b5f67ffffffffffffffff8211156110fc576110fb61106a565b5b61110582610f67565b9050602081019050919050565b828183375f83830152505050565b5f61113261112d846110e2565b6110c8565b90508281526020810184848401111561114e5761114d611066565b5b611159848285611112565b509392505050565b5f82601f83011261117557611174611062565b5b8135611185848260208601611120565b91505092915050565b5f602082840312156111a3576111a2610cd7565b5b5f82013567ffffffffffffffff8111156111c0576111bf610cdb565b5b6111cc84828501611161565b91505092915050565b7f5468652067616d6520646f65736e2774206578697374202100000000000000005f82015250565b5f611209601883610f49565b9150611214826111d5565b602082019050919050565b5f6020820190508181035f830152611236816111fd565b9050919050565b7f596f75277265206e6f7420746865206c61756e63686572206f662074686973205f8201527f67616d6500000000000000000000000000000000000000000000000000000000602082015250565b5f611297602483610f49565b91506112a28261123d565b604082019050919050565b5f6020820190508181035f8301526112c48161128b565b9050919050565b7f596f75277265206e6f74206120706c61796572206f6620746869732067616d655f82015250565b5f6112ff602083610f49565b915061130a826112cb565b602082019050919050565b5f6020820190508181035f83015261132c816112f3565b9050919050565b7f5468652067616d652068617320656e64656400000000000000000000000000005f82015250565b5f611367601283610f49565b915061137282611333565b602082019050919050565b5f6020820190508181035f8301526113948161135b565b9050919050565b7f546865206e756d626572206973206f7574206f66206c696d69747300000000005f82015250565b5f6113cf601b83610f49565b91506113da8261139b565b602082019050919050565b5f6020820190508181035f8301526113fc816113c3565b9050919050565b7f5468652077696e6e657220697320000000000000000000000000000000000000815250565b7f4e487b71000000000000000000000000000000000000000000000000000000005f52602260045260245ffd5b5f600282049050600182168061146d57607f821691505b6020821081036114805761147f611429565b5b50919050565b5f81905092915050565b5f819050815f5260205f209050919050565b5f81546114ae81611456565b6114b88186611486565b9450600182165f81146114d257600181146114e757611519565b60ff1983168652811515820286019350611519565b6114f085611490565b5f5b83811015611511578154818901526001820191506020810190506114f2565b838801955050505b50505092915050565b5f61152c82611403565b600e8201915061153c82846114a2565b915081905092915050565b7f596f752063616e277420706c617920616761696e737420796f757273656c66005f82015250565b5f61157b601f83610f49565b915061158682611547565b602082019050919050565b5f6020820190508181035f8301526115a88161156f565b9050919050565b7f546865206c6f776572206c696d69742073686f756c64206265206c65737320745f8201527f68616e2074686520757070657200000000000000000000000000000000000000602082015250565b5f611609602d83610f49565b9150611614826115af565b604082019050919050565b5f6020820190508181035f830152611636816115fd565b9050919050565b7f4e487b71000000000000000000000000000000000000000000000000000000005f52601160045260245ffd5b5f61167482610cdf565b91507fffffffffffffffffffffffffffffffffffffffffffffffffffffffffffffffff82036116a6576116a561163d565b5b600182019050919050565b5f6020601f8301049050919050565b5f82821b905092915050565b5f600883026116fb7fffffffffffffffffffffffffffffffffffffffffffffffffffffffffffffffff826116c0565b61170586836116c0565b95508019841693508086168417925050509392505050565b5f819050919050565b5f61174061173b61173684610cdf565b61171d565b610cdf565b9050919050565b5f819050919050565b61175983611726565b61176d61176582611747565b8484546116cc565b825550505050565b5f90565b611781611775565b61178c818484611750565b505050565b5b818110156117af576117a45f82611779565b600181019050611792565b5050565b601f8211156117f4576117c581611490565b6117ce846116b1565b810160208510156117dd578190505b6117f16117e9856116b1565b830182611791565b50505b505050565b5f82821c905092915050565b5f6118145f19846008026117f9565b1980831691505092915050565b5f61182c8383611805565b9150826002028217905092915050565b61184582610f3f565b67ffffffffffffffff81111561185e5761185d61106a565b5b6118688254611456565b6118738282856117b3565b5f60209050601f8311600181146118a4575f8415611892578287015190505b61189c8582611821565b865550611903565b601f1984166118b286611490565b5f5b828110156118d9578489015182556001820191506020850194506020810190506118b4565b868310156118f657848901516118f2601f891682611805565b8355505b6001600288020188555050505b505050505050565b5f61191582610cdf565b915061192083610cdf565b92508282039050818111156119385761193761163d565b5b92915050565b5f61194882610cdf565b915061195383610cdf565b925082820190508082111561196b5761196a61163d565b5b92915050565b5f819050919050565b61198b61198682610cdf565b611971565b82525050565b5f8160601b9050919050565b5f6119a782611991565b9050919050565b5f6119b88261199d565b9050919050565b6119d06119cb82610dac565b6119ae565b82525050565b5f6119e1828661197a565b6020820191506119f182856119bf565b601482019150611a01828461197a565b602082019150819050949350505050565b7f4e487b71000000000000000000000000000000000000000000000000000000005f52601260045260245ffd5b5f611a4982610cdf565b9150611a5483610cdf565b925082611a6457611a63611a12565b5b82820690509291505056fea26469706673582212209d324cb12ab02067a5c74998cb11aa2e75479570185a197d33e06ae97ab54f8864736f6c634300081a0033",
					"opcodes": "PUSH1 0x80 PUSH1 0x40 MSTORE PUSH0 DUP1 SSTORE CALLVALUE DUP1 ISZERO PUSH1 0x11 JUMPI PUSH0 DUP1 REVERT JUMPDEST POP PUSH2 0x1AA5 DUP1 PUSH2 0x1F PUSH0 CODECOPY PUSH0 RETURN INVALID PUSH1 0x80 PUSH1 0x40 MSTORE CALLVALUE DUP1 ISZERO PUSH2 0xF JUMPI PUSH0 DUP1 REVERT JUMPDEST POP PUSH1 0x4 CALLDATASIZE LT PUSH2 0x7B JUMPI PUSH0 CALLDATALOAD PUSH1 0xE0 SHR DUP1 PUSH4 0x407DB5BA GT PUSH2 0x59 JUMPI DUP1 PUSH4 0x407DB5BA EQ PUSH2 0xED JUMPI DUP1 PUSH4 0x4D1975B4 EQ PUSH2 0x11D JUMPI DUP1 PUSH4 0x9F193A7C EQ PUSH2 0x13B JUMPI DUP1 PUSH4 0xD8177369 EQ PUSH2 0x157 JUMPI PUSH2 0x7B JUMP JUMPDEST DUP1 PUSH4 0xFF9EDBC EQ PUSH2 0x7F JUMPI DUP1 PUSH4 0x117A5B90 EQ PUSH2 0x9B JUMPI DUP1 PUSH4 0x1281E092 EQ PUSH2 0xD1 JUMPI JUMPDEST PUSH0 DUP1 REVERT JUMPDEST PUSH2 0x99 PUSH1 0x4 DUP1 CALLDATASIZE SUB DUP2 ADD SWAP1 PUSH2 0x94 SWAP2 SWAP1 PUSH2 0xD12 JUMP JUMPDEST PUSH2 0x173 JUMP JUMPDEST STOP JUMPDEST PUSH2 0xB5 PUSH1 0x4 DUP1 CALLDATASIZE SUB DUP2 ADD SWAP1 PUSH2 0xB0 SWAP2 SWAP1 PUSH2 0xD62 JUMP JUMPDEST PUSH2 0x2CE JUMP JUMPDEST PUSH1 0x40 MLOAD PUSH2 0xC8 SWAP8 SWAP7 SWAP6 SWAP5 SWAP4 SWAP3 SWAP2 SWAP1 PUSH2 0xE94 JUMP JUMPDEST PUSH1 0x40 MLOAD DUP1 SWAP2 SUB SWAP1 RETURN JUMPDEST PUSH2 0xEB PUSH1 0x4 DUP1 CALLDATASIZE SUB DUP2 ADD SWAP1 PUSH2 0xE6 SWAP2 SWAP1 PUSH2 0xD62 JUMP JUMPDEST PUSH2 0x363 JUMP JUMPDEST STOP JUMPDEST PUSH2 0x107 PUSH1 0x4 DUP1 CALLDATASIZE SUB DUP2 ADD SWAP1 PUSH2 0x102 SWAP2 SWAP1 PUSH2 0xF01 JUMP JUMPDEST PUSH2 0x4CD JUMP JUMPDEST PUSH1 0x40 MLOAD PUSH2 0x114 SWAP2 SWAP1 PUSH2 0xFAF JUMP JUMPDEST PUSH1 0x40 MLOAD DUP1 SWAP2 SUB SWAP1 RETURN JUMPDEST PUSH2 0x125 PUSH2 0x9D4 JUMP JUMPDEST PUSH1 0x40 MLOAD PUSH2 0x132 SWAP2 SWAP1 PUSH2 0xFCF JUMP JUMPDEST PUSH1 0x40 MLOAD DUP1 SWAP2 SUB SWAP1 RETURN JUMPDEST PUSH2 0x155 PUSH1 0x4 DUP1 CALLDATASIZE SUB DUP2 ADD SWAP1 PUSH2 0x150 SWAP2 SWAP1 PUSH2 0x1012 JUMP JUMPDEST PUSH2 0x9D9 JUMP JUMPDEST STOP JUMPDEST PUSH2 0x171 PUSH1 0x4 DUP1 CALLDATASIZE SUB DUP2 ADD SWAP1 PUSH2 0x16C SWAP2 SWAP1 PUSH2 0x118E JUMP JUMPDEST PUSH2 0xBB8 JUMP JUMPDEST STOP JUMPDEST DUP3 PUSH1 0x4 PUSH0 DUP3 DUP2 MSTORE PUSH1 0x20 ADD SWAP1 DUP2 MSTORE PUSH1 0x20 ADD PUSH0 KECCAK256 PUSH0 SWAP1 SLOAD SWAP1 PUSH2 0x100 EXP SWAP1 DIV PUSH1 0xFF AND PUSH2 0x1D1 JUMPI PUSH1 0x40 MLOAD PUSH32 0x8C379A000000000000000000000000000000000000000000000000000000000 DUP2 MSTORE PUSH1 0x4 ADD PUSH2 0x1C8 SWAP1 PUSH2 0x121F JUMP JUMPDEST PUSH1 0x40 MLOAD DUP1 SWAP2 SUB SWAP1 REVERT JUMPDEST DUP4 CALLER PUSH20 0xFFFFFFFFFFFFFFFFFFFFFFFFFFFFFFFFFFFFFFFF AND PUSH1 0x2 PUSH0 DUP4 DUP2 MSTORE PUSH1 0x20 ADD SWAP1 DUP2 MSTORE PUSH1 0x20 ADD PUSH0 KECCAK256 PUSH0 ADD PUSH0 SWAP1 SLOAD SWAP1 PUSH2 0x100 EXP SWAP1 DIV PUSH20 0xFFFFFFFFFFFFFFFFFFFFFFFFFFFFFFFFFFFFFFFF AND PUSH20 0xFFFFFFFFFFFFFFFFFFFFFFFFFFFFFFFFFFFFFFFF AND EQ PUSH2 0x272 JUMPI PUSH1 0x40 MLOAD PUSH32 0x8C379A000000000000000000000000000000000000000000000000000000000 DUP2 MSTORE PUSH1 0x4 ADD PUSH2 0x269 SWAP1 PUSH2 0x12AD JUMP JUMPDEST PUSH1 0x40 MLOAD DUP1 SWAP2 SUB SWAP1 REVERT JUMPDEST DUP4 PUSH1 0x2 PUSH0 DUP8 DUP2 MSTORE PUSH1 0x20 ADD SWAP1 DUP2 MSTORE PUSH1 0x20 ADD PUSH0 KECCAK256 PUSH1 0x2 ADD DUP2 SWAP1 SSTORE POP DUP3 PUSH1 0x2 PUSH0 DUP8 DUP2 MSTORE PUSH1 0x20 ADD SWAP1 DUP2 MSTORE PUSH1 0x20 ADD PUSH0 KECCAK256 PUSH1 0x3 ADD DUP2 SWAP1 SSTORE POP PUSH2 0x2AF DUP6 DUP6 DUP6 PUSH2 0xC06 JUMP JUMPDEST PUSH1 0x2 PUSH0 DUP8 DUP2 MSTORE PUSH1 0x20 ADD SWAP1 DUP2 MSTORE PUSH1 0x20 ADD PUSH0 KECCAK256 PUSH1 0x4 ADD DUP2 SWAP1 SSTORE POP POP POP POP POP POP JUMP JUMPDEST PUSH1 0x2 PUSH1 0x20 MSTORE DUP1 PUSH0 MSTORE PUSH1 0x40 PUSH0 KECCAK256 PUSH0 SWAP2 POP SWAP1 POP DUP1 PUSH0 ADD PUSH0 SWAP1 SLOAD SWAP1 PUSH2 0x100 EXP SWAP1 DIV PUSH20 0xFFFFFFFFFFFFFFFFFFFFFFFFFFFFFFFFFFFFFFFF AND SWAP1 DUP1 PUSH1 0x1 ADD PUSH0 SWAP1 SLOAD SWAP1 PUSH2 0x100 EXP SWAP1 DIV PUSH20 0xFFFFFFFFFFFFFFFFFFFFFFFFFFFFFFFFFFFFFFFF AND SWAP1 DUP1 PUSH1 0x2 ADD SLOAD SWAP1 DUP1 PUSH1 0x3 ADD SLOAD SWAP1 DUP1 PUSH1 0x4 ADD SLOAD SWAP1 DUP1 PUSH1 0x5 ADD PUSH0 SWAP1 SLOAD SWAP1 PUSH2 0x100 EXP SWAP1 DIV PUSH1 0xFF AND SWAP1 DUP1 PUSH1 0x5 ADD PUSH1 0x1 SWAP1 SLOAD SWAP1 PUSH2 0x100 EXP SWAP1 DIV PUSH1 0xFF AND SWAP1 POP DUP8 JUMP JUMPDEST DUP1 PUSH1 0x4 PUSH0 DUP3 DUP2 MSTORE PUSH1 0x20 ADD SWAP1 DUP2 MSTORE PUSH1 0x20 ADD PUSH0 KECCAK256 PUSH0 SWAP1 SLOAD SWAP1 PUSH2 0x100 EXP SWAP1 DIV PUSH1 0xFF AND PUSH2 0x3C1 JUMPI PUSH1 0x40 MLOAD PUSH32 0x8C379A000000000000000000000000000000000000000000000000000000000 DUP2 MSTORE PUSH1 0x4 ADD PUSH2 0x3B8 SWAP1 PUSH2 0x121F JUMP JUMPDEST PUSH1 0x40 MLOAD DUP1 SWAP2 SUB SWAP1 REVERT JUMPDEST DUP2 CALLER PUSH20 0xFFFFFFFFFFFFFFFFFFFFFFFFFFFFFFFFFFFFFFFF AND PUSH1 0x2 PUSH0 DUP4 DUP2 MSTORE PUSH1 0x20 ADD SWAP1 DUP2 MSTORE PUSH1 0x20 ADD PUSH0 KECCAK256 PUSH0 ADD PUSH0 SWAP1 SLOAD SWAP1 PUSH2 0x100 EXP SWAP1 DIV PUSH20 0xFFFFFFFFFFFFFFFFFFFFFFFFFFFFFFFFFFFFFFFF AND PUSH20 0xFFFFFFFFFFFFFFFFFFFFFFFFFFFFFFFFFFFFFFFF AND EQ PUSH2 0x462 JUMPI PUSH1 0x40 MLOAD PUSH32 0x8C379A000000000000000000000000000000000000000000000000000000000 DUP2 MSTORE PUSH1 0x4 ADD PUSH2 0x459 SWAP1 PUSH2 0x12AD JUMP JUMPDEST PUSH1 0x40 MLOAD DUP1 SWAP2 SUB SWAP1 REVERT JUMPDEST PUSH2 0x4C8 PUSH1 0x2 PUSH0 DUP6 DUP2 MSTORE PUSH1 0x20 ADD SWAP1 DUP2 MSTORE PUSH1 0x20 ADD PUSH0 KECCAK256 PUSH1 0x1 ADD PUSH0 SWAP1 SLOAD SWAP1 PUSH2 0x100 EXP SWAP1 DIV PUSH20 0xFFFFFFFFFFFFFFFFFFFFFFFFFFFFFFFFFFFFFFFF AND PUSH1 0x2 PUSH0 DUP7 DUP2 MSTORE PUSH1 0x20 ADD SWAP1 DUP2 MSTORE PUSH1 0x20 ADD PUSH0 KECCAK256 PUSH1 0x2 ADD SLOAD PUSH1 0x2 PUSH0 DUP8 DUP2 MSTORE PUSH1 0x20 ADD SWAP1 DUP2 MSTORE PUSH1 0x20 ADD PUSH0 KECCAK256 PUSH1 0x3 ADD SLOAD PUSH2 0x9D9 JUMP JUMPDEST POP POP POP JUMP JUMPDEST PUSH1 0x60 DUP3 PUSH1 0x4 PUSH0 DUP3 DUP2 MSTORE PUSH1 0x20 ADD SWAP1 DUP2 MSTORE PUSH1 0x20 ADD PUSH0 KECCAK256 PUSH0 SWAP1 SLOAD SWAP1 PUSH2 0x100 EXP SWAP1 DIV PUSH1 0xFF AND PUSH2 0x52D JUMPI PUSH1 0x40 MLOAD PUSH32 0x8C379A000000000000000000000000000000000000000000000000000000000 DUP2 MSTORE PUSH1 0x4 ADD PUSH2 0x524 SWAP1 PUSH2 0x121F JUMP JUMPDEST PUSH1 0x40 MLOAD DUP1 SWAP2 SUB SWAP1 REVERT JUMPDEST DUP4 PUSH1 0x2 PUSH0 DUP3 DUP2 MSTORE PUSH1 0x20 ADD SWAP1 DUP2 MSTORE PUSH1 0x20 ADD PUSH0 KECCAK256 PUSH0 ADD PUSH0 SWAP1 SLOAD SWAP1 PUSH2 0x100 EXP SWAP1 DIV PUSH20 0xFFFFFFFFFFFFFFFFFFFFFFFFFFFFFFFFFFFFFFFF AND PUSH20 0xFFFFFFFFFFFFFFFFFFFFFFFFFFFFFFFFFFFFFFFF AND CALLER PUSH20 0xFFFFFFFFFFFFFFFFFFFFFFFFFFFFFFFFFFFFFFFF AND EQ DUP1 PUSH2 0x5F8 JUMPI POP PUSH1 0x2 PUSH0 DUP3 DUP2 MSTORE PUSH1 0x20 ADD SWAP1 DUP2 MSTORE PUSH1 0x20 ADD PUSH0 KECCAK256 PUSH1 0x1 ADD PUSH0 SWAP1 SLOAD SWAP1 PUSH2 0x100 EXP SWAP1 DIV PUSH20 0xFFFFFFFFFFFFFFFFFFFFFFFFFFFFFFFFFFFFFFFF AND PUSH20 0xFFFFFFFFFFFFFFFFFFFFFFFFFFFFFFFFFFFFFFFF AND CALLER PUSH20 0xFFFFFFFFFFFFFFFFFFFFFFFFFFFFFFFFFFFFFFFF AND EQ JUMPDEST PUSH2 0x637 JUMPI PUSH1 0x40 MLOAD PUSH32 0x8C379A000000000000000000000000000000000000000000000000000000000 DUP2 MSTORE PUSH1 0x4 ADD PUSH2 0x62E SWAP1 PUSH2 0x1315 JUMP JUMPDEST PUSH1 0x40 MLOAD DUP1 SWAP2 SUB SWAP1 REVERT JUMPDEST PUSH0 PUSH1 0x1 DUP2 GT ISZERO PUSH2 0x64A JUMPI PUSH2 0x649 PUSH2 0xDDB JUMP JUMPDEST JUMPDEST PUSH1 0x2 PUSH0 DUP8 DUP2 MSTORE PUSH1 0x20 ADD SWAP1 DUP2 MSTORE PUSH1 0x20 ADD PUSH0 KECCAK256 PUSH1 0x5 ADD PUSH0 SWAP1 SLOAD SWAP1 PUSH2 0x100 EXP SWAP1 DIV PUSH1 0xFF AND PUSH1 0x1 DUP2 GT ISZERO PUSH2 0x67D JUMPI PUSH2 0x67C PUSH2 0xDDB JUMP JUMPDEST JUMPDEST EQ PUSH2 0x6BD JUMPI PUSH1 0x40 MLOAD PUSH32 0x8C379A000000000000000000000000000000000000000000000000000000000 DUP2 MSTORE PUSH1 0x4 ADD PUSH2 0x6B4 SWAP1 PUSH2 0x137D JUMP JUMPDEST PUSH1 0x40 MLOAD DUP1 SWAP2 SUB SWAP1 REVERT JUMPDEST PUSH1 0x2 PUSH0 DUP7 DUP2 MSTORE PUSH1 0x20 ADD SWAP1 DUP2 MSTORE PUSH1 0x20 ADD PUSH0 KECCAK256 PUSH1 0x2 ADD SLOAD DUP5 LT ISZERO DUP1 ISZERO PUSH2 0x6F5 JUMPI POP PUSH1 0x2 PUSH0 DUP7 DUP2 MSTORE PUSH1 0x20 ADD SWAP1 DUP2 MSTORE PUSH1 0x20 ADD PUSH0 KECCAK256 PUSH1 0x3 ADD SLOAD DUP5 GT ISZERO JUMPDEST PUSH2 0x734 JUMPI PUSH1 0x40 MLOAD PUSH32 0x8C379A000000000000000000000000000000000000000000000000000000000 DUP2 MSTORE PUSH1 0x4 ADD PUSH2 0x72B SWAP1 PUSH2 0x13E5 JUMP JUMPDEST PUSH1 0x40 MLOAD DUP1 SWAP2 SUB SWAP1 REVERT JUMPDEST PUSH1 0x2 PUSH0 DUP7 DUP2 MSTORE PUSH1 0x20 ADD SWAP1 DUP2 MSTORE PUSH1 0x20 ADD PUSH0 KECCAK256 PUSH1 0x4 ADD SLOAD DUP5 GT ISZERO PUSH2 0x78D JUMPI PUSH1 0x40 MLOAD DUP1 PUSH1 0x40 ADD PUSH1 0x40 MSTORE DUP1 PUSH1 0x18 DUP2 MSTORE PUSH1 0x20 ADD PUSH32 0x596F7572206E756D62657220697320746F6F2067726561740000000000000000 DUP2 MSTORE POP SWAP3 POP PUSH2 0x9CC JUMP JUMPDEST PUSH1 0x2 PUSH0 DUP7 DUP2 MSTORE PUSH1 0x20 ADD SWAP1 DUP2 MSTORE PUSH1 0x20 ADD PUSH0 KECCAK256 PUSH1 0x4 ADD SLOAD DUP5 LT ISZERO PUSH2 0x7E6 JUMPI PUSH1 0x40 MLOAD DUP1 PUSH1 0x40 ADD PUSH1 0x40 MSTORE DUP1 PUSH1 0x18 DUP2 MSTORE PUSH1 0x20 ADD PUSH32 0x596F7572206E756D62657220697320746F6F20736D616C6C0000000000000000 DUP2 MSTORE POP SWAP3 POP PUSH2 0x9CC JUMP JUMPDEST PUSH1 0x1 PUSH1 0x2 PUSH0 DUP8 DUP2 MSTORE PUSH1 0x20 ADD SWAP1 DUP2 MSTORE PUSH1 0x20 ADD PUSH0 KECCAK256 PUSH1 0x5 ADD PUSH0 PUSH2 0x100 EXP DUP2 SLOAD DUP2 PUSH1 0xFF MUL NOT AND SWAP1 DUP4 PUSH1 0x1 DUP2 GT ISZERO PUSH2 0x81D JUMPI PUSH2 0x81C PUSH2 0xDDB JUMP JUMPDEST JUMPDEST MUL OR SWAP1 SSTORE POP PUSH1 0x2 PUSH0 DUP7 DUP2 MSTORE PUSH1 0x20 ADD SWAP1 DUP2 MSTORE PUSH1 0x20 ADD PUSH0 KECCAK256 PUSH0 ADD PUSH0 SWAP1 SLOAD SWAP1 PUSH2 0x100 EXP SWAP1 DIV PUSH20 0xFFFFFFFFFFFFFFFFFFFFFFFFFFFFFFFFFFFFFFFF AND PUSH20 0xFFFFFFFFFFFFFFFFFFFFFFFFFFFFFFFFFFFFFFFF AND CALLER PUSH20 0xFFFFFFFFFFFFFFFFFFFFFFFFFFFFFFFFFFFFFFFF AND SUB PUSH2 0x8C8 JUMPI PUSH0 PUSH1 0x2 PUSH0 DUP8 DUP2 MSTORE PUSH1 0x20 ADD SWAP1 DUP2 MSTORE PUSH1 0x20 ADD PUSH0 KECCAK256 PUSH1 0x5 ADD PUSH1 0x1 PUSH2 0x100 EXP DUP2 SLOAD DUP2 PUSH1 0xFF MUL NOT AND SWAP1 DUP4 PUSH1 0x1 DUP2 GT ISZERO PUSH2 0x8BE JUMPI PUSH2 0x8BD PUSH2 0xDDB JUMP JUMPDEST JUMPDEST MUL OR SWAP1 SSTORE POP PUSH2 0x96D JUMP JUMPDEST PUSH1 0x2 PUSH0 DUP7 DUP2 MSTORE PUSH1 0x20 ADD SWAP1 DUP2 MSTORE PUSH1 0x20 ADD PUSH0 KECCAK256 PUSH1 0x1 ADD PUSH0 SWAP1 SLOAD SWAP1 PUSH2 0x100 EXP SWAP1 DIV PUSH20 0xFFFFFFFFFFFFFFFFFFFFFFFFFFFFFFFFFFFFFFFF AND PUSH20 0xFFFFFFFFFFFFFFFFFFFFFFFFFFFFFFFFFFFFFFFF AND CALLER PUSH20 0xFFFFFFFFFFFFFFFFFFFFFFFFFFFFFFFFFFFFFFFF AND SUB PUSH2 0x96C JUMPI PUSH1 0x1 PUSH1 0x2 PUSH0 DUP8 DUP2 MSTORE PUSH1 0x20 ADD SWAP1 DUP2 MSTORE PUSH1 0x20 ADD PUSH0 KECCAK256 PUSH1 0x5 ADD PUSH1 0x1 PUSH2 0x100 EXP DUP2 SLOAD DUP2 PUSH1 0xFF MUL NOT AND SWAP1 DUP4 PUSH1 0x1 DUP2 GT ISZERO PUSH2 0x966 JUMPI PUSH2 0x965 PUSH2 0xDDB JUMP JUMPDEST JUMPDEST MUL OR SWAP1 SSTORE POP JUMPDEST JUMPDEST PUSH1 0x1 PUSH0 CALLER PUSH20 0xFFFFFFFFFFFFFFFFFFFFFFFFFFFFFFFFFFFFFFFF AND PUSH20 0xFFFFFFFFFFFFFFFFFFFFFFFFFFFFFFFFFFFFFFFF AND DUP2 MSTORE PUSH1 0x20 ADD SWAP1 DUP2 MSTORE PUSH1 0x20 ADD PUSH0 KECCAK256 PUSH1 0x40 MLOAD PUSH1 0x20 ADD PUSH2 0x9BA SWAP2 SWAP1 PUSH2 0x1522 JUMP JUMPDEST PUSH1 0x40 MLOAD PUSH1 0x20 DUP2 DUP4 SUB SUB DUP2 MSTORE SWAP1 PUSH1 0x40 MSTORE SWAP3 POP JUMPDEST POP POP SWAP3 SWAP2 POP POP JUMP JUMPDEST PUSH0 SLOAD DUP2 JUMP JUMPDEST DUP3 PUSH20 0xFFFFFFFFFFFFFFFFFFFFFFFFFFFFFFFFFFFFFFFF AND CALLER PUSH20 0xFFFFFFFFFFFFFFFFFFFFFFFFFFFFFFFFFFFFFFFF AND SUB PUSH2 0xA47 JUMPI PUSH1 0x40 MLOAD PUSH32 0x8C379A000000000000000000000000000000000000000000000000000000000 DUP2 MSTORE PUSH1 0x4 ADD PUSH2 0xA3E SWAP1 PUSH2 0x1591 JUMP JUMPDEST PUSH1 0x40 MLOAD DUP1 SWAP2 SUB SWAP1 REVERT JUMPDEST DUP1 DUP3 LT PUSH2 0xA89 JUMPI PUSH1 0x40 MLOAD PUSH32 0x8C379A000000000000000000000000000000000000000000000000000000000 DUP2 MSTORE PUSH1 0x4 ADD PUSH2 0xA80 SWAP1 PUSH2 0x161F JUMP JUMPDEST PUSH1 0x40 MLOAD DUP1 SWAP2 SUB SWAP1 REVERT JUMPDEST PUSH0 DUP1 DUP2 SLOAD DUP1 SWAP3 SWAP2 SWAP1 PUSH2 0xA9A SWAP1 PUSH2 0x166A JUMP JUMPDEST SWAP2 SWAP1 POP SSTORE POP PUSH1 0x1 PUSH1 0x4 PUSH0 DUP1 SLOAD DUP2 MSTORE PUSH1 0x20 ADD SWAP1 DUP2 MSTORE PUSH1 0x20 ADD PUSH0 KECCAK256 PUSH0 PUSH2 0x100 EXP DUP2 SLOAD DUP2 PUSH1 0xFF MUL NOT AND SWAP1 DUP4 ISZERO ISZERO MUL OR SWAP1 SSTORE POP PUSH0 PUSH1 0x2 PUSH0 DUP1 SLOAD DUP2 MSTORE PUSH1 0x20 ADD SWAP1 DUP2 MSTORE PUSH1 0x20 ADD PUSH0 KECCAK256 SWAP1 POP CALLER DUP2 PUSH0 ADD PUSH0 PUSH2 0x100 EXP DUP2 SLOAD DUP2 PUSH20 0xFFFFFFFFFFFFFFFFFFFFFFFFFFFFFFFFFFFFFFFF MUL NOT AND SWAP1 DUP4 PUSH20 0xFFFFFFFFFFFFFFFFFFFFFFFFFFFFFFFFFFFFFFFF AND MUL OR SWAP1 SSTORE POP DUP4 DUP2 PUSH1 0x1 ADD PUSH0 PUSH2 0x100 EXP DUP2 SLOAD DUP2 PUSH20 0xFFFFFFFFFFFFFFFFFFFFFFFFFFFFFFFFFFFFFFFF MUL NOT AND SWAP1 DUP4 PUSH20 0xFFFFFFFFFFFFFFFFFFFFFFFFFFFFFFFFFFFFFFFF AND MUL OR SWAP1 SSTORE POP DUP3 DUP2 PUSH1 0x2 ADD DUP2 SWAP1 SSTORE POP DUP2 DUP2 PUSH1 0x3 ADD DUP2 SWAP1 SSTORE POP PUSH0 DUP2 PUSH1 0x5 ADD PUSH0 PUSH2 0x100 EXP DUP2 SLOAD DUP2 PUSH1 0xFF MUL NOT AND SWAP1 DUP4 PUSH1 0x1 DUP2 GT ISZERO PUSH2 0xB99 JUMPI PUSH2 0xB98 PUSH2 0xDDB JUMP JUMPDEST JUMPDEST MUL OR SWAP1 SSTORE POP PUSH2 0xBAA PUSH0 SLOAD DUP5 DUP5 PUSH2 0xC06 JUMP JUMPDEST DUP2 PUSH1 0x4 ADD DUP2 SWAP1 SSTORE POP POP POP POP POP JUMP JUMPDEST DUP1 PUSH1 0x1 PUSH0 CALLER PUSH20 0xFFFFFFFFFFFFFFFFFFFFFFFFFFFFFFFFFFFFFFFF AND PUSH20 0xFFFFFFFFFFFFFFFFFFFFFFFFFFFFFFFFFFFFFFFF AND DUP2 MSTORE PUSH1 0x20 ADD SWAP1 DUP2 MSTORE PUSH1 0x20 ADD PUSH0 KECCAK256 SWAP1 DUP2 PUSH2 0xC02 SWAP2 SWAP1 PUSH2 0x183C JUMP JUMPDEST POP POP JUMP JUMPDEST PUSH0 DUP4 PUSH1 0x4 PUSH0 DUP3 DUP2 MSTORE PUSH1 0x20 ADD SWAP1 DUP2 MSTORE PUSH1 0x20 ADD PUSH0 KECCAK256 PUSH0 SWAP1 SLOAD SWAP1 PUSH2 0x100 EXP SWAP1 DIV PUSH1 0xFF AND PUSH2 0xC65 JUMPI PUSH1 0x40 MLOAD PUSH32 0x8C379A000000000000000000000000000000000000000000000000000000000 DUP2 MSTORE PUSH1 0x4 ADD PUSH2 0xC5C SWAP1 PUSH2 0x121F JUMP JUMPDEST PUSH1 0x40 MLOAD DUP1 SWAP2 SUB SWAP1 REVERT JUMPDEST PUSH0 DUP5 PUSH1 0x1 DUP7 DUP7 PUSH2 0xC75 SWAP2 SWAP1 PUSH2 0x190B JUMP JUMPDEST PUSH2 0xC7F SWAP2 SWAP1 PUSH2 0x193E JUMP JUMPDEST TIMESTAMP CALLER DUP10 PUSH1 0x40 MLOAD PUSH1 0x20 ADD PUSH2 0xC94 SWAP4 SWAP3 SWAP2 SWAP1 PUSH2 0x19D6 JUMP JUMPDEST PUSH1 0x40 MLOAD PUSH1 0x20 DUP2 DUP4 SUB SUB DUP2 MSTORE SWAP1 PUSH1 0x40 MSTORE DUP1 MLOAD SWAP1 PUSH1 0x20 ADD KECCAK256 PUSH0 SHR PUSH2 0xCB6 SWAP2 SWAP1 PUSH2 0x1A3F JUMP JUMPDEST PUSH2 0xCC0 SWAP2 SWAP1 PUSH2 0x193E JUMP JUMPDEST SWAP1 POP DUP1 SWAP3 POP POP POP SWAP4 SWAP3 POP POP POP JUMP JUMPDEST PUSH0 PUSH1 0x40 MLOAD SWAP1 POP SWAP1 JUMP JUMPDEST PUSH0 DUP1 REVERT JUMPDEST PUSH0 DUP1 REVERT JUMPDEST PUSH0 DUP2 SWAP1 POP SWAP2 SWAP1 POP JUMP JUMPDEST PUSH2 0xCF1 DUP2 PUSH2 0xCDF JUMP JUMPDEST DUP2 EQ PUSH2 0xCFB JUMPI PUSH0 DUP1 REVERT JUMPDEST POP JUMP JUMPDEST PUSH0 DUP2 CALLDATALOAD SWAP1 POP PUSH2 0xD0C DUP2 PUSH2 0xCE8 JUMP JUMPDEST SWAP3 SWAP2 POP POP JUMP JUMPDEST PUSH0 DUP1 PUSH0 PUSH1 0x60 DUP5 DUP7 SUB SLT ISZERO PUSH2 0xD29 JUMPI PUSH2 0xD28 PUSH2 0xCD7 JUMP JUMPDEST JUMPDEST PUSH0 PUSH2 0xD36 DUP7 DUP3 DUP8 ADD PUSH2 0xCFE JUMP JUMPDEST SWAP4 POP POP PUSH1 0x20 PUSH2 0xD47 DUP7 DUP3 DUP8 ADD PUSH2 0xCFE JUMP JUMPDEST SWAP3 POP POP PUSH1 0x40 PUSH2 0xD58 DUP7 DUP3 DUP8 ADD PUSH2 0xCFE JUMP JUMPDEST SWAP2 POP POP SWAP3 POP SWAP3 POP SWAP3 JUMP JUMPDEST PUSH0 PUSH1 0x20 DUP3 DUP5 SUB SLT ISZERO PUSH2 0xD77 JUMPI PUSH2 0xD76 PUSH2 0xCD7 JUMP JUMPDEST JUMPDEST PUSH0 PUSH2 0xD84 DUP5 DUP3 DUP6 ADD PUSH2 0xCFE JUMP JUMPDEST SWAP2 POP POP SWAP3 SWAP2 POP POP JUMP JUMPDEST PUSH0 PUSH20 0xFFFFFFFFFFFFFFFFFFFFFFFFFFFFFFFFFFFFFFFF DUP3 AND SWAP1 POP SWAP2 SWAP1 POP JUMP JUMPDEST PUSH0 PUSH2 0xDB6 DUP3 PUSH2 0xD8D JUMP JUMPDEST SWAP1 POP SWAP2 SWAP1 POP JUMP JUMPDEST PUSH2 0xDC6 DUP2 PUSH2 0xDAC JUMP JUMPDEST DUP3 MSTORE POP POP JUMP JUMPDEST PUSH2 0xDD5 DUP2 PUSH2 0xCDF JUMP JUMPDEST DUP3 MSTORE POP POP JUMP JUMPDEST PUSH32 0x4E487B7100000000000000000000000000000000000000000000000000000000 PUSH0 MSTORE PUSH1 0x21 PUSH1 0x4 MSTORE PUSH1 0x24 PUSH0 REVERT JUMPDEST PUSH1 0x2 DUP2 LT PUSH2 0xE19 JUMPI PUSH2 0xE18 PUSH2 0xDDB JUMP JUMPDEST JUMPDEST POP JUMP JUMPDEST PUSH0 DUP2 SWAP1 POP PUSH2 0xE29 DUP3 PUSH2 0xE08 JUMP JUMPDEST SWAP2 SWAP1 POP JUMP JUMPDEST PUSH0 PUSH2 0xE38 DUP3 PUSH2 0xE1C JUMP JUMPDEST SWAP1 POP SWAP2 SWAP1 POP JUMP JUMPDEST PUSH2 0xE48 DUP2 PUSH2 0xE2E JUMP JUMPDEST DUP3 MSTORE POP POP JUMP JUMPDEST PUSH1 0x2 DUP2 LT PUSH2 0xE5F JUMPI PUSH2 0xE5E PUSH2 0xDDB JUMP JUMPDEST JUMPDEST POP JUMP JUMPDEST PUSH0 DUP2 SWAP1 POP PUSH2 0xE6F DUP3 PUSH2 0xE4E JUMP JUMPDEST SWAP2 SWAP1 POP JUMP JUMPDEST PUSH0 PUSH2 0xE7E DUP3 PUSH2 0xE62 JUMP JUMPDEST SWAP1 POP SWAP2 SWAP1 POP JUMP JUMPDEST PUSH2 0xE8E DUP2 PUSH2 0xE74 JUMP JUMPDEST DUP3 MSTORE POP POP JUMP JUMPDEST PUSH0 PUSH1 0xE0 DUP3 ADD SWAP1 POP PUSH2 0xEA7 PUSH0 DUP4 ADD DUP11 PUSH2 0xDBD JUMP JUMPDEST PUSH2 0xEB4 PUSH1 0x20 DUP4 ADD DUP10 PUSH2 0xDBD JUMP JUMPDEST PUSH2 0xEC1 PUSH1 0x40 DUP4 ADD DUP9 PUSH2 0xDCC JUMP JUMPDEST PUSH2 0xECE PUSH1 0x60 DUP4 ADD DUP8 PUSH2 0xDCC JUMP JUMPDEST PUSH2 0xEDB PUSH1 0x80 DUP4 ADD DUP7 PUSH2 0xDCC JUMP JUMPDEST PUSH2 0xEE8 PUSH1 0xA0 DUP4 ADD DUP6 PUSH2 0xE3F JUMP JUMPDEST PUSH2 0xEF5 PUSH1 0xC0 DUP4 ADD DUP5 PUSH2 0xE85 JUMP JUMPDEST SWAP9 SWAP8 POP POP POP POP POP POP POP POP JUMP JUMPDEST PUSH0 DUP1 PUSH1 0x40 DUP4 DUP6 SUB SLT ISZERO PUSH2 0xF17 JUMPI PUSH2 0xF16 PUSH2 0xCD7 JUMP JUMPDEST JUMPDEST PUSH0 PUSH2 0xF24 DUP6 DUP3 DUP7 ADD PUSH2 0xCFE JUMP JUMPDEST SWAP3 POP POP PUSH1 0x20 PUSH2 0xF35 DUP6 DUP3 DUP7 ADD PUSH2 0xCFE JUMP JUMPDEST SWAP2 POP POP SWAP3 POP SWAP3 SWAP1 POP JUMP JUMPDEST PUSH0 DUP2 MLOAD SWAP1 POP SWAP2 SWAP1 POP JUMP JUMPDEST PUSH0 DUP3 DUP3 MSTORE PUSH1 0x20 DUP3 ADD SWAP1 POP SWAP3 SWAP2 POP POP JUMP JUMPDEST DUP3 DUP2 DUP4 MCOPY PUSH0 DUP4 DUP4 ADD MSTORE POP POP POP JUMP JUMPDEST PUSH0 PUSH1 0x1F NOT PUSH1 0x1F DUP4 ADD AND SWAP1 POP SWAP2 SWAP1 POP JUMP JUMPDEST PUSH0 PUSH2 0xF81 DUP3 PUSH2 0xF3F JUMP JUMPDEST PUSH2 0xF8B DUP2 DUP6 PUSH2 0xF49 JUMP JUMPDEST SWAP4 POP PUSH2 0xF9B DUP2 DUP6 PUSH1 0x20 DUP7 ADD PUSH2 0xF59 JUMP JUMPDEST PUSH2 0xFA4 DUP2 PUSH2 0xF67 JUMP JUMPDEST DUP5 ADD SWAP2 POP POP SWAP3 SWAP2 POP POP JUMP JUMPDEST PUSH0 PUSH1 0x20 DUP3 ADD SWAP1 POP DUP2 DUP2 SUB PUSH0 DUP4 ADD MSTORE PUSH2 0xFC7 DUP2 DUP5 PUSH2 0xF77 JUMP JUMPDEST SWAP1 POP SWAP3 SWAP2 POP POP JUMP JUMPDEST PUSH0 PUSH1 0x20 DUP3 ADD SWAP1 POP PUSH2 0xFE2 PUSH0 DUP4 ADD DUP5 PUSH2 0xDCC JUMP JUMPDEST SWAP3 SWAP2 POP POP JUMP JUMPDEST PUSH2 0xFF1 DUP2 PUSH2 0xDAC JUMP JUMPDEST DUP2 EQ PUSH2 0xFFB JUMPI PUSH0 DUP1 REVERT JUMPDEST POP JUMP JUMPDEST PUSH0 DUP2 CALLDATALOAD SWAP1 POP PUSH2 0x100C DUP2 PUSH2 0xFE8 JUMP JUMPDEST SWAP3 SWAP2 POP POP JUMP JUMPDEST PUSH0 DUP1 PUSH0 PUSH1 0x60 DUP5 DUP7 SUB SLT ISZERO PUSH2 0x1029 JUMPI PUSH2 0x1028 PUSH2 0xCD7 JUMP JUMPDEST JUMPDEST PUSH0 PUSH2 0x1036 DUP7 DUP3 DUP8 ADD PUSH2 0xFFE JUMP JUMPDEST SWAP4 POP POP PUSH1 0x20 PUSH2 0x1047 DUP7 DUP3 DUP8 ADD PUSH2 0xCFE JUMP JUMPDEST SWAP3 POP POP PUSH1 0x40 PUSH2 0x1058 DUP7 DUP3 DUP8 ADD PUSH2 0xCFE JUMP JUMPDEST SWAP2 POP POP SWAP3 POP SWAP3 POP SWAP3 JUMP JUMPDEST PUSH0 DUP1 REVERT JUMPDEST PUSH0 DUP1 REVERT JUMPDEST PUSH32 0x4E487B7100000000000000000000000000000000000000000000000000000000 PUSH0 MSTORE PUSH1 0x41 PUSH1 0x4 MSTORE PUSH1 0x24 PUSH0 REVERT JUMPDEST PUSH2 0x10A0 DUP3 PUSH2 0xF67 JUMP JUMPDEST DUP2 ADD DUP2 DUP2 LT PUSH8 0xFFFFFFFFFFFFFFFF DUP3 GT OR ISZERO PUSH2 0x10BF JUMPI PUSH2 0x10BE PUSH2 0x106A JUMP JUMPDEST JUMPDEST DUP1 PUSH1 0x40 MSTORE POP POP POP JUMP JUMPDEST PUSH0 PUSH2 0x10D1 PUSH2 0xCCE JUMP JUMPDEST SWAP1 POP PUSH2 0x10DD DUP3 DUP3 PUSH2 0x1097 JUMP JUMPDEST SWAP2 SWAP1 POP JUMP JUMPDEST PUSH0 PUSH8 0xFFFFFFFFFFFFFFFF DUP3 GT ISZERO PUSH2 0x10FC JUMPI PUSH2 0x10FB PUSH2 0x106A JUMP JUMPDEST JUMPDEST PUSH2 0x1105 DUP3 PUSH2 0xF67 JUMP JUMPDEST SWAP1 POP PUSH1 0x20 DUP2 ADD SWAP1 POP SWAP2 SWAP1 POP JUMP JUMPDEST DUP3 DUP2 DUP4 CALLDATACOPY PUSH0 DUP4 DUP4 ADD MSTORE POP POP POP JUMP JUMPDEST PUSH0 PUSH2 0x1132 PUSH2 0x112D DUP5 PUSH2 0x10E2 JUMP JUMPDEST PUSH2 0x10C8 JUMP JUMPDEST SWAP1 POP DUP3 DUP2 MSTORE PUSH1 0x20 DUP2 ADD DUP5 DUP5 DUP5 ADD GT ISZERO PUSH2 0x114E JUMPI PUSH2 0x114D PUSH2 0x1066 JUMP JUMPDEST JUMPDEST PUSH2 0x1159 DUP5 DUP3 DUP6 PUSH2 0x1112 JUMP JUMPDEST POP SWAP4 SWAP3 POP POP POP JUMP JUMPDEST PUSH0 DUP3 PUSH1 0x1F DUP4 ADD SLT PUSH2 0x1175 JUMPI PUSH2 0x1174 PUSH2 0x1062 JUMP JUMPDEST JUMPDEST DUP2 CALLDATALOAD PUSH2 0x1185 DUP5 DUP3 PUSH1 0x20 DUP7 ADD PUSH2 0x1120 JUMP JUMPDEST SWAP2 POP POP SWAP3 SWAP2 POP POP JUMP JUMPDEST PUSH0 PUSH1 0x20 DUP3 DUP5 SUB SLT ISZERO PUSH2 0x11A3 JUMPI PUSH2 0x11A2 PUSH2 0xCD7 JUMP JUMPDEST JUMPDEST PUSH0 DUP3 ADD CALLDATALOAD PUSH8 0xFFFFFFFFFFFFFFFF DUP2 GT ISZERO PUSH2 0x11C0 JUMPI PUSH2 0x11BF PUSH2 0xCDB JUMP JUMPDEST JUMPDEST PUSH2 0x11CC DUP5 DUP3 DUP6 ADD PUSH2 0x1161 JUMP JUMPDEST SWAP2 POP POP SWAP3 SWAP2 POP POP JUMP JUMPDEST PUSH32 0x5468652067616D6520646F65736E277420657869737420210000000000000000 PUSH0 DUP3 ADD MSTORE POP JUMP JUMPDEST PUSH0 PUSH2 0x1209 PUSH1 0x18 DUP4 PUSH2 0xF49 JUMP JUMPDEST SWAP2 POP PUSH2 0x1214 DUP3 PUSH2 0x11D5 JUMP JUMPDEST PUSH1 0x20 DUP3 ADD SWAP1 POP SWAP2 SWAP1 POP JUMP JUMPDEST PUSH0 PUSH1 0x20 DUP3 ADD SWAP1 POP DUP2 DUP2 SUB PUSH0 DUP4 ADD MSTORE PUSH2 0x1236 DUP2 PUSH2 0x11FD JUMP JUMPDEST SWAP1 POP SWAP2 SWAP1 POP JUMP JUMPDEST PUSH32 0x596F75277265206E6F7420746865206C61756E63686572206F66207468697320 PUSH0 DUP3 ADD MSTORE PUSH32 0x67616D6500000000000000000000000000000000000000000000000000000000 PUSH1 0x20 DUP3 ADD MSTORE POP JUMP JUMPDEST PUSH0 PUSH2 0x1297 PUSH1 0x24 DUP4 PUSH2 0xF49 JUMP JUMPDEST SWAP2 POP PUSH2 0x12A2 DUP3 PUSH2 0x123D JUMP JUMPDEST PUSH1 0x40 DUP3 ADD SWAP1 POP SWAP2 SWAP1 POP JUMP JUMPDEST PUSH0 PUSH1 0x20 DUP3 ADD SWAP1 POP DUP2 DUP2 SUB PUSH0 DUP4 ADD MSTORE PUSH2 0x12C4 DUP2 PUSH2 0x128B JUMP JUMPDEST SWAP1 POP SWAP2 SWAP1 POP JUMP JUMPDEST PUSH32 0x596F75277265206E6F74206120706C61796572206F6620746869732067616D65 PUSH0 DUP3 ADD MSTORE POP JUMP JUMPDEST PUSH0 PUSH2 0x12FF PUSH1 0x20 DUP4 PUSH2 0xF49 JUMP JUMPDEST SWAP2 POP PUSH2 0x130A DUP3 PUSH2 0x12CB JUMP JUMPDEST PUSH1 0x20 DUP3 ADD SWAP1 POP SWAP2 SWAP1 POP JUMP JUMPDEST PUSH0 PUSH1 0x20 DUP3 ADD SWAP1 POP DUP2 DUP2 SUB PUSH0 DUP4 ADD MSTORE PUSH2 0x132C DUP2 PUSH2 0x12F3 JUMP JUMPDEST SWAP1 POP SWAP2 SWAP1 POP JUMP JUMPDEST PUSH32 0x5468652067616D652068617320656E6465640000000000000000000000000000 PUSH0 DUP3 ADD MSTORE POP JUMP JUMPDEST PUSH0 PUSH2 0x1367 PUSH1 0x12 DUP4 PUSH2 0xF49 JUMP JUMPDEST SWAP2 POP PUSH2 0x1372 DUP3 PUSH2 0x1333 JUMP JUMPDEST PUSH1 0x20 DUP3 ADD SWAP1 POP SWAP2 SWAP1 POP JUMP JUMPDEST PUSH0 PUSH1 0x20 DUP3 ADD SWAP1 POP DUP2 DUP2 SUB PUSH0 DUP4 ADD MSTORE PUSH2 0x1394 DUP2 PUSH2 0x135B JUMP JUMPDEST SWAP1 POP SWAP2 SWAP1 POP JUMP JUMPDEST PUSH32 0x546865206E756D626572206973206F7574206F66206C696D6974730000000000 PUSH0 DUP3 ADD MSTORE POP JUMP JUMPDEST PUSH0 PUSH2 0x13CF PUSH1 0x1B DUP4 PUSH2 0xF49 JUMP JUMPDEST SWAP2 POP PUSH2 0x13DA DUP3 PUSH2 0x139B JUMP JUMPDEST PUSH1 0x20 DUP3 ADD SWAP1 POP SWAP2 SWAP1 POP JUMP JUMPDEST PUSH0 PUSH1 0x20 DUP3 ADD SWAP1 POP DUP2 DUP2 SUB PUSH0 DUP4 ADD MSTORE PUSH2 0x13FC DUP2 PUSH2 0x13C3 JUMP JUMPDEST SWAP1 POP SWAP2 SWAP1 POP JUMP JUMPDEST PUSH32 0x5468652077696E6E657220697320000000000000000000000000000000000000 DUP2 MSTORE POP JUMP JUMPDEST PUSH32 0x4E487B7100000000000000000000000000000000000000000000000000000000 PUSH0 MSTORE PUSH1 0x22 PUSH1 0x4 MSTORE PUSH1 0x24 PUSH0 REVERT JUMPDEST PUSH0 PUSH1 0x2 DUP3 DIV SWAP1 POP PUSH1 0x1 DUP3 AND DUP1 PUSH2 0x146D JUMPI PUSH1 0x7F DUP3 AND SWAP2 POP JUMPDEST PUSH1 0x20 DUP3 LT DUP2 SUB PUSH2 0x1480 JUMPI PUSH2 0x147F PUSH2 0x1429 JUMP JUMPDEST JUMPDEST POP SWAP2 SWAP1 POP JUMP JUMPDEST PUSH0 DUP2 SWAP1 POP SWAP3 SWAP2 POP POP JUMP JUMPDEST PUSH0 DUP2 SWAP1 POP DUP2 PUSH0 MSTORE PUSH1 0x20 PUSH0 KECCAK256 SWAP1 POP SWAP2 SWAP1 POP JUMP JUMPDEST PUSH0 DUP2 SLOAD PUSH2 0x14AE DUP2 PUSH2 0x1456 JUMP JUMPDEST PUSH2 0x14B8 DUP2 DUP7 PUSH2 0x1486 JUMP JUMPDEST SWAP5 POP PUSH1 0x1 DUP3 AND PUSH0 DUP2 EQ PUSH2 0x14D2 JUMPI PUSH1 0x1 DUP2 EQ PUSH2 0x14E7 JUMPI PUSH2 0x1519 JUMP JUMPDEST PUSH1 0xFF NOT DUP4 AND DUP7 MSTORE DUP2 ISZERO ISZERO DUP3 MUL DUP7 ADD SWAP4 POP PUSH2 0x1519 JUMP JUMPDEST PUSH2 0x14F0 DUP6 PUSH2 0x1490 JUMP JUMPDEST PUSH0 JUMPDEST DUP4 DUP2 LT ISZERO PUSH2 0x1511 JUMPI DUP2 SLOAD DUP2 DUP10 ADD MSTORE PUSH1 0x1 DUP3 ADD SWAP2 POP PUSH1 0x20 DUP2 ADD SWAP1 POP PUSH2 0x14F2 JUMP JUMPDEST DUP4 DUP9 ADD SWAP6 POP POP POP JUMPDEST POP POP POP SWAP3 SWAP2 POP POP JUMP JUMPDEST PUSH0 PUSH2 0x152C DUP3 PUSH2 0x1403 JUMP JUMPDEST PUSH1 0xE DUP3 ADD SWAP2 POP PUSH2 0x153C DUP3 DUP5 PUSH2 0x14A2 JUMP JUMPDEST SWAP2 POP DUP2 SWAP1 POP SWAP3 SWAP2 POP POP JUMP JUMPDEST PUSH32 0x596F752063616E277420706C617920616761696E737420796F757273656C6600 PUSH0 DUP3 ADD MSTORE POP JUMP JUMPDEST PUSH0 PUSH2 0x157B PUSH1 0x1F DUP4 PUSH2 0xF49 JUMP JUMPDEST SWAP2 POP PUSH2 0x1586 DUP3 PUSH2 0x1547 JUMP JUMPDEST PUSH1 0x20 DUP3 ADD SWAP1 POP SWAP2 SWAP1 POP JUMP JUMPDEST PUSH0 PUSH1 0x20 DUP3 ADD SWAP1 POP DUP2 DUP2 SUB PUSH0 DUP4 ADD MSTORE PUSH2 0x15A8 DUP2 PUSH2 0x156F JUMP JUMPDEST SWAP1 POP SWAP2 SWAP1 POP JUMP JUMPDEST PUSH32 0x546865206C6F776572206C696D69742073686F756C64206265206C6573732074 PUSH0 DUP3 ADD MSTORE PUSH32 0x68616E2074686520757070657200000000000000000000000000000000000000 PUSH1 0x20 DUP3 ADD MSTORE POP JUMP JUMPDEST PUSH0 PUSH2 0x1609 PUSH1 0x2D DUP4 PUSH2 0xF49 JUMP JUMPDEST SWAP2 POP PUSH2 0x1614 DUP3 PUSH2 0x15AF JUMP JUMPDEST PUSH1 0x40 DUP3 ADD SWAP1 POP SWAP2 SWAP1 POP JUMP JUMPDEST PUSH0 PUSH1 0x20 DUP3 ADD SWAP1 POP DUP2 DUP2 SUB PUSH0 DUP4 ADD MSTORE PUSH2 0x1636 DUP2 PUSH2 0x15FD JUMP JUMPDEST SWAP1 POP SWAP2 SWAP1 POP JUMP JUMPDEST PUSH32 0x4E487B7100000000000000000000000000000000000000000000000000000000 PUSH0 MSTORE PUSH1 0x11 PUSH1 0x4 MSTORE PUSH1 0x24 PUSH0 REVERT JUMPDEST PUSH0 PUSH2 0x1674 DUP3 PUSH2 0xCDF JUMP JUMPDEST SWAP2 POP PUSH32 0xFFFFFFFFFFFFFFFFFFFFFFFFFFFFFFFFFFFFFFFFFFFFFFFFFFFFFFFFFFFFFFFF DUP3 SUB PUSH2 0x16A6 JUMPI PUSH2 0x16A5 PUSH2 0x163D JUMP JUMPDEST JUMPDEST PUSH1 0x1 DUP3 ADD SWAP1 POP SWAP2 SWAP1 POP JUMP JUMPDEST PUSH0 PUSH1 0x20 PUSH1 0x1F DUP4 ADD DIV SWAP1 POP SWAP2 SWAP1 POP JUMP JUMPDEST PUSH0 DUP3 DUP3 SHL SWAP1 POP SWAP3 SWAP2 POP POP JUMP JUMPDEST PUSH0 PUSH1 0x8 DUP4 MUL PUSH2 0x16FB PUSH32 0xFFFFFFFFFFFFFFFFFFFFFFFFFFFFFFFFFFFFFFFFFFFFFFFFFFFFFFFFFFFFFFFF DUP3 PUSH2 0x16C0 JUMP JUMPDEST PUSH2 0x1705 DUP7 DUP4 PUSH2 0x16C0 JUMP JUMPDEST SWAP6 POP DUP1 NOT DUP5 AND SWAP4 POP DUP1 DUP7 AND DUP5 OR SWAP3 POP POP POP SWAP4 SWAP3 POP POP POP JUMP JUMPDEST PUSH0 DUP2 SWAP1 POP SWAP2 SWAP1 POP JUMP JUMPDEST PUSH0 PUSH2 0x1740 PUSH2 0x173B PUSH2 0x1736 DUP5 PUSH2 0xCDF JUMP JUMPDEST PUSH2 0x171D JUMP JUMPDEST PUSH2 0xCDF JUMP JUMPDEST SWAP1 POP SWAP2 SWAP1 POP JUMP JUMPDEST PUSH0 DUP2 SWAP1 POP SWAP2 SWAP1 POP JUMP JUMPDEST PUSH2 0x1759 DUP4 PUSH2 0x1726 JUMP JUMPDEST PUSH2 0x176D PUSH2 0x1765 DUP3 PUSH2 0x1747 JUMP JUMPDEST DUP5 DUP5 SLOAD PUSH2 0x16CC JUMP JUMPDEST DUP3 SSTORE POP POP POP POP JUMP JUMPDEST PUSH0 SWAP1 JUMP JUMPDEST PUSH2 0x1781 PUSH2 0x1775 JUMP JUMPDEST PUSH2 0x178C DUP2 DUP5 DUP5 PUSH2 0x1750 JUMP JUMPDEST POP POP POP JUMP JUMPDEST JUMPDEST DUP2 DUP2 LT ISZERO PUSH2 0x17AF JUMPI PUSH2 0x17A4 PUSH0 DUP3 PUSH2 0x1779 JUMP JUMPDEST PUSH1 0x1 DUP2 ADD SWAP1 POP PUSH2 0x1792 JUMP JUMPDEST POP POP JUMP JUMPDEST PUSH1 0x1F DUP3 GT ISZERO PUSH2 0x17F4 JUMPI PUSH2 0x17C5 DUP2 PUSH2 0x1490 JUMP JUMPDEST PUSH2 0x17CE DUP5 PUSH2 0x16B1 JUMP JUMPDEST DUP2 ADD PUSH1 0x20 DUP6 LT ISZERO PUSH2 0x17DD JUMPI DUP2 SWAP1 POP JUMPDEST PUSH2 0x17F1 PUSH2 0x17E9 DUP6 PUSH2 0x16B1 JUMP JUMPDEST DUP4 ADD DUP3 PUSH2 0x1791 JUMP JUMPDEST POP POP JUMPDEST POP POP POP JUMP JUMPDEST PUSH0 DUP3 DUP3 SHR SWAP1 POP SWAP3 SWAP2 POP POP JUMP JUMPDEST PUSH0 PUSH2 0x1814 PUSH0 NOT DUP5 PUSH1 0x8 MUL PUSH2 0x17F9 JUMP JUMPDEST NOT DUP1 DUP4 AND SWAP2 POP POP SWAP3 SWAP2 POP POP JUMP JUMPDEST PUSH0 PUSH2 0x182C DUP4 DUP4 PUSH2 0x1805 JUMP JUMPDEST SWAP2 POP DUP3 PUSH1 0x2 MUL DUP3 OR SWAP1 POP SWAP3 SWAP2 POP POP JUMP JUMPDEST PUSH2 0x1845 DUP3 PUSH2 0xF3F JUMP JUMPDEST PUSH8 0xFFFFFFFFFFFFFFFF DUP2 GT ISZERO PUSH2 0x185E JUMPI PUSH2 0x185D PUSH2 0x106A JUMP JUMPDEST JUMPDEST PUSH2 0x1868 DUP3 SLOAD PUSH2 0x1456 JUMP JUMPDEST PUSH2 0x1873 DUP3 DUP3 DUP6 PUSH2 0x17B3 JUMP JUMPDEST PUSH0 PUSH1 0x20 SWAP1 POP PUSH1 0x1F DUP4 GT PUSH1 0x1 DUP2 EQ PUSH2 0x18A4 JUMPI PUSH0 DUP5 ISZERO PUSH2 0x1892 JUMPI DUP3 DUP8 ADD MLOAD SWAP1 POP JUMPDEST PUSH2 0x189C DUP6 DUP3 PUSH2 0x1821 JUMP JUMPDEST DUP7 SSTORE POP PUSH2 0x1903 JUMP JUMPDEST PUSH1 0x1F NOT DUP5 AND PUSH2 0x18B2 DUP7 PUSH2 0x1490 JUMP JUMPDEST PUSH0 JUMPDEST DUP3 DUP2 LT ISZERO PUSH2 0x18D9 JUMPI DUP5 DUP10 ADD MLOAD DUP3 SSTORE PUSH1 0x1 DUP3 ADD SWAP2 POP PUSH1 0x20 DUP6 ADD SWAP5 POP PUSH1 0x20 DUP2 ADD SWAP1 POP PUSH2 0x18B4 JUMP JUMPDEST DUP7 DUP4 LT ISZERO PUSH2 0x18F6 JUMPI DUP5 DUP10 ADD MLOAD PUSH2 0x18F2 PUSH1 0x1F DUP10 AND DUP3 PUSH2 0x1805 JUMP JUMPDEST DUP4 SSTORE POP JUMPDEST PUSH1 0x1 PUSH1 0x2 DUP9 MUL ADD DUP9 SSTORE POP POP POP JUMPDEST POP POP POP POP POP POP JUMP JUMPDEST PUSH0 PUSH2 0x1915 DUP3 PUSH2 0xCDF JUMP JUMPDEST SWAP2 POP PUSH2 0x1920 DUP4 PUSH2 0xCDF JUMP JUMPDEST SWAP3 POP DUP3 DUP3 SUB SWAP1 POP DUP2 DUP2 GT ISZERO PUSH2 0x1938 JUMPI PUSH2 0x1937 PUSH2 0x163D JUMP JUMPDEST JUMPDEST SWAP3 SWAP2 POP POP JUMP JUMPDEST PUSH0 PUSH2 0x1948 DUP3 PUSH2 0xCDF JUMP JUMPDEST SWAP2 POP PUSH2 0x1953 DUP4 PUSH2 0xCDF JUMP JUMPDEST SWAP3 POP DUP3 DUP3 ADD SWAP1 POP DUP1 DUP3 GT ISZERO PUSH2 0x196B JUMPI PUSH2 0x196A PUSH2 0x163D JUMP JUMPDEST JUMPDEST SWAP3 SWAP2 POP POP JUMP JUMPDEST PUSH0 DUP2 SWAP1 POP SWAP2 SWAP1 POP JUMP JUMPDEST PUSH2 0x198B PUSH2 0x1986 DUP3 PUSH2 0xCDF JUMP JUMPDEST PUSH2 0x1971 JUMP JUMPDEST DUP3 MSTORE POP POP JUMP JUMPDEST PUSH0 DUP2 PUSH1 0x60 SHL SWAP1 POP SWAP2 SWAP1 POP JUMP JUMPDEST PUSH0 PUSH2 0x19A7 DUP3 PUSH2 0x1991 JUMP JUMPDEST SWAP1 POP SWAP2 SWAP1 POP JUMP JUMPDEST PUSH0 PUSH2 0x19B8 DUP3 PUSH2 0x199D JUMP JUMPDEST SWAP1 POP SWAP2 SWAP1 POP JUMP JUMPDEST PUSH2 0x19D0 PUSH2 0x19CB DUP3 PUSH2 0xDAC JUMP JUMPDEST PUSH2 0x19AE JUMP JUMPDEST DUP3 MSTORE POP POP JUMP JUMPDEST PUSH0 PUSH2 0x19E1 DUP3 DUP7 PUSH2 0x197A JUMP JUMPDEST PUSH1 0x20 DUP3 ADD SWAP2 POP PUSH2 0x19F1 DUP3 DUP6 PUSH2 0x19BF JUMP JUMPDEST PUSH1 0x14 DUP3 ADD SWAP2 POP PUSH2 0x1A01 DUP3 DUP5 PUSH2 0x197A JUMP JUMPDEST PUSH1 0x20 DUP3 ADD SWAP2 POP DUP2 SWAP1 POP SWAP5 SWAP4 POP POP POP POP JUMP JUMPDEST PUSH32 0x4E487B7100000000000000000000000000000000000000000000000000000000 PUSH0 MSTORE PUSH1 0x12 PUSH1 0x4 MSTORE PUSH1 0x24 PUSH0 REVERT JUMPDEST PUSH0 PUSH2 0x1A49 DUP3 PUSH2 0xCDF JUMP JUMPDEST SWAP2 POP PUSH2 0x1A54 DUP4 PUSH2 0xCDF JUMP JUMPDEST SWAP3 POP DUP3 PUSH2 0x1A64 JUMPI PUSH2 0x1A63 PUSH2 0x1A12 JUMP JUMPDEST JUMPDEST DUP3 DUP3 MOD SWAP1 POP SWAP3 SWAP2 POP POP JUMP INVALID LOG2 PUSH5 0x6970667358 0x22 SLT KECCAK256 SWAP14 ORIGIN 0x4C 0xB1 0x2A 0xB0 KECCAK256 PUSH8 0xA5C74998CB11AA2E PUSH22 0x479570185A197D33E06AE97AB54F8864736F6C634300 ADDMOD BYTE STOP CALLER "
				},
				"gasEstimates": {
					"creation": {
						"codeDepositCost": "1364200",
						"executionCost": "6427",
						"totalCost": "1370627"
					},
					"external": {
						"anotherGame(uint256)": "infinite",
						"gameCount()": "2446",
						"games(uint256)": "infinite",
						"guessTheCorrectNumber(uint256,uint256)": "infinite",
						"newGame(address,uint256,uint256)": "infinite",
						"setPlayerName(string)": "infinite",
						"updateGameIntervals(uint256,uint256,uint256)": "infinite"
					},
					"internal": {
						"generateRandomNumber(uint256,uint256,uint256)": "infinite"
					}
				},
				"methodIdentifiers": {
					"anotherGame(uint256)": "1281e092",
					"gameCount()": "4d1975b4",
					"games(uint256)": "117a5b90",
					"guessTheCorrectNumber(uint256,uint256)": "407db5ba",
					"newGame(address,uint256,uint256)": "9f193a7c",
					"setPlayerName(string)": "d8177369",
					"updateGameIntervals(uint256,uint256,uint256)": "0ff9edbc"
				}
			},
			"storageLayout": {
				"storage": [
					{
						"astId": 4,
						"contract": "Pendu.sol:Pendu",
						"label": "gameCount",
						"offset": 0,
						"slot": "0",
						"type": "t_uint256"
					},
					{
						"astId": 25,
						"contract": "Pendu.sol:Pendu",
						"label": "players",
						"offset": 0,
						"slot": "1",
						"type": "t_mapping(t_address,t_string_storage)"
					},
					{
						"astId": 30,
						"contract": "Pendu.sol:Pendu",
						"label": "games",
						"offset": 0,
						"slot": "2",
						"type": "t_mapping(t_uint256,t_struct(Game)21_storage)"
					},
					{
						"astId": 34,
						"contract": "Pendu.sol:Pendu",
						"label": "isPlayer",
						"offset": 0,
						"slot": "3",
						"type": "t_mapping(t_address,t_bool)"
					},
					{
						"astId": 38,
						"contract": "Pendu.sol:Pendu",
						"label": "isGame",
						"offset": 0,
						"slot": "4",
						"type": "t_mapping(t_uint256,t_bool)"
					}
				],
				"types": {
					"t_address": {
						"encoding": "inplace",
						"label": "address",
						"numberOfBytes": "20"
					},
					"t_bool": {
						"encoding": "inplace",
						"label": "bool",
						"numberOfBytes": "1"
					},
					"t_enum(Status)41": {
						"encoding": "inplace",
						"label": "enum Pendu.Status",
						"numberOfBytes": "1"
					},
					"t_enum(Winner)44": {
						"encoding": "inplace",
						"label": "enum Pendu.Winner",
						"numberOfBytes": "1"
					},
					"t_mapping(t_address,t_bool)": {
						"encoding": "mapping",
						"key": "t_address",
						"label": "mapping(address => bool)",
						"numberOfBytes": "32",
						"value": "t_bool"
					},
					"t_mapping(t_address,t_string_storage)": {
						"encoding": "mapping",
						"key": "t_address",
						"label": "mapping(address => string)",
						"numberOfBytes": "32",
						"value": "t_string_storage"
					},
					"t_mapping(t_uint256,t_bool)": {
						"encoding": "mapping",
						"key": "t_uint256",
						"label": "mapping(uint256 => bool)",
						"numberOfBytes": "32",
						"value": "t_bool"
					},
					"t_mapping(t_uint256,t_struct(Game)21_storage)": {
						"encoding": "mapping",
						"key": "t_uint256",
						"label": "mapping(uint256 => struct Pendu.Game)",
						"numberOfBytes": "32",
						"value": "t_struct(Game)21_storage"
					},
					"t_string_storage": {
						"encoding": "bytes",
						"label": "string",
						"numberOfBytes": "32"
					},
					"t_struct(Game)21_storage": {
						"encoding": "inplace",
						"label": "struct Pendu.Game",
						"members": [
							{
								"astId": 6,
								"contract": "Pendu.sol:Pendu",
								"label": "launcher",
								"offset": 0,
								"slot": "0",
								"type": "t_address"
							},
							{
								"astId": 8,
								"contract": "Pendu.sol:Pendu",
								"label": "challenger",
								"offset": 0,
								"slot": "1",
								"type": "t_address"
							},
							{
								"astId": 10,
								"contract": "Pendu.sol:Pendu",
								"label": "lowerLimit",
								"offset": 0,
								"slot": "2",
								"type": "t_uint256"
							},
							{
								"astId": 12,
								"contract": "Pendu.sol:Pendu",
								"label": "upperLimit",
								"offset": 0,
								"slot": "3",
								"type": "t_uint256"
							},
							{
								"astId": 14,
								"contract": "Pendu.sol:Pendu",
								"label": "randomNumber",
								"offset": 0,
								"slot": "4",
								"type": "t_uint256"
							},
							{
								"astId": 17,
								"contract": "Pendu.sol:Pendu",
								"label": "status",
								"offset": 0,
								"slot": "5",
								"type": "t_enum(Status)41"
							},
							{
								"astId": 20,
								"contract": "Pendu.sol:Pendu",
								"label": "winner",
								"offset": 1,
								"slot": "5",
								"type": "t_enum(Winner)44"
							}
						],
						"numberOfBytes": "192"
					},
					"t_uint256": {
						"encoding": "inplace",
						"label": "uint256",
						"numberOfBytes": "32"
					}
				}
			},
			"userdoc": {
				"kind": "user",
				"methods": {},
				"version": 1
			}
		}
	}
}