{
	"Pendu.sol": {
		"Pendu": {
			"abi": [
				{
					"inputs": [
						{
							"internalType": "uint256",
							"name": "_gameId",
							"type": "uint256"
						}
					],
					"name": "anotherGame",
					"outputs": [],
					"stateMutability": "nonpayable",
					"type": "function"
				},
				{
					"inputs": [],
					"name": "gameCount",
					"outputs": [
						{
							"internalType": "uint256",
							"name": "",
							"type": "uint256"
						}
					],
					"stateMutability": "view",
					"type": "function"
				},
				{
					"inputs": [
						{
							"internalType": "uint256",
							"name": "",
							"type": "uint256"
						}
					],
					"name": "games",
					"outputs": [
						{
							"internalType": "uint256",
							"name": "amountToBet",
							"type": "uint256"
						},
						{
							"internalType": "address",
							"name": "launcher",
							"type": "address"
						},
						{
							"internalType": "address",
							"name": "challenger",
							"type": "address"
						},
						{
							"internalType": "uint256",
							"name": "lowerLimit",
							"type": "uint256"
						},
						{
							"internalType": "uint256",
							"name": "upperLimit",
							"type": "uint256"
						},
						{
							"internalType": "uint256",
							"name": "randomNumber",
							"type": "uint256"
						},
						{
							"internalType": "enum Pendu.Status",
							"name": "status",
							"type": "uint8"
						},
						{
							"internalType": "enum Pendu.Winner",
							"name": "winner",
							"type": "uint8"
						}
					],
					"stateMutability": "view",
					"type": "function"
				},
				{
					"inputs": [
						{
							"internalType": "uint256",
							"name": "_gameId",
							"type": "uint256"
						},
						{
							"internalType": "uint256",
							"name": "_guessedNumber",
							"type": "uint256"
						}
					],
					"name": "guessTheCorrectNumber",
					"outputs": [
						{
							"internalType": "string",
							"name": "",
							"type": "string"
						}
					],
					"stateMutability": "payable",
					"type": "function"
				},
				{
					"inputs": [
						{
							"internalType": "address",
							"name": "_player2Addr",
							"type": "address"
						},
						{
							"internalType": "uint256",
							"name": "_amountToBet",
							"type": "uint256"
						},
						{
							"internalType": "uint256",
							"name": "_lowerLimit",
							"type": "uint256"
						},
						{
							"internalType": "uint256",
							"name": "_upperLimit",
							"type": "uint256"
						}
					],
					"name": "newGame",
					"outputs": [],
					"stateMutability": "nonpayable",
					"type": "function"
				},
				{
					"inputs": [
						{
							"internalType": "uint256",
							"name": "_gameId",
							"type": "uint256"
						}
					],
					"name": "payToPlay",
					"outputs": [],
					"stateMutability": "payable",
					"type": "function"
				},
				{
					"inputs": [
						{
							"internalType": "string",
							"name": "_playerName",
							"type": "string"
						}
					],
					"name": "setPlayerName",
					"outputs": [],
					"stateMutability": "nonpayable",
					"type": "function"
				},
				{
					"inputs": [
						{
							"internalType": "uint256",
							"name": "_gameId",
							"type": "uint256"
						},
						{
							"internalType": "uint256",
							"name": "_newAmount",
							"type": "uint256"
						}
					],
					"name": "updateAmountToBet",
					"outputs": [],
					"stateMutability": "nonpayable",
					"type": "function"
				},
				{
					"inputs": [
						{
							"internalType": "uint256",
							"name": "_gameId",
							"type": "uint256"
						},
						{
							"internalType": "uint256",
							"name": "_newLowerLimit",
							"type": "uint256"
						},
						{
							"internalType": "uint256",
							"name": "_newUpperLimit",
							"type": "uint256"
						}
					],
					"name": "updateGameIntervals",
					"outputs": [],
					"stateMutability": "nonpayable",
					"type": "function"
				},
				{
					"inputs": [],
					"name": "withdrawBalance",
					"outputs": [],
					"stateMutability": "payable",
					"type": "function"
				},
				{
					"stateMutability": "payable",
					"type": "receive"
				}
			],
			"devdoc": {
				"kind": "dev",
				"methods": {},
				"version": 1
			},
			"evm": {
				"assembly": "    /* \"Pendu.sol\":308:6262  contract Pendu {... */\n  mstore(0x40, 0x80)\n    /* \"Pendu.sol\":356:357  0 */\n  0x00\n    /* \"Pendu.sol\":329:357  uint256 public gameCount = 0 */\n  dup1\n  sstore\n    /* \"Pendu.sol\":308:6262  contract Pendu {... */\n  callvalue\n  dup1\n  iszero\n  tag_1\n  jumpi\n  0x00\n  dup1\n  revert\ntag_1:\n  pop\n  dataSize(sub_0)\n  dup1\n  dataOffset(sub_0)\n  0x00\n  codecopy\n  0x00\n  return\nstop\n\nsub_0: assembly {\n        /* \"Pendu.sol\":308:6262  contract Pendu {... */\n      mstore(0x40, 0x80)\n      jumpi(tag_1, lt(calldatasize, 0x04))\n      shr(0xe0, calldataload(0x00))\n      dup1\n      0x5162d632\n      gt\n      tag_13\n      jumpi\n      dup1\n      0x5162d632\n      eq\n      tag_8\n      jumpi\n      dup1\n      0x5fd8c710\n      eq\n      tag_9\n      jumpi\n      dup1\n      0x7b82578f\n      eq\n      tag_10\n      jumpi\n      dup1\n      0x9ca71351\n      eq\n      tag_11\n      jumpi\n      dup1\n      0xd8177369\n      eq\n      tag_12\n      jumpi\n      jump(tag_2)\n    tag_13:\n      dup1\n      0x0ff9edbc\n      eq\n      tag_3\n      jumpi\n      dup1\n      0x117a5b90\n      eq\n      tag_4\n      jumpi\n      dup1\n      0x1281e092\n      eq\n      tag_5\n      jumpi\n      dup1\n      0x407db5ba\n      eq\n      tag_6\n      jumpi\n      dup1\n      0x4d1975b4\n      eq\n      tag_7\n      jumpi\n      jump(tag_2)\n    tag_1:\n      jumpi(tag_2, calldatasize)\n        /* \"Pendu.sol\":6064:6073  msg.value */\n      callvalue\n        /* \"Pendu.sol\":6041:6048  balance */\n      0x06\n        /* \"Pendu.sol\":6041:6060  balance[msg.sender] */\n      0x00\n        /* \"Pendu.sol\":6049:6059  msg.sender */\n      caller\n        /* \"Pendu.sol\":6041:6060  balance[msg.sender] */\n      0xffffffffffffffffffffffffffffffffffffffff\n      and\n      0xffffffffffffffffffffffffffffffffffffffff\n      and\n      dup2\n      mstore\n      0x20\n      add\n      swap1\n      dup2\n      mstore\n      0x20\n      add\n      0x00\n      keccak256\n      0x00\n        /* \"Pendu.sol\":6041:6073  balance[msg.sender] += msg.value */\n      dup3\n      dup3\n      sload\n      tag_16\n      swap2\n      swap1\n      tag_17\n      jump\t// in\n    tag_16:\n      swap3\n      pop\n      pop\n      dup2\n      swap1\n      sstore\n      stop\n        /* \"Pendu.sol\":308:6262  contract Pendu {... */\n    tag_2:\n      0x00\n      dup1\n      revert\n        /* \"Pendu.sol\":3541:3971  function updateGameIntervals(... */\n    tag_3:\n      callvalue\n      dup1\n      iszero\n      tag_18\n      jumpi\n      0x00\n      dup1\n      revert\n    tag_18:\n      pop\n      tag_19\n      0x04\n      dup1\n      calldatasize\n      sub\n      dup2\n      add\n      swap1\n      tag_20\n      swap2\n      swap1\n      tag_21\n      jump\t// in\n    tag_20:\n      tag_22\n      jump\t// in\n    tag_19:\n      stop\n        /* \"Pendu.sol\":644:681  mapping(uint256 => Game) public games */\n    tag_4:\n      callvalue\n      dup1\n      iszero\n      tag_23\n      jumpi\n      0x00\n      dup1\n      revert\n    tag_23:\n      pop\n      tag_24\n      0x04\n      dup1\n      calldatasize\n      sub\n      dup2\n      add\n      swap1\n      tag_25\n      swap2\n      swap1\n      tag_26\n      jump\t// in\n    tag_25:\n      tag_27\n      jump\t// in\n    tag_24:\n      mload(0x40)\n      tag_28\n      swap9\n      swap8\n      swap7\n      swap6\n      swap5\n      swap4\n      swap3\n      swap2\n      swap1\n      tag_29\n      jump\t// in\n    tag_28:\n      mload(0x40)\n      dup1\n      swap2\n      sub\n      swap1\n      return\n        /* \"Pendu.sol\":5642:5947  function anotherGame(uint256 _gameId)... */\n    tag_5:\n      callvalue\n      dup1\n      iszero\n      tag_30\n      jumpi\n      0x00\n      dup1\n      revert\n    tag_30:\n      pop\n      tag_31\n      0x04\n      dup1\n      calldatasize\n      sub\n      dup2\n      add\n      swap1\n      tag_32\n      swap2\n      swap1\n      tag_26\n      jump\t// in\n    tag_32:\n      tag_33\n      jump\t// in\n    tag_31:\n      stop\n        /* \"Pendu.sol\":4251:5636  function guessTheCorrectNumber(uint256 _gameId, uint256 _guessedNumber)... */\n    tag_6:\n      tag_34\n      0x04\n      dup1\n      calldatasize\n      sub\n      dup2\n      add\n      swap1\n      tag_35\n      swap2\n      swap1\n      tag_36\n      jump\t// in\n    tag_35:\n      tag_37\n      jump\t// in\n    tag_34:\n      mload(0x40)\n      tag_38\n      swap2\n      swap1\n      tag_39\n      jump\t// in\n    tag_38:\n      mload(0x40)\n      dup1\n      swap2\n      sub\n      swap1\n      return\n        /* \"Pendu.sol\":329:357  uint256 public gameCount = 0 */\n    tag_7:\n      callvalue\n      dup1\n      iszero\n      tag_40\n      jumpi\n      0x00\n      dup1\n      revert\n    tag_40:\n      pop\n      tag_41\n      tag_42\n      jump\t// in\n    tag_41:\n      mload(0x40)\n      tag_43\n      swap2\n      swap1\n      tag_44\n      jump\t// in\n    tag_43:\n      mload(0x40)\n      dup1\n      swap2\n      sub\n      swap1\n      return\n        /* \"Pendu.sol\":1551:2457  function newGame(... */\n    tag_8:\n      callvalue\n      dup1\n      iszero\n      tag_45\n      jumpi\n      0x00\n      dup1\n      revert\n    tag_45:\n      pop\n      tag_46\n      0x04\n      dup1\n      calldatasize\n      sub\n      dup2\n      add\n      swap1\n      tag_47\n      swap2\n      swap1\n      tag_48\n      jump\t// in\n    tag_47:\n      tag_49\n      jump\t// in\n    tag_46:\n      stop\n        /* \"Pendu.sol\":6086:6260  function withdrawBalance() public payable {... */\n    tag_9:\n      tag_50\n      tag_51\n      jump\t// in\n    tag_50:\n      stop\n        /* \"Pendu.sol\":2505:3030  function payToPlay(uint256 _gameId)... */\n    tag_10:\n      tag_52\n      0x04\n      dup1\n      calldatasize\n      sub\n      dup2\n      add\n      swap1\n      tag_53\n      swap2\n      swap1\n      tag_26\n      jump\t// in\n    tag_53:\n      tag_54\n      jump\t// in\n    tag_52:\n      stop\n        /* \"Pendu.sol\":3977:4245  function updateAmountToBet(uint256 _gameId, uint256 _newAmount)... */\n    tag_11:\n      callvalue\n      dup1\n      iszero\n      tag_55\n      jumpi\n      0x00\n      dup1\n      revert\n    tag_55:\n      pop\n      tag_56\n      0x04\n      dup1\n      calldatasize\n      sub\n      dup2\n      add\n      swap1\n      tag_57\n      swap2\n      swap1\n      tag_36\n      jump\t// in\n    tag_57:\n      tag_58\n      jump\t// in\n    tag_56:\n      stop\n        /* \"Pendu.sol\":3036:3143  function setPlayerName(string memory _playerName) public {... */\n    tag_12:\n      callvalue\n      dup1\n      iszero\n      tag_59\n      jumpi\n      0x00\n      dup1\n      revert\n    tag_59:\n      pop\n      tag_60\n      0x04\n      dup1\n      calldatasize\n      sub\n      dup2\n      add\n      swap1\n      tag_61\n      swap2\n      swap1\n      tag_62\n      jump\t// in\n    tag_61:\n      tag_63\n      jump\t// in\n    tag_60:\n      stop\n        /* \"Pendu.sol\":3541:3971  function updateGameIntervals(... */\n    tag_22:\n        /* \"Pendu.sol\":3682:3689  _gameId */\n      dup3\n        /* \"Pendu.sol\":1044:1050  isGame */\n      0x04\n        /* \"Pendu.sol\":1044:1059  isGame[_gameId] */\n      0x00\n        /* \"Pendu.sol\":1051:1058  _gameId */\n      dup3\n        /* \"Pendu.sol\":1044:1059  isGame[_gameId] */\n      dup2\n      mstore\n      0x20\n      add\n      swap1\n      dup2\n      mstore\n      0x20\n      add\n      0x00\n      keccak256\n      0x00\n      swap1\n      sload\n      swap1\n      0x0100\n      exp\n      swap1\n      div\n      0xff\n      and\n        /* \"Pendu.sol\":1036:1088  require(isGame[_gameId], \"The game doesn't exist !\") */\n      tag_65\n      jumpi\n      mload(0x40)\n      0x08c379a000000000000000000000000000000000000000000000000000000000\n      dup2\n      mstore\n      0x04\n      add\n      tag_66\n      swap1\n      tag_67\n      jump\t// in\n    tag_66:\n      mload(0x40)\n      dup1\n      swap2\n      sub\n      swap1\n      revert\n    tag_65:\n        /* \"Pendu.sol\":3704:3711  _gameId */\n      dup4\n        /* \"Pendu.sol\":1209:1219  msg.sender */\n      caller\n        /* \"Pendu.sol\":1182:1219  games[_gameId].launcher == msg.sender */\n      0xffffffffffffffffffffffffffffffffffffffff\n      and\n        /* \"Pendu.sol\":1182:1187  games */\n      0x02\n        /* \"Pendu.sol\":1182:1196  games[_gameId] */\n      0x00\n        /* \"Pendu.sol\":1188:1195  _gameId */\n      dup4\n        /* \"Pendu.sol\":1182:1196  games[_gameId] */\n      dup2\n      mstore\n      0x20\n      add\n      swap1\n      dup2\n      mstore\n      0x20\n      add\n      0x00\n      keccak256\n        /* \"Pendu.sol\":1182:1205  games[_gameId].launcher */\n      0x01\n      add\n      0x00\n      swap1\n      sload\n      swap1\n      0x0100\n      exp\n      swap1\n      div\n      0xffffffffffffffffffffffffffffffffffffffff\n      and\n        /* \"Pendu.sol\":1182:1219  games[_gameId].launcher == msg.sender */\n      0xffffffffffffffffffffffffffffffffffffffff\n      and\n      eq\n        /* \"Pendu.sol\":1161:1281  require(... */\n      tag_69\n      jumpi\n      mload(0x40)\n      0x08c379a000000000000000000000000000000000000000000000000000000000\n      dup2\n      mstore\n      0x04\n      add\n      tag_70\n      swap1\n      tag_71\n      jump\t// in\n    tag_70:\n      mload(0x40)\n      dup1\n      swap2\n      sub\n      swap1\n      revert\n    tag_69:\n        /* \"Pendu.sol\":3751:3765  _newLowerLimit */\n      dup4\n        /* \"Pendu.sol\":3723:3728  games */\n      0x02\n        /* \"Pendu.sol\":3723:3737  games[_gameId] */\n      0x00\n        /* \"Pendu.sol\":3729:3736  _gameId */\n      dup8\n        /* \"Pendu.sol\":3723:3737  games[_gameId] */\n      dup2\n      mstore\n      0x20\n      add\n      swap1\n      dup2\n      mstore\n      0x20\n      add\n      0x00\n      keccak256\n        /* \"Pendu.sol\":3723:3748  games[_gameId].lowerLimit */\n      0x03\n      add\n        /* \"Pendu.sol\":3723:3765  games[_gameId].lowerLimit = _newLowerLimit */\n      dup2\n      swap1\n      sstore\n      pop\n        /* \"Pendu.sol\":3803:3817  _newUpperLimit */\n      dup3\n        /* \"Pendu.sol\":3775:3780  games */\n      0x02\n        /* \"Pendu.sol\":3775:3789  games[_gameId] */\n      0x00\n        /* \"Pendu.sol\":3781:3788  _gameId */\n      dup8\n        /* \"Pendu.sol\":3775:3789  games[_gameId] */\n      dup2\n      mstore\n      0x20\n      add\n      swap1\n      dup2\n      mstore\n      0x20\n      add\n      0x00\n      keccak256\n        /* \"Pendu.sol\":3775:3800  games[_gameId].upperLimit */\n      0x04\n      add\n        /* \"Pendu.sol\":3775:3817  games[_gameId].upperLimit = _newUpperLimit */\n      dup2\n      swap1\n      sstore\n      pop\n        /* \"Pendu.sol\":3857:3964  generateRandomNumber(... */\n      tag_73\n        /* \"Pendu.sol\":3891:3898  _gameId */\n      dup6\n        /* \"Pendu.sol\":3912:3926  _newLowerLimit */\n      dup6\n        /* \"Pendu.sol\":3940:3954  _newUpperLimit */\n      dup6\n        /* \"Pendu.sol\":3857:3877  generateRandomNumber */\n      tag_74\n        /* \"Pendu.sol\":3857:3964  generateRandomNumber(... */\n      jump\t// in\n    tag_73:\n        /* \"Pendu.sol\":3827:3832  games */\n      0x02\n        /* \"Pendu.sol\":3827:3841  games[_gameId] */\n      0x00\n        /* \"Pendu.sol\":3833:3840  _gameId */\n      dup8\n        /* \"Pendu.sol\":3827:3841  games[_gameId] */\n      dup2\n      mstore\n      0x20\n      add\n      swap1\n      dup2\n      mstore\n      0x20\n      add\n      0x00\n      keccak256\n        /* \"Pendu.sol\":3827:3854  games[_gameId].randomNumber */\n      0x05\n      add\n        /* \"Pendu.sol\":3827:3964  games[_gameId].randomNumber = generateRandomNumber(... */\n      dup2\n      swap1\n      sstore\n      pop\n        /* \"Pendu.sol\":1098:1099  _ */\n      pop\n        /* \"Pendu.sol\":3541:3971  function updateGameIntervals(... */\n      pop\n      pop\n      pop\n      pop\n      jump\t// out\n        /* \"Pendu.sol\":644:681  mapping(uint256 => Game) public games */\n    tag_27:\n      mstore(0x20, 0x02)\n      dup1\n      0x00\n      mstore\n      keccak256(0x00, 0x40)\n      0x00\n      swap2\n      pop\n      swap1\n      pop\n      dup1\n      0x00\n      add\n      sload\n      swap1\n      dup1\n      0x01\n      add\n      0x00\n      swap1\n      sload\n      swap1\n      0x0100\n      exp\n      swap1\n      div\n      0xffffffffffffffffffffffffffffffffffffffff\n      and\n      swap1\n      dup1\n      0x02\n      add\n      0x00\n      swap1\n      sload\n      swap1\n      0x0100\n      exp\n      swap1\n      div\n      0xffffffffffffffffffffffffffffffffffffffff\n      and\n      swap1\n      dup1\n      0x03\n      add\n      sload\n      swap1\n      dup1\n      0x04\n      add\n      sload\n      swap1\n      dup1\n      0x05\n      add\n      sload\n      swap1\n      dup1\n      0x06\n      add\n      0x00\n      swap1\n      sload\n      swap1\n      0x0100\n      exp\n      swap1\n      div\n      0xff\n      and\n      swap1\n      dup1\n      0x06\n      add\n      0x01\n      swap1\n      sload\n      swap1\n      0x0100\n      exp\n      swap1\n      div\n      0xff\n      and\n      swap1\n      pop\n      dup9\n      jump\t// out\n        /* \"Pendu.sol\":5642:5947  function anotherGame(uint256 _gameId)... */\n    tag_33:\n        /* \"Pendu.sol\":5713:5720  _gameId */\n      dup1\n        /* \"Pendu.sol\":1044:1050  isGame */\n      0x04\n        /* \"Pendu.sol\":1044:1059  isGame[_gameId] */\n      0x00\n        /* \"Pendu.sol\":1051:1058  _gameId */\n      dup3\n        /* \"Pendu.sol\":1044:1059  isGame[_gameId] */\n      dup2\n      mstore\n      0x20\n      add\n      swap1\n      dup2\n      mstore\n      0x20\n      add\n      0x00\n      keccak256\n      0x00\n      swap1\n      sload\n      swap1\n      0x0100\n      exp\n      swap1\n      div\n      0xff\n      and\n        /* \"Pendu.sol\":1036:1088  require(isGame[_gameId], \"The game doesn't exist !\") */\n      tag_76\n      jumpi\n      mload(0x40)\n      0x08c379a000000000000000000000000000000000000000000000000000000000\n      dup2\n      mstore\n      0x04\n      add\n      tag_77\n      swap1\n      tag_67\n      jump\t// in\n    tag_77:\n      mload(0x40)\n      dup1\n      swap2\n      sub\n      swap1\n      revert\n    tag_76:\n        /* \"Pendu.sol\":5743:5750  _gameId */\n      dup2\n        /* \"Pendu.sol\":1209:1219  msg.sender */\n      caller\n        /* \"Pendu.sol\":1182:1219  games[_gameId].launcher == msg.sender */\n      0xffffffffffffffffffffffffffffffffffffffff\n      and\n        /* \"Pendu.sol\":1182:1187  games */\n      0x02\n        /* \"Pendu.sol\":1182:1196  games[_gameId] */\n      0x00\n        /* \"Pendu.sol\":1188:1195  _gameId */\n      dup4\n        /* \"Pendu.sol\":1182:1196  games[_gameId] */\n      dup2\n      mstore\n      0x20\n      add\n      swap1\n      dup2\n      mstore\n      0x20\n      add\n      0x00\n      keccak256\n        /* \"Pendu.sol\":1182:1205  games[_gameId].launcher */\n      0x01\n      add\n      0x00\n      swap1\n      sload\n      swap1\n      0x0100\n      exp\n      swap1\n      div\n      0xffffffffffffffffffffffffffffffffffffffff\n      and\n        /* \"Pendu.sol\":1182:1219  games[_gameId].launcher == msg.sender */\n      0xffffffffffffffffffffffffffffffffffffffff\n      and\n      eq\n        /* \"Pendu.sol\":1161:1281  require(... */\n      tag_79\n      jumpi\n      mload(0x40)\n      0x08c379a000000000000000000000000000000000000000000000000000000000\n      dup2\n      mstore\n      0x04\n      add\n      tag_80\n      swap1\n      tag_71\n      jump\t// in\n    tag_80:\n      mload(0x40)\n      dup1\n      swap2\n      sub\n      swap1\n      revert\n    tag_79:\n        /* \"Pendu.sol\":5766:5940  newGame(... */\n      tag_82\n        /* \"Pendu.sol\":5787:5792  games */\n      0x02\n        /* \"Pendu.sol\":5787:5801  games[_gameId] */\n      0x00\n        /* \"Pendu.sol\":5793:5800  _gameId */\n      dup6\n        /* \"Pendu.sol\":5787:5801  games[_gameId] */\n      dup2\n      mstore\n      0x20\n      add\n      swap1\n      dup2\n      mstore\n      0x20\n      add\n      0x00\n      keccak256\n        /* \"Pendu.sol\":5787:5812  games[_gameId].challenger */\n      0x02\n      add\n      0x00\n      swap1\n      sload\n      swap1\n      0x0100\n      exp\n      swap1\n      div\n      0xffffffffffffffffffffffffffffffffffffffff\n      and\n        /* \"Pendu.sol\":5826:5831  games */\n      0x02\n        /* \"Pendu.sol\":5826:5840  games[_gameId] */\n      0x00\n        /* \"Pendu.sol\":5832:5839  _gameId */\n      dup7\n        /* \"Pendu.sol\":5826:5840  games[_gameId] */\n      dup2\n      mstore\n      0x20\n      add\n      swap1\n      dup2\n      mstore\n      0x20\n      add\n      0x00\n      keccak256\n        /* \"Pendu.sol\":5826:5852  games[_gameId].amountToBet */\n      0x00\n      add\n      sload\n        /* \"Pendu.sol\":5866:5871  games */\n      0x02\n        /* \"Pendu.sol\":5866:5880  games[_gameId] */\n      0x00\n        /* \"Pendu.sol\":5872:5879  _gameId */\n      dup8\n        /* \"Pendu.sol\":5866:5880  games[_gameId] */\n      dup2\n      mstore\n      0x20\n      add\n      swap1\n      dup2\n      mstore\n      0x20\n      add\n      0x00\n      keccak256\n        /* \"Pendu.sol\":5866:5891  games[_gameId].lowerLimit */\n      0x03\n      add\n      sload\n        /* \"Pendu.sol\":5905:5910  games */\n      0x02\n        /* \"Pendu.sol\":5905:5919  games[_gameId] */\n      0x00\n        /* \"Pendu.sol\":5911:5918  _gameId */\n      dup9\n        /* \"Pendu.sol\":5905:5919  games[_gameId] */\n      dup2\n      mstore\n      0x20\n      add\n      swap1\n      dup2\n      mstore\n      0x20\n      add\n      0x00\n      keccak256\n        /* \"Pendu.sol\":5905:5930  games[_gameId].upperLimit */\n      0x04\n      add\n      sload\n        /* \"Pendu.sol\":5766:5773  newGame */\n      tag_49\n        /* \"Pendu.sol\":5766:5940  newGame(... */\n      jump\t// in\n    tag_82:\n        /* \"Pendu.sol\":1098:1099  _ */\n      pop\n        /* \"Pendu.sol\":5642:5947  function anotherGame(uint256 _gameId)... */\n      pop\n      pop\n      jump\t// out\n        /* \"Pendu.sol\":4251:5636  function guessTheCorrectNumber(uint256 _gameId, uint256 _guessedNumber)... */\n    tag_37:\n        /* \"Pendu.sol\":4426:4439  string memory */\n      0x60\n        /* \"Pendu.sol\":4372:4379  _gameId */\n      dup3\n        /* \"Pendu.sol\":1044:1050  isGame */\n      0x04\n        /* \"Pendu.sol\":1044:1059  isGame[_gameId] */\n      0x00\n        /* \"Pendu.sol\":1051:1058  _gameId */\n      dup3\n        /* \"Pendu.sol\":1044:1059  isGame[_gameId] */\n      dup2\n      mstore\n      0x20\n      add\n      swap1\n      dup2\n      mstore\n      0x20\n      add\n      0x00\n      keccak256\n      0x00\n      swap1\n      sload\n      swap1\n      0x0100\n      exp\n      swap1\n      div\n      0xff\n      and\n        /* \"Pendu.sol\":1036:1088  require(isGame[_gameId], \"The game doesn't exist !\") */\n      tag_84\n      jumpi\n      mload(0x40)\n      0x08c379a000000000000000000000000000000000000000000000000000000000\n      dup2\n      mstore\n      0x04\n      add\n      tag_85\n      swap1\n      tag_67\n      jump\t// in\n    tag_85:\n      mload(0x40)\n      dup1\n      swap2\n      sub\n      swap1\n      revert\n    tag_84:\n        /* \"Pendu.sol\":4400:4407  _gameId */\n      dup4\n        /* \"Pendu.sol\":1387:1392  games */\n      0x02\n        /* \"Pendu.sol\":1387:1401  games[_gameId] */\n      0x00\n        /* \"Pendu.sol\":1393:1400  _gameId */\n      dup3\n        /* \"Pendu.sol\":1387:1401  games[_gameId] */\n      dup2\n      mstore\n      0x20\n      add\n      swap1\n      dup2\n      mstore\n      0x20\n      add\n      0x00\n      keccak256\n        /* \"Pendu.sol\":1387:1410  games[_gameId].launcher */\n      0x01\n      add\n      0x00\n      swap1\n      sload\n      swap1\n      0x0100\n      exp\n      swap1\n      div\n      0xffffffffffffffffffffffffffffffffffffffff\n      and\n        /* \"Pendu.sol\":1373:1410  msg.sender == games[_gameId].launcher */\n      0xffffffffffffffffffffffffffffffffffffffff\n      and\n        /* \"Pendu.sol\":1373:1383  msg.sender */\n      caller\n        /* \"Pendu.sol\":1373:1410  msg.sender == games[_gameId].launcher */\n      0xffffffffffffffffffffffffffffffffffffffff\n      and\n      eq\n        /* \"Pendu.sol\":1373:1469  msg.sender == games[_gameId].launcher ||... */\n      dup1\n      tag_87\n      jumpi\n      pop\n        /* \"Pendu.sol\":1444:1449  games */\n      0x02\n        /* \"Pendu.sol\":1444:1458  games[_gameId] */\n      0x00\n        /* \"Pendu.sol\":1450:1457  _gameId */\n      dup3\n        /* \"Pendu.sol\":1444:1458  games[_gameId] */\n      dup2\n      mstore\n      0x20\n      add\n      swap1\n      dup2\n      mstore\n      0x20\n      add\n      0x00\n      keccak256\n        /* \"Pendu.sol\":1444:1469  games[_gameId].challenger */\n      0x02\n      add\n      0x00\n      swap1\n      sload\n      swap1\n      0x0100\n      exp\n      swap1\n      div\n      0xffffffffffffffffffffffffffffffffffffffff\n      and\n        /* \"Pendu.sol\":1430:1469  msg.sender == games[_gameId].challenger */\n      0xffffffffffffffffffffffffffffffffffffffff\n      and\n        /* \"Pendu.sol\":1430:1440  msg.sender */\n      caller\n        /* \"Pendu.sol\":1430:1469  msg.sender == games[_gameId].challenger */\n      0xffffffffffffffffffffffffffffffffffffffff\n      and\n      eq\n        /* \"Pendu.sol\":1373:1469  msg.sender == games[_gameId].launcher ||... */\n    tag_87:\n        /* \"Pendu.sol\":1352:1527  require(... */\n      tag_88\n      jumpi\n      mload(0x40)\n      0x08c379a000000000000000000000000000000000000000000000000000000000\n      dup2\n      mstore\n      0x04\n      add\n      tag_89\n      swap1\n      tag_90\n      jump\t// in\n    tag_89:\n      mload(0x40)\n      dup1\n      swap2\n      sub\n      swap1\n      revert\n    tag_88:\n        /* \"Pendu.sol\":4514:4518  true */\n      0x01\n        /* \"Pendu.sol\":4476:4518  playerHasPaid[msg.sender][_gameId] == true */\n      iszero\n      iszero\n        /* \"Pendu.sol\":4476:4489  playerHasPaid */\n      0x05\n        /* \"Pendu.sol\":4476:4501  playerHasPaid[msg.sender] */\n      0x00\n        /* \"Pendu.sol\":4490:4500  msg.sender */\n      caller\n        /* \"Pendu.sol\":4476:4501  playerHasPaid[msg.sender] */\n      0xffffffffffffffffffffffffffffffffffffffff\n      and\n      0xffffffffffffffffffffffffffffffffffffffff\n      and\n      dup2\n      mstore\n      0x20\n      add\n      swap1\n      dup2\n      mstore\n      0x20\n      add\n      0x00\n      keccak256\n        /* \"Pendu.sol\":4476:4510  playerHasPaid[msg.sender][_gameId] */\n      0x00\n        /* \"Pendu.sol\":4502:4509  _gameId */\n      dup8\n        /* \"Pendu.sol\":4476:4510  playerHasPaid[msg.sender][_gameId] */\n      dup2\n      mstore\n      0x20\n      add\n      swap1\n      dup2\n      mstore\n      0x20\n      add\n      0x00\n      keccak256\n      0x00\n      swap1\n      sload\n      swap1\n      0x0100\n      exp\n      swap1\n      div\n      0xff\n      and\n        /* \"Pendu.sol\":4476:4518  playerHasPaid[msg.sender][_gameId] == true */\n      iszero\n      iszero\n      eq\n        /* \"Pendu.sol\":4455:4594  require(... */\n      tag_92\n      jumpi\n      mload(0x40)\n      0x08c379a000000000000000000000000000000000000000000000000000000000\n      dup2\n      mstore\n      0x04\n      add\n      tag_93\n      swap1\n      tag_94\n      jump\t// in\n    tag_93:\n      mload(0x40)\n      dup1\n      swap2\n      sub\n      swap1\n      revert\n    tag_92:\n        /* \"Pendu.sol\":4637:4651  Status.ONGOING */\n      0x00\n        /* \"Pendu.sol\":4612:4651  games[_gameId].status == Status.ONGOING */\n      0x01\n      dup2\n      gt\n      iszero\n      tag_95\n      jumpi\n      tag_96\n      tag_97\n      jump\t// in\n    tag_96:\n    tag_95:\n        /* \"Pendu.sol\":4612:4617  games */\n      0x02\n        /* \"Pendu.sol\":4612:4626  games[_gameId] */\n      0x00\n        /* \"Pendu.sol\":4618:4625  _gameId */\n      dup8\n        /* \"Pendu.sol\":4612:4626  games[_gameId] */\n      dup2\n      mstore\n      0x20\n      add\n      swap1\n      dup2\n      mstore\n      0x20\n      add\n      0x00\n      keccak256\n        /* \"Pendu.sol\":4612:4633  games[_gameId].status */\n      0x06\n      add\n      0x00\n      swap1\n      sload\n      swap1\n      0x0100\n      exp\n      swap1\n      div\n      0xff\n      and\n        /* \"Pendu.sol\":4612:4651  games[_gameId].status == Status.ONGOING */\n      0x01\n      dup2\n      gt\n      iszero\n      tag_98\n      jumpi\n      tag_99\n      tag_97\n      jump\t// in\n    tag_99:\n    tag_98:\n      eq\n        /* \"Pendu.sol\":4604:4674  require(games[_gameId].status == Status.ONGOING, \"The game has ended\") */\n      tag_100\n      jumpi\n      mload(0x40)\n      0x08c379a000000000000000000000000000000000000000000000000000000000\n      dup2\n      mstore\n      0x04\n      add\n      tag_101\n      swap1\n      tag_102\n      jump\t// in\n    tag_101:\n      mload(0x40)\n      dup1\n      swap2\n      sub\n      swap1\n      revert\n    tag_100:\n        /* \"Pendu.sol\":4723:4728  games */\n      0x02\n        /* \"Pendu.sol\":4723:4737  games[_gameId] */\n      0x00\n        /* \"Pendu.sol\":4729:4736  _gameId */\n      dup7\n        /* \"Pendu.sol\":4723:4737  games[_gameId] */\n      dup2\n      mstore\n      0x20\n      add\n      swap1\n      dup2\n      mstore\n      0x20\n      add\n      0x00\n      keccak256\n        /* \"Pendu.sol\":4723:4748  games[_gameId].lowerLimit */\n      0x03\n      add\n      sload\n        /* \"Pendu.sol\":4705:4719  _guessedNumber */\n      dup5\n        /* \"Pendu.sol\":4705:4748  _guessedNumber >= games[_gameId].lowerLimit */\n      lt\n      iszero\n        /* \"Pendu.sol\":4705:4811  _guessedNumber >= games[_gameId].lowerLimit &&... */\n      dup1\n      iszero\n      tag_103\n      jumpi\n      pop\n        /* \"Pendu.sol\":4786:4791  games */\n      0x02\n        /* \"Pendu.sol\":4786:4800  games[_gameId] */\n      0x00\n        /* \"Pendu.sol\":4792:4799  _gameId */\n      dup7\n        /* \"Pendu.sol\":4786:4800  games[_gameId] */\n      dup2\n      mstore\n      0x20\n      add\n      swap1\n      dup2\n      mstore\n      0x20\n      add\n      0x00\n      keccak256\n        /* \"Pendu.sol\":4786:4811  games[_gameId].upperLimit */\n      0x04\n      add\n      sload\n        /* \"Pendu.sol\":4768:4782  _guessedNumber */\n      dup5\n        /* \"Pendu.sol\":4768:4811  _guessedNumber <= games[_gameId].upperLimit */\n      gt\n      iszero\n        /* \"Pendu.sol\":4705:4811  _guessedNumber >= games[_gameId].lowerLimit &&... */\n    tag_103:\n        /* \"Pendu.sol\":4684:4864  require(... */\n      tag_104\n      jumpi\n      mload(0x40)\n      0x08c379a000000000000000000000000000000000000000000000000000000000\n      dup2\n      mstore\n      0x04\n      add\n      tag_105\n      swap1\n      tag_106\n      jump\t// in\n    tag_105:\n      mload(0x40)\n      dup1\n      swap2\n      sub\n      swap1\n      revert\n    tag_104:\n        /* \"Pendu.sol\":4896:4901  games */\n      0x02\n        /* \"Pendu.sol\":4896:4910  games[_gameId] */\n      0x00\n        /* \"Pendu.sol\":4902:4909  _gameId */\n      dup7\n        /* \"Pendu.sol\":4896:4910  games[_gameId] */\n      dup2\n      mstore\n      0x20\n      add\n      swap1\n      dup2\n      mstore\n      0x20\n      add\n      0x00\n      keccak256\n        /* \"Pendu.sol\":4896:4923  games[_gameId].randomNumber */\n      0x05\n      add\n      sload\n        /* \"Pendu.sol\":4879:4893  _guessedNumber */\n      dup5\n        /* \"Pendu.sol\":4879:4923  _guessedNumber > games[_gameId].randomNumber */\n      gt\n        /* \"Pendu.sol\":4875:5630  if (_guessedNumber > games[_gameId].randomNumber)... */\n      iszero\n      tag_107\n      jumpi\n        /* \"Pendu.sol\":4937:4970  return \"Your number is too great\" */\n      mload(0x40)\n      dup1\n      0x40\n      add\n      0x40\n      mstore\n      dup1\n      0x18\n      dup2\n      mstore\n      0x20\n      add\n      0x596f7572206e756d62657220697320746f6f2067726561740000000000000000\n      dup2\n      mstore\n      pop\n      swap3\n      pop\n      jump(tag_91)\n        /* \"Pendu.sol\":4875:5630  if (_guessedNumber > games[_gameId].randomNumber)... */\n    tag_107:\n        /* \"Pendu.sol\":5006:5011  games */\n      0x02\n        /* \"Pendu.sol\":5006:5020  games[_gameId] */\n      0x00\n        /* \"Pendu.sol\":5012:5019  _gameId */\n      dup7\n        /* \"Pendu.sol\":5006:5020  games[_gameId] */\n      dup2\n      mstore\n      0x20\n      add\n      swap1\n      dup2\n      mstore\n      0x20\n      add\n      0x00\n      keccak256\n        /* \"Pendu.sol\":5006:5033  games[_gameId].randomNumber */\n      0x05\n      add\n      sload\n        /* \"Pendu.sol\":4989:5003  _guessedNumber */\n      dup5\n        /* \"Pendu.sol\":4989:5033  _guessedNumber < games[_gameId].randomNumber */\n      lt\n        /* \"Pendu.sol\":4985:5630  if (_guessedNumber < games[_gameId].randomNumber)... */\n      iszero\n      tag_109\n      jumpi\n        /* \"Pendu.sol\":5047:5080  return \"Your number is too small\" */\n      mload(0x40)\n      dup1\n      0x40\n      add\n      0x40\n      mstore\n      dup1\n      0x18\n      dup2\n      mstore\n      0x20\n      add\n      0x596f7572206e756d62657220697320746f6f20736d616c6c0000000000000000\n      dup2\n      mstore\n      pop\n      swap3\n      pop\n      jump(tag_91)\n        /* \"Pendu.sol\":4985:5630  if (_guessedNumber < games[_gameId].randomNumber)... */\n    tag_109:\n        /* \"Pendu.sol\":5127:5132  games */\n      0x02\n        /* \"Pendu.sol\":5127:5141  games[_gameId] */\n      0x00\n        /* \"Pendu.sol\":5133:5140  _gameId */\n      dup7\n        /* \"Pendu.sol\":5127:5141  games[_gameId] */\n      dup2\n      mstore\n      0x20\n      add\n      swap1\n      dup2\n      mstore\n      0x20\n      add\n      0x00\n      keccak256\n        /* \"Pendu.sol\":5127:5150  games[_gameId].launcher */\n      0x01\n      add\n      0x00\n      swap1\n      sload\n      swap1\n      0x0100\n      exp\n      swap1\n      div\n      0xffffffffffffffffffffffffffffffffffffffff\n      and\n        /* \"Pendu.sol\":5113:5150  msg.sender == games[_gameId].launcher */\n      0xffffffffffffffffffffffffffffffffffffffff\n      and\n        /* \"Pendu.sol\":5113:5123  msg.sender */\n      caller\n        /* \"Pendu.sol\":5113:5150  msg.sender == games[_gameId].launcher */\n      0xffffffffffffffffffffffffffffffffffffffff\n      and\n      sub\n        /* \"Pendu.sol\":5109:5328  if (msg.sender == games[_gameId].launcher)... */\n      tag_111\n      jumpi\n        /* \"Pendu.sol\":5192:5207  Winner.LAUNCHER */\n      0x00\n        /* \"Pendu.sol\":5168:5173  games */\n      0x02\n        /* \"Pendu.sol\":5168:5182  games[_gameId] */\n      0x00\n        /* \"Pendu.sol\":5174:5181  _gameId */\n      dup8\n        /* \"Pendu.sol\":5168:5182  games[_gameId] */\n      dup2\n      mstore\n      0x20\n      add\n      swap1\n      dup2\n      mstore\n      0x20\n      add\n      0x00\n      keccak256\n        /* \"Pendu.sol\":5168:5189  games[_gameId].winner */\n      0x06\n      add\n      0x01\n        /* \"Pendu.sol\":5168:5207  games[_gameId].winner = Winner.LAUNCHER */\n      0x0100\n      exp\n      dup2\n      sload\n      dup2\n      0xff\n      mul\n      not\n      and\n      swap1\n      dup4\n      0x01\n      dup2\n      gt\n      iszero\n      tag_112\n      jumpi\n      tag_113\n      tag_97\n      jump\t// in\n    tag_113:\n    tag_112:\n      mul\n      or\n      swap1\n      sstore\n      pop\n        /* \"Pendu.sol\":5109:5328  if (msg.sender == games[_gameId].launcher)... */\n      jump(tag_114)\n    tag_111:\n        /* \"Pendu.sol\":5244:5249  games */\n      0x02\n        /* \"Pendu.sol\":5244:5258  games[_gameId] */\n      0x00\n        /* \"Pendu.sol\":5250:5257  _gameId */\n      dup7\n        /* \"Pendu.sol\":5244:5258  games[_gameId] */\n      dup2\n      mstore\n      0x20\n      add\n      swap1\n      dup2\n      mstore\n      0x20\n      add\n      0x00\n      keccak256\n        /* \"Pendu.sol\":5244:5269  games[_gameId].challenger */\n      0x02\n      add\n      0x00\n      swap1\n      sload\n      swap1\n      0x0100\n      exp\n      swap1\n      div\n      0xffffffffffffffffffffffffffffffffffffffff\n      and\n        /* \"Pendu.sol\":5230:5269  msg.sender == games[_gameId].challenger */\n      0xffffffffffffffffffffffffffffffffffffffff\n      and\n        /* \"Pendu.sol\":5230:5240  msg.sender */\n      caller\n        /* \"Pendu.sol\":5230:5269  msg.sender == games[_gameId].challenger */\n      0xffffffffffffffffffffffffffffffffffffffff\n      and\n      sub\n        /* \"Pendu.sol\":5226:5328  if (msg.sender == games[_gameId].challenger)... */\n      tag_115\n      jumpi\n        /* \"Pendu.sol\":5311:5328  Winner.CHALLENGER */\n      0x01\n        /* \"Pendu.sol\":5287:5292  games */\n      0x02\n        /* \"Pendu.sol\":5287:5301  games[_gameId] */\n      0x00\n        /* \"Pendu.sol\":5293:5300  _gameId */\n      dup8\n        /* \"Pendu.sol\":5287:5301  games[_gameId] */\n      dup2\n      mstore\n      0x20\n      add\n      swap1\n      dup2\n      mstore\n      0x20\n      add\n      0x00\n      keccak256\n        /* \"Pendu.sol\":5287:5308  games[_gameId].winner */\n      0x06\n      add\n      0x01\n        /* \"Pendu.sol\":5287:5328  games[_gameId].winner = Winner.CHALLENGER */\n      0x0100\n      exp\n      dup2\n      sload\n      dup2\n      0xff\n      mul\n      not\n      and\n      swap1\n      dup4\n      0x01\n      dup2\n      gt\n      iszero\n      tag_116\n      jumpi\n      tag_117\n      tag_97\n      jump\t// in\n    tag_117:\n    tag_116:\n      mul\n      or\n      swap1\n      sstore\n      pop\n        /* \"Pendu.sol\":5226:5328  if (msg.sender == games[_gameId].challenger)... */\n    tag_115:\n        /* \"Pendu.sol\":5109:5328  if (msg.sender == games[_gameId].launcher)... */\n    tag_114:\n        /* \"Pendu.sol\":5399:5409  msg.sender */\n      caller\n        /* \"Pendu.sol\":5391:5419  payable(msg.sender).transfer */\n      0xffffffffffffffffffffffffffffffffffffffff\n      and\n        /* \"Pendu.sol\":5391:5492  payable(msg.sender).transfer(... */\n      0x08fc\n        /* \"Pendu.sol\":5477:5478  2 */\n      0x02\n        /* \"Pendu.sol\":5467:5473  10**18 */\n      0x0de0b6b3a7640000\n        /* \"Pendu.sol\":5437:5442  games */\n      0x02\n        /* \"Pendu.sol\":5437:5451  games[_gameId] */\n      0x00\n        /* \"Pendu.sol\":5443:5450  _gameId */\n      dup11\n        /* \"Pendu.sol\":5437:5451  games[_gameId] */\n      dup2\n      mstore\n      0x20\n      add\n      swap1\n      dup2\n      mstore\n      0x20\n      add\n      0x00\n      keccak256\n        /* \"Pendu.sol\":5437:5463  games[_gameId].amountToBet */\n      0x00\n      add\n      sload\n        /* \"Pendu.sol\":5437:5474  games[_gameId].amountToBet * (10**18) */\n      tag_118\n      swap2\n      swap1\n      tag_119\n      jump\t// in\n    tag_118:\n        /* \"Pendu.sol\":5437:5478  games[_gameId].amountToBet * (10**18) * 2 */\n      tag_120\n      swap2\n      swap1\n      tag_119\n      jump\t// in\n    tag_120:\n        /* \"Pendu.sol\":5391:5492  payable(msg.sender).transfer(... */\n      swap1\n      dup2\n      iszero\n      mul\n      swap1\n      mload(0x40)\n      0x00\n      mload(0x40)\n      dup1\n      dup4\n      sub\n      dup2\n      dup6\n      dup9\n      dup9\n      call\n      swap4\n      pop\n      pop\n      pop\n      pop\n      iszero\n      dup1\n      iszero\n      tag_122\n      jumpi\n      returndatasize\n      0x00\n      dup1\n      returndatacopy\n      revert(0x00, returndatasize)\n    tag_122:\n      pop\n        /* \"Pendu.sol\":5530:5545  Status.FINISHED */\n      0x01\n        /* \"Pendu.sol\":5506:5511  games */\n      0x02\n        /* \"Pendu.sol\":5506:5520  games[_gameId] */\n      0x00\n        /* \"Pendu.sol\":5512:5519  _gameId */\n      dup8\n        /* \"Pendu.sol\":5506:5520  games[_gameId] */\n      dup2\n      mstore\n      0x20\n      add\n      swap1\n      dup2\n      mstore\n      0x20\n      add\n      0x00\n      keccak256\n        /* \"Pendu.sol\":5506:5527  games[_gameId].status */\n      0x06\n      add\n      0x00\n        /* \"Pendu.sol\":5506:5545  games[_gameId].status = Status.FINISHED */\n      0x0100\n      exp\n      dup2\n      sload\n      dup2\n      0xff\n      mul\n      not\n      and\n      swap1\n      dup4\n      0x01\n      dup2\n      gt\n      iszero\n      tag_123\n      jumpi\n      tag_124\n      tag_97\n      jump\t// in\n    tag_124:\n    tag_123:\n      mul\n      or\n      swap1\n      sstore\n      pop\n        /* \"Pendu.sol\":5599:5606  players */\n      0x01\n        /* \"Pendu.sol\":5599:5618  players[msg.sender] */\n      0x00\n        /* \"Pendu.sol\":5607:5617  msg.sender */\n      caller\n        /* \"Pendu.sol\":5599:5618  players[msg.sender] */\n      0xffffffffffffffffffffffffffffffffffffffff\n      and\n      0xffffffffffffffffffffffffffffffffffffffff\n      and\n      dup2\n      mstore\n      0x20\n      add\n      swap1\n      dup2\n      mstore\n      0x20\n      add\n      0x00\n      keccak256\n        /* \"Pendu.sol\":5567:5619  string.concat(\"The winner is \", players[msg.sender]) */\n      add(0x20, mload(0x40))\n      tag_125\n      swap2\n      swap1\n      tag_126\n      jump\t// in\n    tag_125:\n      mload(0x40)\n      0x20\n      dup2\n      dup4\n      sub\n      sub\n      dup2\n      mstore\n      swap1\n      0x40\n      mstore\n        /* \"Pendu.sol\":5560:5619  return string.concat(\"The winner is \", players[msg.sender]) */\n      swap3\n      pop\n        /* \"Pendu.sol\":1537:1538  _ */\n    tag_91:\n        /* \"Pendu.sol\":1098:1099  _ */\n      pop\n        /* \"Pendu.sol\":4251:5636  function guessTheCorrectNumber(uint256 _gameId, uint256 _guessedNumber)... */\n      pop\n      swap3\n      swap2\n      pop\n      pop\n      jump\t// out\n        /* \"Pendu.sol\":329:357  uint256 public gameCount = 0 */\n    tag_42:\n      sload(0x00)\n      dup2\n      jump\t// out\n        /* \"Pendu.sol\":1551:2457  function newGame(... */\n    tag_49:\n        /* \"Pendu.sol\":1731:1743  _player2Addr */\n      dup4\n        /* \"Pendu.sol\":1717:1743  msg.sender != _player2Addr */\n      0xffffffffffffffffffffffffffffffffffffffff\n      and\n        /* \"Pendu.sol\":1717:1727  msg.sender */\n      caller\n        /* \"Pendu.sol\":1717:1743  msg.sender != _player2Addr */\n      0xffffffffffffffffffffffffffffffffffffffff\n      and\n      sub\n        /* \"Pendu.sol\":1709:1779  require(msg.sender != _player2Addr, \"You can't play against yourself\") */\n      tag_128\n      jumpi\n      mload(0x40)\n      0x08c379a000000000000000000000000000000000000000000000000000000000\n      dup2\n      mstore\n      0x04\n      add\n      tag_129\n      swap1\n      tag_130\n      jump\t// in\n    tag_129:\n      mload(0x40)\n      dup1\n      swap2\n      sub\n      swap1\n      revert\n    tag_128:\n        /* \"Pendu.sol\":1813:1814  0 */\n      0x00\n        /* \"Pendu.sol\":1797:1809  _amountToBet */\n      dup4\n        /* \"Pendu.sol\":1797:1814  _amountToBet >= 0 */\n      lt\n      iszero\n        /* \"Pendu.sol\":1789:1856  require(_amountToBet >= 0, \"The betting amount should be positive\") */\n      tag_131\n      jumpi\n      mload(0x40)\n      0x08c379a000000000000000000000000000000000000000000000000000000000\n      dup2\n      mstore\n      0x04\n      add\n      tag_132\n      swap1\n      tag_133\n      jump\t// in\n    tag_132:\n      mload(0x40)\n      dup1\n      swap2\n      sub\n      swap1\n      revert\n    tag_131:\n        /* \"Pendu.sol\":1901:1912  _upperLimit */\n      dup1\n        /* \"Pendu.sol\":1887:1898  _lowerLimit */\n      dup3\n        /* \"Pendu.sol\":1887:1912  _lowerLimit < _upperLimit */\n      lt\n        /* \"Pendu.sol\":1866:1983  require(... */\n      tag_134\n      jumpi\n      mload(0x40)\n      0x08c379a000000000000000000000000000000000000000000000000000000000\n      dup2\n      mstore\n      0x04\n      add\n      tag_135\n      swap1\n      tag_136\n      jump\t// in\n    tag_135:\n      mload(0x40)\n      dup1\n      swap2\n      sub\n      swap1\n      revert\n    tag_134:\n        /* \"Pendu.sol\":1993:2002  gameCount */\n      0x00\n      dup1\n        /* \"Pendu.sol\":1993:2004  gameCount++ */\n      dup2\n      sload\n      dup1\n      swap3\n      swap2\n      swap1\n      tag_137\n      swap1\n      tag_138\n      jump\t// in\n    tag_137:\n      swap2\n      swap1\n      pop\n      sstore\n      pop\n        /* \"Pendu.sol\":2014:2031  Game storage game */\n      0x00\n        /* \"Pendu.sol\":2034:2039  games */\n      0x02\n        /* \"Pendu.sol\":2034:2050  games[gameCount] */\n      0x00\n        /* \"Pendu.sol\":2040:2049  gameCount */\n      dup1\n      sload\n        /* \"Pendu.sol\":2034:2050  games[gameCount] */\n      dup2\n      mstore\n      0x20\n      add\n      swap1\n      dup2\n      mstore\n      0x20\n      add\n      0x00\n      keccak256\n        /* \"Pendu.sol\":2014:2050  Game storage game = games[gameCount] */\n      swap1\n      pop\n        /* \"Pendu.sol\":2080:2084  true */\n      0x01\n        /* \"Pendu.sol\":2060:2066  isGame */\n      0x04\n        /* \"Pendu.sol\":2060:2077  isGame[gameCount] */\n      0x00\n        /* \"Pendu.sol\":2067:2076  gameCount */\n      dup1\n      sload\n        /* \"Pendu.sol\":2060:2077  isGame[gameCount] */\n      dup2\n      mstore\n      0x20\n      add\n      swap1\n      dup2\n      mstore\n      0x20\n      add\n      0x00\n      keccak256\n      0x00\n        /* \"Pendu.sol\":2060:2084  isGame[gameCount] = true */\n      0x0100\n      exp\n      dup2\n      sload\n      dup2\n      0xff\n      mul\n      not\n      and\n      swap1\n      dup4\n      iszero\n      iszero\n      mul\n      or\n      swap1\n      sstore\n      pop\n        /* \"Pendu.sol\":2113:2125  _amountToBet */\n      dup4\n        /* \"Pendu.sol\":2094:2098  game */\n      dup2\n        /* \"Pendu.sol\":2094:2110  game.amountToBet */\n      0x00\n      add\n        /* \"Pendu.sol\":2094:2125  game.amountToBet = _amountToBet */\n      dup2\n      swap1\n      sstore\n      pop\n        /* \"Pendu.sol\":2151:2161  msg.sender */\n      caller\n        /* \"Pendu.sol\":2135:2139  game */\n      dup2\n        /* \"Pendu.sol\":2135:2148  game.launcher */\n      0x01\n      add\n      0x00\n        /* \"Pendu.sol\":2135:2161  game.launcher = msg.sender */\n      0x0100\n      exp\n      dup2\n      sload\n      dup2\n      0xffffffffffffffffffffffffffffffffffffffff\n      mul\n      not\n      and\n      swap1\n      dup4\n      0xffffffffffffffffffffffffffffffffffffffff\n      and\n      mul\n      or\n      swap1\n      sstore\n      pop\n        /* \"Pendu.sol\":2189:2201  _player2Addr */\n      dup5\n        /* \"Pendu.sol\":2171:2175  game */\n      dup2\n        /* \"Pendu.sol\":2171:2186  game.challenger */\n      0x02\n      add\n      0x00\n        /* \"Pendu.sol\":2171:2201  game.challenger = _player2Addr */\n      0x0100\n      exp\n      dup2\n      sload\n      dup2\n      0xffffffffffffffffffffffffffffffffffffffff\n      mul\n      not\n      and\n      swap1\n      dup4\n      0xffffffffffffffffffffffffffffffffffffffff\n      and\n      mul\n      or\n      swap1\n      sstore\n      pop\n        /* \"Pendu.sol\":2229:2240  _lowerLimit */\n      dup3\n        /* \"Pendu.sol\":2211:2215  game */\n      dup2\n        /* \"Pendu.sol\":2211:2226  game.lowerLimit */\n      0x03\n      add\n        /* \"Pendu.sol\":2211:2240  game.lowerLimit = _lowerLimit */\n      dup2\n      swap1\n      sstore\n      pop\n        /* \"Pendu.sol\":2268:2279  _upperLimit */\n      dup2\n        /* \"Pendu.sol\":2250:2254  game */\n      dup2\n        /* \"Pendu.sol\":2250:2265  game.upperLimit */\n      0x04\n      add\n        /* \"Pendu.sol\":2250:2279  game.upperLimit = _upperLimit */\n      dup2\n      swap1\n      sstore\n      pop\n        /* \"Pendu.sol\":2303:2317  Status.ONGOING */\n      0x00\n        /* \"Pendu.sol\":2289:2293  game */\n      dup2\n        /* \"Pendu.sol\":2289:2300  game.status */\n      0x06\n      add\n      0x00\n        /* \"Pendu.sol\":2289:2317  game.status = Status.ONGOING */\n      0x0100\n      exp\n      dup2\n      sload\n      dup2\n      0xff\n      mul\n      not\n      and\n      swap1\n      dup4\n      0x01\n      dup2\n      gt\n      iszero\n      tag_139\n      jumpi\n      tag_140\n      tag_97\n      jump\t// in\n    tag_140:\n    tag_139:\n      mul\n      or\n      swap1\n      sstore\n      pop\n        /* \"Pendu.sol\":2347:2450  generateRandomNumber(... */\n      tag_141\n        /* \"Pendu.sol\":2381:2390  gameCount */\n      sload(0x00)\n        /* \"Pendu.sol\":2404:2415  _lowerLimit */\n      dup5\n        /* \"Pendu.sol\":2429:2440  _upperLimit */\n      dup5\n        /* \"Pendu.sol\":2347:2367  generateRandomNumber */\n      tag_74\n        /* \"Pendu.sol\":2347:2450  generateRandomNumber(... */\n      jump\t// in\n    tag_141:\n        /* \"Pendu.sol\":2327:2331  game */\n      dup2\n        /* \"Pendu.sol\":2327:2344  game.randomNumber */\n      0x05\n      add\n        /* \"Pendu.sol\":2327:2450  game.randomNumber = generateRandomNumber(... */\n      dup2\n      swap1\n      sstore\n      pop\n        /* \"Pendu.sol\":1699:2457  {... */\n      pop\n        /* \"Pendu.sol\":1551:2457  function newGame(... */\n      pop\n      pop\n      pop\n      pop\n      jump\t// out\n        /* \"Pendu.sol\":6086:6260  function withdrawBalance() public payable {... */\n    tag_51:\n        /* \"Pendu.sol\":6168:6169  0 */\n      0x00\n        /* \"Pendu.sol\":6146:6153  balance */\n      0x06\n        /* \"Pendu.sol\":6146:6165  balance[msg.sender] */\n      0x00\n        /* \"Pendu.sol\":6154:6164  msg.sender */\n      caller\n        /* \"Pendu.sol\":6146:6165  balance[msg.sender] */\n      0xffffffffffffffffffffffffffffffffffffffff\n      and\n      0xffffffffffffffffffffffffffffffffffffffff\n      and\n      dup2\n      mstore\n      0x20\n      add\n      swap1\n      dup2\n      mstore\n      0x20\n      add\n      0x00\n      keccak256\n      sload\n        /* \"Pendu.sol\":6146:6169  balance[msg.sender] > 0 */\n      gt\n        /* \"Pendu.sol\":6138:6194  require(balance[msg.sender] > 0, \"You don't have funds\") */\n      tag_143\n      jumpi\n      mload(0x40)\n      0x08c379a000000000000000000000000000000000000000000000000000000000\n      dup2\n      mstore\n      0x04\n      add\n      tag_144\n      swap1\n      tag_145\n      jump\t// in\n    tag_144:\n      mload(0x40)\n      dup1\n      swap2\n      sub\n      swap1\n      revert\n    tag_143:\n        /* \"Pendu.sol\":6212:6222  msg.sender */\n      caller\n        /* \"Pendu.sol\":6204:6232  payable(msg.sender).transfer */\n      0xffffffffffffffffffffffffffffffffffffffff\n      and\n        /* \"Pendu.sol\":6204:6253  payable(msg.sender).transfer(balance[msg.sender]) */\n      0x08fc\n        /* \"Pendu.sol\":6233:6240  balance */\n      0x06\n        /* \"Pendu.sol\":6233:6252  balance[msg.sender] */\n      0x00\n        /* \"Pendu.sol\":6241:6251  msg.sender */\n      caller\n        /* \"Pendu.sol\":6233:6252  balance[msg.sender] */\n      0xffffffffffffffffffffffffffffffffffffffff\n      and\n      0xffffffffffffffffffffffffffffffffffffffff\n      and\n      dup2\n      mstore\n      0x20\n      add\n      swap1\n      dup2\n      mstore\n      0x20\n      add\n      0x00\n      keccak256\n      sload\n        /* \"Pendu.sol\":6204:6253  payable(msg.sender).transfer(balance[msg.sender]) */\n      swap1\n      dup2\n      iszero\n      mul\n      swap1\n      mload(0x40)\n      0x00\n      mload(0x40)\n      dup1\n      dup4\n      sub\n      dup2\n      dup6\n      dup9\n      dup9\n      call\n      swap4\n      pop\n      pop\n      pop\n      pop\n      iszero\n      dup1\n      iszero\n      tag_147\n      jumpi\n      returndatasize\n      0x00\n      dup1\n      returndatacopy\n      revert(0x00, returndatasize)\n    tag_147:\n      pop\n        /* \"Pendu.sol\":6086:6260  function withdrawBalance() public payable {... */\n      jump\t// out\n        /* \"Pendu.sol\":2505:3030  function payToPlay(uint256 _gameId)... */\n    tag_54:\n        /* \"Pendu.sol\":2590:2597  _gameId */\n      dup1\n        /* \"Pendu.sol\":1044:1050  isGame */\n      0x04\n        /* \"Pendu.sol\":1044:1059  isGame[_gameId] */\n      0x00\n        /* \"Pendu.sol\":1051:1058  _gameId */\n      dup3\n        /* \"Pendu.sol\":1044:1059  isGame[_gameId] */\n      dup2\n      mstore\n      0x20\n      add\n      swap1\n      dup2\n      mstore\n      0x20\n      add\n      0x00\n      keccak256\n      0x00\n      swap1\n      sload\n      swap1\n      0x0100\n      exp\n      swap1\n      div\n      0xff\n      and\n        /* \"Pendu.sol\":1036:1088  require(isGame[_gameId], \"The game doesn't exist !\") */\n      tag_149\n      jumpi\n      mload(0x40)\n      0x08c379a000000000000000000000000000000000000000000000000000000000\n      dup2\n      mstore\n      0x04\n      add\n      tag_150\n      swap1\n      tag_67\n      jump\t// in\n    tag_150:\n      mload(0x40)\n      dup1\n      swap2\n      sub\n      swap1\n      revert\n    tag_149:\n        /* \"Pendu.sol\":2618:2625  _gameId */\n      dup2\n        /* \"Pendu.sol\":1387:1392  games */\n      0x02\n        /* \"Pendu.sol\":1387:1401  games[_gameId] */\n      0x00\n        /* \"Pendu.sol\":1393:1400  _gameId */\n      dup3\n        /* \"Pendu.sol\":1387:1401  games[_gameId] */\n      dup2\n      mstore\n      0x20\n      add\n      swap1\n      dup2\n      mstore\n      0x20\n      add\n      0x00\n      keccak256\n        /* \"Pendu.sol\":1387:1410  games[_gameId].launcher */\n      0x01\n      add\n      0x00\n      swap1\n      sload\n      swap1\n      0x0100\n      exp\n      swap1\n      div\n      0xffffffffffffffffffffffffffffffffffffffff\n      and\n        /* \"Pendu.sol\":1373:1410  msg.sender == games[_gameId].launcher */\n      0xffffffffffffffffffffffffffffffffffffffff\n      and\n        /* \"Pendu.sol\":1373:1383  msg.sender */\n      caller\n        /* \"Pendu.sol\":1373:1410  msg.sender == games[_gameId].launcher */\n      0xffffffffffffffffffffffffffffffffffffffff\n      and\n      eq\n        /* \"Pendu.sol\":1373:1469  msg.sender == games[_gameId].launcher ||... */\n      dup1\n      tag_152\n      jumpi\n      pop\n        /* \"Pendu.sol\":1444:1449  games */\n      0x02\n        /* \"Pendu.sol\":1444:1458  games[_gameId] */\n      0x00\n        /* \"Pendu.sol\":1450:1457  _gameId */\n      dup3\n        /* \"Pendu.sol\":1444:1458  games[_gameId] */\n      dup2\n      mstore\n      0x20\n      add\n      swap1\n      dup2\n      mstore\n      0x20\n      add\n      0x00\n      keccak256\n        /* \"Pendu.sol\":1444:1469  games[_gameId].challenger */\n      0x02\n      add\n      0x00\n      swap1\n      sload\n      swap1\n      0x0100\n      exp\n      swap1\n      div\n      0xffffffffffffffffffffffffffffffffffffffff\n      and\n        /* \"Pendu.sol\":1430:1469  msg.sender == games[_gameId].challenger */\n      0xffffffffffffffffffffffffffffffffffffffff\n      and\n        /* \"Pendu.sol\":1430:1440  msg.sender */\n      caller\n        /* \"Pendu.sol\":1430:1469  msg.sender == games[_gameId].challenger */\n      0xffffffffffffffffffffffffffffffffffffffff\n      and\n      eq\n        /* \"Pendu.sol\":1373:1469  msg.sender == games[_gameId].launcher ||... */\n    tag_152:\n        /* \"Pendu.sol\":1352:1527  require(... */\n      tag_153\n      jumpi\n      mload(0x40)\n      0x08c379a000000000000000000000000000000000000000000000000000000000\n      dup2\n      mstore\n      0x04\n      add\n      tag_154\n      swap1\n      tag_90\n      jump\t// in\n    tag_154:\n      mload(0x40)\n      dup1\n      swap2\n      sub\n      swap1\n      revert\n    tag_153:\n        /* \"Pendu.sol\":2641:2666  uint256 amountToBetInGwei */\n      0x00\n        /* \"Pendu.sol\":2699:2705  10**18 */\n      0x0de0b6b3a7640000\n        /* \"Pendu.sol\":2669:2674  games */\n      0x02\n        /* \"Pendu.sol\":2669:2683  games[_gameId] */\n      0x00\n        /* \"Pendu.sol\":2675:2682  _gameId */\n      dup7\n        /* \"Pendu.sol\":2669:2683  games[_gameId] */\n      dup2\n      mstore\n      0x20\n      add\n      swap1\n      dup2\n      mstore\n      0x20\n      add\n      0x00\n      keccak256\n        /* \"Pendu.sol\":2669:2695  games[_gameId].amountToBet */\n      0x00\n      add\n      sload\n        /* \"Pendu.sol\":2669:2706  games[_gameId].amountToBet * (10**18) */\n      tag_156\n      swap2\n      swap1\n      tag_119\n      jump\t// in\n    tag_156:\n        /* \"Pendu.sol\":2641:2706  uint256 amountToBetInGwei = games[_gameId].amountToBet * (10**18) */\n      swap1\n      pop\n        /* \"Pendu.sol\":2750:2767  amountToBetInGwei */\n      dup1\n        /* \"Pendu.sol\":2737:2746  msg.value */\n      callvalue\n        /* \"Pendu.sol\":2737:2767  msg.value == amountToBetInGwei */\n      eq\n        /* \"Pendu.sol\":2878:2922  Strings.toString(games[_gameId].amountToBet) */\n      tag_157\n        /* \"Pendu.sol\":2895:2900  games */\n      0x02\n        /* \"Pendu.sol\":2895:2909  games[_gameId] */\n      0x00\n        /* \"Pendu.sol\":2901:2908  _gameId */\n      dup8\n        /* \"Pendu.sol\":2895:2909  games[_gameId] */\n      dup2\n      mstore\n      0x20\n      add\n      swap1\n      dup2\n      mstore\n      0x20\n      add\n      0x00\n      keccak256\n        /* \"Pendu.sol\":2895:2921  games[_gameId].amountToBet */\n      0x00\n      add\n      sload\n        /* \"Pendu.sol\":2878:2894  Strings.toString */\n      tag_158\n        /* \"Pendu.sol\":2878:2922  Strings.toString(games[_gameId].amountToBet) */\n      jump\t// in\n    tag_157:\n        /* \"Pendu.sol\":2781:2962  string.concat(... */\n      add(0x20, mload(0x40))\n      tag_159\n      swap2\n      swap1\n      tag_160\n      jump\t// in\n    tag_159:\n      mload(0x40)\n      0x20\n      dup2\n      dup4\n      sub\n      sub\n      dup2\n      mstore\n      swap1\n      0x40\n      mstore\n        /* \"Pendu.sol\":2716:2972  require(... */\n      swap1\n      tag_161\n      jumpi\n      mload(0x40)\n      0x08c379a000000000000000000000000000000000000000000000000000000000\n      dup2\n      mstore\n      0x04\n      add\n      tag_162\n      swap2\n      swap1\n      tag_39\n      jump\t// in\n    tag_162:\n      mload(0x40)\n      dup1\n      swap2\n      sub\n      swap1\n      revert\n    tag_161:\n      pop\n        /* \"Pendu.sol\":3019:3023  true */\n      0x01\n        /* \"Pendu.sol\":2982:2995  playerHasPaid */\n      0x05\n        /* \"Pendu.sol\":2982:3007  playerHasPaid[msg.sender] */\n      0x00\n        /* \"Pendu.sol\":2996:3006  msg.sender */\n      caller\n        /* \"Pendu.sol\":2982:3007  playerHasPaid[msg.sender] */\n      0xffffffffffffffffffffffffffffffffffffffff\n      and\n      0xffffffffffffffffffffffffffffffffffffffff\n      and\n      dup2\n      mstore\n      0x20\n      add\n      swap1\n      dup2\n      mstore\n      0x20\n      add\n      0x00\n      keccak256\n        /* \"Pendu.sol\":2982:3016  playerHasPaid[msg.sender][_gameId] */\n      0x00\n        /* \"Pendu.sol\":3008:3015  _gameId */\n      dup7\n        /* \"Pendu.sol\":2982:3016  playerHasPaid[msg.sender][_gameId] */\n      dup2\n      mstore\n      0x20\n      add\n      swap1\n      dup2\n      mstore\n      0x20\n      add\n      0x00\n      keccak256\n      0x00\n        /* \"Pendu.sol\":2982:3023  playerHasPaid[msg.sender][_gameId] = true */\n      0x0100\n      exp\n      dup2\n      sload\n      dup2\n      0xff\n      mul\n      not\n      and\n      swap1\n      dup4\n      iszero\n      iszero\n      mul\n      or\n      swap1\n      sstore\n      pop\n        /* \"Pendu.sol\":2631:3030  {... */\n      pop\n        /* \"Pendu.sol\":1098:1099  _ */\n      pop\n        /* \"Pendu.sol\":2505:3030  function payToPlay(uint256 _gameId)... */\n      pop\n      pop\n      jump\t// out\n        /* \"Pendu.sol\":3977:4245  function updateAmountToBet(uint256 _gameId, uint256 _newAmount)... */\n    tag_58:\n        /* \"Pendu.sol\":4074:4081  _gameId */\n      dup2\n        /* \"Pendu.sol\":1044:1050  isGame */\n      0x04\n        /* \"Pendu.sol\":1044:1059  isGame[_gameId] */\n      0x00\n        /* \"Pendu.sol\":1051:1058  _gameId */\n      dup3\n        /* \"Pendu.sol\":1044:1059  isGame[_gameId] */\n      dup2\n      mstore\n      0x20\n      add\n      swap1\n      dup2\n      mstore\n      0x20\n      add\n      0x00\n      keccak256\n      0x00\n      swap1\n      sload\n      swap1\n      0x0100\n      exp\n      swap1\n      div\n      0xff\n      and\n        /* \"Pendu.sol\":1036:1088  require(isGame[_gameId], \"The game doesn't exist !\") */\n      tag_164\n      jumpi\n      mload(0x40)\n      0x08c379a000000000000000000000000000000000000000000000000000000000\n      dup2\n      mstore\n      0x04\n      add\n      tag_165\n      swap1\n      tag_67\n      jump\t// in\n    tag_165:\n      mload(0x40)\n      dup1\n      swap2\n      sub\n      swap1\n      revert\n    tag_164:\n        /* \"Pendu.sol\":4104:4111  _gameId */\n      dup3\n        /* \"Pendu.sol\":1209:1219  msg.sender */\n      caller\n        /* \"Pendu.sol\":1182:1219  games[_gameId].launcher == msg.sender */\n      0xffffffffffffffffffffffffffffffffffffffff\n      and\n        /* \"Pendu.sol\":1182:1187  games */\n      0x02\n        /* \"Pendu.sol\":1182:1196  games[_gameId] */\n      0x00\n        /* \"Pendu.sol\":1188:1195  _gameId */\n      dup4\n        /* \"Pendu.sol\":1182:1196  games[_gameId] */\n      dup2\n      mstore\n      0x20\n      add\n      swap1\n      dup2\n      mstore\n      0x20\n      add\n      0x00\n      keccak256\n        /* \"Pendu.sol\":1182:1205  games[_gameId].launcher */\n      0x01\n      add\n      0x00\n      swap1\n      sload\n      swap1\n      0x0100\n      exp\n      swap1\n      div\n      0xffffffffffffffffffffffffffffffffffffffff\n      and\n        /* \"Pendu.sol\":1182:1219  games[_gameId].launcher == msg.sender */\n      0xffffffffffffffffffffffffffffffffffffffff\n      and\n      eq\n        /* \"Pendu.sol\":1161:1281  require(... */\n      tag_167\n      jumpi\n      mload(0x40)\n      0x08c379a000000000000000000000000000000000000000000000000000000000\n      dup2\n      mstore\n      0x04\n      add\n      tag_168\n      swap1\n      tag_71\n      jump\t// in\n    tag_168:\n      mload(0x40)\n      dup1\n      swap2\n      sub\n      swap1\n      revert\n    tag_167:\n        /* \"Pendu.sol\":4148:4149  0 */\n      0x00\n        /* \"Pendu.sol\":4135:4145  _newAmount */\n      dup4\n        /* \"Pendu.sol\":4135:4149  _newAmount > 0 */\n      gt\n        /* \"Pendu.sol\":4127:4189  require(_newAmount > 0, \"The amount should be greater than 0\") */\n      tag_170\n      jumpi\n      mload(0x40)\n      0x08c379a000000000000000000000000000000000000000000000000000000000\n      dup2\n      mstore\n      0x04\n      add\n      tag_171\n      swap1\n      tag_172\n      jump\t// in\n    tag_171:\n      mload(0x40)\n      dup1\n      swap2\n      sub\n      swap1\n      revert\n    tag_170:\n        /* \"Pendu.sol\":4228:4238  _newAmount */\n      dup3\n        /* \"Pendu.sol\":4199:4204  games */\n      0x02\n        /* \"Pendu.sol\":4199:4213  games[_gameId] */\n      0x00\n        /* \"Pendu.sol\":4205:4212  _gameId */\n      dup7\n        /* \"Pendu.sol\":4199:4213  games[_gameId] */\n      dup2\n      mstore\n      0x20\n      add\n      swap1\n      dup2\n      mstore\n      0x20\n      add\n      0x00\n      keccak256\n        /* \"Pendu.sol\":4199:4225  games[_gameId].amountToBet */\n      0x00\n      add\n        /* \"Pendu.sol\":4199:4238  games[_gameId].amountToBet = _newAmount */\n      dup2\n      swap1\n      sstore\n      pop\n        /* \"Pendu.sol\":1098:1099  _ */\n      pop\n        /* \"Pendu.sol\":3977:4245  function updateAmountToBet(uint256 _gameId, uint256 _newAmount)... */\n      pop\n      pop\n      pop\n      jump\t// out\n        /* \"Pendu.sol\":3036:3143  function setPlayerName(string memory _playerName) public {... */\n    tag_63:\n        /* \"Pendu.sol\":3125:3136  _playerName */\n      dup1\n        /* \"Pendu.sol\":3103:3110  players */\n      0x01\n        /* \"Pendu.sol\":3103:3122  players[msg.sender] */\n      0x00\n        /* \"Pendu.sol\":3111:3121  msg.sender */\n      caller\n        /* \"Pendu.sol\":3103:3122  players[msg.sender] */\n      0xffffffffffffffffffffffffffffffffffffffff\n      and\n      0xffffffffffffffffffffffffffffffffffffffff\n      and\n      dup2\n      mstore\n      0x20\n      add\n      swap1\n      dup2\n      mstore\n      0x20\n      add\n      0x00\n      keccak256\n        /* \"Pendu.sol\":3103:3136  players[msg.sender] = _playerName */\n      swap1\n      dup2\n      tag_174\n      swap2\n      swap1\n      tag_175\n      jump\t// in\n    tag_174:\n      pop\n        /* \"Pendu.sol\":3036:3143  function setPlayerName(string memory _playerName) public {... */\n      pop\n      jump\t// out\n        /* \"Pendu.sol\":3149:3535  function generateRandomNumber(... */\n    tag_74:\n        /* \"Pendu.sol\":3310:3317  uint256 */\n      0x00\n        /* \"Pendu.sol\":3292:3299  _gameId */\n      dup4\n        /* \"Pendu.sol\":1044:1050  isGame */\n      0x04\n        /* \"Pendu.sol\":1044:1059  isGame[_gameId] */\n      0x00\n        /* \"Pendu.sol\":1051:1058  _gameId */\n      dup3\n        /* \"Pendu.sol\":1044:1059  isGame[_gameId] */\n      dup2\n      mstore\n      0x20\n      add\n      swap1\n      dup2\n      mstore\n      0x20\n      add\n      0x00\n      keccak256\n      0x00\n      swap1\n      sload\n      swap1\n      0x0100\n      exp\n      swap1\n      div\n      0xff\n      and\n        /* \"Pendu.sol\":1036:1088  require(isGame[_gameId], \"The game doesn't exist !\") */\n      tag_177\n      jumpi\n      mload(0x40)\n      0x08c379a000000000000000000000000000000000000000000000000000000000\n      dup2\n      mstore\n      0x04\n      add\n      tag_178\n      swap1\n      tag_67\n      jump\t// in\n    tag_178:\n      mload(0x40)\n      dup1\n      swap2\n      sub\n      swap1\n      revert\n    tag_177:\n        /* \"Pendu.sol\":3329:3349  uint256 randomNumber */\n      0x00\n        /* \"Pendu.sol\":3487:3498  _lowerLimit */\n      dup5\n        /* \"Pendu.sol\":3481:3482  1 */\n      0x01\n        /* \"Pendu.sol\":3467:3478  _lowerLimit */\n      dup7\n        /* \"Pendu.sol\":3453:3464  _upperLimit */\n      dup7\n        /* \"Pendu.sol\":3453:3478  _upperLimit - _lowerLimit */\n      tag_180\n      swap2\n      swap1\n      tag_181\n      jump\t// in\n    tag_180:\n        /* \"Pendu.sol\":3453:3482  _upperLimit - _lowerLimit + 1 */\n      tag_182\n      swap2\n      swap1\n      tag_17\n      jump\t// in\n    tag_182:\n        /* \"Pendu.sol\":3401:3416  block.timestamp */\n      timestamp\n        /* \"Pendu.sol\":3418:3428  msg.sender */\n      caller\n        /* \"Pendu.sol\":3430:3437  _gameId */\n      dup10\n        /* \"Pendu.sol\":3384:3438  abi.encodePacked(block.timestamp, msg.sender, _gameId) */\n      add(0x20, mload(0x40))\n      tag_183\n      swap4\n      swap3\n      swap2\n      swap1\n      tag_184\n      jump\t// in\n    tag_183:\n      mload(0x40)\n      0x20\n      dup2\n      dup4\n      sub\n      sub\n      dup2\n      mstore\n      swap1\n      0x40\n      mstore\n        /* \"Pendu.sol\":3374:3439  keccak256(abi.encodePacked(block.timestamp, msg.sender, _gameId)) */\n      dup1\n      mload\n      swap1\n      0x20\n      add\n      keccak256\n        /* \"Pendu.sol\":3353:3449  uint256(... */\n      0x00\n      shr\n        /* \"Pendu.sol\":3353:3483  uint256(... */\n      tag_185\n      swap2\n      swap1\n      tag_186\n      jump\t// in\n    tag_185:\n        /* \"Pendu.sol\":3352:3498  (uint256(... */\n      tag_187\n      swap2\n      swap1\n      tag_17\n      jump\t// in\n    tag_187:\n        /* \"Pendu.sol\":3329:3498  uint256 randomNumber = (uint256(... */\n      swap1\n      pop\n        /* \"Pendu.sol\":3516:3528  randomNumber */\n      dup1\n        /* \"Pendu.sol\":3509:3528  return randomNumber */\n      swap3\n      pop\n      pop\n        /* \"Pendu.sol\":3149:3535  function generateRandomNumber(... */\n      pop\n      swap4\n      swap3\n      pop\n      pop\n      pop\n      jump\t// out\n        /* \"@openzeppelin/contracts/utils/Strings.sol\":637:1335  function toString(uint256 value) internal pure returns (string memory) {... */\n    tag_158:\n        /* \"@openzeppelin/contracts/utils/Strings.sol\":693:706  string memory */\n      0x60\n        /* \"@openzeppelin/contracts/utils/Strings.sol\":742:756  uint256 length */\n      0x00\n        /* \"@openzeppelin/contracts/utils/Strings.sol\":779:780  1 */\n      0x01\n        /* \"@openzeppelin/contracts/utils/Strings.sol\":759:776  Math.log10(value) */\n      tag_189\n        /* \"@openzeppelin/contracts/utils/Strings.sol\":770:775  value */\n      dup5\n        /* \"@openzeppelin/contracts/utils/Strings.sol\":759:769  Math.log10 */\n      tag_190\n        /* \"@openzeppelin/contracts/utils/Strings.sol\":759:776  Math.log10(value) */\n      jump\t// in\n    tag_189:\n        /* \"@openzeppelin/contracts/utils/Strings.sol\":759:780  Math.log10(value) + 1 */\n      add\n        /* \"@openzeppelin/contracts/utils/Strings.sol\":742:780  uint256 length = Math.log10(value) + 1 */\n      swap1\n      pop\n        /* \"@openzeppelin/contracts/utils/Strings.sol\":794:814  string memory buffer */\n      0x00\n        /* \"@openzeppelin/contracts/utils/Strings.sol\":828:834  length */\n      dup2\n        /* \"@openzeppelin/contracts/utils/Strings.sol\":817:835  new string(length) */\n      0xffffffffffffffff\n      dup2\n      gt\n      iszero\n      tag_191\n      jumpi\n      tag_192\n      tag_193\n      jump\t// in\n    tag_192:\n    tag_191:\n      mload(0x40)\n      swap1\n      dup1\n      dup3\n      mstore\n      dup1\n      0x1f\n      add\n      not(0x1f)\n      and\n      0x20\n      add\n      dup3\n      add\n      0x40\n      mstore\n      dup1\n      iszero\n      tag_194\n      jumpi\n      dup2\n      0x20\n      add\n      0x01\n      dup3\n      mul\n      dup1\n      calldatasize\n      dup4\n      calldatacopy\n      dup1\n      dup3\n      add\n      swap2\n      pop\n      pop\n      swap1\n      pop\n    tag_194:\n      pop\n        /* \"@openzeppelin/contracts/utils/Strings.sol\":794:835  string memory buffer = new string(length) */\n      swap1\n      pop\n        /* \"@openzeppelin/contracts/utils/Strings.sol\":849:860  uint256 ptr */\n      0x00\n        /* \"@openzeppelin/contracts/utils/Strings.sol\":975:981  length */\n      dup3\n        /* \"@openzeppelin/contracts/utils/Strings.sol\":971:973  32 */\n      0x20\n        /* \"@openzeppelin/contracts/utils/Strings.sol\":967:982  add(32, length) */\n      add\n        /* \"@openzeppelin/contracts/utils/Strings.sol\":959:965  buffer */\n      dup3\n        /* \"@openzeppelin/contracts/utils/Strings.sol\":955:983  add(buffer, add(32, length)) */\n      add\n        /* \"@openzeppelin/contracts/utils/Strings.sol\":948:983  ptr := add(buffer, add(32, length)) */\n      swap1\n      pop\n        /* \"@openzeppelin/contracts/utils/Strings.sol\":1010:1292  while (true) {... */\n    tag_195:\n        /* \"@openzeppelin/contracts/utils/Strings.sol\":1017:1021  true */\n      0x01\n        /* \"@openzeppelin/contracts/utils/Strings.sol\":1010:1292  while (true) {... */\n      iszero\n      tag_196\n      jumpi\n        /* \"@openzeppelin/contracts/utils/Strings.sol\":1041:1046  ptr-- */\n      dup1\n      dup1\n      0x01\n      swap1\n      sub\n      swap2\n      pop\n      pop\n        /* \"@openzeppelin/contracts/utils/Strings.sol\":1180:1190  HEX_DIGITS */\n      0x3031323334353637383961626364656600000000000000000000000000000000\n        /* \"@openzeppelin/contracts/utils/Strings.sol\":1175:1177  10 */\n      0x0a\n        /* \"@openzeppelin/contracts/utils/Strings.sol\":1168:1173  value */\n      dup7\n        /* \"@openzeppelin/contracts/utils/Strings.sol\":1164:1178  mod(value, 10) */\n      mod\n        /* \"@openzeppelin/contracts/utils/Strings.sol\":1159:1191  byte(mod(value, 10), HEX_DIGITS) */\n      byte\n        /* \"@openzeppelin/contracts/utils/Strings.sol\":1154:1157  ptr */\n      dup2\n        /* \"@openzeppelin/contracts/utils/Strings.sol\":1146:1192  mstore8(ptr, byte(mod(value, 10), HEX_DIGITS)) */\n      mstore8\n        /* \"@openzeppelin/contracts/utils/Strings.sol\":1236:1238  10 */\n      0x0a\n        /* \"@openzeppelin/contracts/utils/Strings.sol\":1227:1238  value /= 10 */\n      dup6\n      dup2\n      tag_197\n      jumpi\n      tag_198\n      tag_199\n      jump\t// in\n    tag_198:\n    tag_197:\n      div\n      swap5\n      pop\n        /* \"@openzeppelin/contracts/utils/Strings.sol\":1269:1270  0 */\n      0x00\n        /* \"@openzeppelin/contracts/utils/Strings.sol\":1260:1265  value */\n      dup6\n        /* \"@openzeppelin/contracts/utils/Strings.sol\":1260:1270  value == 0 */\n      sub\n        /* \"@openzeppelin/contracts/utils/Strings.sol\":1010:1292  while (true) {... */\n      tag_195\n        /* \"@openzeppelin/contracts/utils/Strings.sol\":1256:1277  if (value == 0) break */\n      jumpi\n        /* \"@openzeppelin/contracts/utils/Strings.sol\":1010:1292  while (true) {... */\n    tag_196:\n        /* \"@openzeppelin/contracts/utils/Strings.sol\":1312:1318  buffer */\n      dup2\n        /* \"@openzeppelin/contracts/utils/Strings.sol\":1305:1318  return buffer */\n      swap4\n      pop\n      pop\n      pop\n      pop\n        /* \"@openzeppelin/contracts/utils/Strings.sol\":637:1335  function toString(uint256 value) internal pure returns (string memory) {... */\n      swap2\n      swap1\n      pop\n      jump\t// out\n        /* \"@openzeppelin/contracts/utils/math/Math.sol\":12214:13130  function log10(uint256 value) internal pure returns (uint256) {... */\n    tag_190:\n        /* \"@openzeppelin/contracts/utils/math/Math.sol\":12267:12274  uint256 */\n      0x00\n        /* \"@openzeppelin/contracts/utils/math/Math.sol\":12286:12300  uint256 result */\n      dup1\n        /* \"@openzeppelin/contracts/utils/math/Math.sol\":12303:12304  0 */\n      0x00\n        /* \"@openzeppelin/contracts/utils/math/Math.sol\":12286:12304  uint256 result = 0 */\n      swap1\n      pop\n        /* \"@openzeppelin/contracts/utils/math/Math.sol\":12351:12359  10 ** 64 */\n      0x184f03e93ff9f4daa797ed6e38ed64bf6a1f010000000000000000\n        /* \"@openzeppelin/contracts/utils/math/Math.sol\":12342:12347  value */\n      dup4\n        /* \"@openzeppelin/contracts/utils/math/Math.sol\":12342:12359  value >= 10 ** 64 */\n      lt\n        /* \"@openzeppelin/contracts/utils/math/Math.sol\":12338:12441  if (value >= 10 ** 64) {... */\n      tag_202\n      jumpi\n        /* \"@openzeppelin/contracts/utils/math/Math.sol\":12388:12396  10 ** 64 */\n      0x184f03e93ff9f4daa797ed6e38ed64bf6a1f010000000000000000\n        /* \"@openzeppelin/contracts/utils/math/Math.sol\":12379:12396  value /= 10 ** 64 */\n      dup4\n      dup2\n      tag_203\n      jumpi\n      tag_204\n      tag_199\n      jump\t// in\n    tag_204:\n    tag_203:\n      div\n      swap3\n      pop\n        /* \"@openzeppelin/contracts/utils/math/Math.sol\":12424:12426  64 */\n      0x40\n        /* \"@openzeppelin/contracts/utils/math/Math.sol\":12414:12426  result += 64 */\n      dup2\n      add\n      swap1\n      pop\n        /* \"@openzeppelin/contracts/utils/math/Math.sol\":12338:12441  if (value >= 10 ** 64) {... */\n    tag_202:\n        /* \"@openzeppelin/contracts/utils/math/Math.sol\":12467:12475  10 ** 32 */\n      0x04ee2d6d415b85acef8100000000\n        /* \"@openzeppelin/contracts/utils/math/Math.sol\":12458:12463  value */\n      dup4\n        /* \"@openzeppelin/contracts/utils/math/Math.sol\":12458:12475  value >= 10 ** 32 */\n      lt\n        /* \"@openzeppelin/contracts/utils/math/Math.sol\":12454:12557  if (value >= 10 ** 32) {... */\n      tag_205\n      jumpi\n        /* \"@openzeppelin/contracts/utils/math/Math.sol\":12504:12512  10 ** 32 */\n      0x04ee2d6d415b85acef8100000000\n        /* \"@openzeppelin/contracts/utils/math/Math.sol\":12495:12512  value /= 10 ** 32 */\n      dup4\n      dup2\n      tag_206\n      jumpi\n      tag_207\n      tag_199\n      jump\t// in\n    tag_207:\n    tag_206:\n      div\n      swap3\n      pop\n        /* \"@openzeppelin/contracts/utils/math/Math.sol\":12540:12542  32 */\n      0x20\n        /* \"@openzeppelin/contracts/utils/math/Math.sol\":12530:12542  result += 32 */\n      dup2\n      add\n      swap1\n      pop\n        /* \"@openzeppelin/contracts/utils/math/Math.sol\":12454:12557  if (value >= 10 ** 32) {... */\n    tag_205:\n        /* \"@openzeppelin/contracts/utils/math/Math.sol\":12583:12591  10 ** 16 */\n      0x2386f26fc10000\n        /* \"@openzeppelin/contracts/utils/math/Math.sol\":12574:12579  value */\n      dup4\n        /* \"@openzeppelin/contracts/utils/math/Math.sol\":12574:12591  value >= 10 ** 16 */\n      lt\n        /* \"@openzeppelin/contracts/utils/math/Math.sol\":12570:12673  if (value >= 10 ** 16) {... */\n      tag_208\n      jumpi\n        /* \"@openzeppelin/contracts/utils/math/Math.sol\":12620:12628  10 ** 16 */\n      0x2386f26fc10000\n        /* \"@openzeppelin/contracts/utils/math/Math.sol\":12611:12628  value /= 10 ** 16 */\n      dup4\n      dup2\n      tag_209\n      jumpi\n      tag_210\n      tag_199\n      jump\t// in\n    tag_210:\n    tag_209:\n      div\n      swap3\n      pop\n        /* \"@openzeppelin/contracts/utils/math/Math.sol\":12656:12658  16 */\n      0x10\n        /* \"@openzeppelin/contracts/utils/math/Math.sol\":12646:12658  result += 16 */\n      dup2\n      add\n      swap1\n      pop\n        /* \"@openzeppelin/contracts/utils/math/Math.sol\":12570:12673  if (value >= 10 ** 16) {... */\n    tag_208:\n        /* \"@openzeppelin/contracts/utils/math/Math.sol\":12699:12706  10 ** 8 */\n      0x05f5e100\n        /* \"@openzeppelin/contracts/utils/math/Math.sol\":12690:12695  value */\n      dup4\n        /* \"@openzeppelin/contracts/utils/math/Math.sol\":12690:12706  value >= 10 ** 8 */\n      lt\n        /* \"@openzeppelin/contracts/utils/math/Math.sol\":12686:12786  if (value >= 10 ** 8) {... */\n      tag_211\n      jumpi\n        /* \"@openzeppelin/contracts/utils/math/Math.sol\":12735:12742  10 ** 8 */\n      0x05f5e100\n        /* \"@openzeppelin/contracts/utils/math/Math.sol\":12726:12742  value /= 10 ** 8 */\n      dup4\n      dup2\n      tag_212\n      jumpi\n      tag_213\n      tag_199\n      jump\t// in\n    tag_213:\n    tag_212:\n      div\n      swap3\n      pop\n        /* \"@openzeppelin/contracts/utils/math/Math.sol\":12770:12771  8 */\n      0x08\n        /* \"@openzeppelin/contracts/utils/math/Math.sol\":12760:12771  result += 8 */\n      dup2\n      add\n      swap1\n      pop\n        /* \"@openzeppelin/contracts/utils/math/Math.sol\":12686:12786  if (value >= 10 ** 8) {... */\n    tag_211:\n        /* \"@openzeppelin/contracts/utils/math/Math.sol\":12812:12819  10 ** 4 */\n      0x2710\n        /* \"@openzeppelin/contracts/utils/math/Math.sol\":12803:12808  value */\n      dup4\n        /* \"@openzeppelin/contracts/utils/math/Math.sol\":12803:12819  value >= 10 ** 4 */\n      lt\n        /* \"@openzeppelin/contracts/utils/math/Math.sol\":12799:12899  if (value >= 10 ** 4) {... */\n      tag_214\n      jumpi\n        /* \"@openzeppelin/contracts/utils/math/Math.sol\":12848:12855  10 ** 4 */\n      0x2710\n        /* \"@openzeppelin/contracts/utils/math/Math.sol\":12839:12855  value /= 10 ** 4 */\n      dup4\n      dup2\n      tag_215\n      jumpi\n      tag_216\n      tag_199\n      jump\t// in\n    tag_216:\n    tag_215:\n      div\n      swap3\n      pop\n        /* \"@openzeppelin/contracts/utils/math/Math.sol\":12883:12884  4 */\n      0x04\n        /* \"@openzeppelin/contracts/utils/math/Math.sol\":12873:12884  result += 4 */\n      dup2\n      add\n      swap1\n      pop\n        /* \"@openzeppelin/contracts/utils/math/Math.sol\":12799:12899  if (value >= 10 ** 4) {... */\n    tag_214:\n        /* \"@openzeppelin/contracts/utils/math/Math.sol\":12925:12932  10 ** 2 */\n      0x64\n        /* \"@openzeppelin/contracts/utils/math/Math.sol\":12916:12921  value */\n      dup4\n        /* \"@openzeppelin/contracts/utils/math/Math.sol\":12916:12932  value >= 10 ** 2 */\n      lt\n        /* \"@openzeppelin/contracts/utils/math/Math.sol\":12912:13012  if (value >= 10 ** 2) {... */\n      tag_217\n      jumpi\n        /* \"@openzeppelin/contracts/utils/math/Math.sol\":12961:12968  10 ** 2 */\n      0x64\n        /* \"@openzeppelin/contracts/utils/math/Math.sol\":12952:12968  value /= 10 ** 2 */\n      dup4\n      dup2\n      tag_218\n      jumpi\n      tag_219\n      tag_199\n      jump\t// in\n    tag_219:\n    tag_218:\n      div\n      swap3\n      pop\n        /* \"@openzeppelin/contracts/utils/math/Math.sol\":12996:12997  2 */\n      0x02\n        /* \"@openzeppelin/contracts/utils/math/Math.sol\":12986:12997  result += 2 */\n      dup2\n      add\n      swap1\n      pop\n        /* \"@openzeppelin/contracts/utils/math/Math.sol\":12912:13012  if (value >= 10 ** 2) {... */\n    tag_217:\n        /* \"@openzeppelin/contracts/utils/math/Math.sol\":13038:13045  10 ** 1 */\n      0x0a\n        /* \"@openzeppelin/contracts/utils/math/Math.sol\":13029:13034  value */\n      dup4\n        /* \"@openzeppelin/contracts/utils/math/Math.sol\":13029:13045  value >= 10 ** 1 */\n      lt\n        /* \"@openzeppelin/contracts/utils/math/Math.sol\":13025:13091  if (value >= 10 ** 1) {... */\n      tag_220\n      jumpi\n        /* \"@openzeppelin/contracts/utils/math/Math.sol\":13075:13076  1 */\n      0x01\n        /* \"@openzeppelin/contracts/utils/math/Math.sol\":13065:13076  result += 1 */\n      dup2\n      add\n      swap1\n      pop\n        /* \"@openzeppelin/contracts/utils/math/Math.sol\":13025:13091  if (value >= 10 ** 1) {... */\n    tag_220:\n        /* \"@openzeppelin/contracts/utils/math/Math.sol\":13117:13123  result */\n      dup1\n        /* \"@openzeppelin/contracts/utils/math/Math.sol\":13110:13123  return result */\n      swap2\n      pop\n      pop\n        /* \"@openzeppelin/contracts/utils/math/Math.sol\":12214:13130  function log10(uint256 value) internal pure returns (uint256) {... */\n      swap2\n      swap1\n      pop\n      jump\t// out\n        /* \"#utility.yul\":7:84   */\n    tag_221:\n        /* \"#utility.yul\":44:51   */\n      0x00\n        /* \"#utility.yul\":73:78   */\n      dup2\n        /* \"#utility.yul\":62:78   */\n      swap1\n      pop\n        /* \"#utility.yul\":7:84   */\n      swap2\n      swap1\n      pop\n      jump\t// out\n        /* \"#utility.yul\":90:270   */\n    tag_222:\n        /* \"#utility.yul\":138:215   */\n      0x4e487b7100000000000000000000000000000000000000000000000000000000\n        /* \"#utility.yul\":135:136   */\n      0x00\n        /* \"#utility.yul\":128:216   */\n      mstore\n        /* \"#utility.yul\":235:239   */\n      0x11\n        /* \"#utility.yul\":232:233   */\n      0x04\n        /* \"#utility.yul\":225:240   */\n      mstore\n        /* \"#utility.yul\":259:263   */\n      0x24\n        /* \"#utility.yul\":256:257   */\n      0x00\n        /* \"#utility.yul\":249:264   */\n      revert\n        /* \"#utility.yul\":276:467   */\n    tag_17:\n        /* \"#utility.yul\":316:319   */\n      0x00\n        /* \"#utility.yul\":335:355   */\n      tag_311\n        /* \"#utility.yul\":353:354   */\n      dup3\n        /* \"#utility.yul\":335:355   */\n      tag_221\n      jump\t// in\n    tag_311:\n        /* \"#utility.yul\":330:355   */\n      swap2\n      pop\n        /* \"#utility.yul\":369:389   */\n      tag_312\n        /* \"#utility.yul\":387:388   */\n      dup4\n        /* \"#utility.yul\":369:389   */\n      tag_221\n      jump\t// in\n    tag_312:\n        /* \"#utility.yul\":364:389   */\n      swap3\n      pop\n        /* \"#utility.yul\":412:413   */\n      dup3\n        /* \"#utility.yul\":409:410   */\n      dup3\n        /* \"#utility.yul\":405:414   */\n      add\n        /* \"#utility.yul\":398:414   */\n      swap1\n      pop\n        /* \"#utility.yul\":433:436   */\n      dup1\n        /* \"#utility.yul\":430:431   */\n      dup3\n        /* \"#utility.yul\":427:437   */\n      gt\n        /* \"#utility.yul\":424:460   */\n      iszero\n      tag_313\n      jumpi\n        /* \"#utility.yul\":440:458   */\n      tag_314\n      tag_222\n      jump\t// in\n    tag_314:\n        /* \"#utility.yul\":424:460   */\n    tag_313:\n        /* \"#utility.yul\":276:467   */\n      swap3\n      swap2\n      pop\n      pop\n      jump\t// out\n        /* \"#utility.yul\":473:548   */\n    tag_223:\n        /* \"#utility.yul\":506:512   */\n      0x00\n        /* \"#utility.yul\":539:541   */\n      0x40\n        /* \"#utility.yul\":533:542   */\n      mload\n        /* \"#utility.yul\":523:542   */\n      swap1\n      pop\n        /* \"#utility.yul\":473:548   */\n      swap1\n      jump\t// out\n        /* \"#utility.yul\":554:671   */\n    tag_224:\n        /* \"#utility.yul\":663:664   */\n      0x00\n        /* \"#utility.yul\":660:661   */\n      dup1\n        /* \"#utility.yul\":653:665   */\n      revert\n        /* \"#utility.yul\":677:794   */\n    tag_225:\n        /* \"#utility.yul\":786:787   */\n      0x00\n        /* \"#utility.yul\":783:784   */\n      dup1\n        /* \"#utility.yul\":776:788   */\n      revert\n        /* \"#utility.yul\":800:922   */\n    tag_226:\n        /* \"#utility.yul\":873:897   */\n      tag_319\n        /* \"#utility.yul\":891:896   */\n      dup2\n        /* \"#utility.yul\":873:897   */\n      tag_221\n      jump\t// in\n    tag_319:\n        /* \"#utility.yul\":866:871   */\n      dup2\n        /* \"#utility.yul\":863:898   */\n      eq\n        /* \"#utility.yul\":853:916   */\n      tag_320\n      jumpi\n        /* \"#utility.yul\":912:913   */\n      0x00\n        /* \"#utility.yul\":909:910   */\n      dup1\n        /* \"#utility.yul\":902:914   */\n      revert\n        /* \"#utility.yul\":853:916   */\n    tag_320:\n        /* \"#utility.yul\":800:922   */\n      pop\n      jump\t// out\n        /* \"#utility.yul\":928:1067   */\n    tag_227:\n        /* \"#utility.yul\":974:979   */\n      0x00\n        /* \"#utility.yul\":1012:1018   */\n      dup2\n        /* \"#utility.yul\":999:1019   */\n      calldataload\n        /* \"#utility.yul\":990:1019   */\n      swap1\n      pop\n        /* \"#utility.yul\":1028:1061   */\n      tag_322\n        /* \"#utility.yul\":1055:1060   */\n      dup2\n        /* \"#utility.yul\":1028:1061   */\n      tag_226\n      jump\t// in\n    tag_322:\n        /* \"#utility.yul\":928:1067   */\n      swap3\n      swap2\n      pop\n      pop\n      jump\t// out\n        /* \"#utility.yul\":1073:1692   */\n    tag_21:\n        /* \"#utility.yul\":1150:1156   */\n      0x00\n        /* \"#utility.yul\":1158:1164   */\n      dup1\n        /* \"#utility.yul\":1166:1172   */\n      0x00\n        /* \"#utility.yul\":1215:1217   */\n      0x60\n        /* \"#utility.yul\":1203:1212   */\n      dup5\n        /* \"#utility.yul\":1194:1201   */\n      dup7\n        /* \"#utility.yul\":1190:1213   */\n      sub\n        /* \"#utility.yul\":1186:1218   */\n      slt\n        /* \"#utility.yul\":1183:1302   */\n      iszero\n      tag_324\n      jumpi\n        /* \"#utility.yul\":1221:1300   */\n      tag_325\n      tag_224\n      jump\t// in\n    tag_325:\n        /* \"#utility.yul\":1183:1302   */\n    tag_324:\n        /* \"#utility.yul\":1341:1342   */\n      0x00\n        /* \"#utility.yul\":1366:1419   */\n      tag_326\n        /* \"#utility.yul\":1411:1418   */\n      dup7\n        /* \"#utility.yul\":1402:1408   */\n      dup3\n        /* \"#utility.yul\":1391:1400   */\n      dup8\n        /* \"#utility.yul\":1387:1409   */\n      add\n        /* \"#utility.yul\":1366:1419   */\n      tag_227\n      jump\t// in\n    tag_326:\n        /* \"#utility.yul\":1356:1419   */\n      swap4\n      pop\n        /* \"#utility.yul\":1312:1429   */\n      pop\n        /* \"#utility.yul\":1468:1470   */\n      0x20\n        /* \"#utility.yul\":1494:1547   */\n      tag_327\n        /* \"#utility.yul\":1539:1546   */\n      dup7\n        /* \"#utility.yul\":1530:1536   */\n      dup3\n        /* \"#utility.yul\":1519:1528   */\n      dup8\n        /* \"#utility.yul\":1515:1537   */\n      add\n        /* \"#utility.yul\":1494:1547   */\n      tag_227\n      jump\t// in\n    tag_327:\n        /* \"#utility.yul\":1484:1547   */\n      swap3\n      pop\n        /* \"#utility.yul\":1439:1557   */\n      pop\n        /* \"#utility.yul\":1596:1598   */\n      0x40\n        /* \"#utility.yul\":1622:1675   */\n      tag_328\n        /* \"#utility.yul\":1667:1674   */\n      dup7\n        /* \"#utility.yul\":1658:1664   */\n      dup3\n        /* \"#utility.yul\":1647:1656   */\n      dup8\n        /* \"#utility.yul\":1643:1665   */\n      add\n        /* \"#utility.yul\":1622:1675   */\n      tag_227\n      jump\t// in\n    tag_328:\n        /* \"#utility.yul\":1612:1675   */\n      swap2\n      pop\n        /* \"#utility.yul\":1567:1685   */\n      pop\n        /* \"#utility.yul\":1073:1692   */\n      swap3\n      pop\n      swap3\n      pop\n      swap3\n      jump\t// out\n        /* \"#utility.yul\":1698:2027   */\n    tag_26:\n        /* \"#utility.yul\":1757:1763   */\n      0x00\n        /* \"#utility.yul\":1806:1808   */\n      0x20\n        /* \"#utility.yul\":1794:1803   */\n      dup3\n        /* \"#utility.yul\":1785:1792   */\n      dup5\n        /* \"#utility.yul\":1781:1804   */\n      sub\n        /* \"#utility.yul\":1777:1809   */\n      slt\n        /* \"#utility.yul\":1774:1893   */\n      iszero\n      tag_330\n      jumpi\n        /* \"#utility.yul\":1812:1891   */\n      tag_331\n      tag_224\n      jump\t// in\n    tag_331:\n        /* \"#utility.yul\":1774:1893   */\n    tag_330:\n        /* \"#utility.yul\":1932:1933   */\n      0x00\n        /* \"#utility.yul\":1957:2010   */\n      tag_332\n        /* \"#utility.yul\":2002:2009   */\n      dup5\n        /* \"#utility.yul\":1993:1999   */\n      dup3\n        /* \"#utility.yul\":1982:1991   */\n      dup6\n        /* \"#utility.yul\":1978:2000   */\n      add\n        /* \"#utility.yul\":1957:2010   */\n      tag_227\n      jump\t// in\n    tag_332:\n        /* \"#utility.yul\":1947:2010   */\n      swap2\n      pop\n        /* \"#utility.yul\":1903:2020   */\n      pop\n        /* \"#utility.yul\":1698:2027   */\n      swap3\n      swap2\n      pop\n      pop\n      jump\t// out\n        /* \"#utility.yul\":2033:2151   */\n    tag_228:\n        /* \"#utility.yul\":2120:2144   */\n      tag_334\n        /* \"#utility.yul\":2138:2143   */\n      dup2\n        /* \"#utility.yul\":2120:2144   */\n      tag_221\n      jump\t// in\n    tag_334:\n        /* \"#utility.yul\":2115:2118   */\n      dup3\n        /* \"#utility.yul\":2108:2145   */\n      mstore\n        /* \"#utility.yul\":2033:2151   */\n      pop\n      pop\n      jump\t// out\n        /* \"#utility.yul\":2157:2283   */\n    tag_229:\n        /* \"#utility.yul\":2194:2201   */\n      0x00\n        /* \"#utility.yul\":2234:2276   */\n      0xffffffffffffffffffffffffffffffffffffffff\n        /* \"#utility.yul\":2227:2232   */\n      dup3\n        /* \"#utility.yul\":2223:2277   */\n      and\n        /* \"#utility.yul\":2212:2277   */\n      swap1\n      pop\n        /* \"#utility.yul\":2157:2283   */\n      swap2\n      swap1\n      pop\n      jump\t// out\n        /* \"#utility.yul\":2289:2385   */\n    tag_230:\n        /* \"#utility.yul\":2326:2333   */\n      0x00\n        /* \"#utility.yul\":2355:2379   */\n      tag_337\n        /* \"#utility.yul\":2373:2378   */\n      dup3\n        /* \"#utility.yul\":2355:2379   */\n      tag_229\n      jump\t// in\n    tag_337:\n        /* \"#utility.yul\":2344:2379   */\n      swap1\n      pop\n        /* \"#utility.yul\":2289:2385   */\n      swap2\n      swap1\n      pop\n      jump\t// out\n        /* \"#utility.yul\":2391:2509   */\n    tag_231:\n        /* \"#utility.yul\":2478:2502   */\n      tag_339\n        /* \"#utility.yul\":2496:2501   */\n      dup2\n        /* \"#utility.yul\":2478:2502   */\n      tag_230\n      jump\t// in\n    tag_339:\n        /* \"#utility.yul\":2473:2476   */\n      dup3\n        /* \"#utility.yul\":2466:2503   */\n      mstore\n        /* \"#utility.yul\":2391:2509   */\n      pop\n      pop\n      jump\t// out\n        /* \"#utility.yul\":2515:2695   */\n    tag_97:\n        /* \"#utility.yul\":2563:2640   */\n      0x4e487b7100000000000000000000000000000000000000000000000000000000\n        /* \"#utility.yul\":2560:2561   */\n      0x00\n        /* \"#utility.yul\":2553:2641   */\n      mstore\n        /* \"#utility.yul\":2660:2664   */\n      0x21\n        /* \"#utility.yul\":2657:2658   */\n      0x04\n        /* \"#utility.yul\":2650:2665   */\n      mstore\n        /* \"#utility.yul\":2684:2688   */\n      0x24\n        /* \"#utility.yul\":2681:2682   */\n      0x00\n        /* \"#utility.yul\":2674:2689   */\n      revert\n        /* \"#utility.yul\":2701:2817   */\n    tag_232:\n        /* \"#utility.yul\":2785:2786   */\n      0x02\n        /* \"#utility.yul\":2778:2783   */\n      dup2\n        /* \"#utility.yul\":2775:2787   */\n      lt\n        /* \"#utility.yul\":2765:2811   */\n      tag_342\n      jumpi\n        /* \"#utility.yul\":2791:2809   */\n      tag_343\n      tag_97\n      jump\t// in\n    tag_343:\n        /* \"#utility.yul\":2765:2811   */\n    tag_342:\n        /* \"#utility.yul\":2701:2817   */\n      pop\n      jump\t// out\n        /* \"#utility.yul\":2823:2956   */\n    tag_233:\n        /* \"#utility.yul\":2871:2878   */\n      0x00\n        /* \"#utility.yul\":2900:2905   */\n      dup2\n        /* \"#utility.yul\":2889:2905   */\n      swap1\n      pop\n        /* \"#utility.yul\":2906:2950   */\n      tag_345\n        /* \"#utility.yul\":2944:2949   */\n      dup3\n        /* \"#utility.yul\":2906:2950   */\n      tag_232\n      jump\t// in\n    tag_345:\n        /* \"#utility.yul\":2823:2956   */\n      swap2\n      swap1\n      pop\n      jump\t// out\n        /* \"#utility.yul\":2962:3095   */\n    tag_234:\n        /* \"#utility.yul\":3021:3030   */\n      0x00\n        /* \"#utility.yul\":3054:3089   */\n      tag_347\n        /* \"#utility.yul\":3083:3088   */\n      dup3\n        /* \"#utility.yul\":3054:3089   */\n      tag_233\n      jump\t// in\n    tag_347:\n        /* \"#utility.yul\":3041:3089   */\n      swap1\n      pop\n        /* \"#utility.yul\":2962:3095   */\n      swap2\n      swap1\n      pop\n      jump\t// out\n        /* \"#utility.yul\":3101:3250   */\n    tag_235:\n        /* \"#utility.yul\":3197:3243   */\n      tag_349\n        /* \"#utility.yul\":3237:3242   */\n      dup2\n        /* \"#utility.yul\":3197:3243   */\n      tag_234\n      jump\t// in\n    tag_349:\n        /* \"#utility.yul\":3192:3195   */\n      dup3\n        /* \"#utility.yul\":3185:3244   */\n      mstore\n        /* \"#utility.yul\":3101:3250   */\n      pop\n      pop\n      jump\t// out\n        /* \"#utility.yul\":3256:3372   */\n    tag_236:\n        /* \"#utility.yul\":3340:3341   */\n      0x02\n        /* \"#utility.yul\":3333:3338   */\n      dup2\n        /* \"#utility.yul\":3330:3342   */\n      lt\n        /* \"#utility.yul\":3320:3366   */\n      tag_351\n      jumpi\n        /* \"#utility.yul\":3346:3364   */\n      tag_352\n      tag_97\n      jump\t// in\n    tag_352:\n        /* \"#utility.yul\":3320:3366   */\n    tag_351:\n        /* \"#utility.yul\":3256:3372   */\n      pop\n      jump\t// out\n        /* \"#utility.yul\":3378:3511   */\n    tag_237:\n        /* \"#utility.yul\":3426:3433   */\n      0x00\n        /* \"#utility.yul\":3455:3460   */\n      dup2\n        /* \"#utility.yul\":3444:3460   */\n      swap1\n      pop\n        /* \"#utility.yul\":3461:3505   */\n      tag_354\n        /* \"#utility.yul\":3499:3504   */\n      dup3\n        /* \"#utility.yul\":3461:3505   */\n      tag_236\n      jump\t// in\n    tag_354:\n        /* \"#utility.yul\":3378:3511   */\n      swap2\n      swap1\n      pop\n      jump\t// out\n        /* \"#utility.yul\":3517:3650   */\n    tag_238:\n        /* \"#utility.yul\":3576:3585   */\n      0x00\n        /* \"#utility.yul\":3609:3644   */\n      tag_356\n        /* \"#utility.yul\":3638:3643   */\n      dup3\n        /* \"#utility.yul\":3609:3644   */\n      tag_237\n      jump\t// in\n    tag_356:\n        /* \"#utility.yul\":3596:3644   */\n      swap1\n      pop\n        /* \"#utility.yul\":3517:3650   */\n      swap2\n      swap1\n      pop\n      jump\t// out\n        /* \"#utility.yul\":3656:3805   */\n    tag_239:\n        /* \"#utility.yul\":3752:3798   */\n      tag_358\n        /* \"#utility.yul\":3792:3797   */\n      dup2\n        /* \"#utility.yul\":3752:3798   */\n      tag_238\n      jump\t// in\n    tag_358:\n        /* \"#utility.yul\":3747:3750   */\n      dup3\n        /* \"#utility.yul\":3740:3799   */\n      mstore\n        /* \"#utility.yul\":3656:3805   */\n      pop\n      pop\n      jump\t// out\n        /* \"#utility.yul\":3811:4844   */\n    tag_29:\n        /* \"#utility.yul\":4118:4122   */\n      0x00\n        /* \"#utility.yul\":4156:4159   */\n      0x0100\n        /* \"#utility.yul\":4145:4154   */\n      dup3\n        /* \"#utility.yul\":4141:4160   */\n      add\n        /* \"#utility.yul\":4133:4160   */\n      swap1\n      pop\n        /* \"#utility.yul\":4170:4241   */\n      tag_360\n        /* \"#utility.yul\":4238:4239   */\n      0x00\n        /* \"#utility.yul\":4227:4236   */\n      dup4\n        /* \"#utility.yul\":4223:4240   */\n      add\n        /* \"#utility.yul\":4214:4220   */\n      dup12\n        /* \"#utility.yul\":4170:4241   */\n      tag_228\n      jump\t// in\n    tag_360:\n        /* \"#utility.yul\":4251:4323   */\n      tag_361\n        /* \"#utility.yul\":4319:4321   */\n      0x20\n        /* \"#utility.yul\":4308:4317   */\n      dup4\n        /* \"#utility.yul\":4304:4322   */\n      add\n        /* \"#utility.yul\":4295:4301   */\n      dup11\n        /* \"#utility.yul\":4251:4323   */\n      tag_231\n      jump\t// in\n    tag_361:\n        /* \"#utility.yul\":4333:4405   */\n      tag_362\n        /* \"#utility.yul\":4401:4403   */\n      0x40\n        /* \"#utility.yul\":4390:4399   */\n      dup4\n        /* \"#utility.yul\":4386:4404   */\n      add\n        /* \"#utility.yul\":4377:4383   */\n      dup10\n        /* \"#utility.yul\":4333:4405   */\n      tag_231\n      jump\t// in\n    tag_362:\n        /* \"#utility.yul\":4415:4487   */\n      tag_363\n        /* \"#utility.yul\":4483:4485   */\n      0x60\n        /* \"#utility.yul\":4472:4481   */\n      dup4\n        /* \"#utility.yul\":4468:4486   */\n      add\n        /* \"#utility.yul\":4459:4465   */\n      dup9\n        /* \"#utility.yul\":4415:4487   */\n      tag_228\n      jump\t// in\n    tag_363:\n        /* \"#utility.yul\":4497:4570   */\n      tag_364\n        /* \"#utility.yul\":4565:4568   */\n      0x80\n        /* \"#utility.yul\":4554:4563   */\n      dup4\n        /* \"#utility.yul\":4550:4569   */\n      add\n        /* \"#utility.yul\":4541:4547   */\n      dup8\n        /* \"#utility.yul\":4497:4570   */\n      tag_228\n      jump\t// in\n    tag_364:\n        /* \"#utility.yul\":4580:4653   */\n      tag_365\n        /* \"#utility.yul\":4648:4651   */\n      0xa0\n        /* \"#utility.yul\":4637:4646   */\n      dup4\n        /* \"#utility.yul\":4633:4652   */\n      add\n        /* \"#utility.yul\":4624:4630   */\n      dup7\n        /* \"#utility.yul\":4580:4653   */\n      tag_228\n      jump\t// in\n    tag_365:\n        /* \"#utility.yul\":4663:4745   */\n      tag_366\n        /* \"#utility.yul\":4740:4743   */\n      0xc0\n        /* \"#utility.yul\":4729:4738   */\n      dup4\n        /* \"#utility.yul\":4725:4744   */\n      add\n        /* \"#utility.yul\":4716:4722   */\n      dup6\n        /* \"#utility.yul\":4663:4745   */\n      tag_235\n      jump\t// in\n    tag_366:\n        /* \"#utility.yul\":4755:4837   */\n      tag_367\n        /* \"#utility.yul\":4832:4835   */\n      0xe0\n        /* \"#utility.yul\":4821:4830   */\n      dup4\n        /* \"#utility.yul\":4817:4836   */\n      add\n        /* \"#utility.yul\":4808:4814   */\n      dup5\n        /* \"#utility.yul\":4755:4837   */\n      tag_239\n      jump\t// in\n    tag_367:\n        /* \"#utility.yul\":3811:4844   */\n      swap10\n      swap9\n      pop\n      pop\n      pop\n      pop\n      pop\n      pop\n      pop\n      pop\n      pop\n      jump\t// out\n        /* \"#utility.yul\":4850:5324   */\n    tag_36:\n        /* \"#utility.yul\":4918:4924   */\n      0x00\n        /* \"#utility.yul\":4926:4932   */\n      dup1\n        /* \"#utility.yul\":4975:4977   */\n      0x40\n        /* \"#utility.yul\":4963:4972   */\n      dup4\n        /* \"#utility.yul\":4954:4961   */\n      dup6\n        /* \"#utility.yul\":4950:4973   */\n      sub\n        /* \"#utility.yul\":4946:4978   */\n      slt\n        /* \"#utility.yul\":4943:5062   */\n      iszero\n      tag_369\n      jumpi\n        /* \"#utility.yul\":4981:5060   */\n      tag_370\n      tag_224\n      jump\t// in\n    tag_370:\n        /* \"#utility.yul\":4943:5062   */\n    tag_369:\n        /* \"#utility.yul\":5101:5102   */\n      0x00\n        /* \"#utility.yul\":5126:5179   */\n      tag_371\n        /* \"#utility.yul\":5171:5178   */\n      dup6\n        /* \"#utility.yul\":5162:5168   */\n      dup3\n        /* \"#utility.yul\":5151:5160   */\n      dup7\n        /* \"#utility.yul\":5147:5169   */\n      add\n        /* \"#utility.yul\":5126:5179   */\n      tag_227\n      jump\t// in\n    tag_371:\n        /* \"#utility.yul\":5116:5179   */\n      swap3\n      pop\n        /* \"#utility.yul\":5072:5189   */\n      pop\n        /* \"#utility.yul\":5228:5230   */\n      0x20\n        /* \"#utility.yul\":5254:5307   */\n      tag_372\n        /* \"#utility.yul\":5299:5306   */\n      dup6\n        /* \"#utility.yul\":5290:5296   */\n      dup3\n        /* \"#utility.yul\":5279:5288   */\n      dup7\n        /* \"#utility.yul\":5275:5297   */\n      add\n        /* \"#utility.yul\":5254:5307   */\n      tag_227\n      jump\t// in\n    tag_372:\n        /* \"#utility.yul\":5244:5307   */\n      swap2\n      pop\n        /* \"#utility.yul\":5199:5317   */\n      pop\n        /* \"#utility.yul\":4850:5324   */\n      swap3\n      pop\n      swap3\n      swap1\n      pop\n      jump\t// out\n        /* \"#utility.yul\":5330:5429   */\n    tag_240:\n        /* \"#utility.yul\":5382:5388   */\n      0x00\n        /* \"#utility.yul\":5416:5421   */\n      dup2\n        /* \"#utility.yul\":5410:5422   */\n      mload\n        /* \"#utility.yul\":5400:5422   */\n      swap1\n      pop\n        /* \"#utility.yul\":5330:5429   */\n      swap2\n      swap1\n      pop\n      jump\t// out\n        /* \"#utility.yul\":5435:5604   */\n    tag_241:\n        /* \"#utility.yul\":5519:5530   */\n      0x00\n        /* \"#utility.yul\":5553:5559   */\n      dup3\n        /* \"#utility.yul\":5548:5551   */\n      dup3\n        /* \"#utility.yul\":5541:5560   */\n      mstore\n        /* \"#utility.yul\":5593:5597   */\n      0x20\n        /* \"#utility.yul\":5588:5591   */\n      dup3\n        /* \"#utility.yul\":5584:5598   */\n      add\n        /* \"#utility.yul\":5569:5598   */\n      swap1\n      pop\n        /* \"#utility.yul\":5435:5604   */\n      swap3\n      swap2\n      pop\n      pop\n      jump\t// out\n        /* \"#utility.yul\":5610:5749   */\n    tag_242:\n        /* \"#utility.yul\":5699:5705   */\n      dup3\n        /* \"#utility.yul\":5694:5697   */\n      dup2\n        /* \"#utility.yul\":5689:5692   */\n      dup4\n        /* \"#utility.yul\":5683:5706   */\n      mcopy\n        /* \"#utility.yul\":5740:5741   */\n      0x00\n        /* \"#utility.yul\":5731:5737   */\n      dup4\n        /* \"#utility.yul\":5726:5729   */\n      dup4\n        /* \"#utility.yul\":5722:5738   */\n      add\n        /* \"#utility.yul\":5715:5742   */\n      mstore\n        /* \"#utility.yul\":5610:5749   */\n      pop\n      pop\n      pop\n      jump\t// out\n        /* \"#utility.yul\":5755:5857   */\n    tag_243:\n        /* \"#utility.yul\":5796:5802   */\n      0x00\n        /* \"#utility.yul\":5847:5849   */\n      0x1f\n        /* \"#utility.yul\":5843:5850   */\n      not\n        /* \"#utility.yul\":5838:5840   */\n      0x1f\n        /* \"#utility.yul\":5831:5836   */\n      dup4\n        /* \"#utility.yul\":5827:5841   */\n      add\n        /* \"#utility.yul\":5823:5851   */\n      and\n        /* \"#utility.yul\":5813:5851   */\n      swap1\n      pop\n        /* \"#utility.yul\":5755:5857   */\n      swap2\n      swap1\n      pop\n      jump\t// out\n        /* \"#utility.yul\":5863:6240   */\n    tag_244:\n        /* \"#utility.yul\":5951:5954   */\n      0x00\n        /* \"#utility.yul\":5979:6018   */\n      tag_378\n        /* \"#utility.yul\":6012:6017   */\n      dup3\n        /* \"#utility.yul\":5979:6018   */\n      tag_240\n      jump\t// in\n    tag_378:\n        /* \"#utility.yul\":6034:6105   */\n      tag_379\n        /* \"#utility.yul\":6098:6104   */\n      dup2\n        /* \"#utility.yul\":6093:6096   */\n      dup6\n        /* \"#utility.yul\":6034:6105   */\n      tag_241\n      jump\t// in\n    tag_379:\n        /* \"#utility.yul\":6027:6105   */\n      swap4\n      pop\n        /* \"#utility.yul\":6114:6179   */\n      tag_380\n        /* \"#utility.yul\":6172:6178   */\n      dup2\n        /* \"#utility.yul\":6167:6170   */\n      dup6\n        /* \"#utility.yul\":6160:6164   */\n      0x20\n        /* \"#utility.yul\":6153:6158   */\n      dup7\n        /* \"#utility.yul\":6149:6165   */\n      add\n        /* \"#utility.yul\":6114:6179   */\n      tag_242\n      jump\t// in\n    tag_380:\n        /* \"#utility.yul\":6204:6233   */\n      tag_381\n        /* \"#utility.yul\":6226:6232   */\n      dup2\n        /* \"#utility.yul\":6204:6233   */\n      tag_243\n      jump\t// in\n    tag_381:\n        /* \"#utility.yul\":6199:6202   */\n      dup5\n        /* \"#utility.yul\":6195:6234   */\n      add\n        /* \"#utility.yul\":6188:6234   */\n      swap2\n      pop\n        /* \"#utility.yul\":5955:6240   */\n      pop\n        /* \"#utility.yul\":5863:6240   */\n      swap3\n      swap2\n      pop\n      pop\n      jump\t// out\n        /* \"#utility.yul\":6246:6559   */\n    tag_39:\n        /* \"#utility.yul\":6359:6363   */\n      0x00\n        /* \"#utility.yul\":6397:6399   */\n      0x20\n        /* \"#utility.yul\":6386:6395   */\n      dup3\n        /* \"#utility.yul\":6382:6400   */\n      add\n        /* \"#utility.yul\":6374:6400   */\n      swap1\n      pop\n        /* \"#utility.yul\":6446:6455   */\n      dup2\n        /* \"#utility.yul\":6440:6444   */\n      dup2\n        /* \"#utility.yul\":6436:6456   */\n      sub\n        /* \"#utility.yul\":6432:6433   */\n      0x00\n        /* \"#utility.yul\":6421:6430   */\n      dup4\n        /* \"#utility.yul\":6417:6434   */\n      add\n        /* \"#utility.yul\":6410:6457   */\n      mstore\n        /* \"#utility.yul\":6474:6552   */\n      tag_383\n        /* \"#utility.yul\":6547:6551   */\n      dup2\n        /* \"#utility.yul\":6538:6544   */\n      dup5\n        /* \"#utility.yul\":6474:6552   */\n      tag_244\n      jump\t// in\n    tag_383:\n        /* \"#utility.yul\":6466:6552   */\n      swap1\n      pop\n        /* \"#utility.yul\":6246:6559   */\n      swap3\n      swap2\n      pop\n      pop\n      jump\t// out\n        /* \"#utility.yul\":6565:6787   */\n    tag_44:\n        /* \"#utility.yul\":6658:6662   */\n      0x00\n        /* \"#utility.yul\":6696:6698   */\n      0x20\n        /* \"#utility.yul\":6685:6694   */\n      dup3\n        /* \"#utility.yul\":6681:6699   */\n      add\n        /* \"#utility.yul\":6673:6699   */\n      swap1\n      pop\n        /* \"#utility.yul\":6709:6780   */\n      tag_385\n        /* \"#utility.yul\":6777:6778   */\n      0x00\n        /* \"#utility.yul\":6766:6775   */\n      dup4\n        /* \"#utility.yul\":6762:6779   */\n      add\n        /* \"#utility.yul\":6753:6759   */\n      dup5\n        /* \"#utility.yul\":6709:6780   */\n      tag_228\n      jump\t// in\n    tag_385:\n        /* \"#utility.yul\":6565:6787   */\n      swap3\n      swap2\n      pop\n      pop\n      jump\t// out\n        /* \"#utility.yul\":6793:6915   */\n    tag_245:\n        /* \"#utility.yul\":6866:6890   */\n      tag_387\n        /* \"#utility.yul\":6884:6889   */\n      dup2\n        /* \"#utility.yul\":6866:6890   */\n      tag_230\n      jump\t// in\n    tag_387:\n        /* \"#utility.yul\":6859:6864   */\n      dup2\n        /* \"#utility.yul\":6856:6891   */\n      eq\n        /* \"#utility.yul\":6846:6909   */\n      tag_388\n      jumpi\n        /* \"#utility.yul\":6905:6906   */\n      0x00\n        /* \"#utility.yul\":6902:6903   */\n      dup1\n        /* \"#utility.yul\":6895:6907   */\n      revert\n        /* \"#utility.yul\":6846:6909   */\n    tag_388:\n        /* \"#utility.yul\":6793:6915   */\n      pop\n      jump\t// out\n        /* \"#utility.yul\":6921:7060   */\n    tag_246:\n        /* \"#utility.yul\":6967:6972   */\n      0x00\n        /* \"#utility.yul\":7005:7011   */\n      dup2\n        /* \"#utility.yul\":6992:7012   */\n      calldataload\n        /* \"#utility.yul\":6983:7012   */\n      swap1\n      pop\n        /* \"#utility.yul\":7021:7054   */\n      tag_390\n        /* \"#utility.yul\":7048:7053   */\n      dup2\n        /* \"#utility.yul\":7021:7054   */\n      tag_245\n      jump\t// in\n    tag_390:\n        /* \"#utility.yul\":6921:7060   */\n      swap3\n      swap2\n      pop\n      pop\n      jump\t// out\n        /* \"#utility.yul\":7066:7831   */\n    tag_48:\n        /* \"#utility.yul\":7152:7158   */\n      0x00\n        /* \"#utility.yul\":7160:7166   */\n      dup1\n        /* \"#utility.yul\":7168:7174   */\n      0x00\n        /* \"#utility.yul\":7176:7182   */\n      dup1\n        /* \"#utility.yul\":7225:7228   */\n      0x80\n        /* \"#utility.yul\":7213:7222   */\n      dup6\n        /* \"#utility.yul\":7204:7211   */\n      dup8\n        /* \"#utility.yul\":7200:7223   */\n      sub\n        /* \"#utility.yul\":7196:7229   */\n      slt\n        /* \"#utility.yul\":7193:7313   */\n      iszero\n      tag_392\n      jumpi\n        /* \"#utility.yul\":7232:7311   */\n      tag_393\n      tag_224\n      jump\t// in\n    tag_393:\n        /* \"#utility.yul\":7193:7313   */\n    tag_392:\n        /* \"#utility.yul\":7352:7353   */\n      0x00\n        /* \"#utility.yul\":7377:7430   */\n      tag_394\n        /* \"#utility.yul\":7422:7429   */\n      dup8\n        /* \"#utility.yul\":7413:7419   */\n      dup3\n        /* \"#utility.yul\":7402:7411   */\n      dup9\n        /* \"#utility.yul\":7398:7420   */\n      add\n        /* \"#utility.yul\":7377:7430   */\n      tag_246\n      jump\t// in\n    tag_394:\n        /* \"#utility.yul\":7367:7430   */\n      swap5\n      pop\n        /* \"#utility.yul\":7323:7440   */\n      pop\n        /* \"#utility.yul\":7479:7481   */\n      0x20\n        /* \"#utility.yul\":7505:7558   */\n      tag_395\n        /* \"#utility.yul\":7550:7557   */\n      dup8\n        /* \"#utility.yul\":7541:7547   */\n      dup3\n        /* \"#utility.yul\":7530:7539   */\n      dup9\n        /* \"#utility.yul\":7526:7548   */\n      add\n        /* \"#utility.yul\":7505:7558   */\n      tag_227\n      jump\t// in\n    tag_395:\n        /* \"#utility.yul\":7495:7558   */\n      swap4\n      pop\n        /* \"#utility.yul\":7450:7568   */\n      pop\n        /* \"#utility.yul\":7607:7609   */\n      0x40\n        /* \"#utility.yul\":7633:7686   */\n      tag_396\n        /* \"#utility.yul\":7678:7685   */\n      dup8\n        /* \"#utility.yul\":7669:7675   */\n      dup3\n        /* \"#utility.yul\":7658:7667   */\n      dup9\n        /* \"#utility.yul\":7654:7676   */\n      add\n        /* \"#utility.yul\":7633:7686   */\n      tag_227\n      jump\t// in\n    tag_396:\n        /* \"#utility.yul\":7623:7686   */\n      swap3\n      pop\n        /* \"#utility.yul\":7578:7696   */\n      pop\n        /* \"#utility.yul\":7735:7737   */\n      0x60\n        /* \"#utility.yul\":7761:7814   */\n      tag_397\n        /* \"#utility.yul\":7806:7813   */\n      dup8\n        /* \"#utility.yul\":7797:7803   */\n      dup3\n        /* \"#utility.yul\":7786:7795   */\n      dup9\n        /* \"#utility.yul\":7782:7804   */\n      add\n        /* \"#utility.yul\":7761:7814   */\n      tag_227\n      jump\t// in\n    tag_397:\n        /* \"#utility.yul\":7751:7814   */\n      swap2\n      pop\n        /* \"#utility.yul\":7706:7824   */\n      pop\n        /* \"#utility.yul\":7066:7831   */\n      swap3\n      swap6\n      swap2\n      swap5\n      pop\n      swap3\n      pop\n      jump\t// out\n        /* \"#utility.yul\":7837:7954   */\n    tag_247:\n        /* \"#utility.yul\":7946:7947   */\n      0x00\n        /* \"#utility.yul\":7943:7944   */\n      dup1\n        /* \"#utility.yul\":7936:7948   */\n      revert\n        /* \"#utility.yul\":7960:8077   */\n    tag_248:\n        /* \"#utility.yul\":8069:8070   */\n      0x00\n        /* \"#utility.yul\":8066:8067   */\n      dup1\n        /* \"#utility.yul\":8059:8071   */\n      revert\n        /* \"#utility.yul\":8083:8263   */\n    tag_193:\n        /* \"#utility.yul\":8131:8208   */\n      0x4e487b7100000000000000000000000000000000000000000000000000000000\n        /* \"#utility.yul\":8128:8129   */\n      0x00\n        /* \"#utility.yul\":8121:8209   */\n      mstore\n        /* \"#utility.yul\":8228:8232   */\n      0x41\n        /* \"#utility.yul\":8225:8226   */\n      0x04\n        /* \"#utility.yul\":8218:8233   */\n      mstore\n        /* \"#utility.yul\":8252:8256   */\n      0x24\n        /* \"#utility.yul\":8249:8250   */\n      0x00\n        /* \"#utility.yul\":8242:8257   */\n      revert\n        /* \"#utility.yul\":8269:8550   */\n    tag_249:\n        /* \"#utility.yul\":8352:8379   */\n      tag_402\n        /* \"#utility.yul\":8374:8378   */\n      dup3\n        /* \"#utility.yul\":8352:8379   */\n      tag_243\n      jump\t// in\n    tag_402:\n        /* \"#utility.yul\":8344:8350   */\n      dup2\n        /* \"#utility.yul\":8340:8380   */\n      add\n        /* \"#utility.yul\":8482:8488   */\n      dup2\n        /* \"#utility.yul\":8470:8480   */\n      dup2\n        /* \"#utility.yul\":8467:8489   */\n      lt\n        /* \"#utility.yul\":8446:8464   */\n      0xffffffffffffffff\n        /* \"#utility.yul\":8434:8444   */\n      dup3\n        /* \"#utility.yul\":8431:8465   */\n      gt\n        /* \"#utility.yul\":8428:8490   */\n      or\n        /* \"#utility.yul\":8425:8513   */\n      iszero\n      tag_403\n      jumpi\n        /* \"#utility.yul\":8493:8511   */\n      tag_404\n      tag_193\n      jump\t// in\n    tag_404:\n        /* \"#utility.yul\":8425:8513   */\n    tag_403:\n        /* \"#utility.yul\":8533:8543   */\n      dup1\n        /* \"#utility.yul\":8529:8531   */\n      0x40\n        /* \"#utility.yul\":8522:8544   */\n      mstore\n        /* \"#utility.yul\":8312:8550   */\n      pop\n        /* \"#utility.yul\":8269:8550   */\n      pop\n      pop\n      jump\t// out\n        /* \"#utility.yul\":8556:8685   */\n    tag_250:\n        /* \"#utility.yul\":8590:8596   */\n      0x00\n        /* \"#utility.yul\":8617:8637   */\n      tag_406\n      tag_223\n      jump\t// in\n    tag_406:\n        /* \"#utility.yul\":8607:8637   */\n      swap1\n      pop\n        /* \"#utility.yul\":8646:8679   */\n      tag_407\n        /* \"#utility.yul\":8674:8678   */\n      dup3\n        /* \"#utility.yul\":8666:8672   */\n      dup3\n        /* \"#utility.yul\":8646:8679   */\n      tag_249\n      jump\t// in\n    tag_407:\n        /* \"#utility.yul\":8556:8685   */\n      swap2\n      swap1\n      pop\n      jump\t// out\n        /* \"#utility.yul\":8691:8999   */\n    tag_251:\n        /* \"#utility.yul\":8753:8757   */\n      0x00\n        /* \"#utility.yul\":8843:8861   */\n      0xffffffffffffffff\n        /* \"#utility.yul\":8835:8841   */\n      dup3\n        /* \"#utility.yul\":8832:8862   */\n      gt\n        /* \"#utility.yul\":8829:8885   */\n      iszero\n      tag_409\n      jumpi\n        /* \"#utility.yul\":8865:8883   */\n      tag_410\n      tag_193\n      jump\t// in\n    tag_410:\n        /* \"#utility.yul\":8829:8885   */\n    tag_409:\n        /* \"#utility.yul\":8903:8932   */\n      tag_411\n        /* \"#utility.yul\":8925:8931   */\n      dup3\n        /* \"#utility.yul\":8903:8932   */\n      tag_243\n      jump\t// in\n    tag_411:\n        /* \"#utility.yul\":8895:8932   */\n      swap1\n      pop\n        /* \"#utility.yul\":8987:8991   */\n      0x20\n        /* \"#utility.yul\":8981:8985   */\n      dup2\n        /* \"#utility.yul\":8977:8992   */\n      add\n        /* \"#utility.yul\":8969:8992   */\n      swap1\n      pop\n        /* \"#utility.yul\":8691:8999   */\n      swap2\n      swap1\n      pop\n      jump\t// out\n        /* \"#utility.yul\":9005:9153   */\n    tag_252:\n        /* \"#utility.yul\":9103:9109   */\n      dup3\n        /* \"#utility.yul\":9098:9101   */\n      dup2\n        /* \"#utility.yul\":9093:9096   */\n      dup4\n        /* \"#utility.yul\":9080:9110   */\n      calldatacopy\n        /* \"#utility.yul\":9144:9145   */\n      0x00\n        /* \"#utility.yul\":9135:9141   */\n      dup4\n        /* \"#utility.yul\":9130:9133   */\n      dup4\n        /* \"#utility.yul\":9126:9142   */\n      add\n        /* \"#utility.yul\":9119:9146   */\n      mstore\n        /* \"#utility.yul\":9005:9153   */\n      pop\n      pop\n      pop\n      jump\t// out\n        /* \"#utility.yul\":9159:9584   */\n    tag_253:\n        /* \"#utility.yul\":9237:9242   */\n      0x00\n        /* \"#utility.yul\":9262:9328   */\n      tag_414\n        /* \"#utility.yul\":9278:9327   */\n      tag_415\n        /* \"#utility.yul\":9320:9326   */\n      dup5\n        /* \"#utility.yul\":9278:9327   */\n      tag_251\n      jump\t// in\n    tag_415:\n        /* \"#utility.yul\":9262:9328   */\n      tag_250\n      jump\t// in\n    tag_414:\n        /* \"#utility.yul\":9253:9328   */\n      swap1\n      pop\n        /* \"#utility.yul\":9351:9357   */\n      dup3\n        /* \"#utility.yul\":9344:9349   */\n      dup2\n        /* \"#utility.yul\":9337:9358   */\n      mstore\n        /* \"#utility.yul\":9389:9393   */\n      0x20\n        /* \"#utility.yul\":9382:9387   */\n      dup2\n        /* \"#utility.yul\":9378:9394   */\n      add\n        /* \"#utility.yul\":9427:9430   */\n      dup5\n        /* \"#utility.yul\":9418:9424   */\n      dup5\n        /* \"#utility.yul\":9413:9416   */\n      dup5\n        /* \"#utility.yul\":9409:9425   */\n      add\n        /* \"#utility.yul\":9406:9431   */\n      gt\n        /* \"#utility.yul\":9403:9515   */\n      iszero\n      tag_416\n      jumpi\n        /* \"#utility.yul\":9434:9513   */\n      tag_417\n      tag_248\n      jump\t// in\n    tag_417:\n        /* \"#utility.yul\":9403:9515   */\n    tag_416:\n        /* \"#utility.yul\":9524:9578   */\n      tag_418\n        /* \"#utility.yul\":9571:9577   */\n      dup5\n        /* \"#utility.yul\":9566:9569   */\n      dup3\n        /* \"#utility.yul\":9561:9564   */\n      dup6\n        /* \"#utility.yul\":9524:9578   */\n      tag_252\n      jump\t// in\n    tag_418:\n        /* \"#utility.yul\":9243:9584   */\n      pop\n        /* \"#utility.yul\":9159:9584   */\n      swap4\n      swap3\n      pop\n      pop\n      pop\n      jump\t// out\n        /* \"#utility.yul\":9604:9944   */\n    tag_254:\n        /* \"#utility.yul\":9660:9665   */\n      0x00\n        /* \"#utility.yul\":9709:9712   */\n      dup3\n        /* \"#utility.yul\":9702:9706   */\n      0x1f\n        /* \"#utility.yul\":9694:9700   */\n      dup4\n        /* \"#utility.yul\":9690:9707   */\n      add\n        /* \"#utility.yul\":9686:9713   */\n      slt\n        /* \"#utility.yul\":9676:9798   */\n      tag_420\n      jumpi\n        /* \"#utility.yul\":9717:9796   */\n      tag_421\n      tag_247\n      jump\t// in\n    tag_421:\n        /* \"#utility.yul\":9676:9798   */\n    tag_420:\n        /* \"#utility.yul\":9834:9840   */\n      dup2\n        /* \"#utility.yul\":9821:9841   */\n      calldataload\n        /* \"#utility.yul\":9859:9938   */\n      tag_422\n        /* \"#utility.yul\":9934:9937   */\n      dup5\n        /* \"#utility.yul\":9926:9932   */\n      dup3\n        /* \"#utility.yul\":9919:9923   */\n      0x20\n        /* \"#utility.yul\":9911:9917   */\n      dup7\n        /* \"#utility.yul\":9907:9924   */\n      add\n        /* \"#utility.yul\":9859:9938   */\n      tag_253\n      jump\t// in\n    tag_422:\n        /* \"#utility.yul\":9850:9938   */\n      swap2\n      pop\n        /* \"#utility.yul\":9666:9944   */\n      pop\n        /* \"#utility.yul\":9604:9944   */\n      swap3\n      swap2\n      pop\n      pop\n      jump\t// out\n        /* \"#utility.yul\":9950:10459   */\n    tag_62:\n        /* \"#utility.yul\":10019:10025   */\n      0x00\n        /* \"#utility.yul\":10068:10070   */\n      0x20\n        /* \"#utility.yul\":10056:10065   */\n      dup3\n        /* \"#utility.yul\":10047:10054   */\n      dup5\n        /* \"#utility.yul\":10043:10066   */\n      sub\n        /* \"#utility.yul\":10039:10071   */\n      slt\n        /* \"#utility.yul\":10036:10155   */\n      iszero\n      tag_424\n      jumpi\n        /* \"#utility.yul\":10074:10153   */\n      tag_425\n      tag_224\n      jump\t// in\n    tag_425:\n        /* \"#utility.yul\":10036:10155   */\n    tag_424:\n        /* \"#utility.yul\":10222:10223   */\n      0x00\n        /* \"#utility.yul\":10211:10220   */\n      dup3\n        /* \"#utility.yul\":10207:10224   */\n      add\n        /* \"#utility.yul\":10194:10225   */\n      calldataload\n        /* \"#utility.yul\":10252:10270   */\n      0xffffffffffffffff\n        /* \"#utility.yul\":10244:10250   */\n      dup2\n        /* \"#utility.yul\":10241:10271   */\n      gt\n        /* \"#utility.yul\":10238:10355   */\n      iszero\n      tag_426\n      jumpi\n        /* \"#utility.yul\":10274:10353   */\n      tag_427\n      tag_225\n      jump\t// in\n    tag_427:\n        /* \"#utility.yul\":10238:10355   */\n    tag_426:\n        /* \"#utility.yul\":10379:10442   */\n      tag_428\n        /* \"#utility.yul\":10434:10441   */\n      dup5\n        /* \"#utility.yul\":10425:10431   */\n      dup3\n        /* \"#utility.yul\":10414:10423   */\n      dup6\n        /* \"#utility.yul\":10410:10432   */\n      add\n        /* \"#utility.yul\":10379:10442   */\n      tag_254\n      jump\t// in\n    tag_428:\n        /* \"#utility.yul\":10369:10442   */\n      swap2\n      pop\n        /* \"#utility.yul\":10165:10452   */\n      pop\n        /* \"#utility.yul\":9950:10459   */\n      swap3\n      swap2\n      pop\n      pop\n      jump\t// out\n        /* \"#utility.yul\":10465:10639   */\n    tag_255:\n        /* \"#utility.yul\":10605:10631   */\n      0x5468652067616d6520646f65736e277420657869737420210000000000000000\n        /* \"#utility.yul\":10601:10602   */\n      0x00\n        /* \"#utility.yul\":10593:10599   */\n      dup3\n        /* \"#utility.yul\":10589:10603   */\n      add\n        /* \"#utility.yul\":10582:10632   */\n      mstore\n        /* \"#utility.yul\":10465:10639   */\n      pop\n      jump\t// out\n        /* \"#utility.yul\":10645:11011   */\n    tag_256:\n        /* \"#utility.yul\":10787:10790   */\n      0x00\n        /* \"#utility.yul\":10808:10875   */\n      tag_431\n        /* \"#utility.yul\":10872:10874   */\n      0x18\n        /* \"#utility.yul\":10867:10870   */\n      dup4\n        /* \"#utility.yul\":10808:10875   */\n      tag_241\n      jump\t// in\n    tag_431:\n        /* \"#utility.yul\":10801:10875   */\n      swap2\n      pop\n        /* \"#utility.yul\":10884:10977   */\n      tag_432\n        /* \"#utility.yul\":10973:10976   */\n      dup3\n        /* \"#utility.yul\":10884:10977   */\n      tag_255\n      jump\t// in\n    tag_432:\n        /* \"#utility.yul\":11002:11004   */\n      0x20\n        /* \"#utility.yul\":10997:11000   */\n      dup3\n        /* \"#utility.yul\":10993:11005   */\n      add\n        /* \"#utility.yul\":10986:11005   */\n      swap1\n      pop\n        /* \"#utility.yul\":10645:11011   */\n      swap2\n      swap1\n      pop\n      jump\t// out\n        /* \"#utility.yul\":11017:11436   */\n    tag_67:\n        /* \"#utility.yul\":11183:11187   */\n      0x00\n        /* \"#utility.yul\":11221:11223   */\n      0x20\n        /* \"#utility.yul\":11210:11219   */\n      dup3\n        /* \"#utility.yul\":11206:11224   */\n      add\n        /* \"#utility.yul\":11198:11224   */\n      swap1\n      pop\n        /* \"#utility.yul\":11270:11279   */\n      dup2\n        /* \"#utility.yul\":11264:11268   */\n      dup2\n        /* \"#utility.yul\":11260:11280   */\n      sub\n        /* \"#utility.yul\":11256:11257   */\n      0x00\n        /* \"#utility.yul\":11245:11254   */\n      dup4\n        /* \"#utility.yul\":11241:11258   */\n      add\n        /* \"#utility.yul\":11234:11281   */\n      mstore\n        /* \"#utility.yul\":11298:11429   */\n      tag_434\n        /* \"#utility.yul\":11424:11428   */\n      dup2\n        /* \"#utility.yul\":11298:11429   */\n      tag_256\n      jump\t// in\n    tag_434:\n        /* \"#utility.yul\":11290:11429   */\n      swap1\n      pop\n        /* \"#utility.yul\":11017:11436   */\n      swap2\n      swap1\n      pop\n      jump\t// out\n        /* \"#utility.yul\":11442:11665   */\n    tag_257:\n        /* \"#utility.yul\":11582:11616   */\n      0x596f75277265206e6f7420746865206c61756e63686572206f66207468697320\n        /* \"#utility.yul\":11578:11579   */\n      0x00\n        /* \"#utility.yul\":11570:11576   */\n      dup3\n        /* \"#utility.yul\":11566:11580   */\n      add\n        /* \"#utility.yul\":11559:11617   */\n      mstore\n        /* \"#utility.yul\":11651:11657   */\n      0x67616d6500000000000000000000000000000000000000000000000000000000\n        /* \"#utility.yul\":11646:11648   */\n      0x20\n        /* \"#utility.yul\":11638:11644   */\n      dup3\n        /* \"#utility.yul\":11634:11649   */\n      add\n        /* \"#utility.yul\":11627:11658   */\n      mstore\n        /* \"#utility.yul\":11442:11665   */\n      pop\n      jump\t// out\n        /* \"#utility.yul\":11671:12037   */\n    tag_258:\n        /* \"#utility.yul\":11813:11816   */\n      0x00\n        /* \"#utility.yul\":11834:11901   */\n      tag_437\n        /* \"#utility.yul\":11898:11900   */\n      0x24\n        /* \"#utility.yul\":11893:11896   */\n      dup4\n        /* \"#utility.yul\":11834:11901   */\n      tag_241\n      jump\t// in\n    tag_437:\n        /* \"#utility.yul\":11827:11901   */\n      swap2\n      pop\n        /* \"#utility.yul\":11910:12003   */\n      tag_438\n        /* \"#utility.yul\":11999:12002   */\n      dup3\n        /* \"#utility.yul\":11910:12003   */\n      tag_257\n      jump\t// in\n    tag_438:\n        /* \"#utility.yul\":12028:12030   */\n      0x40\n        /* \"#utility.yul\":12023:12026   */\n      dup3\n        /* \"#utility.yul\":12019:12031   */\n      add\n        /* \"#utility.yul\":12012:12031   */\n      swap1\n      pop\n        /* \"#utility.yul\":11671:12037   */\n      swap2\n      swap1\n      pop\n      jump\t// out\n        /* \"#utility.yul\":12043:12462   */\n    tag_71:\n        /* \"#utility.yul\":12209:12213   */\n      0x00\n        /* \"#utility.yul\":12247:12249   */\n      0x20\n        /* \"#utility.yul\":12236:12245   */\n      dup3\n        /* \"#utility.yul\":12232:12250   */\n      add\n        /* \"#utility.yul\":12224:12250   */\n      swap1\n      pop\n        /* \"#utility.yul\":12296:12305   */\n      dup2\n        /* \"#utility.yul\":12290:12294   */\n      dup2\n        /* \"#utility.yul\":12286:12306   */\n      sub\n        /* \"#utility.yul\":12282:12283   */\n      0x00\n        /* \"#utility.yul\":12271:12280   */\n      dup4\n        /* \"#utility.yul\":12267:12284   */\n      add\n        /* \"#utility.yul\":12260:12307   */\n      mstore\n        /* \"#utility.yul\":12324:12455   */\n      tag_440\n        /* \"#utility.yul\":12450:12454   */\n      dup2\n        /* \"#utility.yul\":12324:12455   */\n      tag_258\n      jump\t// in\n    tag_440:\n        /* \"#utility.yul\":12316:12455   */\n      swap1\n      pop\n        /* \"#utility.yul\":12043:12462   */\n      swap2\n      swap1\n      pop\n      jump\t// out\n        /* \"#utility.yul\":12468:12650   */\n    tag_259:\n        /* \"#utility.yul\":12608:12642   */\n      0x596f75277265206e6f74206120706c61796572206f6620746869732067616d65\n        /* \"#utility.yul\":12604:12605   */\n      0x00\n        /* \"#utility.yul\":12596:12602   */\n      dup3\n        /* \"#utility.yul\":12592:12606   */\n      add\n        /* \"#utility.yul\":12585:12643   */\n      mstore\n        /* \"#utility.yul\":12468:12650   */\n      pop\n      jump\t// out\n        /* \"#utility.yul\":12656:13022   */\n    tag_260:\n        /* \"#utility.yul\":12798:12801   */\n      0x00\n        /* \"#utility.yul\":12819:12886   */\n      tag_443\n        /* \"#utility.yul\":12883:12885   */\n      0x20\n        /* \"#utility.yul\":12878:12881   */\n      dup4\n        /* \"#utility.yul\":12819:12886   */\n      tag_241\n      jump\t// in\n    tag_443:\n        /* \"#utility.yul\":12812:12886   */\n      swap2\n      pop\n        /* \"#utility.yul\":12895:12988   */\n      tag_444\n        /* \"#utility.yul\":12984:12987   */\n      dup3\n        /* \"#utility.yul\":12895:12988   */\n      tag_259\n      jump\t// in\n    tag_444:\n        /* \"#utility.yul\":13013:13015   */\n      0x20\n        /* \"#utility.yul\":13008:13011   */\n      dup3\n        /* \"#utility.yul\":13004:13016   */\n      add\n        /* \"#utility.yul\":12997:13016   */\n      swap1\n      pop\n        /* \"#utility.yul\":12656:13022   */\n      swap2\n      swap1\n      pop\n      jump\t// out\n        /* \"#utility.yul\":13028:13447   */\n    tag_90:\n        /* \"#utility.yul\":13194:13198   */\n      0x00\n        /* \"#utility.yul\":13232:13234   */\n      0x20\n        /* \"#utility.yul\":13221:13230   */\n      dup3\n        /* \"#utility.yul\":13217:13235   */\n      add\n        /* \"#utility.yul\":13209:13235   */\n      swap1\n      pop\n        /* \"#utility.yul\":13281:13290   */\n      dup2\n        /* \"#utility.yul\":13275:13279   */\n      dup2\n        /* \"#utility.yul\":13271:13291   */\n      sub\n        /* \"#utility.yul\":13267:13268   */\n      0x00\n        /* \"#utility.yul\":13256:13265   */\n      dup4\n        /* \"#utility.yul\":13252:13269   */\n      add\n        /* \"#utility.yul\":13245:13292   */\n      mstore\n        /* \"#utility.yul\":13309:13440   */\n      tag_446\n        /* \"#utility.yul\":13435:13439   */\n      dup2\n        /* \"#utility.yul\":13309:13440   */\n      tag_260\n      jump\t// in\n    tag_446:\n        /* \"#utility.yul\":13301:13440   */\n      swap1\n      pop\n        /* \"#utility.yul\":13028:13447   */\n      swap2\n      swap1\n      pop\n      jump\t// out\n        /* \"#utility.yul\":13453:13690   */\n    tag_261:\n        /* \"#utility.yul\":13593:13627   */\n      0x596f752073686f756c642073656e6420796f75722062657474696e6720616d6f\n        /* \"#utility.yul\":13589:13590   */\n      0x00\n        /* \"#utility.yul\":13581:13587   */\n      dup3\n        /* \"#utility.yul\":13577:13591   */\n      add\n        /* \"#utility.yul\":13570:13628   */\n      mstore\n        /* \"#utility.yul\":13662:13682   */\n      0x756e74206265666f726520706c6179696e670000000000000000000000000000\n        /* \"#utility.yul\":13657:13659   */\n      0x20\n        /* \"#utility.yul\":13649:13655   */\n      dup3\n        /* \"#utility.yul\":13645:13660   */\n      add\n        /* \"#utility.yul\":13638:13683   */\n      mstore\n        /* \"#utility.yul\":13453:13690   */\n      pop\n      jump\t// out\n        /* \"#utility.yul\":13696:14062   */\n    tag_262:\n        /* \"#utility.yul\":13838:13841   */\n      0x00\n        /* \"#utility.yul\":13859:13926   */\n      tag_449\n        /* \"#utility.yul\":13923:13925   */\n      0x32\n        /* \"#utility.yul\":13918:13921   */\n      dup4\n        /* \"#utility.yul\":13859:13926   */\n      tag_241\n      jump\t// in\n    tag_449:\n        /* \"#utility.yul\":13852:13926   */\n      swap2\n      pop\n        /* \"#utility.yul\":13935:14028   */\n      tag_450\n        /* \"#utility.yul\":14024:14027   */\n      dup3\n        /* \"#utility.yul\":13935:14028   */\n      tag_261\n      jump\t// in\n    tag_450:\n        /* \"#utility.yul\":14053:14055   */\n      0x40\n        /* \"#utility.yul\":14048:14051   */\n      dup3\n        /* \"#utility.yul\":14044:14056   */\n      add\n        /* \"#utility.yul\":14037:14056   */\n      swap1\n      pop\n        /* \"#utility.yul\":13696:14062   */\n      swap2\n      swap1\n      pop\n      jump\t// out\n        /* \"#utility.yul\":14068:14487   */\n    tag_94:\n        /* \"#utility.yul\":14234:14238   */\n      0x00\n        /* \"#utility.yul\":14272:14274   */\n      0x20\n        /* \"#utility.yul\":14261:14270   */\n      dup3\n        /* \"#utility.yul\":14257:14275   */\n      add\n        /* \"#utility.yul\":14249:14275   */\n      swap1\n      pop\n        /* \"#utility.yul\":14321:14330   */\n      dup2\n        /* \"#utility.yul\":14315:14319   */\n      dup2\n        /* \"#utility.yul\":14311:14331   */\n      sub\n        /* \"#utility.yul\":14307:14308   */\n      0x00\n        /* \"#utility.yul\":14296:14305   */\n      dup4\n        /* \"#utility.yul\":14292:14309   */\n      add\n        /* \"#utility.yul\":14285:14332   */\n      mstore\n        /* \"#utility.yul\":14349:14480   */\n      tag_452\n        /* \"#utility.yul\":14475:14479   */\n      dup2\n        /* \"#utility.yul\":14349:14480   */\n      tag_262\n      jump\t// in\n    tag_452:\n        /* \"#utility.yul\":14341:14480   */\n      swap1\n      pop\n        /* \"#utility.yul\":14068:14487   */\n      swap2\n      swap1\n      pop\n      jump\t// out\n        /* \"#utility.yul\":14493:14661   */\n    tag_263:\n        /* \"#utility.yul\":14633:14653   */\n      0x5468652067616d652068617320656e6465640000000000000000000000000000\n        /* \"#utility.yul\":14629:14630   */\n      0x00\n        /* \"#utility.yul\":14621:14627   */\n      dup3\n        /* \"#utility.yul\":14617:14631   */\n      add\n        /* \"#utility.yul\":14610:14654   */\n      mstore\n        /* \"#utility.yul\":14493:14661   */\n      pop\n      jump\t// out\n        /* \"#utility.yul\":14667:15033   */\n    tag_264:\n        /* \"#utility.yul\":14809:14812   */\n      0x00\n        /* \"#utility.yul\":14830:14897   */\n      tag_455\n        /* \"#utility.yul\":14894:14896   */\n      0x12\n        /* \"#utility.yul\":14889:14892   */\n      dup4\n        /* \"#utility.yul\":14830:14897   */\n      tag_241\n      jump\t// in\n    tag_455:\n        /* \"#utility.yul\":14823:14897   */\n      swap2\n      pop\n        /* \"#utility.yul\":14906:14999   */\n      tag_456\n        /* \"#utility.yul\":14995:14998   */\n      dup3\n        /* \"#utility.yul\":14906:14999   */\n      tag_263\n      jump\t// in\n    tag_456:\n        /* \"#utility.yul\":15024:15026   */\n      0x20\n        /* \"#utility.yul\":15019:15022   */\n      dup3\n        /* \"#utility.yul\":15015:15027   */\n      add\n        /* \"#utility.yul\":15008:15027   */\n      swap1\n      pop\n        /* \"#utility.yul\":14667:15033   */\n      swap2\n      swap1\n      pop\n      jump\t// out\n        /* \"#utility.yul\":15039:15458   */\n    tag_102:\n        /* \"#utility.yul\":15205:15209   */\n      0x00\n        /* \"#utility.yul\":15243:15245   */\n      0x20\n        /* \"#utility.yul\":15232:15241   */\n      dup3\n        /* \"#utility.yul\":15228:15246   */\n      add\n        /* \"#utility.yul\":15220:15246   */\n      swap1\n      pop\n        /* \"#utility.yul\":15292:15301   */\n      dup2\n        /* \"#utility.yul\":15286:15290   */\n      dup2\n        /* \"#utility.yul\":15282:15302   */\n      sub\n        /* \"#utility.yul\":15278:15279   */\n      0x00\n        /* \"#utility.yul\":15267:15276   */\n      dup4\n        /* \"#utility.yul\":15263:15280   */\n      add\n        /* \"#utility.yul\":15256:15303   */\n      mstore\n        /* \"#utility.yul\":15320:15451   */\n      tag_458\n        /* \"#utility.yul\":15446:15450   */\n      dup2\n        /* \"#utility.yul\":15320:15451   */\n      tag_264\n      jump\t// in\n    tag_458:\n        /* \"#utility.yul\":15312:15451   */\n      swap1\n      pop\n        /* \"#utility.yul\":15039:15458   */\n      swap2\n      swap1\n      pop\n      jump\t// out\n        /* \"#utility.yul\":15464:15641   */\n    tag_265:\n        /* \"#utility.yul\":15604:15633   */\n      0x546865206e756d626572206973206f7574206f66206c696d6974730000000000\n        /* \"#utility.yul\":15600:15601   */\n      0x00\n        /* \"#utility.yul\":15592:15598   */\n      dup3\n        /* \"#utility.yul\":15588:15602   */\n      add\n        /* \"#utility.yul\":15581:15634   */\n      mstore\n        /* \"#utility.yul\":15464:15641   */\n      pop\n      jump\t// out\n        /* \"#utility.yul\":15647:16013   */\n    tag_266:\n        /* \"#utility.yul\":15789:15792   */\n      0x00\n        /* \"#utility.yul\":15810:15877   */\n      tag_461\n        /* \"#utility.yul\":15874:15876   */\n      0x1b\n        /* \"#utility.yul\":15869:15872   */\n      dup4\n        /* \"#utility.yul\":15810:15877   */\n      tag_241\n      jump\t// in\n    tag_461:\n        /* \"#utility.yul\":15803:15877   */\n      swap2\n      pop\n        /* \"#utility.yul\":15886:15979   */\n      tag_462\n        /* \"#utility.yul\":15975:15978   */\n      dup3\n        /* \"#utility.yul\":15886:15979   */\n      tag_265\n      jump\t// in\n    tag_462:\n        /* \"#utility.yul\":16004:16006   */\n      0x20\n        /* \"#utility.yul\":15999:16002   */\n      dup3\n        /* \"#utility.yul\":15995:16007   */\n      add\n        /* \"#utility.yul\":15988:16007   */\n      swap1\n      pop\n        /* \"#utility.yul\":15647:16013   */\n      swap2\n      swap1\n      pop\n      jump\t// out\n        /* \"#utility.yul\":16019:16438   */\n    tag_106:\n        /* \"#utility.yul\":16185:16189   */\n      0x00\n        /* \"#utility.yul\":16223:16225   */\n      0x20\n        /* \"#utility.yul\":16212:16221   */\n      dup3\n        /* \"#utility.yul\":16208:16226   */\n      add\n        /* \"#utility.yul\":16200:16226   */\n      swap1\n      pop\n        /* \"#utility.yul\":16272:16281   */\n      dup2\n        /* \"#utility.yul\":16266:16270   */\n      dup2\n        /* \"#utility.yul\":16262:16282   */\n      sub\n        /* \"#utility.yul\":16258:16259   */\n      0x00\n        /* \"#utility.yul\":16247:16256   */\n      dup4\n        /* \"#utility.yul\":16243:16260   */\n      add\n        /* \"#utility.yul\":16236:16283   */\n      mstore\n        /* \"#utility.yul\":16300:16431   */\n      tag_464\n        /* \"#utility.yul\":16426:16430   */\n      dup2\n        /* \"#utility.yul\":16300:16431   */\n      tag_266\n      jump\t// in\n    tag_464:\n        /* \"#utility.yul\":16292:16431   */\n      swap1\n      pop\n        /* \"#utility.yul\":16019:16438   */\n      swap2\n      swap1\n      pop\n      jump\t// out\n        /* \"#utility.yul\":16444:16854   */\n    tag_119:\n        /* \"#utility.yul\":16484:16491   */\n      0x00\n        /* \"#utility.yul\":16507:16527   */\n      tag_466\n        /* \"#utility.yul\":16525:16526   */\n      dup3\n        /* \"#utility.yul\":16507:16527   */\n      tag_221\n      jump\t// in\n    tag_466:\n        /* \"#utility.yul\":16502:16527   */\n      swap2\n      pop\n        /* \"#utility.yul\":16541:16561   */\n      tag_467\n        /* \"#utility.yul\":16559:16560   */\n      dup4\n        /* \"#utility.yul\":16541:16561   */\n      tag_221\n      jump\t// in\n    tag_467:\n        /* \"#utility.yul\":16536:16561   */\n      swap3\n      pop\n        /* \"#utility.yul\":16596:16597   */\n      dup3\n        /* \"#utility.yul\":16593:16594   */\n      dup3\n        /* \"#utility.yul\":16589:16598   */\n      mul\n        /* \"#utility.yul\":16618:16648   */\n      tag_468\n        /* \"#utility.yul\":16636:16647   */\n      dup2\n        /* \"#utility.yul\":16618:16648   */\n      tag_221\n      jump\t// in\n    tag_468:\n        /* \"#utility.yul\":16607:16648   */\n      swap2\n      pop\n        /* \"#utility.yul\":16797:16798   */\n      dup3\n        /* \"#utility.yul\":16788:16795   */\n      dup3\n        /* \"#utility.yul\":16784:16799   */\n      div\n        /* \"#utility.yul\":16781:16782   */\n      dup5\n        /* \"#utility.yul\":16778:16800   */\n      eq\n        /* \"#utility.yul\":16758:16759   */\n      dup4\n        /* \"#utility.yul\":16751:16760   */\n      iszero\n        /* \"#utility.yul\":16731:16814   */\n      or\n        /* \"#utility.yul\":16708:16847   */\n      tag_469\n      jumpi\n        /* \"#utility.yul\":16827:16845   */\n      tag_470\n      tag_222\n      jump\t// in\n    tag_470:\n        /* \"#utility.yul\":16708:16847   */\n    tag_469:\n        /* \"#utility.yul\":16492:16854   */\n      pop\n        /* \"#utility.yul\":16444:16854   */\n      swap3\n      swap2\n      pop\n      pop\n      jump\t// out\n        /* \"#utility.yul\":16860:17052   */\n    tag_267:\n        /* \"#utility.yul\":17029:17045   */\n      0x5468652077696e6e657220697320000000000000000000000000000000000000\n        /* \"#utility.yul\":17024:17027   */\n      dup2\n        /* \"#utility.yul\":17017:17046   */\n      mstore\n        /* \"#utility.yul\":16860:17052   */\n      pop\n      jump\t// out\n        /* \"#utility.yul\":17058:17238   */\n    tag_268:\n        /* \"#utility.yul\":17106:17183   */\n      0x4e487b7100000000000000000000000000000000000000000000000000000000\n        /* \"#utility.yul\":17103:17104   */\n      0x00\n        /* \"#utility.yul\":17096:17184   */\n      mstore\n        /* \"#utility.yul\":17203:17207   */\n      0x22\n        /* \"#utility.yul\":17200:17201   */\n      0x04\n        /* \"#utility.yul\":17193:17208   */\n      mstore\n        /* \"#utility.yul\":17227:17231   */\n      0x24\n        /* \"#utility.yul\":17224:17225   */\n      0x00\n        /* \"#utility.yul\":17217:17232   */\n      revert\n        /* \"#utility.yul\":17244:17564   */\n    tag_269:\n        /* \"#utility.yul\":17288:17294   */\n      0x00\n        /* \"#utility.yul\":17325:17326   */\n      0x02\n        /* \"#utility.yul\":17319:17323   */\n      dup3\n        /* \"#utility.yul\":17315:17327   */\n      div\n        /* \"#utility.yul\":17305:17327   */\n      swap1\n      pop\n        /* \"#utility.yul\":17372:17373   */\n      0x01\n        /* \"#utility.yul\":17366:17370   */\n      dup3\n        /* \"#utility.yul\":17362:17374   */\n      and\n        /* \"#utility.yul\":17393:17411   */\n      dup1\n        /* \"#utility.yul\":17383:17464   */\n      tag_474\n      jumpi\n        /* \"#utility.yul\":17449:17453   */\n      0x7f\n        /* \"#utility.yul\":17441:17447   */\n      dup3\n        /* \"#utility.yul\":17437:17454   */\n      and\n        /* \"#utility.yul\":17427:17454   */\n      swap2\n      pop\n        /* \"#utility.yul\":17383:17464   */\n    tag_474:\n        /* \"#utility.yul\":17511:17513   */\n      0x20\n        /* \"#utility.yul\":17503:17509   */\n      dup3\n        /* \"#utility.yul\":17500:17514   */\n      lt\n        /* \"#utility.yul\":17480:17498   */\n      dup2\n        /* \"#utility.yul\":17477:17515   */\n      sub\n        /* \"#utility.yul\":17474:17558   */\n      tag_475\n      jumpi\n        /* \"#utility.yul\":17530:17548   */\n      tag_476\n      tag_268\n      jump\t// in\n    tag_476:\n        /* \"#utility.yul\":17474:17558   */\n    tag_475:\n        /* \"#utility.yul\":17295:17564   */\n      pop\n        /* \"#utility.yul\":17244:17564   */\n      swap2\n      swap1\n      pop\n      jump\t// out\n        /* \"#utility.yul\":17570:17718   */\n    tag_270:\n        /* \"#utility.yul\":17672:17683   */\n      0x00\n        /* \"#utility.yul\":17709:17712   */\n      dup2\n        /* \"#utility.yul\":17694:17712   */\n      swap1\n      pop\n        /* \"#utility.yul\":17570:17718   */\n      swap3\n      swap2\n      pop\n      pop\n      jump\t// out\n        /* \"#utility.yul\":17724:17865   */\n    tag_271:\n        /* \"#utility.yul\":17773:17777   */\n      0x00\n        /* \"#utility.yul\":17796:17799   */\n      dup2\n        /* \"#utility.yul\":17788:17799   */\n      swap1\n      pop\n        /* \"#utility.yul\":17819:17822   */\n      dup2\n        /* \"#utility.yul\":17816:17817   */\n      0x00\n        /* \"#utility.yul\":17809:17823   */\n      mstore\n        /* \"#utility.yul\":17853:17857   */\n      0x20\n        /* \"#utility.yul\":17850:17851   */\n      0x00\n        /* \"#utility.yul\":17840:17858   */\n      keccak256\n        /* \"#utility.yul\":17832:17858   */\n      swap1\n      pop\n        /* \"#utility.yul\":17724:17865   */\n      swap2\n      swap1\n      pop\n      jump\t// out\n        /* \"#utility.yul\":17895:18769   */\n    tag_272:\n        /* \"#utility.yul\":17998:18001   */\n      0x00\n        /* \"#utility.yul\":18035:18040   */\n      dup2\n        /* \"#utility.yul\":18029:18041   */\n      sload\n        /* \"#utility.yul\":18064:18100   */\n      tag_480\n        /* \"#utility.yul\":18090:18099   */\n      dup2\n        /* \"#utility.yul\":18064:18100   */\n      tag_269\n      jump\t// in\n    tag_480:\n        /* \"#utility.yul\":18116:18205   */\n      tag_481\n        /* \"#utility.yul\":18198:18204   */\n      dup2\n        /* \"#utility.yul\":18193:18196   */\n      dup7\n        /* \"#utility.yul\":18116:18205   */\n      tag_270\n      jump\t// in\n    tag_481:\n        /* \"#utility.yul\":18109:18205   */\n      swap5\n      pop\n        /* \"#utility.yul\":18236:18237   */\n      0x01\n        /* \"#utility.yul\":18225:18234   */\n      dup3\n        /* \"#utility.yul\":18221:18238   */\n      and\n        /* \"#utility.yul\":18252:18253   */\n      0x00\n        /* \"#utility.yul\":18247:18413   */\n      dup2\n      eq\n      tag_483\n      jumpi\n        /* \"#utility.yul\":18427:18428   */\n      0x01\n        /* \"#utility.yul\":18422:18763   */\n      dup2\n      eq\n      tag_484\n      jumpi\n        /* \"#utility.yul\":18214:18763   */\n      jump(tag_482)\n        /* \"#utility.yul\":18247:18413   */\n    tag_483:\n        /* \"#utility.yul\":18331:18335   */\n      0xff\n        /* \"#utility.yul\":18327:18336   */\n      not\n        /* \"#utility.yul\":18316:18325   */\n      dup4\n        /* \"#utility.yul\":18312:18337   */\n      and\n        /* \"#utility.yul\":18307:18310   */\n      dup7\n        /* \"#utility.yul\":18300:18338   */\n      mstore\n        /* \"#utility.yul\":18393:18399   */\n      dup2\n        /* \"#utility.yul\":18386:18400   */\n      iszero\n        /* \"#utility.yul\":18379:18401   */\n      iszero\n        /* \"#utility.yul\":18371:18377   */\n      dup3\n        /* \"#utility.yul\":18367:18402   */\n      mul\n        /* \"#utility.yul\":18362:18365   */\n      dup7\n        /* \"#utility.yul\":18358:18403   */\n      add\n        /* \"#utility.yul\":18351:18403   */\n      swap4\n      pop\n        /* \"#utility.yul\":18247:18413   */\n      jump(tag_482)\n        /* \"#utility.yul\":18422:18763   */\n    tag_484:\n        /* \"#utility.yul\":18489:18527   */\n      tag_485\n        /* \"#utility.yul\":18521:18526   */\n      dup6\n        /* \"#utility.yul\":18489:18527   */\n      tag_271\n      jump\t// in\n    tag_485:\n        /* \"#utility.yul\":18549:18550   */\n      0x00\n        /* \"#utility.yul\":18563:18717   */\n    tag_486:\n        /* \"#utility.yul\":18577:18583   */\n      dup4\n        /* \"#utility.yul\":18574:18575   */\n      dup2\n        /* \"#utility.yul\":18571:18584   */\n      lt\n        /* \"#utility.yul\":18563:18717   */\n      iszero\n      tag_488\n      jumpi\n        /* \"#utility.yul\":18651:18658   */\n      dup2\n        /* \"#utility.yul\":18645:18659   */\n      sload\n        /* \"#utility.yul\":18641:18642   */\n      dup2\n        /* \"#utility.yul\":18636:18639   */\n      dup10\n        /* \"#utility.yul\":18632:18643   */\n      add\n        /* \"#utility.yul\":18625:18660   */\n      mstore\n        /* \"#utility.yul\":18701:18702   */\n      0x01\n        /* \"#utility.yul\":18692:18699   */\n      dup3\n        /* \"#utility.yul\":18688:18703   */\n      add\n        /* \"#utility.yul\":18677:18703   */\n      swap2\n      pop\n        /* \"#utility.yul\":18599:18603   */\n      0x20\n        /* \"#utility.yul\":18596:18597   */\n      dup2\n        /* \"#utility.yul\":18592:18604   */\n      add\n        /* \"#utility.yul\":18587:18604   */\n      swap1\n      pop\n        /* \"#utility.yul\":18563:18717   */\n      jump(tag_486)\n    tag_488:\n        /* \"#utility.yul\":18746:18752   */\n      dup4\n        /* \"#utility.yul\":18741:18744   */\n      dup9\n        /* \"#utility.yul\":18737:18753   */\n      add\n        /* \"#utility.yul\":18730:18753   */\n      swap6\n      pop\n        /* \"#utility.yul\":18429:18763   */\n      pop\n      pop\n        /* \"#utility.yul\":18214:18763   */\n    tag_482:\n      pop\n        /* \"#utility.yul\":18002:18769   */\n      pop\n      pop\n        /* \"#utility.yul\":17895:18769   */\n      swap3\n      swap2\n      pop\n      pop\n      jump\t// out\n        /* \"#utility.yul\":18775:19311   */\n    tag_126:\n        /* \"#utility.yul\":18995:18998   */\n      0x00\n        /* \"#utility.yul\":19010:19148   */\n      tag_490\n        /* \"#utility.yul\":19144:19147   */\n      dup3\n        /* \"#utility.yul\":19010:19148   */\n      tag_267\n      jump\t// in\n    tag_490:\n        /* \"#utility.yul\":19173:19175   */\n      0x0e\n        /* \"#utility.yul\":19168:19171   */\n      dup3\n        /* \"#utility.yul\":19164:19176   */\n      add\n        /* \"#utility.yul\":19157:19176   */\n      swap2\n      pop\n        /* \"#utility.yul\":19193:19285   */\n      tag_491\n        /* \"#utility.yul\":19281:19284   */\n      dup3\n        /* \"#utility.yul\":19272:19278   */\n      dup5\n        /* \"#utility.yul\":19193:19285   */\n      tag_272\n      jump\t// in\n    tag_491:\n        /* \"#utility.yul\":19186:19285   */\n      swap2\n      pop\n        /* \"#utility.yul\":19302:19305   */\n      dup2\n        /* \"#utility.yul\":19295:19305   */\n      swap1\n      pop\n        /* \"#utility.yul\":18775:19311   */\n      swap3\n      swap2\n      pop\n      pop\n      jump\t// out\n        /* \"#utility.yul\":19317:19498   */\n    tag_273:\n        /* \"#utility.yul\":19457:19490   */\n      0x596f752063616e277420706c617920616761696e737420796f757273656c6600\n        /* \"#utility.yul\":19453:19454   */\n      0x00\n        /* \"#utility.yul\":19445:19451   */\n      dup3\n        /* \"#utility.yul\":19441:19455   */\n      add\n        /* \"#utility.yul\":19434:19491   */\n      mstore\n        /* \"#utility.yul\":19317:19498   */\n      pop\n      jump\t// out\n        /* \"#utility.yul\":19504:19870   */\n    tag_274:\n        /* \"#utility.yul\":19646:19649   */\n      0x00\n        /* \"#utility.yul\":19667:19734   */\n      tag_494\n        /* \"#utility.yul\":19731:19733   */\n      0x1f\n        /* \"#utility.yul\":19726:19729   */\n      dup4\n        /* \"#utility.yul\":19667:19734   */\n      tag_241\n      jump\t// in\n    tag_494:\n        /* \"#utility.yul\":19660:19734   */\n      swap2\n      pop\n        /* \"#utility.yul\":19743:19836   */\n      tag_495\n        /* \"#utility.yul\":19832:19835   */\n      dup3\n        /* \"#utility.yul\":19743:19836   */\n      tag_273\n      jump\t// in\n    tag_495:\n        /* \"#utility.yul\":19861:19863   */\n      0x20\n        /* \"#utility.yul\":19856:19859   */\n      dup3\n        /* \"#utility.yul\":19852:19864   */\n      add\n        /* \"#utility.yul\":19845:19864   */\n      swap1\n      pop\n        /* \"#utility.yul\":19504:19870   */\n      swap2\n      swap1\n      pop\n      jump\t// out\n        /* \"#utility.yul\":19876:20295   */\n    tag_130:\n        /* \"#utility.yul\":20042:20046   */\n      0x00\n        /* \"#utility.yul\":20080:20082   */\n      0x20\n        /* \"#utility.yul\":20069:20078   */\n      dup3\n        /* \"#utility.yul\":20065:20083   */\n      add\n        /* \"#utility.yul\":20057:20083   */\n      swap1\n      pop\n        /* \"#utility.yul\":20129:20138   */\n      dup2\n        /* \"#utility.yul\":20123:20127   */\n      dup2\n        /* \"#utility.yul\":20119:20139   */\n      sub\n        /* \"#utility.yul\":20115:20116   */\n      0x00\n        /* \"#utility.yul\":20104:20113   */\n      dup4\n        /* \"#utility.yul\":20100:20117   */\n      add\n        /* \"#utility.yul\":20093:20140   */\n      mstore\n        /* \"#utility.yul\":20157:20288   */\n      tag_497\n        /* \"#utility.yul\":20283:20287   */\n      dup2\n        /* \"#utility.yul\":20157:20288   */\n      tag_274\n      jump\t// in\n    tag_497:\n        /* \"#utility.yul\":20149:20288   */\n      swap1\n      pop\n        /* \"#utility.yul\":19876:20295   */\n      swap2\n      swap1\n      pop\n      jump\t// out\n        /* \"#utility.yul\":20301:20525   */\n    tag_275:\n        /* \"#utility.yul\":20441:20475   */\n      0x5468652062657474696e6720616d6f756e742073686f756c6420626520706f73\n        /* \"#utility.yul\":20437:20438   */\n      0x00\n        /* \"#utility.yul\":20429:20435   */\n      dup3\n        /* \"#utility.yul\":20425:20439   */\n      add\n        /* \"#utility.yul\":20418:20476   */\n      mstore\n        /* \"#utility.yul\":20510:20517   */\n      0x6974697665000000000000000000000000000000000000000000000000000000\n        /* \"#utility.yul\":20505:20507   */\n      0x20\n        /* \"#utility.yul\":20497:20503   */\n      dup3\n        /* \"#utility.yul\":20493:20508   */\n      add\n        /* \"#utility.yul\":20486:20518   */\n      mstore\n        /* \"#utility.yul\":20301:20525   */\n      pop\n      jump\t// out\n        /* \"#utility.yul\":20531:20897   */\n    tag_276:\n        /* \"#utility.yul\":20673:20676   */\n      0x00\n        /* \"#utility.yul\":20694:20761   */\n      tag_500\n        /* \"#utility.yul\":20758:20760   */\n      0x25\n        /* \"#utility.yul\":20753:20756   */\n      dup4\n        /* \"#utility.yul\":20694:20761   */\n      tag_241\n      jump\t// in\n    tag_500:\n        /* \"#utility.yul\":20687:20761   */\n      swap2\n      pop\n        /* \"#utility.yul\":20770:20863   */\n      tag_501\n        /* \"#utility.yul\":20859:20862   */\n      dup3\n        /* \"#utility.yul\":20770:20863   */\n      tag_275\n      jump\t// in\n    tag_501:\n        /* \"#utility.yul\":20888:20890   */\n      0x40\n        /* \"#utility.yul\":20883:20886   */\n      dup3\n        /* \"#utility.yul\":20879:20891   */\n      add\n        /* \"#utility.yul\":20872:20891   */\n      swap1\n      pop\n        /* \"#utility.yul\":20531:20897   */\n      swap2\n      swap1\n      pop\n      jump\t// out\n        /* \"#utility.yul\":20903:21322   */\n    tag_133:\n        /* \"#utility.yul\":21069:21073   */\n      0x00\n        /* \"#utility.yul\":21107:21109   */\n      0x20\n        /* \"#utility.yul\":21096:21105   */\n      dup3\n        /* \"#utility.yul\":21092:21110   */\n      add\n        /* \"#utility.yul\":21084:21110   */\n      swap1\n      pop\n        /* \"#utility.yul\":21156:21165   */\n      dup2\n        /* \"#utility.yul\":21150:21154   */\n      dup2\n        /* \"#utility.yul\":21146:21166   */\n      sub\n        /* \"#utility.yul\":21142:21143   */\n      0x00\n        /* \"#utility.yul\":21131:21140   */\n      dup4\n        /* \"#utility.yul\":21127:21144   */\n      add\n        /* \"#utility.yul\":21120:21167   */\n      mstore\n        /* \"#utility.yul\":21184:21315   */\n      tag_503\n        /* \"#utility.yul\":21310:21314   */\n      dup2\n        /* \"#utility.yul\":21184:21315   */\n      tag_276\n      jump\t// in\n    tag_503:\n        /* \"#utility.yul\":21176:21315   */\n      swap1\n      pop\n        /* \"#utility.yul\":20903:21322   */\n      swap2\n      swap1\n      pop\n      jump\t// out\n        /* \"#utility.yul\":21328:21560   */\n    tag_277:\n        /* \"#utility.yul\":21468:21502   */\n      0x546865206c6f776572206c696d69742073686f756c64206265206c6573732074\n        /* \"#utility.yul\":21464:21465   */\n      0x00\n        /* \"#utility.yul\":21456:21462   */\n      dup3\n        /* \"#utility.yul\":21452:21466   */\n      add\n        /* \"#utility.yul\":21445:21503   */\n      mstore\n        /* \"#utility.yul\":21537:21552   */\n      0x68616e2074686520757070657200000000000000000000000000000000000000\n        /* \"#utility.yul\":21532:21534   */\n      0x20\n        /* \"#utility.yul\":21524:21530   */\n      dup3\n        /* \"#utility.yul\":21520:21535   */\n      add\n        /* \"#utility.yul\":21513:21553   */\n      mstore\n        /* \"#utility.yul\":21328:21560   */\n      pop\n      jump\t// out\n        /* \"#utility.yul\":21566:21932   */\n    tag_278:\n        /* \"#utility.yul\":21708:21711   */\n      0x00\n        /* \"#utility.yul\":21729:21796   */\n      tag_506\n        /* \"#utility.yul\":21793:21795   */\n      0x2d\n        /* \"#utility.yul\":21788:21791   */\n      dup4\n        /* \"#utility.yul\":21729:21796   */\n      tag_241\n      jump\t// in\n    tag_506:\n        /* \"#utility.yul\":21722:21796   */\n      swap2\n      pop\n        /* \"#utility.yul\":21805:21898   */\n      tag_507\n        /* \"#utility.yul\":21894:21897   */\n      dup3\n        /* \"#utility.yul\":21805:21898   */\n      tag_277\n      jump\t// in\n    tag_507:\n        /* \"#utility.yul\":21923:21925   */\n      0x40\n        /* \"#utility.yul\":21918:21921   */\n      dup3\n        /* \"#utility.yul\":21914:21926   */\n      add\n        /* \"#utility.yul\":21907:21926   */\n      swap1\n      pop\n        /* \"#utility.yul\":21566:21932   */\n      swap2\n      swap1\n      pop\n      jump\t// out\n        /* \"#utility.yul\":21938:22357   */\n    tag_136:\n        /* \"#utility.yul\":22104:22108   */\n      0x00\n        /* \"#utility.yul\":22142:22144   */\n      0x20\n        /* \"#utility.yul\":22131:22140   */\n      dup3\n        /* \"#utility.yul\":22127:22145   */\n      add\n        /* \"#utility.yul\":22119:22145   */\n      swap1\n      pop\n        /* \"#utility.yul\":22191:22200   */\n      dup2\n        /* \"#utility.yul\":22185:22189   */\n      dup2\n        /* \"#utility.yul\":22181:22201   */\n      sub\n        /* \"#utility.yul\":22177:22178   */\n      0x00\n        /* \"#utility.yul\":22166:22175   */\n      dup4\n        /* \"#utility.yul\":22162:22179   */\n      add\n        /* \"#utility.yul\":22155:22202   */\n      mstore\n        /* \"#utility.yul\":22219:22350   */\n      tag_509\n        /* \"#utility.yul\":22345:22349   */\n      dup2\n        /* \"#utility.yul\":22219:22350   */\n      tag_278\n      jump\t// in\n    tag_509:\n        /* \"#utility.yul\":22211:22350   */\n      swap1\n      pop\n        /* \"#utility.yul\":21938:22357   */\n      swap2\n      swap1\n      pop\n      jump\t// out\n        /* \"#utility.yul\":22363:22596   */\n    tag_138:\n        /* \"#utility.yul\":22402:22405   */\n      0x00\n        /* \"#utility.yul\":22425:22449   */\n      tag_511\n        /* \"#utility.yul\":22443:22448   */\n      dup3\n        /* \"#utility.yul\":22425:22449   */\n      tag_221\n      jump\t// in\n    tag_511:\n        /* \"#utility.yul\":22416:22449   */\n      swap2\n      pop\n        /* \"#utility.yul\":22471:22537   */\n      0xffffffffffffffffffffffffffffffffffffffffffffffffffffffffffffffff\n        /* \"#utility.yul\":22464:22469   */\n      dup3\n        /* \"#utility.yul\":22461:22538   */\n      sub\n        /* \"#utility.yul\":22458:22561   */\n      tag_512\n      jumpi\n        /* \"#utility.yul\":22541:22559   */\n      tag_513\n      tag_222\n      jump\t// in\n    tag_513:\n        /* \"#utility.yul\":22458:22561   */\n    tag_512:\n        /* \"#utility.yul\":22588:22589   */\n      0x01\n        /* \"#utility.yul\":22581:22586   */\n      dup3\n        /* \"#utility.yul\":22577:22590   */\n      add\n        /* \"#utility.yul\":22570:22590   */\n      swap1\n      pop\n        /* \"#utility.yul\":22363:22596   */\n      swap2\n      swap1\n      pop\n      jump\t// out\n        /* \"#utility.yul\":22602:22772   */\n    tag_279:\n        /* \"#utility.yul\":22742:22764   */\n      0x596f7520646f6e277420686176652066756e6473000000000000000000000000\n        /* \"#utility.yul\":22738:22739   */\n      0x00\n        /* \"#utility.yul\":22730:22736   */\n      dup3\n        /* \"#utility.yul\":22726:22740   */\n      add\n        /* \"#utility.yul\":22719:22765   */\n      mstore\n        /* \"#utility.yul\":22602:22772   */\n      pop\n      jump\t// out\n        /* \"#utility.yul\":22778:23144   */\n    tag_280:\n        /* \"#utility.yul\":22920:22923   */\n      0x00\n        /* \"#utility.yul\":22941:23008   */\n      tag_516\n        /* \"#utility.yul\":23005:23007   */\n      0x14\n        /* \"#utility.yul\":23000:23003   */\n      dup4\n        /* \"#utility.yul\":22941:23008   */\n      tag_241\n      jump\t// in\n    tag_516:\n        /* \"#utility.yul\":22934:23008   */\n      swap2\n      pop\n        /* \"#utility.yul\":23017:23110   */\n      tag_517\n        /* \"#utility.yul\":23106:23109   */\n      dup3\n        /* \"#utility.yul\":23017:23110   */\n      tag_279\n      jump\t// in\n    tag_517:\n        /* \"#utility.yul\":23135:23137   */\n      0x20\n        /* \"#utility.yul\":23130:23133   */\n      dup3\n        /* \"#utility.yul\":23126:23138   */\n      add\n        /* \"#utility.yul\":23119:23138   */\n      swap1\n      pop\n        /* \"#utility.yul\":22778:23144   */\n      swap2\n      swap1\n      pop\n      jump\t// out\n        /* \"#utility.yul\":23150:23569   */\n    tag_145:\n        /* \"#utility.yul\":23316:23320   */\n      0x00\n        /* \"#utility.yul\":23354:23356   */\n      0x20\n        /* \"#utility.yul\":23343:23352   */\n      dup3\n        /* \"#utility.yul\":23339:23357   */\n      add\n        /* \"#utility.yul\":23331:23357   */\n      swap1\n      pop\n        /* \"#utility.yul\":23403:23412   */\n      dup2\n        /* \"#utility.yul\":23397:23401   */\n      dup2\n        /* \"#utility.yul\":23393:23413   */\n      sub\n        /* \"#utility.yul\":23389:23390   */\n      0x00\n        /* \"#utility.yul\":23378:23387   */\n      dup4\n        /* \"#utility.yul\":23374:23391   */\n      add\n        /* \"#utility.yul\":23367:23414   */\n      mstore\n        /* \"#utility.yul\":23431:23562   */\n      tag_519\n        /* \"#utility.yul\":23557:23561   */\n      dup2\n        /* \"#utility.yul\":23431:23562   */\n      tag_280\n      jump\t// in\n    tag_519:\n        /* \"#utility.yul\":23423:23562   */\n      swap1\n      pop\n        /* \"#utility.yul\":23150:23569   */\n      swap2\n      swap1\n      pop\n      jump\t// out\n        /* \"#utility.yul\":23575:23808   */\n    tag_281:\n        /* \"#utility.yul\":23715:23749   */\n      0x4d616b65207375726520746f2073656e642074686520726967687420616d6f75\n        /* \"#utility.yul\":23711:23712   */\n      0x00\n        /* \"#utility.yul\":23703:23709   */\n      dup3\n        /* \"#utility.yul\":23699:23713   */\n      add\n        /* \"#utility.yul\":23692:23750   */\n      mstore\n        /* \"#utility.yul\":23784:23800   */\n      0x6e74206f66206574686572203a20000000000000000000000000000000000000\n        /* \"#utility.yul\":23779:23781   */\n      0x20\n        /* \"#utility.yul\":23771:23777   */\n      dup3\n        /* \"#utility.yul\":23767:23782   */\n      add\n        /* \"#utility.yul\":23760:23801   */\n      mstore\n        /* \"#utility.yul\":23575:23808   */\n      pop\n      jump\t// out\n        /* \"#utility.yul\":23814:24216   */\n    tag_282:\n        /* \"#utility.yul\":23974:23977   */\n      0x00\n        /* \"#utility.yul\":23995:24080   */\n      tag_522\n        /* \"#utility.yul\":24077:24079   */\n      0x2e\n        /* \"#utility.yul\":24072:24075   */\n      dup4\n        /* \"#utility.yul\":23995:24080   */\n      tag_270\n      jump\t// in\n    tag_522:\n        /* \"#utility.yul\":23988:24080   */\n      swap2\n      pop\n        /* \"#utility.yul\":24089:24182   */\n      tag_523\n        /* \"#utility.yul\":24178:24181   */\n      dup3\n        /* \"#utility.yul\":24089:24182   */\n      tag_281\n      jump\t// in\n    tag_523:\n        /* \"#utility.yul\":24207:24209   */\n      0x2e\n        /* \"#utility.yul\":24202:24205   */\n      dup3\n        /* \"#utility.yul\":24198:24210   */\n      add\n        /* \"#utility.yul\":24191:24210   */\n      swap1\n      pop\n        /* \"#utility.yul\":23814:24216   */\n      swap2\n      swap1\n      pop\n      jump\t// out\n        /* \"#utility.yul\":24222:24612   */\n    tag_283:\n        /* \"#utility.yul\":24328:24331   */\n      0x00\n        /* \"#utility.yul\":24356:24395   */\n      tag_525\n        /* \"#utility.yul\":24389:24394   */\n      dup3\n        /* \"#utility.yul\":24356:24395   */\n      tag_240\n      jump\t// in\n    tag_525:\n        /* \"#utility.yul\":24411:24500   */\n      tag_526\n        /* \"#utility.yul\":24493:24499   */\n      dup2\n        /* \"#utility.yul\":24488:24491   */\n      dup6\n        /* \"#utility.yul\":24411:24500   */\n      tag_270\n      jump\t// in\n    tag_526:\n        /* \"#utility.yul\":24404:24500   */\n      swap4\n      pop\n        /* \"#utility.yul\":24509:24574   */\n      tag_527\n        /* \"#utility.yul\":24567:24573   */\n      dup2\n        /* \"#utility.yul\":24562:24565   */\n      dup6\n        /* \"#utility.yul\":24555:24559   */\n      0x20\n        /* \"#utility.yul\":24548:24553   */\n      dup7\n        /* \"#utility.yul\":24544:24560   */\n      add\n        /* \"#utility.yul\":24509:24574   */\n      tag_242\n      jump\t// in\n    tag_527:\n        /* \"#utility.yul\":24599:24605   */\n      dup1\n        /* \"#utility.yul\":24594:24597   */\n      dup5\n        /* \"#utility.yul\":24590:24606   */\n      add\n        /* \"#utility.yul\":24583:24606   */\n      swap2\n      pop\n        /* \"#utility.yul\":24332:24612   */\n      pop\n        /* \"#utility.yul\":24222:24612   */\n      swap3\n      swap2\n      pop\n      pop\n      jump\t// out\n        /* \"#utility.yul\":24618:24801   */\n    tag_284:\n        /* \"#utility.yul\":24786:24794   */\n      0x2065746865720000000000000000000000000000000000000000000000000000\n        /* \"#utility.yul\":24781:24784   */\n      dup2\n        /* \"#utility.yul\":24774:24795   */\n      mstore\n        /* \"#utility.yul\":24618:24801   */\n      pop\n      jump\t// out\n        /* \"#utility.yul\":24807:25612   */\n    tag_160:\n        /* \"#utility.yul\":25130:25133   */\n      0x00\n        /* \"#utility.yul\":25152:25300   */\n      tag_530\n        /* \"#utility.yul\":25296:25299   */\n      dup3\n        /* \"#utility.yul\":25152:25300   */\n      tag_282\n      jump\t// in\n    tag_530:\n        /* \"#utility.yul\":25145:25300   */\n      swap2\n      pop\n        /* \"#utility.yul\":25317:25412   */\n      tag_531\n        /* \"#utility.yul\":25408:25411   */\n      dup3\n        /* \"#utility.yul\":25399:25405   */\n      dup5\n        /* \"#utility.yul\":25317:25412   */\n      tag_283\n      jump\t// in\n    tag_531:\n        /* \"#utility.yul\":25310:25412   */\n      swap2\n      pop\n        /* \"#utility.yul\":25422:25559   */\n      tag_532\n        /* \"#utility.yul\":25555:25558   */\n      dup3\n        /* \"#utility.yul\":25422:25559   */\n      tag_284\n      jump\t// in\n    tag_532:\n        /* \"#utility.yul\":25584:25585   */\n      0x06\n        /* \"#utility.yul\":25579:25582   */\n      dup3\n        /* \"#utility.yul\":25575:25586   */\n      add\n        /* \"#utility.yul\":25568:25586   */\n      swap2\n      pop\n        /* \"#utility.yul\":25603:25606   */\n      dup2\n        /* \"#utility.yul\":25596:25606   */\n      swap1\n      pop\n        /* \"#utility.yul\":24807:25612   */\n      swap3\n      swap2\n      pop\n      pop\n      jump\t// out\n        /* \"#utility.yul\":25618:25840   */\n    tag_285:\n        /* \"#utility.yul\":25758:25792   */\n      0x54686520616d6f756e742073686f756c64206265206772656174657220746861\n        /* \"#utility.yul\":25754:25755   */\n      0x00\n        /* \"#utility.yul\":25746:25752   */\n      dup3\n        /* \"#utility.yul\":25742:25756   */\n      add\n        /* \"#utility.yul\":25735:25793   */\n      mstore\n        /* \"#utility.yul\":25827:25832   */\n      0x6e20300000000000000000000000000000000000000000000000000000000000\n        /* \"#utility.yul\":25822:25824   */\n      0x20\n        /* \"#utility.yul\":25814:25820   */\n      dup3\n        /* \"#utility.yul\":25810:25825   */\n      add\n        /* \"#utility.yul\":25803:25833   */\n      mstore\n        /* \"#utility.yul\":25618:25840   */\n      pop\n      jump\t// out\n        /* \"#utility.yul\":25846:26212   */\n    tag_286:\n        /* \"#utility.yul\":25988:25991   */\n      0x00\n        /* \"#utility.yul\":26009:26076   */\n      tag_535\n        /* \"#utility.yul\":26073:26075   */\n      0x23\n        /* \"#utility.yul\":26068:26071   */\n      dup4\n        /* \"#utility.yul\":26009:26076   */\n      tag_241\n      jump\t// in\n    tag_535:\n        /* \"#utility.yul\":26002:26076   */\n      swap2\n      pop\n        /* \"#utility.yul\":26085:26178   */\n      tag_536\n        /* \"#utility.yul\":26174:26177   */\n      dup3\n        /* \"#utility.yul\":26085:26178   */\n      tag_285\n      jump\t// in\n    tag_536:\n        /* \"#utility.yul\":26203:26205   */\n      0x40\n        /* \"#utility.yul\":26198:26201   */\n      dup3\n        /* \"#utility.yul\":26194:26206   */\n      add\n        /* \"#utility.yul\":26187:26206   */\n      swap1\n      pop\n        /* \"#utility.yul\":25846:26212   */\n      swap2\n      swap1\n      pop\n      jump\t// out\n        /* \"#utility.yul\":26218:26637   */\n    tag_172:\n        /* \"#utility.yul\":26384:26388   */\n      0x00\n        /* \"#utility.yul\":26422:26424   */\n      0x20\n        /* \"#utility.yul\":26411:26420   */\n      dup3\n        /* \"#utility.yul\":26407:26425   */\n      add\n        /* \"#utility.yul\":26399:26425   */\n      swap1\n      pop\n        /* \"#utility.yul\":26471:26480   */\n      dup2\n        /* \"#utility.yul\":26465:26469   */\n      dup2\n        /* \"#utility.yul\":26461:26481   */\n      sub\n        /* \"#utility.yul\":26457:26458   */\n      0x00\n        /* \"#utility.yul\":26446:26455   */\n      dup4\n        /* \"#utility.yul\":26442:26459   */\n      add\n        /* \"#utility.yul\":26435:26482   */\n      mstore\n        /* \"#utility.yul\":26499:26630   */\n      tag_538\n        /* \"#utility.yul\":26625:26629   */\n      dup2\n        /* \"#utility.yul\":26499:26630   */\n      tag_286\n      jump\t// in\n    tag_538:\n        /* \"#utility.yul\":26491:26630   */\n      swap1\n      pop\n        /* \"#utility.yul\":26218:26637   */\n      swap2\n      swap1\n      pop\n      jump\t// out\n        /* \"#utility.yul\":26643:26736   */\n    tag_287:\n        /* \"#utility.yul\":26680:26686   */\n      0x00\n        /* \"#utility.yul\":26727:26729   */\n      0x20\n        /* \"#utility.yul\":26722:26724   */\n      0x1f\n        /* \"#utility.yul\":26715:26720   */\n      dup4\n        /* \"#utility.yul\":26711:26725   */\n      add\n        /* \"#utility.yul\":26707:26730   */\n      div\n        /* \"#utility.yul\":26697:26730   */\n      swap1\n      pop\n        /* \"#utility.yul\":26643:26736   */\n      swap2\n      swap1\n      pop\n      jump\t// out\n        /* \"#utility.yul\":26742:26849   */\n    tag_288:\n        /* \"#utility.yul\":26786:26794   */\n      0x00\n        /* \"#utility.yul\":26836:26841   */\n      dup3\n        /* \"#utility.yul\":26830:26834   */\n      dup3\n        /* \"#utility.yul\":26826:26842   */\n      shl\n        /* \"#utility.yul\":26805:26842   */\n      swap1\n      pop\n        /* \"#utility.yul\":26742:26849   */\n      swap3\n      swap2\n      pop\n      pop\n      jump\t// out\n        /* \"#utility.yul\":26855:27248   */\n    tag_289:\n        /* \"#utility.yul\":26924:26930   */\n      0x00\n        /* \"#utility.yul\":26974:26975   */\n      0x08\n        /* \"#utility.yul\":26962:26972   */\n      dup4\n        /* \"#utility.yul\":26958:26976   */\n      mul\n        /* \"#utility.yul\":26997:27094   */\n      tag_542\n        /* \"#utility.yul\":27027:27093   */\n      0xffffffffffffffffffffffffffffffffffffffffffffffffffffffffffffffff\n        /* \"#utility.yul\":27016:27025   */\n      dup3\n        /* \"#utility.yul\":26997:27094   */\n      tag_288\n      jump\t// in\n    tag_542:\n        /* \"#utility.yul\":27115:27154   */\n      tag_543\n        /* \"#utility.yul\":27145:27153   */\n      dup7\n        /* \"#utility.yul\":27134:27143   */\n      dup4\n        /* \"#utility.yul\":27115:27154   */\n      tag_288\n      jump\t// in\n    tag_543:\n        /* \"#utility.yul\":27103:27154   */\n      swap6\n      pop\n        /* \"#utility.yul\":27187:27191   */\n      dup1\n        /* \"#utility.yul\":27183:27192   */\n      not\n        /* \"#utility.yul\":27176:27181   */\n      dup5\n        /* \"#utility.yul\":27172:27193   */\n      and\n        /* \"#utility.yul\":27163:27193   */\n      swap4\n      pop\n        /* \"#utility.yul\":27236:27240   */\n      dup1\n        /* \"#utility.yul\":27226:27234   */\n      dup7\n        /* \"#utility.yul\":27222:27241   */\n      and\n        /* \"#utility.yul\":27215:27220   */\n      dup5\n        /* \"#utility.yul\":27212:27242   */\n      or\n        /* \"#utility.yul\":27202:27242   */\n      swap3\n      pop\n        /* \"#utility.yul\":26931:27248   */\n      pop\n      pop\n        /* \"#utility.yul\":26855:27248   */\n      swap4\n      swap3\n      pop\n      pop\n      pop\n      jump\t// out\n        /* \"#utility.yul\":27254:27314   */\n    tag_290:\n        /* \"#utility.yul\":27282:27285   */\n      0x00\n        /* \"#utility.yul\":27303:27308   */\n      dup2\n        /* \"#utility.yul\":27296:27308   */\n      swap1\n      pop\n        /* \"#utility.yul\":27254:27314   */\n      swap2\n      swap1\n      pop\n      jump\t// out\n        /* \"#utility.yul\":27320:27462   */\n    tag_291:\n        /* \"#utility.yul\":27370:27379   */\n      0x00\n        /* \"#utility.yul\":27403:27456   */\n      tag_546\n        /* \"#utility.yul\":27421:27455   */\n      tag_547\n        /* \"#utility.yul\":27430:27454   */\n      tag_548\n        /* \"#utility.yul\":27448:27453   */\n      dup5\n        /* \"#utility.yul\":27430:27454   */\n      tag_221\n      jump\t// in\n    tag_548:\n        /* \"#utility.yul\":27421:27455   */\n      tag_290\n      jump\t// in\n    tag_547:\n        /* \"#utility.yul\":27403:27456   */\n      tag_221\n      jump\t// in\n    tag_546:\n        /* \"#utility.yul\":27390:27456   */\n      swap1\n      pop\n        /* \"#utility.yul\":27320:27462   */\n      swap2\n      swap1\n      pop\n      jump\t// out\n        /* \"#utility.yul\":27468:27543   */\n    tag_292:\n        /* \"#utility.yul\":27511:27514   */\n      0x00\n        /* \"#utility.yul\":27532:27537   */\n      dup2\n        /* \"#utility.yul\":27525:27537   */\n      swap1\n      pop\n        /* \"#utility.yul\":27468:27543   */\n      swap2\n      swap1\n      pop\n      jump\t// out\n        /* \"#utility.yul\":27549:27818   */\n    tag_293:\n        /* \"#utility.yul\":27659:27698   */\n      tag_551\n        /* \"#utility.yul\":27690:27697   */\n      dup4\n        /* \"#utility.yul\":27659:27698   */\n      tag_291\n      jump\t// in\n    tag_551:\n        /* \"#utility.yul\":27720:27811   */\n      tag_552\n        /* \"#utility.yul\":27769:27810   */\n      tag_553\n        /* \"#utility.yul\":27793:27809   */\n      dup3\n        /* \"#utility.yul\":27769:27810   */\n      tag_292\n      jump\t// in\n    tag_553:\n        /* \"#utility.yul\":27761:27767   */\n      dup5\n        /* \"#utility.yul\":27754:27758   */\n      dup5\n        /* \"#utility.yul\":27748:27759   */\n      sload\n        /* \"#utility.yul\":27720:27811   */\n      tag_289\n      jump\t// in\n    tag_552:\n        /* \"#utility.yul\":27714:27718   */\n      dup3\n        /* \"#utility.yul\":27707:27812   */\n      sstore\n        /* \"#utility.yul\":27625:27818   */\n      pop\n        /* \"#utility.yul\":27549:27818   */\n      pop\n      pop\n      pop\n      jump\t// out\n        /* \"#utility.yul\":27824:27897   */\n    tag_294:\n        /* \"#utility.yul\":27869:27872   */\n      0x00\n        /* \"#utility.yul\":27824:27897   */\n      swap1\n      jump\t// out\n        /* \"#utility.yul\":27903:28092   */\n    tag_295:\n        /* \"#utility.yul\":27980:28012   */\n      tag_556\n      tag_294\n      jump\t// in\n    tag_556:\n        /* \"#utility.yul\":28021:28086   */\n      tag_557\n        /* \"#utility.yul\":28079:28085   */\n      dup2\n        /* \"#utility.yul\":28071:28077   */\n      dup5\n        /* \"#utility.yul\":28065:28069   */\n      dup5\n        /* \"#utility.yul\":28021:28086   */\n      tag_293\n      jump\t// in\n    tag_557:\n        /* \"#utility.yul\":27956:28092   */\n      pop\n        /* \"#utility.yul\":27903:28092   */\n      pop\n      pop\n      jump\t// out\n        /* \"#utility.yul\":28098:28284   */\n    tag_296:\n        /* \"#utility.yul\":28158:28278   */\n    tag_559:\n        /* \"#utility.yul\":28175:28178   */\n      dup2\n        /* \"#utility.yul\":28168:28173   */\n      dup2\n        /* \"#utility.yul\":28165:28179   */\n      lt\n        /* \"#utility.yul\":28158:28278   */\n      iszero\n      tag_561\n      jumpi\n        /* \"#utility.yul\":28229:28268   */\n      tag_562\n        /* \"#utility.yul\":28266:28267   */\n      0x00\n        /* \"#utility.yul\":28259:28264   */\n      dup3\n        /* \"#utility.yul\":28229:28268   */\n      tag_295\n      jump\t// in\n    tag_562:\n        /* \"#utility.yul\":28202:28203   */\n      0x01\n        /* \"#utility.yul\":28195:28200   */\n      dup2\n        /* \"#utility.yul\":28191:28204   */\n      add\n        /* \"#utility.yul\":28182:28204   */\n      swap1\n      pop\n        /* \"#utility.yul\":28158:28278   */\n      jump(tag_559)\n    tag_561:\n        /* \"#utility.yul\":28098:28284   */\n      pop\n      pop\n      jump\t// out\n        /* \"#utility.yul\":28290:28833   */\n    tag_297:\n        /* \"#utility.yul\":28391:28393   */\n      0x1f\n        /* \"#utility.yul\":28386:28389   */\n      dup3\n        /* \"#utility.yul\":28383:28394   */\n      gt\n        /* \"#utility.yul\":28380:28826   */\n      iszero\n      tag_564\n      jumpi\n        /* \"#utility.yul\":28425:28463   */\n      tag_565\n        /* \"#utility.yul\":28457:28462   */\n      dup2\n        /* \"#utility.yul\":28425:28463   */\n      tag_271\n      jump\t// in\n    tag_565:\n        /* \"#utility.yul\":28509:28538   */\n      tag_566\n        /* \"#utility.yul\":28527:28537   */\n      dup5\n        /* \"#utility.yul\":28509:28538   */\n      tag_287\n      jump\t// in\n    tag_566:\n        /* \"#utility.yul\":28499:28507   */\n      dup2\n        /* \"#utility.yul\":28495:28539   */\n      add\n        /* \"#utility.yul\":28692:28694   */\n      0x20\n        /* \"#utility.yul\":28680:28690   */\n      dup6\n        /* \"#utility.yul\":28677:28695   */\n      lt\n        /* \"#utility.yul\":28674:28723   */\n      iszero\n      tag_567\n      jumpi\n        /* \"#utility.yul\":28713:28721   */\n      dup2\n        /* \"#utility.yul\":28698:28721   */\n      swap1\n      pop\n        /* \"#utility.yul\":28674:28723   */\n    tag_567:\n        /* \"#utility.yul\":28736:28816   */\n      tag_568\n        /* \"#utility.yul\":28792:28814   */\n      tag_569\n        /* \"#utility.yul\":28810:28813   */\n      dup6\n        /* \"#utility.yul\":28792:28814   */\n      tag_287\n      jump\t// in\n    tag_569:\n        /* \"#utility.yul\":28782:28790   */\n      dup4\n        /* \"#utility.yul\":28778:28815   */\n      add\n        /* \"#utility.yul\":28765:28776   */\n      dup3\n        /* \"#utility.yul\":28736:28816   */\n      tag_296\n      jump\t// in\n    tag_568:\n        /* \"#utility.yul\":28395:28826   */\n      pop\n      pop\n        /* \"#utility.yul\":28380:28826   */\n    tag_564:\n        /* \"#utility.yul\":28290:28833   */\n      pop\n      pop\n      pop\n      jump\t// out\n        /* \"#utility.yul\":28839:28956   */\n    tag_298:\n        /* \"#utility.yul\":28893:28901   */\n      0x00\n        /* \"#utility.yul\":28943:28948   */\n      dup3\n        /* \"#utility.yul\":28937:28941   */\n      dup3\n        /* \"#utility.yul\":28933:28949   */\n      shr\n        /* \"#utility.yul\":28912:28949   */\n      swap1\n      pop\n        /* \"#utility.yul\":28839:28956   */\n      swap3\n      swap2\n      pop\n      pop\n      jump\t// out\n        /* \"#utility.yul\":28962:29131   */\n    tag_299:\n        /* \"#utility.yul\":29006:29012   */\n      0x00\n        /* \"#utility.yul\":29039:29090   */\n      tag_572\n        /* \"#utility.yul\":29087:29088   */\n      0x00\n        /* \"#utility.yul\":29083:29089   */\n      not\n        /* \"#utility.yul\":29075:29080   */\n      dup5\n        /* \"#utility.yul\":29072:29073   */\n      0x08\n        /* \"#utility.yul\":29068:29081   */\n      mul\n        /* \"#utility.yul\":29039:29090   */\n      tag_298\n      jump\t// in\n    tag_572:\n        /* \"#utility.yul\":29035:29091   */\n      not\n        /* \"#utility.yul\":29120:29124   */\n      dup1\n        /* \"#utility.yul\":29114:29118   */\n      dup4\n        /* \"#utility.yul\":29110:29125   */\n      and\n        /* \"#utility.yul\":29100:29125   */\n      swap2\n      pop\n        /* \"#utility.yul\":29013:29131   */\n      pop\n        /* \"#utility.yul\":28962:29131   */\n      swap3\n      swap2\n      pop\n      pop\n      jump\t// out\n        /* \"#utility.yul\":29136:29431   */\n    tag_300:\n        /* \"#utility.yul\":29212:29216   */\n      0x00\n        /* \"#utility.yul\":29358:29387   */\n      tag_574\n        /* \"#utility.yul\":29383:29386   */\n      dup4\n        /* \"#utility.yul\":29377:29381   */\n      dup4\n        /* \"#utility.yul\":29358:29387   */\n      tag_299\n      jump\t// in\n    tag_574:\n        /* \"#utility.yul\":29350:29387   */\n      swap2\n      pop\n        /* \"#utility.yul\":29420:29423   */\n      dup3\n        /* \"#utility.yul\":29417:29418   */\n      0x02\n        /* \"#utility.yul\":29413:29424   */\n      mul\n        /* \"#utility.yul\":29407:29411   */\n      dup3\n        /* \"#utility.yul\":29404:29425   */\n      or\n        /* \"#utility.yul\":29396:29425   */\n      swap1\n      pop\n        /* \"#utility.yul\":29136:29431   */\n      swap3\n      swap2\n      pop\n      pop\n      jump\t// out\n        /* \"#utility.yul\":29436:30831   */\n    tag_175:\n        /* \"#utility.yul\":29553:29590   */\n      tag_576\n        /* \"#utility.yul\":29586:29589   */\n      dup3\n        /* \"#utility.yul\":29553:29590   */\n      tag_240\n      jump\t// in\n    tag_576:\n        /* \"#utility.yul\":29655:29673   */\n      0xffffffffffffffff\n        /* \"#utility.yul\":29647:29653   */\n      dup2\n        /* \"#utility.yul\":29644:29674   */\n      gt\n        /* \"#utility.yul\":29641:29697   */\n      iszero\n      tag_577\n      jumpi\n        /* \"#utility.yul\":29677:29695   */\n      tag_578\n      tag_193\n      jump\t// in\n    tag_578:\n        /* \"#utility.yul\":29641:29697   */\n    tag_577:\n        /* \"#utility.yul\":29721:29759   */\n      tag_579\n        /* \"#utility.yul\":29753:29757   */\n      dup3\n        /* \"#utility.yul\":29747:29758   */\n      sload\n        /* \"#utility.yul\":29721:29759   */\n      tag_269\n      jump\t// in\n    tag_579:\n        /* \"#utility.yul\":29806:29873   */\n      tag_580\n        /* \"#utility.yul\":29866:29872   */\n      dup3\n        /* \"#utility.yul\":29858:29864   */\n      dup3\n        /* \"#utility.yul\":29852:29856   */\n      dup6\n        /* \"#utility.yul\":29806:29873   */\n      tag_297\n      jump\t// in\n    tag_580:\n        /* \"#utility.yul\":29900:29901   */\n      0x00\n        /* \"#utility.yul\":29924:29928   */\n      0x20\n        /* \"#utility.yul\":29911:29928   */\n      swap1\n      pop\n        /* \"#utility.yul\":29956:29958   */\n      0x1f\n        /* \"#utility.yul\":29948:29954   */\n      dup4\n        /* \"#utility.yul\":29945:29959   */\n      gt\n        /* \"#utility.yul\":29973:29974   */\n      0x01\n        /* \"#utility.yul\":29968:30586   */\n      dup2\n      eq\n      tag_582\n      jumpi\n        /* \"#utility.yul\":30630:30631   */\n      0x00\n        /* \"#utility.yul\":30647:30653   */\n      dup5\n        /* \"#utility.yul\":30644:30721   */\n      iszero\n      tag_583\n      jumpi\n        /* \"#utility.yul\":30696:30705   */\n      dup3\n        /* \"#utility.yul\":30691:30694   */\n      dup8\n        /* \"#utility.yul\":30687:30706   */\n      add\n        /* \"#utility.yul\":30681:30707   */\n      mload\n        /* \"#utility.yul\":30672:30707   */\n      swap1\n      pop\n        /* \"#utility.yul\":30644:30721   */\n    tag_583:\n        /* \"#utility.yul\":30747:30814   */\n      tag_584\n        /* \"#utility.yul\":30807:30813   */\n      dup6\n        /* \"#utility.yul\":30800:30805   */\n      dup3\n        /* \"#utility.yul\":30747:30814   */\n      tag_300\n      jump\t// in\n    tag_584:\n        /* \"#utility.yul\":30741:30745   */\n      dup7\n        /* \"#utility.yul\":30734:30815   */\n      sstore\n        /* \"#utility.yul\":30603:30825   */\n      pop\n        /* \"#utility.yul\":29938:30825   */\n      jump(tag_581)\n        /* \"#utility.yul\":29968:30586   */\n    tag_582:\n        /* \"#utility.yul\":30020:30024   */\n      0x1f\n        /* \"#utility.yul\":30016:30025   */\n      not\n        /* \"#utility.yul\":30008:30014   */\n      dup5\n        /* \"#utility.yul\":30004:30026   */\n      and\n        /* \"#utility.yul\":30054:30091   */\n      tag_585\n        /* \"#utility.yul\":30086:30090   */\n      dup7\n        /* \"#utility.yul\":30054:30091   */\n      tag_271\n      jump\t// in\n    tag_585:\n        /* \"#utility.yul\":30113:30114   */\n      0x00\n        /* \"#utility.yul\":30127:30335   */\n    tag_586:\n        /* \"#utility.yul\":30141:30148   */\n      dup3\n        /* \"#utility.yul\":30138:30139   */\n      dup2\n        /* \"#utility.yul\":30135:30149   */\n      lt\n        /* \"#utility.yul\":30127:30335   */\n      iszero\n      tag_588\n      jumpi\n        /* \"#utility.yul\":30220:30229   */\n      dup5\n        /* \"#utility.yul\":30215:30218   */\n      dup10\n        /* \"#utility.yul\":30211:30230   */\n      add\n        /* \"#utility.yul\":30205:30231   */\n      mload\n        /* \"#utility.yul\":30197:30203   */\n      dup3\n        /* \"#utility.yul\":30190:30232   */\n      sstore\n        /* \"#utility.yul\":30271:30272   */\n      0x01\n        /* \"#utility.yul\":30263:30269   */\n      dup3\n        /* \"#utility.yul\":30259:30273   */\n      add\n        /* \"#utility.yul\":30249:30273   */\n      swap2\n      pop\n        /* \"#utility.yul\":30318:30320   */\n      0x20\n        /* \"#utility.yul\":30307:30316   */\n      dup6\n        /* \"#utility.yul\":30303:30321   */\n      add\n        /* \"#utility.yul\":30290:30321   */\n      swap5\n      pop\n        /* \"#utility.yul\":30164:30168   */\n      0x20\n        /* \"#utility.yul\":30161:30162   */\n      dup2\n        /* \"#utility.yul\":30157:30169   */\n      add\n        /* \"#utility.yul\":30152:30169   */\n      swap1\n      pop\n        /* \"#utility.yul\":30127:30335   */\n      jump(tag_586)\n    tag_588:\n        /* \"#utility.yul\":30363:30369   */\n      dup7\n        /* \"#utility.yul\":30354:30361   */\n      dup4\n        /* \"#utility.yul\":30351:30370   */\n      lt\n        /* \"#utility.yul\":30348:30527   */\n      iszero\n      tag_589\n      jumpi\n        /* \"#utility.yul\":30421:30430   */\n      dup5\n        /* \"#utility.yul\":30416:30419   */\n      dup10\n        /* \"#utility.yul\":30412:30431   */\n      add\n        /* \"#utility.yul\":30406:30432   */\n      mload\n        /* \"#utility.yul\":30464:30512   */\n      tag_590\n        /* \"#utility.yul\":30506:30510   */\n      0x1f\n        /* \"#utility.yul\":30498:30504   */\n      dup10\n        /* \"#utility.yul\":30494:30511   */\n      and\n        /* \"#utility.yul\":30483:30492   */\n      dup3\n        /* \"#utility.yul\":30464:30512   */\n      tag_299\n      jump\t// in\n    tag_590:\n        /* \"#utility.yul\":30456:30462   */\n      dup4\n        /* \"#utility.yul\":30449:30513   */\n      sstore\n        /* \"#utility.yul\":30371:30527   */\n      pop\n        /* \"#utility.yul\":30348:30527   */\n    tag_589:\n        /* \"#utility.yul\":30573:30574   */\n      0x01\n        /* \"#utility.yul\":30569:30570   */\n      0x02\n        /* \"#utility.yul\":30561:30567   */\n      dup9\n        /* \"#utility.yul\":30557:30571   */\n      mul\n        /* \"#utility.yul\":30553:30575   */\n      add\n        /* \"#utility.yul\":30547:30551   */\n      dup9\n        /* \"#utility.yul\":30540:30576   */\n      sstore\n        /* \"#utility.yul\":29975:30586   */\n      pop\n      pop\n      pop\n        /* \"#utility.yul\":29938:30825   */\n    tag_581:\n      pop\n        /* \"#utility.yul\":29528:30831   */\n      pop\n      pop\n      pop\n        /* \"#utility.yul\":29436:30831   */\n      pop\n      pop\n      jump\t// out\n        /* \"#utility.yul\":30837:31031   */\n    tag_181:\n        /* \"#utility.yul\":30877:30881   */\n      0x00\n        /* \"#utility.yul\":30897:30917   */\n      tag_592\n        /* \"#utility.yul\":30915:30916   */\n      dup3\n        /* \"#utility.yul\":30897:30917   */\n      tag_221\n      jump\t// in\n    tag_592:\n        /* \"#utility.yul\":30892:30917   */\n      swap2\n      pop\n        /* \"#utility.yul\":30931:30951   */\n      tag_593\n        /* \"#utility.yul\":30949:30950   */\n      dup4\n        /* \"#utility.yul\":30931:30951   */\n      tag_221\n      jump\t// in\n    tag_593:\n        /* \"#utility.yul\":30926:30951   */\n      swap3\n      pop\n        /* \"#utility.yul\":30975:30976   */\n      dup3\n        /* \"#utility.yul\":30972:30973   */\n      dup3\n        /* \"#utility.yul\":30968:30977   */\n      sub\n        /* \"#utility.yul\":30960:30977   */\n      swap1\n      pop\n        /* \"#utility.yul\":30999:31000   */\n      dup2\n        /* \"#utility.yul\":30993:30997   */\n      dup2\n        /* \"#utility.yul\":30990:31001   */\n      gt\n        /* \"#utility.yul\":30987:31024   */\n      iszero\n      tag_594\n      jumpi\n        /* \"#utility.yul\":31004:31022   */\n      tag_595\n      tag_222\n      jump\t// in\n    tag_595:\n        /* \"#utility.yul\":30987:31024   */\n    tag_594:\n        /* \"#utility.yul\":30837:31031   */\n      swap3\n      swap2\n      pop\n      pop\n      jump\t// out\n        /* \"#utility.yul\":31037:31116   */\n    tag_301:\n        /* \"#utility.yul\":31076:31083   */\n      0x00\n        /* \"#utility.yul\":31105:31110   */\n      dup2\n        /* \"#utility.yul\":31094:31110   */\n      swap1\n      pop\n        /* \"#utility.yul\":31037:31116   */\n      swap2\n      swap1\n      pop\n      jump\t// out\n        /* \"#utility.yul\":31122:31279   */\n    tag_302:\n        /* \"#utility.yul\":31227:31272   */\n      tag_598\n        /* \"#utility.yul\":31247:31271   */\n      tag_599\n        /* \"#utility.yul\":31265:31270   */\n      dup3\n        /* \"#utility.yul\":31247:31271   */\n      tag_221\n      jump\t// in\n    tag_599:\n        /* \"#utility.yul\":31227:31272   */\n      tag_301\n      jump\t// in\n    tag_598:\n        /* \"#utility.yul\":31222:31225   */\n      dup3\n        /* \"#utility.yul\":31215:31273   */\n      mstore\n        /* \"#utility.yul\":31122:31279   */\n      pop\n      pop\n      jump\t// out\n        /* \"#utility.yul\":31285:31379   */\n    tag_303:\n        /* \"#utility.yul\":31318:31326   */\n      0x00\n        /* \"#utility.yul\":31366:31371   */\n      dup2\n        /* \"#utility.yul\":31362:31364   */\n      0x60\n        /* \"#utility.yul\":31358:31372   */\n      shl\n        /* \"#utility.yul\":31337:31372   */\n      swap1\n      pop\n        /* \"#utility.yul\":31285:31379   */\n      swap2\n      swap1\n      pop\n      jump\t// out\n        /* \"#utility.yul\":31385:31479   */\n    tag_304:\n        /* \"#utility.yul\":31424:31431   */\n      0x00\n        /* \"#utility.yul\":31453:31473   */\n      tag_602\n        /* \"#utility.yul\":31467:31472   */\n      dup3\n        /* \"#utility.yul\":31453:31473   */\n      tag_303\n      jump\t// in\n    tag_602:\n        /* \"#utility.yul\":31442:31473   */\n      swap1\n      pop\n        /* \"#utility.yul\":31385:31479   */\n      swap2\n      swap1\n      pop\n      jump\t// out\n        /* \"#utility.yul\":31485:31585   */\n    tag_305:\n        /* \"#utility.yul\":31524:31531   */\n      0x00\n        /* \"#utility.yul\":31553:31579   */\n      tag_604\n        /* \"#utility.yul\":31573:31578   */\n      dup3\n        /* \"#utility.yul\":31553:31579   */\n      tag_304\n      jump\t// in\n    tag_604:\n        /* \"#utility.yul\":31542:31579   */\n      swap1\n      pop\n        /* \"#utility.yul\":31485:31585   */\n      swap2\n      swap1\n      pop\n      jump\t// out\n        /* \"#utility.yul\":31591:31748   */\n    tag_306:\n        /* \"#utility.yul\":31696:31741   */\n      tag_606\n        /* \"#utility.yul\":31716:31740   */\n      tag_607\n        /* \"#utility.yul\":31734:31739   */\n      dup3\n        /* \"#utility.yul\":31716:31740   */\n      tag_230\n      jump\t// in\n    tag_607:\n        /* \"#utility.yul\":31696:31741   */\n      tag_305\n      jump\t// in\n    tag_606:\n        /* \"#utility.yul\":31691:31694   */\n      dup3\n        /* \"#utility.yul\":31684:31742   */\n      mstore\n        /* \"#utility.yul\":31591:31748   */\n      pop\n      pop\n      jump\t// out\n        /* \"#utility.yul\":31754:32292   */\n    tag_184:\n        /* \"#utility.yul\":31922:31925   */\n      0x00\n        /* \"#utility.yul\":31937:32012   */\n      tag_609\n        /* \"#utility.yul\":32008:32011   */\n      dup3\n        /* \"#utility.yul\":31999:32005   */\n      dup7\n        /* \"#utility.yul\":31937:32012   */\n      tag_302\n      jump\t// in\n    tag_609:\n        /* \"#utility.yul\":32037:32039   */\n      0x20\n        /* \"#utility.yul\":32032:32035   */\n      dup3\n        /* \"#utility.yul\":32028:32040   */\n      add\n        /* \"#utility.yul\":32021:32040   */\n      swap2\n      pop\n        /* \"#utility.yul\":32050:32125   */\n      tag_610\n        /* \"#utility.yul\":32121:32124   */\n      dup3\n        /* \"#utility.yul\":32112:32118   */\n      dup6\n        /* \"#utility.yul\":32050:32125   */\n      tag_306\n      jump\t// in\n    tag_610:\n        /* \"#utility.yul\":32150:32152   */\n      0x14\n        /* \"#utility.yul\":32145:32148   */\n      dup3\n        /* \"#utility.yul\":32141:32153   */\n      add\n        /* \"#utility.yul\":32134:32153   */\n      swap2\n      pop\n        /* \"#utility.yul\":32163:32238   */\n      tag_611\n        /* \"#utility.yul\":32234:32237   */\n      dup3\n        /* \"#utility.yul\":32225:32231   */\n      dup5\n        /* \"#utility.yul\":32163:32238   */\n      tag_302\n      jump\t// in\n    tag_611:\n        /* \"#utility.yul\":32263:32265   */\n      0x20\n        /* \"#utility.yul\":32258:32261   */\n      dup3\n        /* \"#utility.yul\":32254:32266   */\n      add\n        /* \"#utility.yul\":32247:32266   */\n      swap2\n      pop\n        /* \"#utility.yul\":32283:32286   */\n      dup2\n        /* \"#utility.yul\":32276:32286   */\n      swap1\n      pop\n        /* \"#utility.yul\":31754:32292   */\n      swap5\n      swap4\n      pop\n      pop\n      pop\n      pop\n      jump\t// out\n        /* \"#utility.yul\":32298:32478   */\n    tag_199:\n        /* \"#utility.yul\":32346:32423   */\n      0x4e487b7100000000000000000000000000000000000000000000000000000000\n        /* \"#utility.yul\":32343:32344   */\n      0x00\n        /* \"#utility.yul\":32336:32424   */\n      mstore\n        /* \"#utility.yul\":32443:32447   */\n      0x12\n        /* \"#utility.yul\":32440:32441   */\n      0x04\n        /* \"#utility.yul\":32433:32448   */\n      mstore\n        /* \"#utility.yul\":32467:32471   */\n      0x24\n        /* \"#utility.yul\":32464:32465   */\n      0x00\n        /* \"#utility.yul\":32457:32472   */\n      revert\n        /* \"#utility.yul\":32484:32660   */\n    tag_186:\n        /* \"#utility.yul\":32516:32517   */\n      0x00\n        /* \"#utility.yul\":32533:32553   */\n      tag_614\n        /* \"#utility.yul\":32551:32552   */\n      dup3\n        /* \"#utility.yul\":32533:32553   */\n      tag_221\n      jump\t// in\n    tag_614:\n        /* \"#utility.yul\":32528:32553   */\n      swap2\n      pop\n        /* \"#utility.yul\":32567:32587   */\n      tag_615\n        /* \"#utility.yul\":32585:32586   */\n      dup4\n        /* \"#utility.yul\":32567:32587   */\n      tag_221\n      jump\t// in\n    tag_615:\n        /* \"#utility.yul\":32562:32587   */\n      swap3\n      pop\n        /* \"#utility.yul\":32606:32607   */\n      dup3\n        /* \"#utility.yul\":32596:32631   */\n      tag_616\n      jumpi\n        /* \"#utility.yul\":32611:32629   */\n      tag_617\n      tag_199\n      jump\t// in\n    tag_617:\n        /* \"#utility.yul\":32596:32631   */\n    tag_616:\n        /* \"#utility.yul\":32652:32653   */\n      dup3\n        /* \"#utility.yul\":32649:32650   */\n      dup3\n        /* \"#utility.yul\":32645:32654   */\n      mod\n        /* \"#utility.yul\":32640:32654   */\n      swap1\n      pop\n        /* \"#utility.yul\":32484:32660   */\n      swap3\n      swap2\n      pop\n      pop\n      jump\t// out\n\n    auxdata: 0xa2646970667358221220f1cd518567b9d03e327b65414d0ea2ff1ca577b438733bf2afb98d7d45340cdd64736f6c634300081a0033\n}\n",
				"bytecode": {
					"linkReferences": {},
					"object": "60806040525f80553480156011575f80fd5b506127948061001f5f395ff3fe608060405260043610610094575f3560e01c80635162d632116100585780635162d632146101de5780635fd8c710146102065780637b82578f146102105780639ca713511461022c578063d817736914610254576100ed565b80630ff9edbc146100f1578063117a5b90146101195780631281e0921461015c578063407db5ba146101845780634d1975b4146101b4576100ed565b366100ed573460065f3373ffffffffffffffffffffffffffffffffffffffff1673ffffffffffffffffffffffffffffffffffffffff1681526020019081526020015f205f8282546100e59190611687565b925050819055005b5f80fd5b3480156100fc575f80fd5b50610117600480360381019061011291906116f5565b61027c565b005b348015610124575f80fd5b5061013f600480360381019061013a9190611745565b6103d8565b604051610153989796959493929190611877565b60405180910390f35b348015610167575f80fd5b50610182600480360381019061017d9190611745565b610473565b005b61019e600480360381019061019991906118f3565b6105f2565b6040516101ab91906119a1565b60405180910390f35b3480156101bf575f80fd5b506101c8610c10565b6040516101d591906119c1565b60405180910390f35b3480156101e9575f80fd5b5061020460048036038101906101ff9190611a04565b610c15565b005b61020e610e41565b005b61022a60048036038101906102259190611745565b610f43565b005b348015610237575f80fd5b50610252600480360381019061024d91906118f3565b6111c0565b005b34801561025f575f80fd5b5061027a60048036038101906102759190611b94565b611320565b005b8260045f8281526020019081526020015f205f9054906101000a900460ff166102da576040517f08c379a00000000000000000000000000000000000000000000000000000000081526004016102d190611c25565b60405180910390fd5b833373ffffffffffffffffffffffffffffffffffffffff1660025f8381526020019081526020015f206001015f9054906101000a900473ffffffffffffffffffffffffffffffffffffffff1673ffffffffffffffffffffffffffffffffffffffff161461037c576040517f08c379a000000000000000000000000000000000000000000000000000000000815260040161037390611cb3565b60405180910390fd5b8360025f8781526020019081526020015f20600301819055508260025f8781526020019081526020015f20600401819055506103b985858561136e565b60025f8781526020019081526020015f20600501819055505050505050565b6002602052805f5260405f205f91509050805f015490806001015f9054906101000a900473ffffffffffffffffffffffffffffffffffffffff1690806002015f9054906101000a900473ffffffffffffffffffffffffffffffffffffffff1690806003015490806004015490806005015490806006015f9054906101000a900460ff16908060060160019054906101000a900460ff16905088565b8060045f8281526020019081526020015f205f9054906101000a900460ff166104d1576040517f08c379a00000000000000000000000000000000000000000000000000000000081526004016104c890611c25565b60405180910390fd5b813373ffffffffffffffffffffffffffffffffffffffff1660025f8381526020019081526020015f206001015f9054906101000a900473ffffffffffffffffffffffffffffffffffffffff1673ffffffffffffffffffffffffffffffffffffffff1614610573576040517f08c379a000000000000000000000000000000000000000000000000000000000815260040161056a90611cb3565b60405180910390fd5b6105ed60025f8581526020019081526020015f206002015f9054906101000a900473ffffffffffffffffffffffffffffffffffffffff1660025f8681526020019081526020015f205f015460025f8781526020019081526020015f206003015460025f8881526020019081526020015f2060040154610c15565b505050565b60608260045f8281526020019081526020015f205f9054906101000a900460ff16610652576040517f08c379a000000000000000000000000000000000000000000000000000000000815260040161064990611c25565b60405180910390fd5b8360025f8281526020019081526020015f206001015f9054906101000a900473ffffffffffffffffffffffffffffffffffffffff1673ffffffffffffffffffffffffffffffffffffffff163373ffffffffffffffffffffffffffffffffffffffff16148061071e575060025f8281526020019081526020015f206002015f9054906101000a900473ffffffffffffffffffffffffffffffffffffffff1673ffffffffffffffffffffffffffffffffffffffff163373ffffffffffffffffffffffffffffffffffffffff16145b61075d576040517f08c379a000000000000000000000000000000000000000000000000000000000815260040161075490611d1b565b60405180910390fd5b6001151560055f3373ffffffffffffffffffffffffffffffffffffffff1673ffffffffffffffffffffffffffffffffffffffff1681526020019081526020015f205f8781526020019081526020015f205f9054906101000a900460ff161515146107fc576040517f08c379a00000000000000000000000000000000000000000000000000000000081526004016107f390611da9565b60405180910390fd5b5f600181111561080f5761080e6117be565b5b60025f8781526020019081526020015f206006015f9054906101000a900460ff166001811115610842576108416117be565b5b14610882576040517f08c379a000000000000000000000000000000000000000000000000000000000815260040161087990611e11565b60405180910390fd5b60025f8681526020019081526020015f206003015484101580156108ba575060025f8681526020019081526020015f20600401548411155b6108f9576040517f08c379a00000000000000000000000000000000000000000000000000000000081526004016108f090611e79565b60405180910390fd5b60025f8681526020019081526020015f2060050154841115610952576040518060400160405280601881526020017f596f7572206e756d62657220697320746f6f20677265617400000000000000008152509250610c08565b60025f8681526020019081526020015f20600501548410156109ab576040518060400160405280601881526020017f596f7572206e756d62657220697320746f6f20736d616c6c00000000000000008152509250610c08565b60025f8681526020019081526020015f206001015f9054906101000a900473ffffffffffffffffffffffffffffffffffffffff1673ffffffffffffffffffffffffffffffffffffffff163373ffffffffffffffffffffffffffffffffffffffff1603610a52575f60025f8781526020019081526020015f2060060160016101000a81548160ff02191690836001811115610a4857610a476117be565b5b0217905550610af7565b60025f8681526020019081526020015f206002015f9054906101000a900473ffffffffffffffffffffffffffffffffffffffff1673ffffffffffffffffffffffffffffffffffffffff163373ffffffffffffffffffffffffffffffffffffffff1603610af657600160025f8781526020019081526020015f2060060160016101000a81548160ff02191690836001811115610af057610aef6117be565b5b02179055505b5b3373ffffffffffffffffffffffffffffffffffffffff166108fc6002670de0b6b3a764000060025f8a81526020019081526020015f205f0154610b3a9190611e97565b610b449190611e97565b90811502906040515f60405180830381858888f19350505050158015610b6c573d5f803e3d5ffd5b50600160025f8781526020019081526020015f206006015f6101000a81548160ff02191690836001811115610ba457610ba36117be565b5b021790555060015f3373ffffffffffffffffffffffffffffffffffffffff1673ffffffffffffffffffffffffffffffffffffffff1681526020019081526020015f20604051602001610bf69190611ff7565b60405160208183030381529060405292505b505092915050565b5f5481565b8373ffffffffffffffffffffffffffffffffffffffff163373ffffffffffffffffffffffffffffffffffffffff1603610c83576040517f08c379a0000000000000000000000000000000000000000000000000000000008152600401610c7a90612066565b60405180910390fd5b5f831015610cc6576040517f08c379a0000000000000000000000000000000000000000000000000000000008152600401610cbd906120f4565b60405180910390fd5b808210610d08576040517f08c379a0000000000000000000000000000000000000000000000000000000008152600401610cff90612182565b60405180910390fd5b5f80815480929190610d19906121a0565b91905055505f60025f805481526020019081526020015f209050600160045f805481526020019081526020015f205f6101000a81548160ff02191690831515021790555083815f018190555033816001015f6101000a81548173ffffffffffffffffffffffffffffffffffffffff021916908373ffffffffffffffffffffffffffffffffffffffff16021790555084816002015f6101000a81548173ffffffffffffffffffffffffffffffffffffffff021916908373ffffffffffffffffffffffffffffffffffffffff1602179055508281600301819055508181600401819055505f816006015f6101000a81548160ff02191690836001811115610e2157610e206117be565b5b0217905550610e325f54848461136e565b81600501819055505050505050565b5f60065f3373ffffffffffffffffffffffffffffffffffffffff1673ffffffffffffffffffffffffffffffffffffffff1681526020019081526020015f205411610ec0576040517f08c379a0000000000000000000000000000000000000000000000000000000008152600401610eb790612231565b60405180910390fd5b3373ffffffffffffffffffffffffffffffffffffffff166108fc60065f3373ffffffffffffffffffffffffffffffffffffffff1673ffffffffffffffffffffffffffffffffffffffff1681526020019081526020015f205490811502906040515f60405180830381858888f19350505050158015610f40573d5f803e3d5ffd5b50565b8060045f8281526020019081526020015f205f9054906101000a900460ff16610fa1576040517f08c379a0000000000000000000000000000000000000000000000000000000008152600401610f9890611c25565b60405180910390fd5b8160025f8281526020019081526020015f206001015f9054906101000a900473ffffffffffffffffffffffffffffffffffffffff1673ffffffffffffffffffffffffffffffffffffffff163373ffffffffffffffffffffffffffffffffffffffff16148061106d575060025f8281526020019081526020015f206002015f9054906101000a900473ffffffffffffffffffffffffffffffffffffffff1673ffffffffffffffffffffffffffffffffffffffff163373ffffffffffffffffffffffffffffffffffffffff16145b6110ac576040517f08c379a00000000000000000000000000000000000000000000000000000000081526004016110a390611d1b565b60405180910390fd5b5f670de0b6b3a764000060025f8681526020019081526020015f205f01546110d49190611e97565b90508034146110f560025f8781526020019081526020015f205f0154611436565b6040516020016111059190612315565b60405160208183030381529060405290611155576040517f08c379a000000000000000000000000000000000000000000000000000000000815260040161114c91906119a1565b60405180910390fd5b50600160055f3373ffffffffffffffffffffffffffffffffffffffff1673ffffffffffffffffffffffffffffffffffffffff1681526020019081526020015f205f8681526020019081526020015f205f6101000a81548160ff02191690831515021790555050505050565b8160045f8281526020019081526020015f205f9054906101000a900460ff1661121e576040517f08c379a000000000000000000000000000000000000000000000000000000000815260040161121590611c25565b60405180910390fd5b823373ffffffffffffffffffffffffffffffffffffffff1660025f8381526020019081526020015f206001015f9054906101000a900473ffffffffffffffffffffffffffffffffffffffff1673ffffffffffffffffffffffffffffffffffffffff16146112c0576040517f08c379a00000000000000000000000000000000000000000000000000000000081526004016112b790611cb3565b60405180910390fd5b5f8311611302576040517f08c379a00000000000000000000000000000000000000000000000000000000081526004016112f9906123b5565b60405180910390fd5b8260025f8681526020019081526020015f205f018190555050505050565b8060015f3373ffffffffffffffffffffffffffffffffffffffff1673ffffffffffffffffffffffffffffffffffffffff1681526020019081526020015f20908161136a919061255e565b5050565b5f8360045f8281526020019081526020015f205f9054906101000a900460ff166113cd576040517f08c379a00000000000000000000000000000000000000000000000000000000081526004016113c490611c25565b60405180910390fd5b5f84600186866113dd919061262d565b6113e79190611687565b4233896040516020016113fc939291906126c5565b604051602081830303815290604052805190602001205f1c61141e919061272e565b6114289190611687565b905080925050509392505050565b60605f600161144484611500565b0190505f8167ffffffffffffffff81111561146257611461611a70565b5b6040519080825280601f01601f1916602001820160405280156114945781602001600182028036833780820191505090505b5090505f82602001820190505b6001156114f5578080600190039150507f3031323334353637383961626364656600000000000000000000000000000000600a86061a8153600a85816114ea576114e9612701565b5b0494505f85036114a1575b819350505050919050565b5f805f90507a184f03e93ff9f4daa797ed6e38ed64bf6a1f010000000000000000831061155c577a184f03e93ff9f4daa797ed6e38ed64bf6a1f010000000000000000838161155257611551612701565b5b0492506040810190505b6d04ee2d6d415b85acef81000000008310611599576d04ee2d6d415b85acef8100000000838161158f5761158e612701565b5b0492506020810190505b662386f26fc1000083106115c857662386f26fc1000083816115be576115bd612701565b5b0492506010810190505b6305f5e10083106115f1576305f5e10083816115e7576115e6612701565b5b0492506008810190505b612710831061161657612710838161160c5761160b612701565b5b0492506004810190505b60648310611639576064838161162f5761162e612701565b5b0492506002810190505b600a8310611648576001810190505b80915050919050565b5f819050919050565b7f4e487b71000000000000000000000000000000000000000000000000000000005f52601160045260245ffd5b5f61169182611651565b915061169c83611651565b92508282019050808211156116b4576116b361165a565b5b92915050565b5f604051905090565b5f80fd5b5f80fd5b6116d481611651565b81146116de575f80fd5b50565b5f813590506116ef816116cb565b92915050565b5f805f6060848603121561170c5761170b6116c3565b5b5f611719868287016116e1565b935050602061172a868287016116e1565b925050604061173b868287016116e1565b9150509250925092565b5f6020828403121561175a576117596116c3565b5b5f611767848285016116e1565b91505092915050565b61177981611651565b82525050565b5f73ffffffffffffffffffffffffffffffffffffffff82169050919050565b5f6117a88261177f565b9050919050565b6117b88161179e565b82525050565b7f4e487b71000000000000000000000000000000000000000000000000000000005f52602160045260245ffd5b600281106117fc576117fb6117be565b5b50565b5f81905061180c826117eb565b919050565b5f61181b826117ff565b9050919050565b61182b81611811565b82525050565b60028110611842576118416117be565b5b50565b5f81905061185282611831565b919050565b5f61186182611845565b9050919050565b61187181611857565b82525050565b5f6101008201905061188b5f83018b611770565b611898602083018a6117af565b6118a560408301896117af565b6118b26060830188611770565b6118bf6080830187611770565b6118cc60a0830186611770565b6118d960c0830185611822565b6118e660e0830184611868565b9998505050505050505050565b5f8060408385031215611909576119086116c3565b5b5f611916858286016116e1565b9250506020611927858286016116e1565b9150509250929050565b5f81519050919050565b5f82825260208201905092915050565b8281835e5f83830152505050565b5f601f19601f8301169050919050565b5f61197382611931565b61197d818561193b565b935061198d81856020860161194b565b61199681611959565b840191505092915050565b5f6020820190508181035f8301526119b98184611969565b905092915050565b5f6020820190506119d45f830184611770565b92915050565b6119e38161179e565b81146119ed575f80fd5b50565b5f813590506119fe816119da565b92915050565b5f805f8060808587031215611a1c57611a1b6116c3565b5b5f611a29878288016119f0565b9450506020611a3a878288016116e1565b9350506040611a4b878288016116e1565b9250506060611a5c878288016116e1565b91505092959194509250565b5f80fd5b5f80fd5b7f4e487b71000000000000000000000000000000000000000000000000000000005f52604160045260245ffd5b611aa682611959565b810181811067ffffffffffffffff82111715611ac557611ac4611a70565b5b80604052505050565b5f611ad76116ba565b9050611ae38282611a9d565b919050565b5f67ffffffffffffffff821115611b0257611b01611a70565b5b611b0b82611959565b9050602081019050919050565b828183375f83830152505050565b5f611b38611b3384611ae8565b611ace565b905082815260208101848484011115611b5457611b53611a6c565b5b611b5f848285611b18565b509392505050565b5f82601f830112611b7b57611b7a611a68565b5b8135611b8b848260208601611b26565b91505092915050565b5f60208284031215611ba957611ba86116c3565b5b5f82013567ffffffffffffffff811115611bc657611bc56116c7565b5b611bd284828501611b67565b91505092915050565b7f5468652067616d6520646f65736e2774206578697374202100000000000000005f82015250565b5f611c0f60188361193b565b9150611c1a82611bdb565b602082019050919050565b5f6020820190508181035f830152611c3c81611c03565b9050919050565b7f596f75277265206e6f7420746865206c61756e63686572206f662074686973205f8201527f67616d6500000000000000000000000000000000000000000000000000000000602082015250565b5f611c9d60248361193b565b9150611ca882611c43565b604082019050919050565b5f6020820190508181035f830152611cca81611c91565b9050919050565b7f596f75277265206e6f74206120706c61796572206f6620746869732067616d655f82015250565b5f611d0560208361193b565b9150611d1082611cd1565b602082019050919050565b5f6020820190508181035f830152611d3281611cf9565b9050919050565b7f596f752073686f756c642073656e6420796f75722062657474696e6720616d6f5f8201527f756e74206265666f726520706c6179696e670000000000000000000000000000602082015250565b5f611d9360328361193b565b9150611d9e82611d39565b604082019050919050565b5f6020820190508181035f830152611dc081611d87565b9050919050565b7f5468652067616d652068617320656e64656400000000000000000000000000005f82015250565b5f611dfb60128361193b565b9150611e0682611dc7565b602082019050919050565b5f6020820190508181035f830152611e2881611def565b9050919050565b7f546865206e756d626572206973206f7574206f66206c696d69747300000000005f82015250565b5f611e63601b8361193b565b9150611e6e82611e2f565b602082019050919050565b5f6020820190508181035f830152611e9081611e57565b9050919050565b5f611ea182611651565b9150611eac83611651565b9250828202611eba81611651565b91508282048414831517611ed157611ed061165a565b5b5092915050565b7f5468652077696e6e657220697320000000000000000000000000000000000000815250565b7f4e487b71000000000000000000000000000000000000000000000000000000005f52602260045260245ffd5b5f6002820490506001821680611f4257607f821691505b602082108103611f5557611f54611efe565b5b50919050565b5f81905092915050565b5f819050815f5260205f209050919050565b5f8154611f8381611f2b565b611f8d8186611f5b565b9450600182165f8114611fa75760018114611fbc57611fee565b60ff1983168652811515820286019350611fee565b611fc585611f65565b5f5b83811015611fe657815481890152600182019150602081019050611fc7565b838801955050505b50505092915050565b5f61200182611ed8565b600e820191506120118284611f77565b915081905092915050565b7f596f752063616e277420706c617920616761696e737420796f757273656c66005f82015250565b5f612050601f8361193b565b915061205b8261201c565b602082019050919050565b5f6020820190508181035f83015261207d81612044565b9050919050565b7f5468652062657474696e6720616d6f756e742073686f756c6420626520706f735f8201527f6974697665000000000000000000000000000000000000000000000000000000602082015250565b5f6120de60258361193b565b91506120e982612084565b604082019050919050565b5f6020820190508181035f83015261210b816120d2565b9050919050565b7f546865206c6f776572206c696d69742073686f756c64206265206c65737320745f8201527f68616e2074686520757070657200000000000000000000000000000000000000602082015250565b5f61216c602d8361193b565b915061217782612112565b604082019050919050565b5f6020820190508181035f83015261219981612160565b9050919050565b5f6121aa82611651565b91507fffffffffffffffffffffffffffffffffffffffffffffffffffffffffffffffff82036121dc576121db61165a565b5b600182019050919050565b7f596f7520646f6e277420686176652066756e64730000000000000000000000005f82015250565b5f61221b60148361193b565b9150612226826121e7565b602082019050919050565b5f6020820190508181035f8301526122488161220f565b9050919050565b7f4d616b65207375726520746f2073656e642074686520726967687420616d6f755f8201527f6e74206f66206574686572203a20000000000000000000000000000000000000602082015250565b5f6122a9602e83611f5b565b91506122b48261224f565b602e82019050919050565b5f6122c982611931565b6122d38185611f5b565b93506122e381856020860161194b565b80840191505092915050565b7f2065746865720000000000000000000000000000000000000000000000000000815250565b5f61231f8261229d565b915061232b82846122bf565b9150612336826122ef565b60068201915081905092915050565b7f54686520616d6f756e742073686f756c642062652067726561746572207468615f8201527f6e20300000000000000000000000000000000000000000000000000000000000602082015250565b5f61239f60238361193b565b91506123aa82612345565b604082019050919050565b5f6020820190508181035f8301526123cc81612393565b9050919050565b5f6020601f8301049050919050565b5f82821b905092915050565b5f6008830261241d7fffffffffffffffffffffffffffffffffffffffffffffffffffffffffffffffff826123e2565b61242786836123e2565b95508019841693508086168417925050509392505050565b5f819050919050565b5f61246261245d61245884611651565b61243f565b611651565b9050919050565b5f819050919050565b61247b83612448565b61248f61248782612469565b8484546123ee565b825550505050565b5f90565b6124a3612497565b6124ae818484612472565b505050565b5b818110156124d1576124c65f8261249b565b6001810190506124b4565b5050565b601f821115612516576124e781611f65565b6124f0846123d3565b810160208510156124ff578190505b61251361250b856123d3565b8301826124b3565b50505b505050565b5f82821c905092915050565b5f6125365f198460080261251b565b1980831691505092915050565b5f61254e8383612527565b9150826002028217905092915050565b61256782611931565b67ffffffffffffffff8111156125805761257f611a70565b5b61258a8254611f2b565b6125958282856124d5565b5f60209050601f8311600181146125c6575f84156125b4578287015190505b6125be8582612543565b865550612625565b601f1984166125d486611f65565b5f5b828110156125fb578489015182556001820191506020850194506020810190506125d6565b868310156126185784890151612614601f891682612527565b8355505b6001600288020188555050505b505050505050565b5f61263782611651565b915061264283611651565b925082820390508181111561265a5761265961165a565b5b92915050565b5f819050919050565b61267a61267582611651565b612660565b82525050565b5f8160601b9050919050565b5f61269682612680565b9050919050565b5f6126a78261268c565b9050919050565b6126bf6126ba8261179e565b61269d565b82525050565b5f6126d08286612669565b6020820191506126e082856126ae565b6014820191506126f08284612669565b602082019150819050949350505050565b7f4e487b71000000000000000000000000000000000000000000000000000000005f52601260045260245ffd5b5f61273882611651565b915061274383611651565b92508261275357612752612701565b5b82820690509291505056fea2646970667358221220f1cd518567b9d03e327b65414d0ea2ff1ca577b438733bf2afb98d7d45340cdd64736f6c634300081a0033",
					"opcodes": "PUSH1 0x80 PUSH1 0x40 MSTORE PUSH0 DUP1 SSTORE CALLVALUE DUP1 ISZERO PUSH1 0x11 JUMPI PUSH0 DUP1 REVERT JUMPDEST POP PUSH2 0x2794 DUP1 PUSH2 0x1F PUSH0 CODECOPY PUSH0 RETURN INVALID PUSH1 0x80 PUSH1 0x40 MSTORE PUSH1 0x4 CALLDATASIZE LT PUSH2 0x94 JUMPI PUSH0 CALLDATALOAD PUSH1 0xE0 SHR DUP1 PUSH4 0x5162D632 GT PUSH2 0x58 JUMPI DUP1 PUSH4 0x5162D632 EQ PUSH2 0x1DE JUMPI DUP1 PUSH4 0x5FD8C710 EQ PUSH2 0x206 JUMPI DUP1 PUSH4 0x7B82578F EQ PUSH2 0x210 JUMPI DUP1 PUSH4 0x9CA71351 EQ PUSH2 0x22C JUMPI DUP1 PUSH4 0xD8177369 EQ PUSH2 0x254 JUMPI PUSH2 0xED JUMP JUMPDEST DUP1 PUSH4 0xFF9EDBC EQ PUSH2 0xF1 JUMPI DUP1 PUSH4 0x117A5B90 EQ PUSH2 0x119 JUMPI DUP1 PUSH4 0x1281E092 EQ PUSH2 0x15C JUMPI DUP1 PUSH4 0x407DB5BA EQ PUSH2 0x184 JUMPI DUP1 PUSH4 0x4D1975B4 EQ PUSH2 0x1B4 JUMPI PUSH2 0xED JUMP JUMPDEST CALLDATASIZE PUSH2 0xED JUMPI CALLVALUE PUSH1 0x6 PUSH0 CALLER PUSH20 0xFFFFFFFFFFFFFFFFFFFFFFFFFFFFFFFFFFFFFFFF AND PUSH20 0xFFFFFFFFFFFFFFFFFFFFFFFFFFFFFFFFFFFFFFFF AND DUP2 MSTORE PUSH1 0x20 ADD SWAP1 DUP2 MSTORE PUSH1 0x20 ADD PUSH0 KECCAK256 PUSH0 DUP3 DUP3 SLOAD PUSH2 0xE5 SWAP2 SWAP1 PUSH2 0x1687 JUMP JUMPDEST SWAP3 POP POP DUP2 SWAP1 SSTORE STOP JUMPDEST PUSH0 DUP1 REVERT JUMPDEST CALLVALUE DUP1 ISZERO PUSH2 0xFC JUMPI PUSH0 DUP1 REVERT JUMPDEST POP PUSH2 0x117 PUSH1 0x4 DUP1 CALLDATASIZE SUB DUP2 ADD SWAP1 PUSH2 0x112 SWAP2 SWAP1 PUSH2 0x16F5 JUMP JUMPDEST PUSH2 0x27C JUMP JUMPDEST STOP JUMPDEST CALLVALUE DUP1 ISZERO PUSH2 0x124 JUMPI PUSH0 DUP1 REVERT JUMPDEST POP PUSH2 0x13F PUSH1 0x4 DUP1 CALLDATASIZE SUB DUP2 ADD SWAP1 PUSH2 0x13A SWAP2 SWAP1 PUSH2 0x1745 JUMP JUMPDEST PUSH2 0x3D8 JUMP JUMPDEST PUSH1 0x40 MLOAD PUSH2 0x153 SWAP9 SWAP8 SWAP7 SWAP6 SWAP5 SWAP4 SWAP3 SWAP2 SWAP1 PUSH2 0x1877 JUMP JUMPDEST PUSH1 0x40 MLOAD DUP1 SWAP2 SUB SWAP1 RETURN JUMPDEST CALLVALUE DUP1 ISZERO PUSH2 0x167 JUMPI PUSH0 DUP1 REVERT JUMPDEST POP PUSH2 0x182 PUSH1 0x4 DUP1 CALLDATASIZE SUB DUP2 ADD SWAP1 PUSH2 0x17D SWAP2 SWAP1 PUSH2 0x1745 JUMP JUMPDEST PUSH2 0x473 JUMP JUMPDEST STOP JUMPDEST PUSH2 0x19E PUSH1 0x4 DUP1 CALLDATASIZE SUB DUP2 ADD SWAP1 PUSH2 0x199 SWAP2 SWAP1 PUSH2 0x18F3 JUMP JUMPDEST PUSH2 0x5F2 JUMP JUMPDEST PUSH1 0x40 MLOAD PUSH2 0x1AB SWAP2 SWAP1 PUSH2 0x19A1 JUMP JUMPDEST PUSH1 0x40 MLOAD DUP1 SWAP2 SUB SWAP1 RETURN JUMPDEST CALLVALUE DUP1 ISZERO PUSH2 0x1BF JUMPI PUSH0 DUP1 REVERT JUMPDEST POP PUSH2 0x1C8 PUSH2 0xC10 JUMP JUMPDEST PUSH1 0x40 MLOAD PUSH2 0x1D5 SWAP2 SWAP1 PUSH2 0x19C1 JUMP JUMPDEST PUSH1 0x40 MLOAD DUP1 SWAP2 SUB SWAP1 RETURN JUMPDEST CALLVALUE DUP1 ISZERO PUSH2 0x1E9 JUMPI PUSH0 DUP1 REVERT JUMPDEST POP PUSH2 0x204 PUSH1 0x4 DUP1 CALLDATASIZE SUB DUP2 ADD SWAP1 PUSH2 0x1FF SWAP2 SWAP1 PUSH2 0x1A04 JUMP JUMPDEST PUSH2 0xC15 JUMP JUMPDEST STOP JUMPDEST PUSH2 0x20E PUSH2 0xE41 JUMP JUMPDEST STOP JUMPDEST PUSH2 0x22A PUSH1 0x4 DUP1 CALLDATASIZE SUB DUP2 ADD SWAP1 PUSH2 0x225 SWAP2 SWAP1 PUSH2 0x1745 JUMP JUMPDEST PUSH2 0xF43 JUMP JUMPDEST STOP JUMPDEST CALLVALUE DUP1 ISZERO PUSH2 0x237 JUMPI PUSH0 DUP1 REVERT JUMPDEST POP PUSH2 0x252 PUSH1 0x4 DUP1 CALLDATASIZE SUB DUP2 ADD SWAP1 PUSH2 0x24D SWAP2 SWAP1 PUSH2 0x18F3 JUMP JUMPDEST PUSH2 0x11C0 JUMP JUMPDEST STOP JUMPDEST CALLVALUE DUP1 ISZERO PUSH2 0x25F JUMPI PUSH0 DUP1 REVERT JUMPDEST POP PUSH2 0x27A PUSH1 0x4 DUP1 CALLDATASIZE SUB DUP2 ADD SWAP1 PUSH2 0x275 SWAP2 SWAP1 PUSH2 0x1B94 JUMP JUMPDEST PUSH2 0x1320 JUMP JUMPDEST STOP JUMPDEST DUP3 PUSH1 0x4 PUSH0 DUP3 DUP2 MSTORE PUSH1 0x20 ADD SWAP1 DUP2 MSTORE PUSH1 0x20 ADD PUSH0 KECCAK256 PUSH0 SWAP1 SLOAD SWAP1 PUSH2 0x100 EXP SWAP1 DIV PUSH1 0xFF AND PUSH2 0x2DA JUMPI PUSH1 0x40 MLOAD PUSH32 0x8C379A000000000000000000000000000000000000000000000000000000000 DUP2 MSTORE PUSH1 0x4 ADD PUSH2 0x2D1 SWAP1 PUSH2 0x1C25 JUMP JUMPDEST PUSH1 0x40 MLOAD DUP1 SWAP2 SUB SWAP1 REVERT JUMPDEST DUP4 CALLER PUSH20 0xFFFFFFFFFFFFFFFFFFFFFFFFFFFFFFFFFFFFFFFF AND PUSH1 0x2 PUSH0 DUP4 DUP2 MSTORE PUSH1 0x20 ADD SWAP1 DUP2 MSTORE PUSH1 0x20 ADD PUSH0 KECCAK256 PUSH1 0x1 ADD PUSH0 SWAP1 SLOAD SWAP1 PUSH2 0x100 EXP SWAP1 DIV PUSH20 0xFFFFFFFFFFFFFFFFFFFFFFFFFFFFFFFFFFFFFFFF AND PUSH20 0xFFFFFFFFFFFFFFFFFFFFFFFFFFFFFFFFFFFFFFFF AND EQ PUSH2 0x37C JUMPI PUSH1 0x40 MLOAD PUSH32 0x8C379A000000000000000000000000000000000000000000000000000000000 DUP2 MSTORE PUSH1 0x4 ADD PUSH2 0x373 SWAP1 PUSH2 0x1CB3 JUMP JUMPDEST PUSH1 0x40 MLOAD DUP1 SWAP2 SUB SWAP1 REVERT JUMPDEST DUP4 PUSH1 0x2 PUSH0 DUP8 DUP2 MSTORE PUSH1 0x20 ADD SWAP1 DUP2 MSTORE PUSH1 0x20 ADD PUSH0 KECCAK256 PUSH1 0x3 ADD DUP2 SWAP1 SSTORE POP DUP3 PUSH1 0x2 PUSH0 DUP8 DUP2 MSTORE PUSH1 0x20 ADD SWAP1 DUP2 MSTORE PUSH1 0x20 ADD PUSH0 KECCAK256 PUSH1 0x4 ADD DUP2 SWAP1 SSTORE POP PUSH2 0x3B9 DUP6 DUP6 DUP6 PUSH2 0x136E JUMP JUMPDEST PUSH1 0x2 PUSH0 DUP8 DUP2 MSTORE PUSH1 0x20 ADD SWAP1 DUP2 MSTORE PUSH1 0x20 ADD PUSH0 KECCAK256 PUSH1 0x5 ADD DUP2 SWAP1 SSTORE POP POP POP POP POP POP JUMP JUMPDEST PUSH1 0x2 PUSH1 0x20 MSTORE DUP1 PUSH0 MSTORE PUSH1 0x40 PUSH0 KECCAK256 PUSH0 SWAP2 POP SWAP1 POP DUP1 PUSH0 ADD SLOAD SWAP1 DUP1 PUSH1 0x1 ADD PUSH0 SWAP1 SLOAD SWAP1 PUSH2 0x100 EXP SWAP1 DIV PUSH20 0xFFFFFFFFFFFFFFFFFFFFFFFFFFFFFFFFFFFFFFFF AND SWAP1 DUP1 PUSH1 0x2 ADD PUSH0 SWAP1 SLOAD SWAP1 PUSH2 0x100 EXP SWAP1 DIV PUSH20 0xFFFFFFFFFFFFFFFFFFFFFFFFFFFFFFFFFFFFFFFF AND SWAP1 DUP1 PUSH1 0x3 ADD SLOAD SWAP1 DUP1 PUSH1 0x4 ADD SLOAD SWAP1 DUP1 PUSH1 0x5 ADD SLOAD SWAP1 DUP1 PUSH1 0x6 ADD PUSH0 SWAP1 SLOAD SWAP1 PUSH2 0x100 EXP SWAP1 DIV PUSH1 0xFF AND SWAP1 DUP1 PUSH1 0x6 ADD PUSH1 0x1 SWAP1 SLOAD SWAP1 PUSH2 0x100 EXP SWAP1 DIV PUSH1 0xFF AND SWAP1 POP DUP9 JUMP JUMPDEST DUP1 PUSH1 0x4 PUSH0 DUP3 DUP2 MSTORE PUSH1 0x20 ADD SWAP1 DUP2 MSTORE PUSH1 0x20 ADD PUSH0 KECCAK256 PUSH0 SWAP1 SLOAD SWAP1 PUSH2 0x100 EXP SWAP1 DIV PUSH1 0xFF AND PUSH2 0x4D1 JUMPI PUSH1 0x40 MLOAD PUSH32 0x8C379A000000000000000000000000000000000000000000000000000000000 DUP2 MSTORE PUSH1 0x4 ADD PUSH2 0x4C8 SWAP1 PUSH2 0x1C25 JUMP JUMPDEST PUSH1 0x40 MLOAD DUP1 SWAP2 SUB SWAP1 REVERT JUMPDEST DUP2 CALLER PUSH20 0xFFFFFFFFFFFFFFFFFFFFFFFFFFFFFFFFFFFFFFFF AND PUSH1 0x2 PUSH0 DUP4 DUP2 MSTORE PUSH1 0x20 ADD SWAP1 DUP2 MSTORE PUSH1 0x20 ADD PUSH0 KECCAK256 PUSH1 0x1 ADD PUSH0 SWAP1 SLOAD SWAP1 PUSH2 0x100 EXP SWAP1 DIV PUSH20 0xFFFFFFFFFFFFFFFFFFFFFFFFFFFFFFFFFFFFFFFF AND PUSH20 0xFFFFFFFFFFFFFFFFFFFFFFFFFFFFFFFFFFFFFFFF AND EQ PUSH2 0x573 JUMPI PUSH1 0x40 MLOAD PUSH32 0x8C379A000000000000000000000000000000000000000000000000000000000 DUP2 MSTORE PUSH1 0x4 ADD PUSH2 0x56A SWAP1 PUSH2 0x1CB3 JUMP JUMPDEST PUSH1 0x40 MLOAD DUP1 SWAP2 SUB SWAP1 REVERT JUMPDEST PUSH2 0x5ED PUSH1 0x2 PUSH0 DUP6 DUP2 MSTORE PUSH1 0x20 ADD SWAP1 DUP2 MSTORE PUSH1 0x20 ADD PUSH0 KECCAK256 PUSH1 0x2 ADD PUSH0 SWAP1 SLOAD SWAP1 PUSH2 0x100 EXP SWAP1 DIV PUSH20 0xFFFFFFFFFFFFFFFFFFFFFFFFFFFFFFFFFFFFFFFF AND PUSH1 0x2 PUSH0 DUP7 DUP2 MSTORE PUSH1 0x20 ADD SWAP1 DUP2 MSTORE PUSH1 0x20 ADD PUSH0 KECCAK256 PUSH0 ADD SLOAD PUSH1 0x2 PUSH0 DUP8 DUP2 MSTORE PUSH1 0x20 ADD SWAP1 DUP2 MSTORE PUSH1 0x20 ADD PUSH0 KECCAK256 PUSH1 0x3 ADD SLOAD PUSH1 0x2 PUSH0 DUP9 DUP2 MSTORE PUSH1 0x20 ADD SWAP1 DUP2 MSTORE PUSH1 0x20 ADD PUSH0 KECCAK256 PUSH1 0x4 ADD SLOAD PUSH2 0xC15 JUMP JUMPDEST POP POP POP JUMP JUMPDEST PUSH1 0x60 DUP3 PUSH1 0x4 PUSH0 DUP3 DUP2 MSTORE PUSH1 0x20 ADD SWAP1 DUP2 MSTORE PUSH1 0x20 ADD PUSH0 KECCAK256 PUSH0 SWAP1 SLOAD SWAP1 PUSH2 0x100 EXP SWAP1 DIV PUSH1 0xFF AND PUSH2 0x652 JUMPI PUSH1 0x40 MLOAD PUSH32 0x8C379A000000000000000000000000000000000000000000000000000000000 DUP2 MSTORE PUSH1 0x4 ADD PUSH2 0x649 SWAP1 PUSH2 0x1C25 JUMP JUMPDEST PUSH1 0x40 MLOAD DUP1 SWAP2 SUB SWAP1 REVERT JUMPDEST DUP4 PUSH1 0x2 PUSH0 DUP3 DUP2 MSTORE PUSH1 0x20 ADD SWAP1 DUP2 MSTORE PUSH1 0x20 ADD PUSH0 KECCAK256 PUSH1 0x1 ADD PUSH0 SWAP1 SLOAD SWAP1 PUSH2 0x100 EXP SWAP1 DIV PUSH20 0xFFFFFFFFFFFFFFFFFFFFFFFFFFFFFFFFFFFFFFFF AND PUSH20 0xFFFFFFFFFFFFFFFFFFFFFFFFFFFFFFFFFFFFFFFF AND CALLER PUSH20 0xFFFFFFFFFFFFFFFFFFFFFFFFFFFFFFFFFFFFFFFF AND EQ DUP1 PUSH2 0x71E JUMPI POP PUSH1 0x2 PUSH0 DUP3 DUP2 MSTORE PUSH1 0x20 ADD SWAP1 DUP2 MSTORE PUSH1 0x20 ADD PUSH0 KECCAK256 PUSH1 0x2 ADD PUSH0 SWAP1 SLOAD SWAP1 PUSH2 0x100 EXP SWAP1 DIV PUSH20 0xFFFFFFFFFFFFFFFFFFFFFFFFFFFFFFFFFFFFFFFF AND PUSH20 0xFFFFFFFFFFFFFFFFFFFFFFFFFFFFFFFFFFFFFFFF AND CALLER PUSH20 0xFFFFFFFFFFFFFFFFFFFFFFFFFFFFFFFFFFFFFFFF AND EQ JUMPDEST PUSH2 0x75D JUMPI PUSH1 0x40 MLOAD PUSH32 0x8C379A000000000000000000000000000000000000000000000000000000000 DUP2 MSTORE PUSH1 0x4 ADD PUSH2 0x754 SWAP1 PUSH2 0x1D1B JUMP JUMPDEST PUSH1 0x40 MLOAD DUP1 SWAP2 SUB SWAP1 REVERT JUMPDEST PUSH1 0x1 ISZERO ISZERO PUSH1 0x5 PUSH0 CALLER PUSH20 0xFFFFFFFFFFFFFFFFFFFFFFFFFFFFFFFFFFFFFFFF AND PUSH20 0xFFFFFFFFFFFFFFFFFFFFFFFFFFFFFFFFFFFFFFFF AND DUP2 MSTORE PUSH1 0x20 ADD SWAP1 DUP2 MSTORE PUSH1 0x20 ADD PUSH0 KECCAK256 PUSH0 DUP8 DUP2 MSTORE PUSH1 0x20 ADD SWAP1 DUP2 MSTORE PUSH1 0x20 ADD PUSH0 KECCAK256 PUSH0 SWAP1 SLOAD SWAP1 PUSH2 0x100 EXP SWAP1 DIV PUSH1 0xFF AND ISZERO ISZERO EQ PUSH2 0x7FC JUMPI PUSH1 0x40 MLOAD PUSH32 0x8C379A000000000000000000000000000000000000000000000000000000000 DUP2 MSTORE PUSH1 0x4 ADD PUSH2 0x7F3 SWAP1 PUSH2 0x1DA9 JUMP JUMPDEST PUSH1 0x40 MLOAD DUP1 SWAP2 SUB SWAP1 REVERT JUMPDEST PUSH0 PUSH1 0x1 DUP2 GT ISZERO PUSH2 0x80F JUMPI PUSH2 0x80E PUSH2 0x17BE JUMP JUMPDEST JUMPDEST PUSH1 0x2 PUSH0 DUP8 DUP2 MSTORE PUSH1 0x20 ADD SWAP1 DUP2 MSTORE PUSH1 0x20 ADD PUSH0 KECCAK256 PUSH1 0x6 ADD PUSH0 SWAP1 SLOAD SWAP1 PUSH2 0x100 EXP SWAP1 DIV PUSH1 0xFF AND PUSH1 0x1 DUP2 GT ISZERO PUSH2 0x842 JUMPI PUSH2 0x841 PUSH2 0x17BE JUMP JUMPDEST JUMPDEST EQ PUSH2 0x882 JUMPI PUSH1 0x40 MLOAD PUSH32 0x8C379A000000000000000000000000000000000000000000000000000000000 DUP2 MSTORE PUSH1 0x4 ADD PUSH2 0x879 SWAP1 PUSH2 0x1E11 JUMP JUMPDEST PUSH1 0x40 MLOAD DUP1 SWAP2 SUB SWAP1 REVERT JUMPDEST PUSH1 0x2 PUSH0 DUP7 DUP2 MSTORE PUSH1 0x20 ADD SWAP1 DUP2 MSTORE PUSH1 0x20 ADD PUSH0 KECCAK256 PUSH1 0x3 ADD SLOAD DUP5 LT ISZERO DUP1 ISZERO PUSH2 0x8BA JUMPI POP PUSH1 0x2 PUSH0 DUP7 DUP2 MSTORE PUSH1 0x20 ADD SWAP1 DUP2 MSTORE PUSH1 0x20 ADD PUSH0 KECCAK256 PUSH1 0x4 ADD SLOAD DUP5 GT ISZERO JUMPDEST PUSH2 0x8F9 JUMPI PUSH1 0x40 MLOAD PUSH32 0x8C379A000000000000000000000000000000000000000000000000000000000 DUP2 MSTORE PUSH1 0x4 ADD PUSH2 0x8F0 SWAP1 PUSH2 0x1E79 JUMP JUMPDEST PUSH1 0x40 MLOAD DUP1 SWAP2 SUB SWAP1 REVERT JUMPDEST PUSH1 0x2 PUSH0 DUP7 DUP2 MSTORE PUSH1 0x20 ADD SWAP1 DUP2 MSTORE PUSH1 0x20 ADD PUSH0 KECCAK256 PUSH1 0x5 ADD SLOAD DUP5 GT ISZERO PUSH2 0x952 JUMPI PUSH1 0x40 MLOAD DUP1 PUSH1 0x40 ADD PUSH1 0x40 MSTORE DUP1 PUSH1 0x18 DUP2 MSTORE PUSH1 0x20 ADD PUSH32 0x596F7572206E756D62657220697320746F6F2067726561740000000000000000 DUP2 MSTORE POP SWAP3 POP PUSH2 0xC08 JUMP JUMPDEST PUSH1 0x2 PUSH0 DUP7 DUP2 MSTORE PUSH1 0x20 ADD SWAP1 DUP2 MSTORE PUSH1 0x20 ADD PUSH0 KECCAK256 PUSH1 0x5 ADD SLOAD DUP5 LT ISZERO PUSH2 0x9AB JUMPI PUSH1 0x40 MLOAD DUP1 PUSH1 0x40 ADD PUSH1 0x40 MSTORE DUP1 PUSH1 0x18 DUP2 MSTORE PUSH1 0x20 ADD PUSH32 0x596F7572206E756D62657220697320746F6F20736D616C6C0000000000000000 DUP2 MSTORE POP SWAP3 POP PUSH2 0xC08 JUMP JUMPDEST PUSH1 0x2 PUSH0 DUP7 DUP2 MSTORE PUSH1 0x20 ADD SWAP1 DUP2 MSTORE PUSH1 0x20 ADD PUSH0 KECCAK256 PUSH1 0x1 ADD PUSH0 SWAP1 SLOAD SWAP1 PUSH2 0x100 EXP SWAP1 DIV PUSH20 0xFFFFFFFFFFFFFFFFFFFFFFFFFFFFFFFFFFFFFFFF AND PUSH20 0xFFFFFFFFFFFFFFFFFFFFFFFFFFFFFFFFFFFFFFFF AND CALLER PUSH20 0xFFFFFFFFFFFFFFFFFFFFFFFFFFFFFFFFFFFFFFFF AND SUB PUSH2 0xA52 JUMPI PUSH0 PUSH1 0x2 PUSH0 DUP8 DUP2 MSTORE PUSH1 0x20 ADD SWAP1 DUP2 MSTORE PUSH1 0x20 ADD PUSH0 KECCAK256 PUSH1 0x6 ADD PUSH1 0x1 PUSH2 0x100 EXP DUP2 SLOAD DUP2 PUSH1 0xFF MUL NOT AND SWAP1 DUP4 PUSH1 0x1 DUP2 GT ISZERO PUSH2 0xA48 JUMPI PUSH2 0xA47 PUSH2 0x17BE JUMP JUMPDEST JUMPDEST MUL OR SWAP1 SSTORE POP PUSH2 0xAF7 JUMP JUMPDEST PUSH1 0x2 PUSH0 DUP7 DUP2 MSTORE PUSH1 0x20 ADD SWAP1 DUP2 MSTORE PUSH1 0x20 ADD PUSH0 KECCAK256 PUSH1 0x2 ADD PUSH0 SWAP1 SLOAD SWAP1 PUSH2 0x100 EXP SWAP1 DIV PUSH20 0xFFFFFFFFFFFFFFFFFFFFFFFFFFFFFFFFFFFFFFFF AND PUSH20 0xFFFFFFFFFFFFFFFFFFFFFFFFFFFFFFFFFFFFFFFF AND CALLER PUSH20 0xFFFFFFFFFFFFFFFFFFFFFFFFFFFFFFFFFFFFFFFF AND SUB PUSH2 0xAF6 JUMPI PUSH1 0x1 PUSH1 0x2 PUSH0 DUP8 DUP2 MSTORE PUSH1 0x20 ADD SWAP1 DUP2 MSTORE PUSH1 0x20 ADD PUSH0 KECCAK256 PUSH1 0x6 ADD PUSH1 0x1 PUSH2 0x100 EXP DUP2 SLOAD DUP2 PUSH1 0xFF MUL NOT AND SWAP1 DUP4 PUSH1 0x1 DUP2 GT ISZERO PUSH2 0xAF0 JUMPI PUSH2 0xAEF PUSH2 0x17BE JUMP JUMPDEST JUMPDEST MUL OR SWAP1 SSTORE POP JUMPDEST JUMPDEST CALLER PUSH20 0xFFFFFFFFFFFFFFFFFFFFFFFFFFFFFFFFFFFFFFFF AND PUSH2 0x8FC PUSH1 0x2 PUSH8 0xDE0B6B3A7640000 PUSH1 0x2 PUSH0 DUP11 DUP2 MSTORE PUSH1 0x20 ADD SWAP1 DUP2 MSTORE PUSH1 0x20 ADD PUSH0 KECCAK256 PUSH0 ADD SLOAD PUSH2 0xB3A SWAP2 SWAP1 PUSH2 0x1E97 JUMP JUMPDEST PUSH2 0xB44 SWAP2 SWAP1 PUSH2 0x1E97 JUMP JUMPDEST SWAP1 DUP2 ISZERO MUL SWAP1 PUSH1 0x40 MLOAD PUSH0 PUSH1 0x40 MLOAD DUP1 DUP4 SUB DUP2 DUP6 DUP9 DUP9 CALL SWAP4 POP POP POP POP ISZERO DUP1 ISZERO PUSH2 0xB6C JUMPI RETURNDATASIZE PUSH0 DUP1 RETURNDATACOPY RETURNDATASIZE PUSH0 REVERT JUMPDEST POP PUSH1 0x1 PUSH1 0x2 PUSH0 DUP8 DUP2 MSTORE PUSH1 0x20 ADD SWAP1 DUP2 MSTORE PUSH1 0x20 ADD PUSH0 KECCAK256 PUSH1 0x6 ADD PUSH0 PUSH2 0x100 EXP DUP2 SLOAD DUP2 PUSH1 0xFF MUL NOT AND SWAP1 DUP4 PUSH1 0x1 DUP2 GT ISZERO PUSH2 0xBA4 JUMPI PUSH2 0xBA3 PUSH2 0x17BE JUMP JUMPDEST JUMPDEST MUL OR SWAP1 SSTORE POP PUSH1 0x1 PUSH0 CALLER PUSH20 0xFFFFFFFFFFFFFFFFFFFFFFFFFFFFFFFFFFFFFFFF AND PUSH20 0xFFFFFFFFFFFFFFFFFFFFFFFFFFFFFFFFFFFFFFFF AND DUP2 MSTORE PUSH1 0x20 ADD SWAP1 DUP2 MSTORE PUSH1 0x20 ADD PUSH0 KECCAK256 PUSH1 0x40 MLOAD PUSH1 0x20 ADD PUSH2 0xBF6 SWAP2 SWAP1 PUSH2 0x1FF7 JUMP JUMPDEST PUSH1 0x40 MLOAD PUSH1 0x20 DUP2 DUP4 SUB SUB DUP2 MSTORE SWAP1 PUSH1 0x40 MSTORE SWAP3 POP JUMPDEST POP POP SWAP3 SWAP2 POP POP JUMP JUMPDEST PUSH0 SLOAD DUP2 JUMP JUMPDEST DUP4 PUSH20 0xFFFFFFFFFFFFFFFFFFFFFFFFFFFFFFFFFFFFFFFF AND CALLER PUSH20 0xFFFFFFFFFFFFFFFFFFFFFFFFFFFFFFFFFFFFFFFF AND SUB PUSH2 0xC83 JUMPI PUSH1 0x40 MLOAD PUSH32 0x8C379A000000000000000000000000000000000000000000000000000000000 DUP2 MSTORE PUSH1 0x4 ADD PUSH2 0xC7A SWAP1 PUSH2 0x2066 JUMP JUMPDEST PUSH1 0x40 MLOAD DUP1 SWAP2 SUB SWAP1 REVERT JUMPDEST PUSH0 DUP4 LT ISZERO PUSH2 0xCC6 JUMPI PUSH1 0x40 MLOAD PUSH32 0x8C379A000000000000000000000000000000000000000000000000000000000 DUP2 MSTORE PUSH1 0x4 ADD PUSH2 0xCBD SWAP1 PUSH2 0x20F4 JUMP JUMPDEST PUSH1 0x40 MLOAD DUP1 SWAP2 SUB SWAP1 REVERT JUMPDEST DUP1 DUP3 LT PUSH2 0xD08 JUMPI PUSH1 0x40 MLOAD PUSH32 0x8C379A000000000000000000000000000000000000000000000000000000000 DUP2 MSTORE PUSH1 0x4 ADD PUSH2 0xCFF SWAP1 PUSH2 0x2182 JUMP JUMPDEST PUSH1 0x40 MLOAD DUP1 SWAP2 SUB SWAP1 REVERT JUMPDEST PUSH0 DUP1 DUP2 SLOAD DUP1 SWAP3 SWAP2 SWAP1 PUSH2 0xD19 SWAP1 PUSH2 0x21A0 JUMP JUMPDEST SWAP2 SWAP1 POP SSTORE POP PUSH0 PUSH1 0x2 PUSH0 DUP1 SLOAD DUP2 MSTORE PUSH1 0x20 ADD SWAP1 DUP2 MSTORE PUSH1 0x20 ADD PUSH0 KECCAK256 SWAP1 POP PUSH1 0x1 PUSH1 0x4 PUSH0 DUP1 SLOAD DUP2 MSTORE PUSH1 0x20 ADD SWAP1 DUP2 MSTORE PUSH1 0x20 ADD PUSH0 KECCAK256 PUSH0 PUSH2 0x100 EXP DUP2 SLOAD DUP2 PUSH1 0xFF MUL NOT AND SWAP1 DUP4 ISZERO ISZERO MUL OR SWAP1 SSTORE POP DUP4 DUP2 PUSH0 ADD DUP2 SWAP1 SSTORE POP CALLER DUP2 PUSH1 0x1 ADD PUSH0 PUSH2 0x100 EXP DUP2 SLOAD DUP2 PUSH20 0xFFFFFFFFFFFFFFFFFFFFFFFFFFFFFFFFFFFFFFFF MUL NOT AND SWAP1 DUP4 PUSH20 0xFFFFFFFFFFFFFFFFFFFFFFFFFFFFFFFFFFFFFFFF AND MUL OR SWAP1 SSTORE POP DUP5 DUP2 PUSH1 0x2 ADD PUSH0 PUSH2 0x100 EXP DUP2 SLOAD DUP2 PUSH20 0xFFFFFFFFFFFFFFFFFFFFFFFFFFFFFFFFFFFFFFFF MUL NOT AND SWAP1 DUP4 PUSH20 0xFFFFFFFFFFFFFFFFFFFFFFFFFFFFFFFFFFFFFFFF AND MUL OR SWAP1 SSTORE POP DUP3 DUP2 PUSH1 0x3 ADD DUP2 SWAP1 SSTORE POP DUP2 DUP2 PUSH1 0x4 ADD DUP2 SWAP1 SSTORE POP PUSH0 DUP2 PUSH1 0x6 ADD PUSH0 PUSH2 0x100 EXP DUP2 SLOAD DUP2 PUSH1 0xFF MUL NOT AND SWAP1 DUP4 PUSH1 0x1 DUP2 GT ISZERO PUSH2 0xE21 JUMPI PUSH2 0xE20 PUSH2 0x17BE JUMP JUMPDEST JUMPDEST MUL OR SWAP1 SSTORE POP PUSH2 0xE32 PUSH0 SLOAD DUP5 DUP5 PUSH2 0x136E JUMP JUMPDEST DUP2 PUSH1 0x5 ADD DUP2 SWAP1 SSTORE POP POP POP POP POP POP JUMP JUMPDEST PUSH0 PUSH1 0x6 PUSH0 CALLER PUSH20 0xFFFFFFFFFFFFFFFFFFFFFFFFFFFFFFFFFFFFFFFF AND PUSH20 0xFFFFFFFFFFFFFFFFFFFFFFFFFFFFFFFFFFFFFFFF AND DUP2 MSTORE PUSH1 0x20 ADD SWAP1 DUP2 MSTORE PUSH1 0x20 ADD PUSH0 KECCAK256 SLOAD GT PUSH2 0xEC0 JUMPI PUSH1 0x40 MLOAD PUSH32 0x8C379A000000000000000000000000000000000000000000000000000000000 DUP2 MSTORE PUSH1 0x4 ADD PUSH2 0xEB7 SWAP1 PUSH2 0x2231 JUMP JUMPDEST PUSH1 0x40 MLOAD DUP1 SWAP2 SUB SWAP1 REVERT JUMPDEST CALLER PUSH20 0xFFFFFFFFFFFFFFFFFFFFFFFFFFFFFFFFFFFFFFFF AND PUSH2 0x8FC PUSH1 0x6 PUSH0 CALLER PUSH20 0xFFFFFFFFFFFFFFFFFFFFFFFFFFFFFFFFFFFFFFFF AND PUSH20 0xFFFFFFFFFFFFFFFFFFFFFFFFFFFFFFFFFFFFFFFF AND DUP2 MSTORE PUSH1 0x20 ADD SWAP1 DUP2 MSTORE PUSH1 0x20 ADD PUSH0 KECCAK256 SLOAD SWAP1 DUP2 ISZERO MUL SWAP1 PUSH1 0x40 MLOAD PUSH0 PUSH1 0x40 MLOAD DUP1 DUP4 SUB DUP2 DUP6 DUP9 DUP9 CALL SWAP4 POP POP POP POP ISZERO DUP1 ISZERO PUSH2 0xF40 JUMPI RETURNDATASIZE PUSH0 DUP1 RETURNDATACOPY RETURNDATASIZE PUSH0 REVERT JUMPDEST POP JUMP JUMPDEST DUP1 PUSH1 0x4 PUSH0 DUP3 DUP2 MSTORE PUSH1 0x20 ADD SWAP1 DUP2 MSTORE PUSH1 0x20 ADD PUSH0 KECCAK256 PUSH0 SWAP1 SLOAD SWAP1 PUSH2 0x100 EXP SWAP1 DIV PUSH1 0xFF AND PUSH2 0xFA1 JUMPI PUSH1 0x40 MLOAD PUSH32 0x8C379A000000000000000000000000000000000000000000000000000000000 DUP2 MSTORE PUSH1 0x4 ADD PUSH2 0xF98 SWAP1 PUSH2 0x1C25 JUMP JUMPDEST PUSH1 0x40 MLOAD DUP1 SWAP2 SUB SWAP1 REVERT JUMPDEST DUP2 PUSH1 0x2 PUSH0 DUP3 DUP2 MSTORE PUSH1 0x20 ADD SWAP1 DUP2 MSTORE PUSH1 0x20 ADD PUSH0 KECCAK256 PUSH1 0x1 ADD PUSH0 SWAP1 SLOAD SWAP1 PUSH2 0x100 EXP SWAP1 DIV PUSH20 0xFFFFFFFFFFFFFFFFFFFFFFFFFFFFFFFFFFFFFFFF AND PUSH20 0xFFFFFFFFFFFFFFFFFFFFFFFFFFFFFFFFFFFFFFFF AND CALLER PUSH20 0xFFFFFFFFFFFFFFFFFFFFFFFFFFFFFFFFFFFFFFFF AND EQ DUP1 PUSH2 0x106D JUMPI POP PUSH1 0x2 PUSH0 DUP3 DUP2 MSTORE PUSH1 0x20 ADD SWAP1 DUP2 MSTORE PUSH1 0x20 ADD PUSH0 KECCAK256 PUSH1 0x2 ADD PUSH0 SWAP1 SLOAD SWAP1 PUSH2 0x100 EXP SWAP1 DIV PUSH20 0xFFFFFFFFFFFFFFFFFFFFFFFFFFFFFFFFFFFFFFFF AND PUSH20 0xFFFFFFFFFFFFFFFFFFFFFFFFFFFFFFFFFFFFFFFF AND CALLER PUSH20 0xFFFFFFFFFFFFFFFFFFFFFFFFFFFFFFFFFFFFFFFF AND EQ JUMPDEST PUSH2 0x10AC JUMPI PUSH1 0x40 MLOAD PUSH32 0x8C379A000000000000000000000000000000000000000000000000000000000 DUP2 MSTORE PUSH1 0x4 ADD PUSH2 0x10A3 SWAP1 PUSH2 0x1D1B JUMP JUMPDEST PUSH1 0x40 MLOAD DUP1 SWAP2 SUB SWAP1 REVERT JUMPDEST PUSH0 PUSH8 0xDE0B6B3A7640000 PUSH1 0x2 PUSH0 DUP7 DUP2 MSTORE PUSH1 0x20 ADD SWAP1 DUP2 MSTORE PUSH1 0x20 ADD PUSH0 KECCAK256 PUSH0 ADD SLOAD PUSH2 0x10D4 SWAP2 SWAP1 PUSH2 0x1E97 JUMP JUMPDEST SWAP1 POP DUP1 CALLVALUE EQ PUSH2 0x10F5 PUSH1 0x2 PUSH0 DUP8 DUP2 MSTORE PUSH1 0x20 ADD SWAP1 DUP2 MSTORE PUSH1 0x20 ADD PUSH0 KECCAK256 PUSH0 ADD SLOAD PUSH2 0x1436 JUMP JUMPDEST PUSH1 0x40 MLOAD PUSH1 0x20 ADD PUSH2 0x1105 SWAP2 SWAP1 PUSH2 0x2315 JUMP JUMPDEST PUSH1 0x40 MLOAD PUSH1 0x20 DUP2 DUP4 SUB SUB DUP2 MSTORE SWAP1 PUSH1 0x40 MSTORE SWAP1 PUSH2 0x1155 JUMPI PUSH1 0x40 MLOAD PUSH32 0x8C379A000000000000000000000000000000000000000000000000000000000 DUP2 MSTORE PUSH1 0x4 ADD PUSH2 0x114C SWAP2 SWAP1 PUSH2 0x19A1 JUMP JUMPDEST PUSH1 0x40 MLOAD DUP1 SWAP2 SUB SWAP1 REVERT JUMPDEST POP PUSH1 0x1 PUSH1 0x5 PUSH0 CALLER PUSH20 0xFFFFFFFFFFFFFFFFFFFFFFFFFFFFFFFFFFFFFFFF AND PUSH20 0xFFFFFFFFFFFFFFFFFFFFFFFFFFFFFFFFFFFFFFFF AND DUP2 MSTORE PUSH1 0x20 ADD SWAP1 DUP2 MSTORE PUSH1 0x20 ADD PUSH0 KECCAK256 PUSH0 DUP7 DUP2 MSTORE PUSH1 0x20 ADD SWAP1 DUP2 MSTORE PUSH1 0x20 ADD PUSH0 KECCAK256 PUSH0 PUSH2 0x100 EXP DUP2 SLOAD DUP2 PUSH1 0xFF MUL NOT AND SWAP1 DUP4 ISZERO ISZERO MUL OR SWAP1 SSTORE POP POP POP POP POP JUMP JUMPDEST DUP2 PUSH1 0x4 PUSH0 DUP3 DUP2 MSTORE PUSH1 0x20 ADD SWAP1 DUP2 MSTORE PUSH1 0x20 ADD PUSH0 KECCAK256 PUSH0 SWAP1 SLOAD SWAP1 PUSH2 0x100 EXP SWAP1 DIV PUSH1 0xFF AND PUSH2 0x121E JUMPI PUSH1 0x40 MLOAD PUSH32 0x8C379A000000000000000000000000000000000000000000000000000000000 DUP2 MSTORE PUSH1 0x4 ADD PUSH2 0x1215 SWAP1 PUSH2 0x1C25 JUMP JUMPDEST PUSH1 0x40 MLOAD DUP1 SWAP2 SUB SWAP1 REVERT JUMPDEST DUP3 CALLER PUSH20 0xFFFFFFFFFFFFFFFFFFFFFFFFFFFFFFFFFFFFFFFF AND PUSH1 0x2 PUSH0 DUP4 DUP2 MSTORE PUSH1 0x20 ADD SWAP1 DUP2 MSTORE PUSH1 0x20 ADD PUSH0 KECCAK256 PUSH1 0x1 ADD PUSH0 SWAP1 SLOAD SWAP1 PUSH2 0x100 EXP SWAP1 DIV PUSH20 0xFFFFFFFFFFFFFFFFFFFFFFFFFFFFFFFFFFFFFFFF AND PUSH20 0xFFFFFFFFFFFFFFFFFFFFFFFFFFFFFFFFFFFFFFFF AND EQ PUSH2 0x12C0 JUMPI PUSH1 0x40 MLOAD PUSH32 0x8C379A000000000000000000000000000000000000000000000000000000000 DUP2 MSTORE PUSH1 0x4 ADD PUSH2 0x12B7 SWAP1 PUSH2 0x1CB3 JUMP JUMPDEST PUSH1 0x40 MLOAD DUP1 SWAP2 SUB SWAP1 REVERT JUMPDEST PUSH0 DUP4 GT PUSH2 0x1302 JUMPI PUSH1 0x40 MLOAD PUSH32 0x8C379A000000000000000000000000000000000000000000000000000000000 DUP2 MSTORE PUSH1 0x4 ADD PUSH2 0x12F9 SWAP1 PUSH2 0x23B5 JUMP JUMPDEST PUSH1 0x40 MLOAD DUP1 SWAP2 SUB SWAP1 REVERT JUMPDEST DUP3 PUSH1 0x2 PUSH0 DUP7 DUP2 MSTORE PUSH1 0x20 ADD SWAP1 DUP2 MSTORE PUSH1 0x20 ADD PUSH0 KECCAK256 PUSH0 ADD DUP2 SWAP1 SSTORE POP POP POP POP POP JUMP JUMPDEST DUP1 PUSH1 0x1 PUSH0 CALLER PUSH20 0xFFFFFFFFFFFFFFFFFFFFFFFFFFFFFFFFFFFFFFFF AND PUSH20 0xFFFFFFFFFFFFFFFFFFFFFFFFFFFFFFFFFFFFFFFF AND DUP2 MSTORE PUSH1 0x20 ADD SWAP1 DUP2 MSTORE PUSH1 0x20 ADD PUSH0 KECCAK256 SWAP1 DUP2 PUSH2 0x136A SWAP2 SWAP1 PUSH2 0x255E JUMP JUMPDEST POP POP JUMP JUMPDEST PUSH0 DUP4 PUSH1 0x4 PUSH0 DUP3 DUP2 MSTORE PUSH1 0x20 ADD SWAP1 DUP2 MSTORE PUSH1 0x20 ADD PUSH0 KECCAK256 PUSH0 SWAP1 SLOAD SWAP1 PUSH2 0x100 EXP SWAP1 DIV PUSH1 0xFF AND PUSH2 0x13CD JUMPI PUSH1 0x40 MLOAD PUSH32 0x8C379A000000000000000000000000000000000000000000000000000000000 DUP2 MSTORE PUSH1 0x4 ADD PUSH2 0x13C4 SWAP1 PUSH2 0x1C25 JUMP JUMPDEST PUSH1 0x40 MLOAD DUP1 SWAP2 SUB SWAP1 REVERT JUMPDEST PUSH0 DUP5 PUSH1 0x1 DUP7 DUP7 PUSH2 0x13DD SWAP2 SWAP1 PUSH2 0x262D JUMP JUMPDEST PUSH2 0x13E7 SWAP2 SWAP1 PUSH2 0x1687 JUMP JUMPDEST TIMESTAMP CALLER DUP10 PUSH1 0x40 MLOAD PUSH1 0x20 ADD PUSH2 0x13FC SWAP4 SWAP3 SWAP2 SWAP1 PUSH2 0x26C5 JUMP JUMPDEST PUSH1 0x40 MLOAD PUSH1 0x20 DUP2 DUP4 SUB SUB DUP2 MSTORE SWAP1 PUSH1 0x40 MSTORE DUP1 MLOAD SWAP1 PUSH1 0x20 ADD KECCAK256 PUSH0 SHR PUSH2 0x141E SWAP2 SWAP1 PUSH2 0x272E JUMP JUMPDEST PUSH2 0x1428 SWAP2 SWAP1 PUSH2 0x1687 JUMP JUMPDEST SWAP1 POP DUP1 SWAP3 POP POP POP SWAP4 SWAP3 POP POP POP JUMP JUMPDEST PUSH1 0x60 PUSH0 PUSH1 0x1 PUSH2 0x1444 DUP5 PUSH2 0x1500 JUMP JUMPDEST ADD SWAP1 POP PUSH0 DUP2 PUSH8 0xFFFFFFFFFFFFFFFF DUP2 GT ISZERO PUSH2 0x1462 JUMPI PUSH2 0x1461 PUSH2 0x1A70 JUMP JUMPDEST JUMPDEST PUSH1 0x40 MLOAD SWAP1 DUP1 DUP3 MSTORE DUP1 PUSH1 0x1F ADD PUSH1 0x1F NOT AND PUSH1 0x20 ADD DUP3 ADD PUSH1 0x40 MSTORE DUP1 ISZERO PUSH2 0x1494 JUMPI DUP2 PUSH1 0x20 ADD PUSH1 0x1 DUP3 MUL DUP1 CALLDATASIZE DUP4 CALLDATACOPY DUP1 DUP3 ADD SWAP2 POP POP SWAP1 POP JUMPDEST POP SWAP1 POP PUSH0 DUP3 PUSH1 0x20 ADD DUP3 ADD SWAP1 POP JUMPDEST PUSH1 0x1 ISZERO PUSH2 0x14F5 JUMPI DUP1 DUP1 PUSH1 0x1 SWAP1 SUB SWAP2 POP POP PUSH32 0x3031323334353637383961626364656600000000000000000000000000000000 PUSH1 0xA DUP7 MOD BYTE DUP2 MSTORE8 PUSH1 0xA DUP6 DUP2 PUSH2 0x14EA JUMPI PUSH2 0x14E9 PUSH2 0x2701 JUMP JUMPDEST JUMPDEST DIV SWAP5 POP PUSH0 DUP6 SUB PUSH2 0x14A1 JUMPI JUMPDEST DUP2 SWAP4 POP POP POP POP SWAP2 SWAP1 POP JUMP JUMPDEST PUSH0 DUP1 PUSH0 SWAP1 POP PUSH27 0x184F03E93FF9F4DAA797ED6E38ED64BF6A1F010000000000000000 DUP4 LT PUSH2 0x155C JUMPI PUSH27 0x184F03E93FF9F4DAA797ED6E38ED64BF6A1F010000000000000000 DUP4 DUP2 PUSH2 0x1552 JUMPI PUSH2 0x1551 PUSH2 0x2701 JUMP JUMPDEST JUMPDEST DIV SWAP3 POP PUSH1 0x40 DUP2 ADD SWAP1 POP JUMPDEST PUSH14 0x4EE2D6D415B85ACEF8100000000 DUP4 LT PUSH2 0x1599 JUMPI PUSH14 0x4EE2D6D415B85ACEF8100000000 DUP4 DUP2 PUSH2 0x158F JUMPI PUSH2 0x158E PUSH2 0x2701 JUMP JUMPDEST JUMPDEST DIV SWAP3 POP PUSH1 0x20 DUP2 ADD SWAP1 POP JUMPDEST PUSH7 0x2386F26FC10000 DUP4 LT PUSH2 0x15C8 JUMPI PUSH7 0x2386F26FC10000 DUP4 DUP2 PUSH2 0x15BE JUMPI PUSH2 0x15BD PUSH2 0x2701 JUMP JUMPDEST JUMPDEST DIV SWAP3 POP PUSH1 0x10 DUP2 ADD SWAP1 POP JUMPDEST PUSH4 0x5F5E100 DUP4 LT PUSH2 0x15F1 JUMPI PUSH4 0x5F5E100 DUP4 DUP2 PUSH2 0x15E7 JUMPI PUSH2 0x15E6 PUSH2 0x2701 JUMP JUMPDEST JUMPDEST DIV SWAP3 POP PUSH1 0x8 DUP2 ADD SWAP1 POP JUMPDEST PUSH2 0x2710 DUP4 LT PUSH2 0x1616 JUMPI PUSH2 0x2710 DUP4 DUP2 PUSH2 0x160C JUMPI PUSH2 0x160B PUSH2 0x2701 JUMP JUMPDEST JUMPDEST DIV SWAP3 POP PUSH1 0x4 DUP2 ADD SWAP1 POP JUMPDEST PUSH1 0x64 DUP4 LT PUSH2 0x1639 JUMPI PUSH1 0x64 DUP4 DUP2 PUSH2 0x162F JUMPI PUSH2 0x162E PUSH2 0x2701 JUMP JUMPDEST JUMPDEST DIV SWAP3 POP PUSH1 0x2 DUP2 ADD SWAP1 POP JUMPDEST PUSH1 0xA DUP4 LT PUSH2 0x1648 JUMPI PUSH1 0x1 DUP2 ADD SWAP1 POP JUMPDEST DUP1 SWAP2 POP POP SWAP2 SWAP1 POP JUMP JUMPDEST PUSH0 DUP2 SWAP1 POP SWAP2 SWAP1 POP JUMP JUMPDEST PUSH32 0x4E487B7100000000000000000000000000000000000000000000000000000000 PUSH0 MSTORE PUSH1 0x11 PUSH1 0x4 MSTORE PUSH1 0x24 PUSH0 REVERT JUMPDEST PUSH0 PUSH2 0x1691 DUP3 PUSH2 0x1651 JUMP JUMPDEST SWAP2 POP PUSH2 0x169C DUP4 PUSH2 0x1651 JUMP JUMPDEST SWAP3 POP DUP3 DUP3 ADD SWAP1 POP DUP1 DUP3 GT ISZERO PUSH2 0x16B4 JUMPI PUSH2 0x16B3 PUSH2 0x165A JUMP JUMPDEST JUMPDEST SWAP3 SWAP2 POP POP JUMP JUMPDEST PUSH0 PUSH1 0x40 MLOAD SWAP1 POP SWAP1 JUMP JUMPDEST PUSH0 DUP1 REVERT JUMPDEST PUSH0 DUP1 REVERT JUMPDEST PUSH2 0x16D4 DUP2 PUSH2 0x1651 JUMP JUMPDEST DUP2 EQ PUSH2 0x16DE JUMPI PUSH0 DUP1 REVERT JUMPDEST POP JUMP JUMPDEST PUSH0 DUP2 CALLDATALOAD SWAP1 POP PUSH2 0x16EF DUP2 PUSH2 0x16CB JUMP JUMPDEST SWAP3 SWAP2 POP POP JUMP JUMPDEST PUSH0 DUP1 PUSH0 PUSH1 0x60 DUP5 DUP7 SUB SLT ISZERO PUSH2 0x170C JUMPI PUSH2 0x170B PUSH2 0x16C3 JUMP JUMPDEST JUMPDEST PUSH0 PUSH2 0x1719 DUP7 DUP3 DUP8 ADD PUSH2 0x16E1 JUMP JUMPDEST SWAP4 POP POP PUSH1 0x20 PUSH2 0x172A DUP7 DUP3 DUP8 ADD PUSH2 0x16E1 JUMP JUMPDEST SWAP3 POP POP PUSH1 0x40 PUSH2 0x173B DUP7 DUP3 DUP8 ADD PUSH2 0x16E1 JUMP JUMPDEST SWAP2 POP POP SWAP3 POP SWAP3 POP SWAP3 JUMP JUMPDEST PUSH0 PUSH1 0x20 DUP3 DUP5 SUB SLT ISZERO PUSH2 0x175A JUMPI PUSH2 0x1759 PUSH2 0x16C3 JUMP JUMPDEST JUMPDEST PUSH0 PUSH2 0x1767 DUP5 DUP3 DUP6 ADD PUSH2 0x16E1 JUMP JUMPDEST SWAP2 POP POP SWAP3 SWAP2 POP POP JUMP JUMPDEST PUSH2 0x1779 DUP2 PUSH2 0x1651 JUMP JUMPDEST DUP3 MSTORE POP POP JUMP JUMPDEST PUSH0 PUSH20 0xFFFFFFFFFFFFFFFFFFFFFFFFFFFFFFFFFFFFFFFF DUP3 AND SWAP1 POP SWAP2 SWAP1 POP JUMP JUMPDEST PUSH0 PUSH2 0x17A8 DUP3 PUSH2 0x177F JUMP JUMPDEST SWAP1 POP SWAP2 SWAP1 POP JUMP JUMPDEST PUSH2 0x17B8 DUP2 PUSH2 0x179E JUMP JUMPDEST DUP3 MSTORE POP POP JUMP JUMPDEST PUSH32 0x4E487B7100000000000000000000000000000000000000000000000000000000 PUSH0 MSTORE PUSH1 0x21 PUSH1 0x4 MSTORE PUSH1 0x24 PUSH0 REVERT JUMPDEST PUSH1 0x2 DUP2 LT PUSH2 0x17FC JUMPI PUSH2 0x17FB PUSH2 0x17BE JUMP JUMPDEST JUMPDEST POP JUMP JUMPDEST PUSH0 DUP2 SWAP1 POP PUSH2 0x180C DUP3 PUSH2 0x17EB JUMP JUMPDEST SWAP2 SWAP1 POP JUMP JUMPDEST PUSH0 PUSH2 0x181B DUP3 PUSH2 0x17FF JUMP JUMPDEST SWAP1 POP SWAP2 SWAP1 POP JUMP JUMPDEST PUSH2 0x182B DUP2 PUSH2 0x1811 JUMP JUMPDEST DUP3 MSTORE POP POP JUMP JUMPDEST PUSH1 0x2 DUP2 LT PUSH2 0x1842 JUMPI PUSH2 0x1841 PUSH2 0x17BE JUMP JUMPDEST JUMPDEST POP JUMP JUMPDEST PUSH0 DUP2 SWAP1 POP PUSH2 0x1852 DUP3 PUSH2 0x1831 JUMP JUMPDEST SWAP2 SWAP1 POP JUMP JUMPDEST PUSH0 PUSH2 0x1861 DUP3 PUSH2 0x1845 JUMP JUMPDEST SWAP1 POP SWAP2 SWAP1 POP JUMP JUMPDEST PUSH2 0x1871 DUP2 PUSH2 0x1857 JUMP JUMPDEST DUP3 MSTORE POP POP JUMP JUMPDEST PUSH0 PUSH2 0x100 DUP3 ADD SWAP1 POP PUSH2 0x188B PUSH0 DUP4 ADD DUP12 PUSH2 0x1770 JUMP JUMPDEST PUSH2 0x1898 PUSH1 0x20 DUP4 ADD DUP11 PUSH2 0x17AF JUMP JUMPDEST PUSH2 0x18A5 PUSH1 0x40 DUP4 ADD DUP10 PUSH2 0x17AF JUMP JUMPDEST PUSH2 0x18B2 PUSH1 0x60 DUP4 ADD DUP9 PUSH2 0x1770 JUMP JUMPDEST PUSH2 0x18BF PUSH1 0x80 DUP4 ADD DUP8 PUSH2 0x1770 JUMP JUMPDEST PUSH2 0x18CC PUSH1 0xA0 DUP4 ADD DUP7 PUSH2 0x1770 JUMP JUMPDEST PUSH2 0x18D9 PUSH1 0xC0 DUP4 ADD DUP6 PUSH2 0x1822 JUMP JUMPDEST PUSH2 0x18E6 PUSH1 0xE0 DUP4 ADD DUP5 PUSH2 0x1868 JUMP JUMPDEST SWAP10 SWAP9 POP POP POP POP POP POP POP POP POP JUMP JUMPDEST PUSH0 DUP1 PUSH1 0x40 DUP4 DUP6 SUB SLT ISZERO PUSH2 0x1909 JUMPI PUSH2 0x1908 PUSH2 0x16C3 JUMP JUMPDEST JUMPDEST PUSH0 PUSH2 0x1916 DUP6 DUP3 DUP7 ADD PUSH2 0x16E1 JUMP JUMPDEST SWAP3 POP POP PUSH1 0x20 PUSH2 0x1927 DUP6 DUP3 DUP7 ADD PUSH2 0x16E1 JUMP JUMPDEST SWAP2 POP POP SWAP3 POP SWAP3 SWAP1 POP JUMP JUMPDEST PUSH0 DUP2 MLOAD SWAP1 POP SWAP2 SWAP1 POP JUMP JUMPDEST PUSH0 DUP3 DUP3 MSTORE PUSH1 0x20 DUP3 ADD SWAP1 POP SWAP3 SWAP2 POP POP JUMP JUMPDEST DUP3 DUP2 DUP4 MCOPY PUSH0 DUP4 DUP4 ADD MSTORE POP POP POP JUMP JUMPDEST PUSH0 PUSH1 0x1F NOT PUSH1 0x1F DUP4 ADD AND SWAP1 POP SWAP2 SWAP1 POP JUMP JUMPDEST PUSH0 PUSH2 0x1973 DUP3 PUSH2 0x1931 JUMP JUMPDEST PUSH2 0x197D DUP2 DUP6 PUSH2 0x193B JUMP JUMPDEST SWAP4 POP PUSH2 0x198D DUP2 DUP6 PUSH1 0x20 DUP7 ADD PUSH2 0x194B JUMP JUMPDEST PUSH2 0x1996 DUP2 PUSH2 0x1959 JUMP JUMPDEST DUP5 ADD SWAP2 POP POP SWAP3 SWAP2 POP POP JUMP JUMPDEST PUSH0 PUSH1 0x20 DUP3 ADD SWAP1 POP DUP2 DUP2 SUB PUSH0 DUP4 ADD MSTORE PUSH2 0x19B9 DUP2 DUP5 PUSH2 0x1969 JUMP JUMPDEST SWAP1 POP SWAP3 SWAP2 POP POP JUMP JUMPDEST PUSH0 PUSH1 0x20 DUP3 ADD SWAP1 POP PUSH2 0x19D4 PUSH0 DUP4 ADD DUP5 PUSH2 0x1770 JUMP JUMPDEST SWAP3 SWAP2 POP POP JUMP JUMPDEST PUSH2 0x19E3 DUP2 PUSH2 0x179E JUMP JUMPDEST DUP2 EQ PUSH2 0x19ED JUMPI PUSH0 DUP1 REVERT JUMPDEST POP JUMP JUMPDEST PUSH0 DUP2 CALLDATALOAD SWAP1 POP PUSH2 0x19FE DUP2 PUSH2 0x19DA JUMP JUMPDEST SWAP3 SWAP2 POP POP JUMP JUMPDEST PUSH0 DUP1 PUSH0 DUP1 PUSH1 0x80 DUP6 DUP8 SUB SLT ISZERO PUSH2 0x1A1C JUMPI PUSH2 0x1A1B PUSH2 0x16C3 JUMP JUMPDEST JUMPDEST PUSH0 PUSH2 0x1A29 DUP8 DUP3 DUP9 ADD PUSH2 0x19F0 JUMP JUMPDEST SWAP5 POP POP PUSH1 0x20 PUSH2 0x1A3A DUP8 DUP3 DUP9 ADD PUSH2 0x16E1 JUMP JUMPDEST SWAP4 POP POP PUSH1 0x40 PUSH2 0x1A4B DUP8 DUP3 DUP9 ADD PUSH2 0x16E1 JUMP JUMPDEST SWAP3 POP POP PUSH1 0x60 PUSH2 0x1A5C DUP8 DUP3 DUP9 ADD PUSH2 0x16E1 JUMP JUMPDEST SWAP2 POP POP SWAP3 SWAP6 SWAP2 SWAP5 POP SWAP3 POP JUMP JUMPDEST PUSH0 DUP1 REVERT JUMPDEST PUSH0 DUP1 REVERT JUMPDEST PUSH32 0x4E487B7100000000000000000000000000000000000000000000000000000000 PUSH0 MSTORE PUSH1 0x41 PUSH1 0x4 MSTORE PUSH1 0x24 PUSH0 REVERT JUMPDEST PUSH2 0x1AA6 DUP3 PUSH2 0x1959 JUMP JUMPDEST DUP2 ADD DUP2 DUP2 LT PUSH8 0xFFFFFFFFFFFFFFFF DUP3 GT OR ISZERO PUSH2 0x1AC5 JUMPI PUSH2 0x1AC4 PUSH2 0x1A70 JUMP JUMPDEST JUMPDEST DUP1 PUSH1 0x40 MSTORE POP POP POP JUMP JUMPDEST PUSH0 PUSH2 0x1AD7 PUSH2 0x16BA JUMP JUMPDEST SWAP1 POP PUSH2 0x1AE3 DUP3 DUP3 PUSH2 0x1A9D JUMP JUMPDEST SWAP2 SWAP1 POP JUMP JUMPDEST PUSH0 PUSH8 0xFFFFFFFFFFFFFFFF DUP3 GT ISZERO PUSH2 0x1B02 JUMPI PUSH2 0x1B01 PUSH2 0x1A70 JUMP JUMPDEST JUMPDEST PUSH2 0x1B0B DUP3 PUSH2 0x1959 JUMP JUMPDEST SWAP1 POP PUSH1 0x20 DUP2 ADD SWAP1 POP SWAP2 SWAP1 POP JUMP JUMPDEST DUP3 DUP2 DUP4 CALLDATACOPY PUSH0 DUP4 DUP4 ADD MSTORE POP POP POP JUMP JUMPDEST PUSH0 PUSH2 0x1B38 PUSH2 0x1B33 DUP5 PUSH2 0x1AE8 JUMP JUMPDEST PUSH2 0x1ACE JUMP JUMPDEST SWAP1 POP DUP3 DUP2 MSTORE PUSH1 0x20 DUP2 ADD DUP5 DUP5 DUP5 ADD GT ISZERO PUSH2 0x1B54 JUMPI PUSH2 0x1B53 PUSH2 0x1A6C JUMP JUMPDEST JUMPDEST PUSH2 0x1B5F DUP5 DUP3 DUP6 PUSH2 0x1B18 JUMP JUMPDEST POP SWAP4 SWAP3 POP POP POP JUMP JUMPDEST PUSH0 DUP3 PUSH1 0x1F DUP4 ADD SLT PUSH2 0x1B7B JUMPI PUSH2 0x1B7A PUSH2 0x1A68 JUMP JUMPDEST JUMPDEST DUP2 CALLDATALOAD PUSH2 0x1B8B DUP5 DUP3 PUSH1 0x20 DUP7 ADD PUSH2 0x1B26 JUMP JUMPDEST SWAP2 POP POP SWAP3 SWAP2 POP POP JUMP JUMPDEST PUSH0 PUSH1 0x20 DUP3 DUP5 SUB SLT ISZERO PUSH2 0x1BA9 JUMPI PUSH2 0x1BA8 PUSH2 0x16C3 JUMP JUMPDEST JUMPDEST PUSH0 DUP3 ADD CALLDATALOAD PUSH8 0xFFFFFFFFFFFFFFFF DUP2 GT ISZERO PUSH2 0x1BC6 JUMPI PUSH2 0x1BC5 PUSH2 0x16C7 JUMP JUMPDEST JUMPDEST PUSH2 0x1BD2 DUP5 DUP3 DUP6 ADD PUSH2 0x1B67 JUMP JUMPDEST SWAP2 POP POP SWAP3 SWAP2 POP POP JUMP JUMPDEST PUSH32 0x5468652067616D6520646F65736E277420657869737420210000000000000000 PUSH0 DUP3 ADD MSTORE POP JUMP JUMPDEST PUSH0 PUSH2 0x1C0F PUSH1 0x18 DUP4 PUSH2 0x193B JUMP JUMPDEST SWAP2 POP PUSH2 0x1C1A DUP3 PUSH2 0x1BDB JUMP JUMPDEST PUSH1 0x20 DUP3 ADD SWAP1 POP SWAP2 SWAP1 POP JUMP JUMPDEST PUSH0 PUSH1 0x20 DUP3 ADD SWAP1 POP DUP2 DUP2 SUB PUSH0 DUP4 ADD MSTORE PUSH2 0x1C3C DUP2 PUSH2 0x1C03 JUMP JUMPDEST SWAP1 POP SWAP2 SWAP1 POP JUMP JUMPDEST PUSH32 0x596F75277265206E6F7420746865206C61756E63686572206F66207468697320 PUSH0 DUP3 ADD MSTORE PUSH32 0x67616D6500000000000000000000000000000000000000000000000000000000 PUSH1 0x20 DUP3 ADD MSTORE POP JUMP JUMPDEST PUSH0 PUSH2 0x1C9D PUSH1 0x24 DUP4 PUSH2 0x193B JUMP JUMPDEST SWAP2 POP PUSH2 0x1CA8 DUP3 PUSH2 0x1C43 JUMP JUMPDEST PUSH1 0x40 DUP3 ADD SWAP1 POP SWAP2 SWAP1 POP JUMP JUMPDEST PUSH0 PUSH1 0x20 DUP3 ADD SWAP1 POP DUP2 DUP2 SUB PUSH0 DUP4 ADD MSTORE PUSH2 0x1CCA DUP2 PUSH2 0x1C91 JUMP JUMPDEST SWAP1 POP SWAP2 SWAP1 POP JUMP JUMPDEST PUSH32 0x596F75277265206E6F74206120706C61796572206F6620746869732067616D65 PUSH0 DUP3 ADD MSTORE POP JUMP JUMPDEST PUSH0 PUSH2 0x1D05 PUSH1 0x20 DUP4 PUSH2 0x193B JUMP JUMPDEST SWAP2 POP PUSH2 0x1D10 DUP3 PUSH2 0x1CD1 JUMP JUMPDEST PUSH1 0x20 DUP3 ADD SWAP1 POP SWAP2 SWAP1 POP JUMP JUMPDEST PUSH0 PUSH1 0x20 DUP3 ADD SWAP1 POP DUP2 DUP2 SUB PUSH0 DUP4 ADD MSTORE PUSH2 0x1D32 DUP2 PUSH2 0x1CF9 JUMP JUMPDEST SWAP1 POP SWAP2 SWAP1 POP JUMP JUMPDEST PUSH32 0x596F752073686F756C642073656E6420796F75722062657474696E6720616D6F PUSH0 DUP3 ADD MSTORE PUSH32 0x756E74206265666F726520706C6179696E670000000000000000000000000000 PUSH1 0x20 DUP3 ADD MSTORE POP JUMP JUMPDEST PUSH0 PUSH2 0x1D93 PUSH1 0x32 DUP4 PUSH2 0x193B JUMP JUMPDEST SWAP2 POP PUSH2 0x1D9E DUP3 PUSH2 0x1D39 JUMP JUMPDEST PUSH1 0x40 DUP3 ADD SWAP1 POP SWAP2 SWAP1 POP JUMP JUMPDEST PUSH0 PUSH1 0x20 DUP3 ADD SWAP1 POP DUP2 DUP2 SUB PUSH0 DUP4 ADD MSTORE PUSH2 0x1DC0 DUP2 PUSH2 0x1D87 JUMP JUMPDEST SWAP1 POP SWAP2 SWAP1 POP JUMP JUMPDEST PUSH32 0x5468652067616D652068617320656E6465640000000000000000000000000000 PUSH0 DUP3 ADD MSTORE POP JUMP JUMPDEST PUSH0 PUSH2 0x1DFB PUSH1 0x12 DUP4 PUSH2 0x193B JUMP JUMPDEST SWAP2 POP PUSH2 0x1E06 DUP3 PUSH2 0x1DC7 JUMP JUMPDEST PUSH1 0x20 DUP3 ADD SWAP1 POP SWAP2 SWAP1 POP JUMP JUMPDEST PUSH0 PUSH1 0x20 DUP3 ADD SWAP1 POP DUP2 DUP2 SUB PUSH0 DUP4 ADD MSTORE PUSH2 0x1E28 DUP2 PUSH2 0x1DEF JUMP JUMPDEST SWAP1 POP SWAP2 SWAP1 POP JUMP JUMPDEST PUSH32 0x546865206E756D626572206973206F7574206F66206C696D6974730000000000 PUSH0 DUP3 ADD MSTORE POP JUMP JUMPDEST PUSH0 PUSH2 0x1E63 PUSH1 0x1B DUP4 PUSH2 0x193B JUMP JUMPDEST SWAP2 POP PUSH2 0x1E6E DUP3 PUSH2 0x1E2F JUMP JUMPDEST PUSH1 0x20 DUP3 ADD SWAP1 POP SWAP2 SWAP1 POP JUMP JUMPDEST PUSH0 PUSH1 0x20 DUP3 ADD SWAP1 POP DUP2 DUP2 SUB PUSH0 DUP4 ADD MSTORE PUSH2 0x1E90 DUP2 PUSH2 0x1E57 JUMP JUMPDEST SWAP1 POP SWAP2 SWAP1 POP JUMP JUMPDEST PUSH0 PUSH2 0x1EA1 DUP3 PUSH2 0x1651 JUMP JUMPDEST SWAP2 POP PUSH2 0x1EAC DUP4 PUSH2 0x1651 JUMP JUMPDEST SWAP3 POP DUP3 DUP3 MUL PUSH2 0x1EBA DUP2 PUSH2 0x1651 JUMP JUMPDEST SWAP2 POP DUP3 DUP3 DIV DUP5 EQ DUP4 ISZERO OR PUSH2 0x1ED1 JUMPI PUSH2 0x1ED0 PUSH2 0x165A JUMP JUMPDEST JUMPDEST POP SWAP3 SWAP2 POP POP JUMP JUMPDEST PUSH32 0x5468652077696E6E657220697320000000000000000000000000000000000000 DUP2 MSTORE POP JUMP JUMPDEST PUSH32 0x4E487B7100000000000000000000000000000000000000000000000000000000 PUSH0 MSTORE PUSH1 0x22 PUSH1 0x4 MSTORE PUSH1 0x24 PUSH0 REVERT JUMPDEST PUSH0 PUSH1 0x2 DUP3 DIV SWAP1 POP PUSH1 0x1 DUP3 AND DUP1 PUSH2 0x1F42 JUMPI PUSH1 0x7F DUP3 AND SWAP2 POP JUMPDEST PUSH1 0x20 DUP3 LT DUP2 SUB PUSH2 0x1F55 JUMPI PUSH2 0x1F54 PUSH2 0x1EFE JUMP JUMPDEST JUMPDEST POP SWAP2 SWAP1 POP JUMP JUMPDEST PUSH0 DUP2 SWAP1 POP SWAP3 SWAP2 POP POP JUMP JUMPDEST PUSH0 DUP2 SWAP1 POP DUP2 PUSH0 MSTORE PUSH1 0x20 PUSH0 KECCAK256 SWAP1 POP SWAP2 SWAP1 POP JUMP JUMPDEST PUSH0 DUP2 SLOAD PUSH2 0x1F83 DUP2 PUSH2 0x1F2B JUMP JUMPDEST PUSH2 0x1F8D DUP2 DUP7 PUSH2 0x1F5B JUMP JUMPDEST SWAP5 POP PUSH1 0x1 DUP3 AND PUSH0 DUP2 EQ PUSH2 0x1FA7 JUMPI PUSH1 0x1 DUP2 EQ PUSH2 0x1FBC JUMPI PUSH2 0x1FEE JUMP JUMPDEST PUSH1 0xFF NOT DUP4 AND DUP7 MSTORE DUP2 ISZERO ISZERO DUP3 MUL DUP7 ADD SWAP4 POP PUSH2 0x1FEE JUMP JUMPDEST PUSH2 0x1FC5 DUP6 PUSH2 0x1F65 JUMP JUMPDEST PUSH0 JUMPDEST DUP4 DUP2 LT ISZERO PUSH2 0x1FE6 JUMPI DUP2 SLOAD DUP2 DUP10 ADD MSTORE PUSH1 0x1 DUP3 ADD SWAP2 POP PUSH1 0x20 DUP2 ADD SWAP1 POP PUSH2 0x1FC7 JUMP JUMPDEST DUP4 DUP9 ADD SWAP6 POP POP POP JUMPDEST POP POP POP SWAP3 SWAP2 POP POP JUMP JUMPDEST PUSH0 PUSH2 0x2001 DUP3 PUSH2 0x1ED8 JUMP JUMPDEST PUSH1 0xE DUP3 ADD SWAP2 POP PUSH2 0x2011 DUP3 DUP5 PUSH2 0x1F77 JUMP JUMPDEST SWAP2 POP DUP2 SWAP1 POP SWAP3 SWAP2 POP POP JUMP JUMPDEST PUSH32 0x596F752063616E277420706C617920616761696E737420796F757273656C6600 PUSH0 DUP3 ADD MSTORE POP JUMP JUMPDEST PUSH0 PUSH2 0x2050 PUSH1 0x1F DUP4 PUSH2 0x193B JUMP JUMPDEST SWAP2 POP PUSH2 0x205B DUP3 PUSH2 0x201C JUMP JUMPDEST PUSH1 0x20 DUP3 ADD SWAP1 POP SWAP2 SWAP1 POP JUMP JUMPDEST PUSH0 PUSH1 0x20 DUP3 ADD SWAP1 POP DUP2 DUP2 SUB PUSH0 DUP4 ADD MSTORE PUSH2 0x207D DUP2 PUSH2 0x2044 JUMP JUMPDEST SWAP1 POP SWAP2 SWAP1 POP JUMP JUMPDEST PUSH32 0x5468652062657474696E6720616D6F756E742073686F756C6420626520706F73 PUSH0 DUP3 ADD MSTORE PUSH32 0x6974697665000000000000000000000000000000000000000000000000000000 PUSH1 0x20 DUP3 ADD MSTORE POP JUMP JUMPDEST PUSH0 PUSH2 0x20DE PUSH1 0x25 DUP4 PUSH2 0x193B JUMP JUMPDEST SWAP2 POP PUSH2 0x20E9 DUP3 PUSH2 0x2084 JUMP JUMPDEST PUSH1 0x40 DUP3 ADD SWAP1 POP SWAP2 SWAP1 POP JUMP JUMPDEST PUSH0 PUSH1 0x20 DUP3 ADD SWAP1 POP DUP2 DUP2 SUB PUSH0 DUP4 ADD MSTORE PUSH2 0x210B DUP2 PUSH2 0x20D2 JUMP JUMPDEST SWAP1 POP SWAP2 SWAP1 POP JUMP JUMPDEST PUSH32 0x546865206C6F776572206C696D69742073686F756C64206265206C6573732074 PUSH0 DUP3 ADD MSTORE PUSH32 0x68616E2074686520757070657200000000000000000000000000000000000000 PUSH1 0x20 DUP3 ADD MSTORE POP JUMP JUMPDEST PUSH0 PUSH2 0x216C PUSH1 0x2D DUP4 PUSH2 0x193B JUMP JUMPDEST SWAP2 POP PUSH2 0x2177 DUP3 PUSH2 0x2112 JUMP JUMPDEST PUSH1 0x40 DUP3 ADD SWAP1 POP SWAP2 SWAP1 POP JUMP JUMPDEST PUSH0 PUSH1 0x20 DUP3 ADD SWAP1 POP DUP2 DUP2 SUB PUSH0 DUP4 ADD MSTORE PUSH2 0x2199 DUP2 PUSH2 0x2160 JUMP JUMPDEST SWAP1 POP SWAP2 SWAP1 POP JUMP JUMPDEST PUSH0 PUSH2 0x21AA DUP3 PUSH2 0x1651 JUMP JUMPDEST SWAP2 POP PUSH32 0xFFFFFFFFFFFFFFFFFFFFFFFFFFFFFFFFFFFFFFFFFFFFFFFFFFFFFFFFFFFFFFFF DUP3 SUB PUSH2 0x21DC JUMPI PUSH2 0x21DB PUSH2 0x165A JUMP JUMPDEST JUMPDEST PUSH1 0x1 DUP3 ADD SWAP1 POP SWAP2 SWAP1 POP JUMP JUMPDEST PUSH32 0x596F7520646F6E277420686176652066756E6473000000000000000000000000 PUSH0 DUP3 ADD MSTORE POP JUMP JUMPDEST PUSH0 PUSH2 0x221B PUSH1 0x14 DUP4 PUSH2 0x193B JUMP JUMPDEST SWAP2 POP PUSH2 0x2226 DUP3 PUSH2 0x21E7 JUMP JUMPDEST PUSH1 0x20 DUP3 ADD SWAP1 POP SWAP2 SWAP1 POP JUMP JUMPDEST PUSH0 PUSH1 0x20 DUP3 ADD SWAP1 POP DUP2 DUP2 SUB PUSH0 DUP4 ADD MSTORE PUSH2 0x2248 DUP2 PUSH2 0x220F JUMP JUMPDEST SWAP1 POP SWAP2 SWAP1 POP JUMP JUMPDEST PUSH32 0x4D616B65207375726520746F2073656E642074686520726967687420616D6F75 PUSH0 DUP3 ADD MSTORE PUSH32 0x6E74206F66206574686572203A20000000000000000000000000000000000000 PUSH1 0x20 DUP3 ADD MSTORE POP JUMP JUMPDEST PUSH0 PUSH2 0x22A9 PUSH1 0x2E DUP4 PUSH2 0x1F5B JUMP JUMPDEST SWAP2 POP PUSH2 0x22B4 DUP3 PUSH2 0x224F JUMP JUMPDEST PUSH1 0x2E DUP3 ADD SWAP1 POP SWAP2 SWAP1 POP JUMP JUMPDEST PUSH0 PUSH2 0x22C9 DUP3 PUSH2 0x1931 JUMP JUMPDEST PUSH2 0x22D3 DUP2 DUP6 PUSH2 0x1F5B JUMP JUMPDEST SWAP4 POP PUSH2 0x22E3 DUP2 DUP6 PUSH1 0x20 DUP7 ADD PUSH2 0x194B JUMP JUMPDEST DUP1 DUP5 ADD SWAP2 POP POP SWAP3 SWAP2 POP POP JUMP JUMPDEST PUSH32 0x2065746865720000000000000000000000000000000000000000000000000000 DUP2 MSTORE POP JUMP JUMPDEST PUSH0 PUSH2 0x231F DUP3 PUSH2 0x229D JUMP JUMPDEST SWAP2 POP PUSH2 0x232B DUP3 DUP5 PUSH2 0x22BF JUMP JUMPDEST SWAP2 POP PUSH2 0x2336 DUP3 PUSH2 0x22EF JUMP JUMPDEST PUSH1 0x6 DUP3 ADD SWAP2 POP DUP2 SWAP1 POP SWAP3 SWAP2 POP POP JUMP JUMPDEST PUSH32 0x54686520616D6F756E742073686F756C64206265206772656174657220746861 PUSH0 DUP3 ADD MSTORE PUSH32 0x6E20300000000000000000000000000000000000000000000000000000000000 PUSH1 0x20 DUP3 ADD MSTORE POP JUMP JUMPDEST PUSH0 PUSH2 0x239F PUSH1 0x23 DUP4 PUSH2 0x193B JUMP JUMPDEST SWAP2 POP PUSH2 0x23AA DUP3 PUSH2 0x2345 JUMP JUMPDEST PUSH1 0x40 DUP3 ADD SWAP1 POP SWAP2 SWAP1 POP JUMP JUMPDEST PUSH0 PUSH1 0x20 DUP3 ADD SWAP1 POP DUP2 DUP2 SUB PUSH0 DUP4 ADD MSTORE PUSH2 0x23CC DUP2 PUSH2 0x2393 JUMP JUMPDEST SWAP1 POP SWAP2 SWAP1 POP JUMP JUMPDEST PUSH0 PUSH1 0x20 PUSH1 0x1F DUP4 ADD DIV SWAP1 POP SWAP2 SWAP1 POP JUMP JUMPDEST PUSH0 DUP3 DUP3 SHL SWAP1 POP SWAP3 SWAP2 POP POP JUMP JUMPDEST PUSH0 PUSH1 0x8 DUP4 MUL PUSH2 0x241D PUSH32 0xFFFFFFFFFFFFFFFFFFFFFFFFFFFFFFFFFFFFFFFFFFFFFFFFFFFFFFFFFFFFFFFF DUP3 PUSH2 0x23E2 JUMP JUMPDEST PUSH2 0x2427 DUP7 DUP4 PUSH2 0x23E2 JUMP JUMPDEST SWAP6 POP DUP1 NOT DUP5 AND SWAP4 POP DUP1 DUP7 AND DUP5 OR SWAP3 POP POP POP SWAP4 SWAP3 POP POP POP JUMP JUMPDEST PUSH0 DUP2 SWAP1 POP SWAP2 SWAP1 POP JUMP JUMPDEST PUSH0 PUSH2 0x2462 PUSH2 0x245D PUSH2 0x2458 DUP5 PUSH2 0x1651 JUMP JUMPDEST PUSH2 0x243F JUMP JUMPDEST PUSH2 0x1651 JUMP JUMPDEST SWAP1 POP SWAP2 SWAP1 POP JUMP JUMPDEST PUSH0 DUP2 SWAP1 POP SWAP2 SWAP1 POP JUMP JUMPDEST PUSH2 0x247B DUP4 PUSH2 0x2448 JUMP JUMPDEST PUSH2 0x248F PUSH2 0x2487 DUP3 PUSH2 0x2469 JUMP JUMPDEST DUP5 DUP5 SLOAD PUSH2 0x23EE JUMP JUMPDEST DUP3 SSTORE POP POP POP POP JUMP JUMPDEST PUSH0 SWAP1 JUMP JUMPDEST PUSH2 0x24A3 PUSH2 0x2497 JUMP JUMPDEST PUSH2 0x24AE DUP2 DUP5 DUP5 PUSH2 0x2472 JUMP JUMPDEST POP POP POP JUMP JUMPDEST JUMPDEST DUP2 DUP2 LT ISZERO PUSH2 0x24D1 JUMPI PUSH2 0x24C6 PUSH0 DUP3 PUSH2 0x249B JUMP JUMPDEST PUSH1 0x1 DUP2 ADD SWAP1 POP PUSH2 0x24B4 JUMP JUMPDEST POP POP JUMP JUMPDEST PUSH1 0x1F DUP3 GT ISZERO PUSH2 0x2516 JUMPI PUSH2 0x24E7 DUP2 PUSH2 0x1F65 JUMP JUMPDEST PUSH2 0x24F0 DUP5 PUSH2 0x23D3 JUMP JUMPDEST DUP2 ADD PUSH1 0x20 DUP6 LT ISZERO PUSH2 0x24FF JUMPI DUP2 SWAP1 POP JUMPDEST PUSH2 0x2513 PUSH2 0x250B DUP6 PUSH2 0x23D3 JUMP JUMPDEST DUP4 ADD DUP3 PUSH2 0x24B3 JUMP JUMPDEST POP POP JUMPDEST POP POP POP JUMP JUMPDEST PUSH0 DUP3 DUP3 SHR SWAP1 POP SWAP3 SWAP2 POP POP JUMP JUMPDEST PUSH0 PUSH2 0x2536 PUSH0 NOT DUP5 PUSH1 0x8 MUL PUSH2 0x251B JUMP JUMPDEST NOT DUP1 DUP4 AND SWAP2 POP POP SWAP3 SWAP2 POP POP JUMP JUMPDEST PUSH0 PUSH2 0x254E DUP4 DUP4 PUSH2 0x2527 JUMP JUMPDEST SWAP2 POP DUP3 PUSH1 0x2 MUL DUP3 OR SWAP1 POP SWAP3 SWAP2 POP POP JUMP JUMPDEST PUSH2 0x2567 DUP3 PUSH2 0x1931 JUMP JUMPDEST PUSH8 0xFFFFFFFFFFFFFFFF DUP2 GT ISZERO PUSH2 0x2580 JUMPI PUSH2 0x257F PUSH2 0x1A70 JUMP JUMPDEST JUMPDEST PUSH2 0x258A DUP3 SLOAD PUSH2 0x1F2B JUMP JUMPDEST PUSH2 0x2595 DUP3 DUP3 DUP6 PUSH2 0x24D5 JUMP JUMPDEST PUSH0 PUSH1 0x20 SWAP1 POP PUSH1 0x1F DUP4 GT PUSH1 0x1 DUP2 EQ PUSH2 0x25C6 JUMPI PUSH0 DUP5 ISZERO PUSH2 0x25B4 JUMPI DUP3 DUP8 ADD MLOAD SWAP1 POP JUMPDEST PUSH2 0x25BE DUP6 DUP3 PUSH2 0x2543 JUMP JUMPDEST DUP7 SSTORE POP PUSH2 0x2625 JUMP JUMPDEST PUSH1 0x1F NOT DUP5 AND PUSH2 0x25D4 DUP7 PUSH2 0x1F65 JUMP JUMPDEST PUSH0 JUMPDEST DUP3 DUP2 LT ISZERO PUSH2 0x25FB JUMPI DUP5 DUP10 ADD MLOAD DUP3 SSTORE PUSH1 0x1 DUP3 ADD SWAP2 POP PUSH1 0x20 DUP6 ADD SWAP5 POP PUSH1 0x20 DUP2 ADD SWAP1 POP PUSH2 0x25D6 JUMP JUMPDEST DUP7 DUP4 LT ISZERO PUSH2 0x2618 JUMPI DUP5 DUP10 ADD MLOAD PUSH2 0x2614 PUSH1 0x1F DUP10 AND DUP3 PUSH2 0x2527 JUMP JUMPDEST DUP4 SSTORE POP JUMPDEST PUSH1 0x1 PUSH1 0x2 DUP9 MUL ADD DUP9 SSTORE POP POP POP JUMPDEST POP POP POP POP POP POP JUMP JUMPDEST PUSH0 PUSH2 0x2637 DUP3 PUSH2 0x1651 JUMP JUMPDEST SWAP2 POP PUSH2 0x2642 DUP4 PUSH2 0x1651 JUMP JUMPDEST SWAP3 POP DUP3 DUP3 SUB SWAP1 POP DUP2 DUP2 GT ISZERO PUSH2 0x265A JUMPI PUSH2 0x2659 PUSH2 0x165A JUMP JUMPDEST JUMPDEST SWAP3 SWAP2 POP POP JUMP JUMPDEST PUSH0 DUP2 SWAP1 POP SWAP2 SWAP1 POP JUMP JUMPDEST PUSH2 0x267A PUSH2 0x2675 DUP3 PUSH2 0x1651 JUMP JUMPDEST PUSH2 0x2660 JUMP JUMPDEST DUP3 MSTORE POP POP JUMP JUMPDEST PUSH0 DUP2 PUSH1 0x60 SHL SWAP1 POP SWAP2 SWAP1 POP JUMP JUMPDEST PUSH0 PUSH2 0x2696 DUP3 PUSH2 0x2680 JUMP JUMPDEST SWAP1 POP SWAP2 SWAP1 POP JUMP JUMPDEST PUSH0 PUSH2 0x26A7 DUP3 PUSH2 0x268C JUMP JUMPDEST SWAP1 POP SWAP2 SWAP1 POP JUMP JUMPDEST PUSH2 0x26BF PUSH2 0x26BA DUP3 PUSH2 0x179E JUMP JUMPDEST PUSH2 0x269D JUMP JUMPDEST DUP3 MSTORE POP POP JUMP JUMPDEST PUSH0 PUSH2 0x26D0 DUP3 DUP7 PUSH2 0x2669 JUMP JUMPDEST PUSH1 0x20 DUP3 ADD SWAP2 POP PUSH2 0x26E0 DUP3 DUP6 PUSH2 0x26AE JUMP JUMPDEST PUSH1 0x14 DUP3 ADD SWAP2 POP PUSH2 0x26F0 DUP3 DUP5 PUSH2 0x2669 JUMP JUMPDEST PUSH1 0x20 DUP3 ADD SWAP2 POP DUP2 SWAP1 POP SWAP5 SWAP4 POP POP POP POP JUMP JUMPDEST PUSH32 0x4E487B7100000000000000000000000000000000000000000000000000000000 PUSH0 MSTORE PUSH1 0x12 PUSH1 0x4 MSTORE PUSH1 0x24 PUSH0 REVERT JUMPDEST PUSH0 PUSH2 0x2738 DUP3 PUSH2 0x1651 JUMP JUMPDEST SWAP2 POP PUSH2 0x2743 DUP4 PUSH2 0x1651 JUMP JUMPDEST SWAP3 POP DUP3 PUSH2 0x2753 JUMPI PUSH2 0x2752 PUSH2 0x2701 JUMP JUMPDEST JUMPDEST DUP3 DUP3 MOD SWAP1 POP SWAP3 SWAP2 POP POP JUMP INVALID LOG2 PUSH5 0x6970667358 0x22 SLT KECCAK256 CALL 0xCD MLOAD DUP6 PUSH8 0xB9D03E327B65414D 0xE LOG2 SELFDESTRUCT SHR 0xA5 PUSH24 0xB438733BF2AFB98D7D45340CDD64736F6C634300081A0033 "
				},
				"gasEstimates": {
					"creation": {
						"codeDepositCost": "2026400",
						"executionCost": "7152",
						"totalCost": "2033552"
					},
					"external": {
						"anotherGame(uint256)": "infinite",
						"gameCount()": "2513",
						"games(uint256)": "infinite",
						"guessTheCorrectNumber(uint256,uint256)": "infinite",
						"newGame(address,uint256,uint256,uint256)": "infinite",
						"payToPlay(uint256)": "infinite",
						"setPlayerName(string)": "infinite",
						"updateAmountToBet(uint256,uint256)": "infinite",
						"updateGameIntervals(uint256,uint256,uint256)": "infinite",
						"withdrawBalance()": "infinite"
					},
					"internal": {
						"generateRandomNumber(uint256,uint256,uint256)": "infinite"
					}
				},
				"methodIdentifiers": {
					"anotherGame(uint256)": "1281e092",
					"gameCount()": "4d1975b4",
					"games(uint256)": "117a5b90",
					"guessTheCorrectNumber(uint256,uint256)": "407db5ba",
					"newGame(address,uint256,uint256,uint256)": "5162d632",
					"payToPlay(uint256)": "7b82578f",
					"setPlayerName(string)": "d8177369",
					"updateAmountToBet(uint256,uint256)": "9ca71351",
					"updateGameIntervals(uint256,uint256,uint256)": "0ff9edbc",
					"withdrawBalance()": "5fd8c710"
				}
			},
			"storageLayout": {
				"storage": [
					{
						"astId": 1419,
						"contract": "Pendu.sol:Pendu",
						"label": "gameCount",
						"offset": 0,
						"slot": "0",
						"type": "t_uint256"
					},
					{
						"astId": 1442,
						"contract": "Pendu.sol:Pendu",
						"label": "players",
						"offset": 0,
						"slot": "1",
						"type": "t_mapping(t_address,t_string_storage)"
					},
					{
						"astId": 1447,
						"contract": "Pendu.sol:Pendu",
						"label": "games",
						"offset": 0,
						"slot": "2",
						"type": "t_mapping(t_uint256,t_struct(Game)1438_storage)"
					},
					{
						"astId": 1451,
						"contract": "Pendu.sol:Pendu",
						"label": "isPlayer",
						"offset": 0,
						"slot": "3",
						"type": "t_mapping(t_address,t_bool)"
					},
					{
						"astId": 1455,
						"contract": "Pendu.sol:Pendu",
						"label": "isGame",
						"offset": 0,
						"slot": "4",
						"type": "t_mapping(t_uint256,t_bool)"
					},
					{
						"astId": 1461,
						"contract": "Pendu.sol:Pendu",
						"label": "playerHasPaid",
						"offset": 0,
						"slot": "5",
						"type": "t_mapping(t_address,t_mapping(t_uint256,t_bool))"
					},
					{
						"astId": 1465,
						"contract": "Pendu.sol:Pendu",
						"label": "balance",
						"offset": 0,
						"slot": "6",
						"type": "t_mapping(t_address,t_uint256)"
					}
				],
				"types": {
					"t_address": {
						"encoding": "inplace",
						"label": "address",
						"numberOfBytes": "20"
					},
					"t_bool": {
						"encoding": "inplace",
						"label": "bool",
						"numberOfBytes": "1"
					},
					"t_enum(Status)1468": {
						"encoding": "inplace",
						"label": "enum Pendu.Status",
						"numberOfBytes": "1"
					},
					"t_enum(Winner)1471": {
						"encoding": "inplace",
						"label": "enum Pendu.Winner",
						"numberOfBytes": "1"
					},
					"t_mapping(t_address,t_bool)": {
						"encoding": "mapping",
						"key": "t_address",
						"label": "mapping(address => bool)",
						"numberOfBytes": "32",
						"value": "t_bool"
					},
					"t_mapping(t_address,t_mapping(t_uint256,t_bool))": {
						"encoding": "mapping",
						"key": "t_address",
						"label": "mapping(address => mapping(uint256 => bool))",
						"numberOfBytes": "32",
						"value": "t_mapping(t_uint256,t_bool)"
					},
					"t_mapping(t_address,t_string_storage)": {
						"encoding": "mapping",
						"key": "t_address",
						"label": "mapping(address => string)",
						"numberOfBytes": "32",
						"value": "t_string_storage"
					},
					"t_mapping(t_address,t_uint256)": {
						"encoding": "mapping",
						"key": "t_address",
						"label": "mapping(address => uint256)",
						"numberOfBytes": "32",
						"value": "t_uint256"
					},
					"t_mapping(t_uint256,t_bool)": {
						"encoding": "mapping",
						"key": "t_uint256",
						"label": "mapping(uint256 => bool)",
						"numberOfBytes": "32",
						"value": "t_bool"
					},
					"t_mapping(t_uint256,t_struct(Game)1438_storage)": {
						"encoding": "mapping",
						"key": "t_uint256",
						"label": "mapping(uint256 => struct Pendu.Game)",
						"numberOfBytes": "32",
						"value": "t_struct(Game)1438_storage"
					},
					"t_string_storage": {
						"encoding": "bytes",
						"label": "string",
						"numberOfBytes": "32"
					},
					"t_struct(Game)1438_storage": {
						"encoding": "inplace",
						"label": "struct Pendu.Game",
						"members": [
							{
								"astId": 1421,
								"contract": "Pendu.sol:Pendu",
								"label": "amountToBet",
								"offset": 0,
								"slot": "0",
								"type": "t_uint256"
							},
							{
								"astId": 1423,
								"contract": "Pendu.sol:Pendu",
								"label": "launcher",
								"offset": 0,
								"slot": "1",
								"type": "t_address"
							},
							{
								"astId": 1425,
								"contract": "Pendu.sol:Pendu",
								"label": "challenger",
								"offset": 0,
								"slot": "2",
								"type": "t_address"
							},
							{
								"astId": 1427,
								"contract": "Pendu.sol:Pendu",
								"label": "lowerLimit",
								"offset": 0,
								"slot": "3",
								"type": "t_uint256"
							},
							{
								"astId": 1429,
								"contract": "Pendu.sol:Pendu",
								"label": "upperLimit",
								"offset": 0,
								"slot": "4",
								"type": "t_uint256"
							},
							{
								"astId": 1431,
								"contract": "Pendu.sol:Pendu",
								"label": "randomNumber",
								"offset": 0,
								"slot": "5",
								"type": "t_uint256"
							},
							{
								"astId": 1434,
								"contract": "Pendu.sol:Pendu",
								"label": "status",
								"offset": 0,
								"slot": "6",
								"type": "t_enum(Status)1468"
							},
							{
								"astId": 1437,
								"contract": "Pendu.sol:Pendu",
								"label": "winner",
								"offset": 1,
								"slot": "6",
								"type": "t_enum(Winner)1471"
							}
						],
						"numberOfBytes": "224"
					},
					"t_uint256": {
						"encoding": "inplace",
						"label": "uint256",
						"numberOfBytes": "32"
					}
				}
			},
			"userdoc": {
				"kind": "user",
				"methods": {},
				"version": 1
			}
		}
	}
}