{
	"OneWeekLockup.sol": {
		"OneWeekLockup": {
			"abi": [
				{
					"inputs": [
						{
							"internalType": "address",
							"name": "user",
							"type": "address"
						}
					],
					"name": "balanceOf",
					"outputs": [
						{
							"internalType": "uint256",
							"name": "",
							"type": "uint256"
						}
					],
					"stateMutability": "view",
					"type": "function"
				},
				{
					"inputs": [],
					"name": "depositEther",
					"outputs": [],
					"stateMutability": "payable",
					"type": "function"
				},
				{
					"inputs": [
						{
							"internalType": "uint256",
							"name": "amount",
							"type": "uint256"
						}
					],
					"name": "withdrawEther",
					"outputs": [],
					"stateMutability": "nonpayable",
					"type": "function"
				},
				{
					"stateMutability": "payable",
					"type": "receive"
				}
			],
			"devdoc": {
				"kind": "dev",
				"methods": {},
				"version": 1
			},
			"evm": {
				"assembly": "    /* \"OneWeekLockup.sol\":63:1288  contract OneWeekLockup {... */\n  mstore(0x40, 0x80)\n  callvalue\n  dup1\n  iszero\n  tag_1\n  jumpi\n  0x00\n  dup1\n  revert\ntag_1:\n  pop\n  dataSize(sub_0)\n  dup1\n  dataOffset(sub_0)\n  0x00\n  codecopy\n  0x00\n  return\nstop\n\nsub_0: assembly {\n        /* \"OneWeekLockup.sol\":63:1288  contract OneWeekLockup {... */\n      mstore(0x40, 0x80)\n      jumpi(tag_1, lt(calldatasize, 0x04))\n      shr(0xe0, calldataload(0x00))\n      dup1\n      0x3bed33ce\n      eq\n      tag_3\n      jumpi\n      dup1\n      0x70a08231\n      eq\n      tag_4\n      jumpi\n      dup1\n      0x98ea5fca\n      eq\n      tag_5\n      jumpi\n      jump(tag_2)\n    tag_1:\n      jumpi(tag_2, calldatasize)\n        /* \"OneWeekLockup.sol\":1265:1279  depositEther() */\n      tag_8\n        /* \"OneWeekLockup.sol\":1265:1277  depositEther */\n      tag_9\n        /* \"OneWeekLockup.sol\":1265:1279  depositEther() */\n      jump\t// in\n    tag_8:\n        /* \"OneWeekLockup.sol\":63:1288  contract OneWeekLockup {... */\n      stop\n    tag_2:\n      0x00\n      dup1\n      revert\n        /* \"OneWeekLockup.sol\":881:1218  function withdrawEther(uint256 amount) external {... */\n    tag_3:\n      callvalue\n      dup1\n      iszero\n      tag_10\n      jumpi\n      0x00\n      dup1\n      revert\n    tag_10:\n      pop\n      tag_11\n      0x04\n      dup1\n      calldatasize\n      sub\n      dup2\n      add\n      swap1\n      tag_12\n      swap2\n      swap1\n      tag_13\n      jump\t// in\n    tag_12:\n      tag_14\n      jump\t// in\n    tag_11:\n      stop\n        /* \"OneWeekLockup.sol\":620:721  function balanceOf(address user) public view returns (uint256) {... */\n    tag_4:\n      callvalue\n      dup1\n      iszero\n      tag_15\n      jumpi\n      0x00\n      dup1\n      revert\n    tag_15:\n      pop\n      tag_16\n      0x04\n      dup1\n      calldatasize\n      sub\n      dup2\n      add\n      swap1\n      tag_17\n      swap2\n      swap1\n      tag_18\n      jump\t// in\n    tag_17:\n      tag_19\n      jump\t// in\n    tag_16:\n      mload(0x40)\n      tag_20\n      swap2\n      swap1\n      tag_21\n      jump\t// in\n    tag_20:\n      mload(0x40)\n      dup1\n      swap2\n      sub\n      swap1\n      return\n        /* \"OneWeekLockup.sol\":727:875  function depositEther() public payable {... */\n    tag_5:\n      tag_22\n      tag_9\n      jump\t// in\n    tag_22:\n      stop\n    tag_9:\n        /* \"OneWeekLockup.sol\":800:809  msg.value */\n      callvalue\n        /* \"OneWeekLockup.sol\":776:784  balances */\n      0x00\n        /* \"OneWeekLockup.sol\":776:796  balances[msg.sender] */\n      dup1\n        /* \"OneWeekLockup.sol\":785:795  msg.sender */\n      caller\n        /* \"OneWeekLockup.sol\":776:796  balances[msg.sender] */\n      0xffffffffffffffffffffffffffffffffffffffff\n      and\n      0xffffffffffffffffffffffffffffffffffffffff\n      and\n      dup2\n      mstore\n      0x20\n      add\n      swap1\n      dup2\n      mstore\n      0x20\n      add\n      0x00\n      keccak256\n      0x00\n        /* \"OneWeekLockup.sol\":776:809  balances[msg.sender] += msg.value */\n      dup3\n      dup3\n      sload\n      tag_24\n      swap2\n      swap1\n      tag_25\n      jump\t// in\n    tag_24:\n      swap3\n      pop\n      pop\n      dup2\n      swap1\n      sstore\n      pop\n        /* \"OneWeekLockup.sol\":853:868  block.timestamp */\n      timestamp\n        /* \"OneWeekLockup.sol\":819:838  userLastDepositTime */\n      0x01\n        /* \"OneWeekLockup.sol\":819:850  userLastDepositTime[msg.sender] */\n      0x00\n        /* \"OneWeekLockup.sol\":839:849  msg.sender */\n      caller\n        /* \"OneWeekLockup.sol\":819:850  userLastDepositTime[msg.sender] */\n      0xffffffffffffffffffffffffffffffffffffffff\n      and\n      0xffffffffffffffffffffffffffffffffffffffff\n      and\n      dup2\n      mstore\n      0x20\n      add\n      swap1\n      dup2\n      mstore\n      0x20\n      add\n      0x00\n      keccak256\n        /* \"OneWeekLockup.sol\":819:868  userLastDepositTime[msg.sender] = block.timestamp */\n      dup2\n      swap1\n      sstore\n      pop\n        /* \"OneWeekLockup.sol\":727:875  function depositEther() public payable {... */\n      jump\t// out\n        /* \"OneWeekLockup.sol\":881:1218  function withdrawEther(uint256 amount) external {... */\n    tag_14:\n        /* \"OneWeekLockup.sol\":999:1006  1 weeks */\n      0x093a80\n        /* \"OneWeekLockup.sol\":965:984  userLastDepositTime */\n      0x01\n        /* \"OneWeekLockup.sol\":965:996  userLastDepositTime[msg.sender] */\n      0x00\n        /* \"OneWeekLockup.sol\":985:995  msg.sender */\n      caller\n        /* \"OneWeekLockup.sol\":965:996  userLastDepositTime[msg.sender] */\n      0xffffffffffffffffffffffffffffffffffffffff\n      and\n      0xffffffffffffffffffffffffffffffffffffffff\n      and\n      dup2\n      mstore\n      0x20\n      add\n      swap1\n      dup2\n      mstore\n      0x20\n      add\n      0x00\n      keccak256\n      sload\n        /* \"OneWeekLockup.sol\":965:1006  userLastDepositTime[msg.sender] + 1 weeks */\n      tag_27\n      swap2\n      swap1\n      tag_25\n      jump\t// in\n    tag_27:\n        /* \"OneWeekLockup.sol\":947:962  block.timestamp */\n      timestamp\n        /* \"OneWeekLockup.sol\":947:1006  block.timestamp > userLastDepositTime[msg.sender] + 1 weeks */\n      gt\n        /* \"OneWeekLockup.sol\":939:1045  require(block.timestamp > userLastDepositTime[msg.sender] + 1 weeks, \"You can only withdraw after a week\") */\n      tag_28\n      jumpi\n      mload(0x40)\n      0x08c379a000000000000000000000000000000000000000000000000000000000\n      dup2\n      mstore\n      0x04\n      add\n      tag_29\n      swap1\n      tag_30\n      jump\t// in\n    tag_29:\n      mload(0x40)\n      dup1\n      swap2\n      sub\n      swap1\n      revert\n    tag_28:\n        /* \"OneWeekLockup.sol\":1073:1081  balances */\n      0x00\n        /* \"OneWeekLockup.sol\":1073:1093  balances[msg.sender] */\n      dup1\n        /* \"OneWeekLockup.sol\":1082:1092  msg.sender */\n      caller\n        /* \"OneWeekLockup.sol\":1073:1093  balances[msg.sender] */\n      0xffffffffffffffffffffffffffffffffffffffff\n      and\n      0xffffffffffffffffffffffffffffffffffffffff\n      and\n      dup2\n      mstore\n      0x20\n      add\n      swap1\n      dup2\n      mstore\n      0x20\n      add\n      0x00\n      keccak256\n      sload\n        /* \"OneWeekLockup.sol\":1063:1069  amount */\n      dup2\n        /* \"OneWeekLockup.sol\":1063:1093  amount <= balances[msg.sender] */\n      gt\n      iszero\n        /* \"OneWeekLockup.sol\":1055:1125  require(amount <= balances[msg.sender], \"You don't have enough funds\") */\n      tag_31\n      jumpi\n      mload(0x40)\n      0x08c379a000000000000000000000000000000000000000000000000000000000\n      dup2\n      mstore\n      0x04\n      add\n      tag_32\n      swap1\n      tag_33\n      jump\t// in\n    tag_32:\n      mload(0x40)\n      dup1\n      swap2\n      sub\n      swap1\n      revert\n    tag_31:\n        /* \"OneWeekLockup.sol\":1143:1153  msg.sender */\n      caller\n        /* \"OneWeekLockup.sol\":1135:1163  payable(msg.sender).transfer */\n      0xffffffffffffffffffffffffffffffffffffffff\n      and\n        /* \"OneWeekLockup.sol\":1135:1171  payable(msg.sender).transfer(amount) */\n      0x08fc\n        /* \"OneWeekLockup.sol\":1164:1170  amount */\n      dup3\n        /* \"OneWeekLockup.sol\":1135:1171  payable(msg.sender).transfer(amount) */\n      swap1\n      dup2\n      iszero\n      mul\n      swap1\n      mload(0x40)\n      0x00\n      mload(0x40)\n      dup1\n      dup4\n      sub\n      dup2\n      dup6\n      dup9\n      dup9\n      call\n      swap4\n      pop\n      pop\n      pop\n      pop\n      iszero\n      dup1\n      iszero\n      tag_35\n      jumpi\n      returndatasize\n      0x00\n      dup1\n      returndatacopy\n      revert(0x00, returndatasize)\n    tag_35:\n      pop\n        /* \"OneWeekLockup.sol\":1205:1211  amount */\n      dup1\n        /* \"OneWeekLockup.sol\":1181:1189  balances */\n      0x00\n        /* \"OneWeekLockup.sol\":1181:1201  balances[msg.sender] */\n      dup1\n        /* \"OneWeekLockup.sol\":1190:1200  msg.sender */\n      caller\n        /* \"OneWeekLockup.sol\":1181:1201  balances[msg.sender] */\n      0xffffffffffffffffffffffffffffffffffffffff\n      and\n      0xffffffffffffffffffffffffffffffffffffffff\n      and\n      dup2\n      mstore\n      0x20\n      add\n      swap1\n      dup2\n      mstore\n      0x20\n      add\n      0x00\n      keccak256\n      0x00\n        /* \"OneWeekLockup.sol\":1181:1211  balances[msg.sender] -= amount */\n      dup3\n      dup3\n      sload\n      tag_36\n      swap2\n      swap1\n      tag_37\n      jump\t// in\n    tag_36:\n      swap3\n      pop\n      pop\n      dup2\n      swap1\n      sstore\n      pop\n        /* \"OneWeekLockup.sol\":881:1218  function withdrawEther(uint256 amount) external {... */\n      pop\n      jump\t// out\n        /* \"OneWeekLockup.sol\":620:721  function balanceOf(address user) public view returns (uint256) {... */\n    tag_19:\n        /* \"OneWeekLockup.sol\":674:681  uint256 */\n      0x00\n        /* \"OneWeekLockup.sol\":700:708  balances */\n      dup1\n        /* \"OneWeekLockup.sol\":700:714  balances[user] */\n      0x00\n        /* \"OneWeekLockup.sol\":709:713  user */\n      dup4\n        /* \"OneWeekLockup.sol\":700:714  balances[user] */\n      0xffffffffffffffffffffffffffffffffffffffff\n      and\n      0xffffffffffffffffffffffffffffffffffffffff\n      and\n      dup2\n      mstore\n      0x20\n      add\n      swap1\n      dup2\n      mstore\n      0x20\n      add\n      0x00\n      keccak256\n      sload\n        /* \"OneWeekLockup.sol\":693:714  return balances[user] */\n      swap1\n      pop\n        /* \"OneWeekLockup.sol\":620:721  function balanceOf(address user) public view returns (uint256) {... */\n      swap2\n      swap1\n      pop\n      jump\t// out\n        /* \"#utility.yul\":88:205   */\n    tag_40:\n        /* \"#utility.yul\":197:198   */\n      0x00\n        /* \"#utility.yul\":194:195   */\n      dup1\n        /* \"#utility.yul\":187:199   */\n      revert\n        /* \"#utility.yul\":334:411   */\n    tag_42:\n        /* \"#utility.yul\":371:378   */\n      0x00\n        /* \"#utility.yul\":400:405   */\n      dup2\n        /* \"#utility.yul\":389:405   */\n      swap1\n      pop\n        /* \"#utility.yul\":334:411   */\n      swap2\n      swap1\n      pop\n      jump\t// out\n        /* \"#utility.yul\":417:539   */\n    tag_43:\n        /* \"#utility.yul\":490:514   */\n      tag_62\n        /* \"#utility.yul\":508:513   */\n      dup2\n        /* \"#utility.yul\":490:514   */\n      tag_42\n      jump\t// in\n    tag_62:\n        /* \"#utility.yul\":483:488   */\n      dup2\n        /* \"#utility.yul\":480:515   */\n      eq\n        /* \"#utility.yul\":470:533   */\n      tag_63\n      jumpi\n        /* \"#utility.yul\":529:530   */\n      0x00\n        /* \"#utility.yul\":526:527   */\n      dup1\n        /* \"#utility.yul\":519:531   */\n      revert\n        /* \"#utility.yul\":470:533   */\n    tag_63:\n        /* \"#utility.yul\":417:539   */\n      pop\n      jump\t// out\n        /* \"#utility.yul\":545:684   */\n    tag_44:\n        /* \"#utility.yul\":591:596   */\n      0x00\n        /* \"#utility.yul\":629:635   */\n      dup2\n        /* \"#utility.yul\":616:636   */\n      calldataload\n        /* \"#utility.yul\":607:636   */\n      swap1\n      pop\n        /* \"#utility.yul\":645:678   */\n      tag_65\n        /* \"#utility.yul\":672:677   */\n      dup2\n        /* \"#utility.yul\":645:678   */\n      tag_43\n      jump\t// in\n    tag_65:\n        /* \"#utility.yul\":545:684   */\n      swap3\n      swap2\n      pop\n      pop\n      jump\t// out\n        /* \"#utility.yul\":690:1019   */\n    tag_13:\n        /* \"#utility.yul\":749:755   */\n      0x00\n        /* \"#utility.yul\":798:800   */\n      0x20\n        /* \"#utility.yul\":786:795   */\n      dup3\n        /* \"#utility.yul\":777:784   */\n      dup5\n        /* \"#utility.yul\":773:796   */\n      sub\n        /* \"#utility.yul\":769:801   */\n      slt\n        /* \"#utility.yul\":766:885   */\n      iszero\n      tag_67\n      jumpi\n        /* \"#utility.yul\":804:883   */\n      tag_68\n      tag_40\n      jump\t// in\n    tag_68:\n        /* \"#utility.yul\":766:885   */\n    tag_67:\n        /* \"#utility.yul\":924:925   */\n      0x00\n        /* \"#utility.yul\":949:1002   */\n      tag_69\n        /* \"#utility.yul\":994:1001   */\n      dup5\n        /* \"#utility.yul\":985:991   */\n      dup3\n        /* \"#utility.yul\":974:983   */\n      dup6\n        /* \"#utility.yul\":970:992   */\n      add\n        /* \"#utility.yul\":949:1002   */\n      tag_44\n      jump\t// in\n    tag_69:\n        /* \"#utility.yul\":939:1002   */\n      swap2\n      pop\n        /* \"#utility.yul\":895:1012   */\n      pop\n        /* \"#utility.yul\":690:1019   */\n      swap3\n      swap2\n      pop\n      pop\n      jump\t// out\n        /* \"#utility.yul\":1025:1151   */\n    tag_45:\n        /* \"#utility.yul\":1062:1069   */\n      0x00\n        /* \"#utility.yul\":1102:1144   */\n      0xffffffffffffffffffffffffffffffffffffffff\n        /* \"#utility.yul\":1095:1100   */\n      dup3\n        /* \"#utility.yul\":1091:1145   */\n      and\n        /* \"#utility.yul\":1080:1145   */\n      swap1\n      pop\n        /* \"#utility.yul\":1025:1151   */\n      swap2\n      swap1\n      pop\n      jump\t// out\n        /* \"#utility.yul\":1157:1253   */\n    tag_46:\n        /* \"#utility.yul\":1194:1201   */\n      0x00\n        /* \"#utility.yul\":1223:1247   */\n      tag_72\n        /* \"#utility.yul\":1241:1246   */\n      dup3\n        /* \"#utility.yul\":1223:1247   */\n      tag_45\n      jump\t// in\n    tag_72:\n        /* \"#utility.yul\":1212:1247   */\n      swap1\n      pop\n        /* \"#utility.yul\":1157:1253   */\n      swap2\n      swap1\n      pop\n      jump\t// out\n        /* \"#utility.yul\":1259:1381   */\n    tag_47:\n        /* \"#utility.yul\":1332:1356   */\n      tag_74\n        /* \"#utility.yul\":1350:1355   */\n      dup2\n        /* \"#utility.yul\":1332:1356   */\n      tag_46\n      jump\t// in\n    tag_74:\n        /* \"#utility.yul\":1325:1330   */\n      dup2\n        /* \"#utility.yul\":1322:1357   */\n      eq\n        /* \"#utility.yul\":1312:1375   */\n      tag_75\n      jumpi\n        /* \"#utility.yul\":1371:1372   */\n      0x00\n        /* \"#utility.yul\":1368:1369   */\n      dup1\n        /* \"#utility.yul\":1361:1373   */\n      revert\n        /* \"#utility.yul\":1312:1375   */\n    tag_75:\n        /* \"#utility.yul\":1259:1381   */\n      pop\n      jump\t// out\n        /* \"#utility.yul\":1387:1526   */\n    tag_48:\n        /* \"#utility.yul\":1433:1438   */\n      0x00\n        /* \"#utility.yul\":1471:1477   */\n      dup2\n        /* \"#utility.yul\":1458:1478   */\n      calldataload\n        /* \"#utility.yul\":1449:1478   */\n      swap1\n      pop\n        /* \"#utility.yul\":1487:1520   */\n      tag_77\n        /* \"#utility.yul\":1514:1519   */\n      dup2\n        /* \"#utility.yul\":1487:1520   */\n      tag_47\n      jump\t// in\n    tag_77:\n        /* \"#utility.yul\":1387:1526   */\n      swap3\n      swap2\n      pop\n      pop\n      jump\t// out\n        /* \"#utility.yul\":1532:1861   */\n    tag_18:\n        /* \"#utility.yul\":1591:1597   */\n      0x00\n        /* \"#utility.yul\":1640:1642   */\n      0x20\n        /* \"#utility.yul\":1628:1637   */\n      dup3\n        /* \"#utility.yul\":1619:1626   */\n      dup5\n        /* \"#utility.yul\":1615:1638   */\n      sub\n        /* \"#utility.yul\":1611:1643   */\n      slt\n        /* \"#utility.yul\":1608:1727   */\n      iszero\n      tag_79\n      jumpi\n        /* \"#utility.yul\":1646:1725   */\n      tag_80\n      tag_40\n      jump\t// in\n    tag_80:\n        /* \"#utility.yul\":1608:1727   */\n    tag_79:\n        /* \"#utility.yul\":1766:1767   */\n      0x00\n        /* \"#utility.yul\":1791:1844   */\n      tag_81\n        /* \"#utility.yul\":1836:1843   */\n      dup5\n        /* \"#utility.yul\":1827:1833   */\n      dup3\n        /* \"#utility.yul\":1816:1825   */\n      dup6\n        /* \"#utility.yul\":1812:1834   */\n      add\n        /* \"#utility.yul\":1791:1844   */\n      tag_48\n      jump\t// in\n    tag_81:\n        /* \"#utility.yul\":1781:1844   */\n      swap2\n      pop\n        /* \"#utility.yul\":1737:1854   */\n      pop\n        /* \"#utility.yul\":1532:1861   */\n      swap3\n      swap2\n      pop\n      pop\n      jump\t// out\n        /* \"#utility.yul\":1867:1985   */\n    tag_49:\n        /* \"#utility.yul\":1954:1978   */\n      tag_83\n        /* \"#utility.yul\":1972:1977   */\n      dup2\n        /* \"#utility.yul\":1954:1978   */\n      tag_42\n      jump\t// in\n    tag_83:\n        /* \"#utility.yul\":1949:1952   */\n      dup3\n        /* \"#utility.yul\":1942:1979   */\n      mstore\n        /* \"#utility.yul\":1867:1985   */\n      pop\n      pop\n      jump\t// out\n        /* \"#utility.yul\":1991:2213   */\n    tag_21:\n        /* \"#utility.yul\":2084:2088   */\n      0x00\n        /* \"#utility.yul\":2122:2124   */\n      0x20\n        /* \"#utility.yul\":2111:2120   */\n      dup3\n        /* \"#utility.yul\":2107:2125   */\n      add\n        /* \"#utility.yul\":2099:2125   */\n      swap1\n      pop\n        /* \"#utility.yul\":2135:2206   */\n      tag_85\n        /* \"#utility.yul\":2203:2204   */\n      0x00\n        /* \"#utility.yul\":2192:2201   */\n      dup4\n        /* \"#utility.yul\":2188:2205   */\n      add\n        /* \"#utility.yul\":2179:2185   */\n      dup5\n        /* \"#utility.yul\":2135:2206   */\n      tag_49\n      jump\t// in\n    tag_85:\n        /* \"#utility.yul\":1991:2213   */\n      swap3\n      swap2\n      pop\n      pop\n      jump\t// out\n        /* \"#utility.yul\":2219:2399   */\n    tag_50:\n        /* \"#utility.yul\":2267:2344   */\n      0x4e487b7100000000000000000000000000000000000000000000000000000000\n        /* \"#utility.yul\":2264:2265   */\n      0x00\n        /* \"#utility.yul\":2257:2345   */\n      mstore\n        /* \"#utility.yul\":2364:2368   */\n      0x11\n        /* \"#utility.yul\":2361:2362   */\n      0x04\n        /* \"#utility.yul\":2354:2369   */\n      mstore\n        /* \"#utility.yul\":2388:2392   */\n      0x24\n        /* \"#utility.yul\":2385:2386   */\n      0x00\n        /* \"#utility.yul\":2378:2393   */\n      revert\n        /* \"#utility.yul\":2405:2596   */\n    tag_25:\n        /* \"#utility.yul\":2445:2448   */\n      0x00\n        /* \"#utility.yul\":2464:2484   */\n      tag_88\n        /* \"#utility.yul\":2482:2483   */\n      dup3\n        /* \"#utility.yul\":2464:2484   */\n      tag_42\n      jump\t// in\n    tag_88:\n        /* \"#utility.yul\":2459:2484   */\n      swap2\n      pop\n        /* \"#utility.yul\":2498:2518   */\n      tag_89\n        /* \"#utility.yul\":2516:2517   */\n      dup4\n        /* \"#utility.yul\":2498:2518   */\n      tag_42\n      jump\t// in\n    tag_89:\n        /* \"#utility.yul\":2493:2518   */\n      swap3\n      pop\n        /* \"#utility.yul\":2541:2542   */\n      dup3\n        /* \"#utility.yul\":2538:2539   */\n      dup3\n        /* \"#utility.yul\":2534:2543   */\n      add\n        /* \"#utility.yul\":2527:2543   */\n      swap1\n      pop\n        /* \"#utility.yul\":2562:2565   */\n      dup1\n        /* \"#utility.yul\":2559:2560   */\n      dup3\n        /* \"#utility.yul\":2556:2566   */\n      gt\n        /* \"#utility.yul\":2553:2589   */\n      iszero\n      tag_90\n      jumpi\n        /* \"#utility.yul\":2569:2587   */\n      tag_91\n      tag_50\n      jump\t// in\n    tag_91:\n        /* \"#utility.yul\":2553:2589   */\n    tag_90:\n        /* \"#utility.yul\":2405:2596   */\n      swap3\n      swap2\n      pop\n      pop\n      jump\t// out\n        /* \"#utility.yul\":2602:2771   */\n    tag_51:\n        /* \"#utility.yul\":2686:2697   */\n      0x00\n        /* \"#utility.yul\":2720:2726   */\n      dup3\n        /* \"#utility.yul\":2715:2718   */\n      dup3\n        /* \"#utility.yul\":2708:2727   */\n      mstore\n        /* \"#utility.yul\":2760:2764   */\n      0x20\n        /* \"#utility.yul\":2755:2758   */\n      dup3\n        /* \"#utility.yul\":2751:2765   */\n      add\n        /* \"#utility.yul\":2736:2765   */\n      swap1\n      pop\n        /* \"#utility.yul\":2602:2771   */\n      swap3\n      swap2\n      pop\n      pop\n      jump\t// out\n        /* \"#utility.yul\":2777:2998   */\n    tag_52:\n        /* \"#utility.yul\":2917:2951   */\n      0x596f752063616e206f6e6c792077697468647261772061667465722061207765\n        /* \"#utility.yul\":2913:2914   */\n      0x00\n        /* \"#utility.yul\":2905:2911   */\n      dup3\n        /* \"#utility.yul\":2901:2915   */\n      add\n        /* \"#utility.yul\":2894:2952   */\n      mstore\n        /* \"#utility.yul\":2986:2990   */\n      0x656b000000000000000000000000000000000000000000000000000000000000\n        /* \"#utility.yul\":2981:2983   */\n      0x20\n        /* \"#utility.yul\":2973:2979   */\n      dup3\n        /* \"#utility.yul\":2969:2984   */\n      add\n        /* \"#utility.yul\":2962:2991   */\n      mstore\n        /* \"#utility.yul\":2777:2998   */\n      pop\n      jump\t// out\n        /* \"#utility.yul\":3004:3370   */\n    tag_53:\n        /* \"#utility.yul\":3146:3149   */\n      0x00\n        /* \"#utility.yul\":3167:3234   */\n      tag_95\n        /* \"#utility.yul\":3231:3233   */\n      0x22\n        /* \"#utility.yul\":3226:3229   */\n      dup4\n        /* \"#utility.yul\":3167:3234   */\n      tag_51\n      jump\t// in\n    tag_95:\n        /* \"#utility.yul\":3160:3234   */\n      swap2\n      pop\n        /* \"#utility.yul\":3243:3336   */\n      tag_96\n        /* \"#utility.yul\":3332:3335   */\n      dup3\n        /* \"#utility.yul\":3243:3336   */\n      tag_52\n      jump\t// in\n    tag_96:\n        /* \"#utility.yul\":3361:3363   */\n      0x40\n        /* \"#utility.yul\":3356:3359   */\n      dup3\n        /* \"#utility.yul\":3352:3364   */\n      add\n        /* \"#utility.yul\":3345:3364   */\n      swap1\n      pop\n        /* \"#utility.yul\":3004:3370   */\n      swap2\n      swap1\n      pop\n      jump\t// out\n        /* \"#utility.yul\":3376:3795   */\n    tag_30:\n        /* \"#utility.yul\":3542:3546   */\n      0x00\n        /* \"#utility.yul\":3580:3582   */\n      0x20\n        /* \"#utility.yul\":3569:3578   */\n      dup3\n        /* \"#utility.yul\":3565:3583   */\n      add\n        /* \"#utility.yul\":3557:3583   */\n      swap1\n      pop\n        /* \"#utility.yul\":3629:3638   */\n      dup2\n        /* \"#utility.yul\":3623:3627   */\n      dup2\n        /* \"#utility.yul\":3619:3639   */\n      sub\n        /* \"#utility.yul\":3615:3616   */\n      0x00\n        /* \"#utility.yul\":3604:3613   */\n      dup4\n        /* \"#utility.yul\":3600:3617   */\n      add\n        /* \"#utility.yul\":3593:3640   */\n      mstore\n        /* \"#utility.yul\":3657:3788   */\n      tag_98\n        /* \"#utility.yul\":3783:3787   */\n      dup2\n        /* \"#utility.yul\":3657:3788   */\n      tag_53\n      jump\t// in\n    tag_98:\n        /* \"#utility.yul\":3649:3788   */\n      swap1\n      pop\n        /* \"#utility.yul\":3376:3795   */\n      swap2\n      swap1\n      pop\n      jump\t// out\n        /* \"#utility.yul\":3801:3978   */\n    tag_54:\n        /* \"#utility.yul\":3941:3970   */\n      0x596f7520646f6e2774206861766520656e6f7567682066756e64730000000000\n        /* \"#utility.yul\":3937:3938   */\n      0x00\n        /* \"#utility.yul\":3929:3935   */\n      dup3\n        /* \"#utility.yul\":3925:3939   */\n      add\n        /* \"#utility.yul\":3918:3971   */\n      mstore\n        /* \"#utility.yul\":3801:3978   */\n      pop\n      jump\t// out\n        /* \"#utility.yul\":3984:4350   */\n    tag_55:\n        /* \"#utility.yul\":4126:4129   */\n      0x00\n        /* \"#utility.yul\":4147:4214   */\n      tag_101\n        /* \"#utility.yul\":4211:4213   */\n      0x1b\n        /* \"#utility.yul\":4206:4209   */\n      dup4\n        /* \"#utility.yul\":4147:4214   */\n      tag_51\n      jump\t// in\n    tag_101:\n        /* \"#utility.yul\":4140:4214   */\n      swap2\n      pop\n        /* \"#utility.yul\":4223:4316   */\n      tag_102\n        /* \"#utility.yul\":4312:4315   */\n      dup3\n        /* \"#utility.yul\":4223:4316   */\n      tag_54\n      jump\t// in\n    tag_102:\n        /* \"#utility.yul\":4341:4343   */\n      0x20\n        /* \"#utility.yul\":4336:4339   */\n      dup3\n        /* \"#utility.yul\":4332:4344   */\n      add\n        /* \"#utility.yul\":4325:4344   */\n      swap1\n      pop\n        /* \"#utility.yul\":3984:4350   */\n      swap2\n      swap1\n      pop\n      jump\t// out\n        /* \"#utility.yul\":4356:4775   */\n    tag_33:\n        /* \"#utility.yul\":4522:4526   */\n      0x00\n        /* \"#utility.yul\":4560:4562   */\n      0x20\n        /* \"#utility.yul\":4549:4558   */\n      dup3\n        /* \"#utility.yul\":4545:4563   */\n      add\n        /* \"#utility.yul\":4537:4563   */\n      swap1\n      pop\n        /* \"#utility.yul\":4609:4618   */\n      dup2\n        /* \"#utility.yul\":4603:4607   */\n      dup2\n        /* \"#utility.yul\":4599:4619   */\n      sub\n        /* \"#utility.yul\":4595:4596   */\n      0x00\n        /* \"#utility.yul\":4584:4593   */\n      dup4\n        /* \"#utility.yul\":4580:4597   */\n      add\n        /* \"#utility.yul\":4573:4620   */\n      mstore\n        /* \"#utility.yul\":4637:4768   */\n      tag_104\n        /* \"#utility.yul\":4763:4767   */\n      dup2\n        /* \"#utility.yul\":4637:4768   */\n      tag_55\n      jump\t// in\n    tag_104:\n        /* \"#utility.yul\":4629:4768   */\n      swap1\n      pop\n        /* \"#utility.yul\":4356:4775   */\n      swap2\n      swap1\n      pop\n      jump\t// out\n        /* \"#utility.yul\":4781:4975   */\n    tag_37:\n        /* \"#utility.yul\":4821:4825   */\n      0x00\n        /* \"#utility.yul\":4841:4861   */\n      tag_106\n        /* \"#utility.yul\":4859:4860   */\n      dup3\n        /* \"#utility.yul\":4841:4861   */\n      tag_42\n      jump\t// in\n    tag_106:\n        /* \"#utility.yul\":4836:4861   */\n      swap2\n      pop\n        /* \"#utility.yul\":4875:4895   */\n      tag_107\n        /* \"#utility.yul\":4893:4894   */\n      dup4\n        /* \"#utility.yul\":4875:4895   */\n      tag_42\n      jump\t// in\n    tag_107:\n        /* \"#utility.yul\":4870:4895   */\n      swap3\n      pop\n        /* \"#utility.yul\":4919:4920   */\n      dup3\n        /* \"#utility.yul\":4916:4917   */\n      dup3\n        /* \"#utility.yul\":4912:4921   */\n      sub\n        /* \"#utility.yul\":4904:4921   */\n      swap1\n      pop\n        /* \"#utility.yul\":4943:4944   */\n      dup2\n        /* \"#utility.yul\":4937:4941   */\n      dup2\n        /* \"#utility.yul\":4934:4945   */\n      gt\n        /* \"#utility.yul\":4931:4968   */\n      iszero\n      tag_108\n      jumpi\n        /* \"#utility.yul\":4948:4966   */\n      tag_109\n      tag_50\n      jump\t// in\n    tag_109:\n        /* \"#utility.yul\":4931:4968   */\n    tag_108:\n        /* \"#utility.yul\":4781:4975   */\n      swap3\n      swap2\n      pop\n      pop\n      jump\t// out\n\n    auxdata: 0xa2646970667358221220cb26319b8ff372ee768b726ade24d9930142aca87838226d8aad30ef131b7fe564736f6c634300081a0033\n}\n",
				"bytecode": {
					"linkReferences": {},
					"object": "6080604052348015600e575f80fd5b506106168061001c5f395ff3fe608060405260043610610037575f3560e01c80633bed33ce1461004a57806370a082311461007257806398ea5fca146100ae57610046565b36610046576100446100b8565b005b5f80fd5b348015610055575f80fd5b50610070600480360381019061006b919061036f565b61014e565b005b34801561007d575f80fd5b50610098600480360381019061009391906103f4565b6102f3565b6040516100a5919061042e565b60405180910390f35b6100b66100b8565b005b345f803373ffffffffffffffffffffffffffffffffffffffff1673ffffffffffffffffffffffffffffffffffffffff1681526020019081526020015f205f8282546101039190610474565b925050819055504260015f3373ffffffffffffffffffffffffffffffffffffffff1673ffffffffffffffffffffffffffffffffffffffff1681526020019081526020015f2081905550565b62093a8060015f3373ffffffffffffffffffffffffffffffffffffffff1673ffffffffffffffffffffffffffffffffffffffff1681526020019081526020015f205461019a9190610474565b42116101db576040517f08c379a00000000000000000000000000000000000000000000000000000000081526004016101d290610527565b60405180910390fd5b5f803373ffffffffffffffffffffffffffffffffffffffff1673ffffffffffffffffffffffffffffffffffffffff1681526020019081526020015f205481111561025a576040517f08c379a00000000000000000000000000000000000000000000000000000000081526004016102519061058f565b60405180910390fd5b3373ffffffffffffffffffffffffffffffffffffffff166108fc8290811502906040515f60405180830381858888f1935050505015801561029d573d5f803e3d5ffd5b50805f803373ffffffffffffffffffffffffffffffffffffffff1673ffffffffffffffffffffffffffffffffffffffff1681526020019081526020015f205f8282546102e991906105ad565b9250508190555050565b5f805f8373ffffffffffffffffffffffffffffffffffffffff1673ffffffffffffffffffffffffffffffffffffffff1681526020019081526020015f20549050919050565b5f80fd5b5f819050919050565b61034e8161033c565b8114610358575f80fd5b50565b5f8135905061036981610345565b92915050565b5f6020828403121561038457610383610338565b5b5f6103918482850161035b565b91505092915050565b5f73ffffffffffffffffffffffffffffffffffffffff82169050919050565b5f6103c38261039a565b9050919050565b6103d3816103b9565b81146103dd575f80fd5b50565b5f813590506103ee816103ca565b92915050565b5f6020828403121561040957610408610338565b5b5f610416848285016103e0565b91505092915050565b6104288161033c565b82525050565b5f6020820190506104415f83018461041f565b92915050565b7f4e487b71000000000000000000000000000000000000000000000000000000005f52601160045260245ffd5b5f61047e8261033c565b91506104898361033c565b92508282019050808211156104a1576104a0610447565b5b92915050565b5f82825260208201905092915050565b7f596f752063616e206f6e6c7920776974686472617720616674657220612077655f8201527f656b000000000000000000000000000000000000000000000000000000000000602082015250565b5f6105116022836104a7565b915061051c826104b7565b604082019050919050565b5f6020820190508181035f83015261053e81610505565b9050919050565b7f596f7520646f6e2774206861766520656e6f7567682066756e647300000000005f82015250565b5f610579601b836104a7565b915061058482610545565b602082019050919050565b5f6020820190508181035f8301526105a68161056d565b9050919050565b5f6105b78261033c565b91506105c28361033c565b92508282039050818111156105da576105d9610447565b5b9291505056fea2646970667358221220cb26319b8ff372ee768b726ade24d9930142aca87838226d8aad30ef131b7fe564736f6c634300081a0033",
					"opcodes": "PUSH1 0x80 PUSH1 0x40 MSTORE CALLVALUE DUP1 ISZERO PUSH1 0xE JUMPI PUSH0 DUP1 REVERT JUMPDEST POP PUSH2 0x616 DUP1 PUSH2 0x1C PUSH0 CODECOPY PUSH0 RETURN INVALID PUSH1 0x80 PUSH1 0x40 MSTORE PUSH1 0x4 CALLDATASIZE LT PUSH2 0x37 JUMPI PUSH0 CALLDATALOAD PUSH1 0xE0 SHR DUP1 PUSH4 0x3BED33CE EQ PUSH2 0x4A JUMPI DUP1 PUSH4 0x70A08231 EQ PUSH2 0x72 JUMPI DUP1 PUSH4 0x98EA5FCA EQ PUSH2 0xAE JUMPI PUSH2 0x46 JUMP JUMPDEST CALLDATASIZE PUSH2 0x46 JUMPI PUSH2 0x44 PUSH2 0xB8 JUMP JUMPDEST STOP JUMPDEST PUSH0 DUP1 REVERT JUMPDEST CALLVALUE DUP1 ISZERO PUSH2 0x55 JUMPI PUSH0 DUP1 REVERT JUMPDEST POP PUSH2 0x70 PUSH1 0x4 DUP1 CALLDATASIZE SUB DUP2 ADD SWAP1 PUSH2 0x6B SWAP2 SWAP1 PUSH2 0x36F JUMP JUMPDEST PUSH2 0x14E JUMP JUMPDEST STOP JUMPDEST CALLVALUE DUP1 ISZERO PUSH2 0x7D JUMPI PUSH0 DUP1 REVERT JUMPDEST POP PUSH2 0x98 PUSH1 0x4 DUP1 CALLDATASIZE SUB DUP2 ADD SWAP1 PUSH2 0x93 SWAP2 SWAP1 PUSH2 0x3F4 JUMP JUMPDEST PUSH2 0x2F3 JUMP JUMPDEST PUSH1 0x40 MLOAD PUSH2 0xA5 SWAP2 SWAP1 PUSH2 0x42E JUMP JUMPDEST PUSH1 0x40 MLOAD DUP1 SWAP2 SUB SWAP1 RETURN JUMPDEST PUSH2 0xB6 PUSH2 0xB8 JUMP JUMPDEST STOP JUMPDEST CALLVALUE PUSH0 DUP1 CALLER PUSH20 0xFFFFFFFFFFFFFFFFFFFFFFFFFFFFFFFFFFFFFFFF AND PUSH20 0xFFFFFFFFFFFFFFFFFFFFFFFFFFFFFFFFFFFFFFFF AND DUP2 MSTORE PUSH1 0x20 ADD SWAP1 DUP2 MSTORE PUSH1 0x20 ADD PUSH0 KECCAK256 PUSH0 DUP3 DUP3 SLOAD PUSH2 0x103 SWAP2 SWAP1 PUSH2 0x474 JUMP JUMPDEST SWAP3 POP POP DUP2 SWAP1 SSTORE POP TIMESTAMP PUSH1 0x1 PUSH0 CALLER PUSH20 0xFFFFFFFFFFFFFFFFFFFFFFFFFFFFFFFFFFFFFFFF AND PUSH20 0xFFFFFFFFFFFFFFFFFFFFFFFFFFFFFFFFFFFFFFFF AND DUP2 MSTORE PUSH1 0x20 ADD SWAP1 DUP2 MSTORE PUSH1 0x20 ADD PUSH0 KECCAK256 DUP2 SWAP1 SSTORE POP JUMP JUMPDEST PUSH3 0x93A80 PUSH1 0x1 PUSH0 CALLER PUSH20 0xFFFFFFFFFFFFFFFFFFFFFFFFFFFFFFFFFFFFFFFF AND PUSH20 0xFFFFFFFFFFFFFFFFFFFFFFFFFFFFFFFFFFFFFFFF AND DUP2 MSTORE PUSH1 0x20 ADD SWAP1 DUP2 MSTORE PUSH1 0x20 ADD PUSH0 KECCAK256 SLOAD PUSH2 0x19A SWAP2 SWAP1 PUSH2 0x474 JUMP JUMPDEST TIMESTAMP GT PUSH2 0x1DB JUMPI PUSH1 0x40 MLOAD PUSH32 0x8C379A000000000000000000000000000000000000000000000000000000000 DUP2 MSTORE PUSH1 0x4 ADD PUSH2 0x1D2 SWAP1 PUSH2 0x527 JUMP JUMPDEST PUSH1 0x40 MLOAD DUP1 SWAP2 SUB SWAP1 REVERT JUMPDEST PUSH0 DUP1 CALLER PUSH20 0xFFFFFFFFFFFFFFFFFFFFFFFFFFFFFFFFFFFFFFFF AND PUSH20 0xFFFFFFFFFFFFFFFFFFFFFFFFFFFFFFFFFFFFFFFF AND DUP2 MSTORE PUSH1 0x20 ADD SWAP1 DUP2 MSTORE PUSH1 0x20 ADD PUSH0 KECCAK256 SLOAD DUP2 GT ISZERO PUSH2 0x25A JUMPI PUSH1 0x40 MLOAD PUSH32 0x8C379A000000000000000000000000000000000000000000000000000000000 DUP2 MSTORE PUSH1 0x4 ADD PUSH2 0x251 SWAP1 PUSH2 0x58F JUMP JUMPDEST PUSH1 0x40 MLOAD DUP1 SWAP2 SUB SWAP1 REVERT JUMPDEST CALLER PUSH20 0xFFFFFFFFFFFFFFFFFFFFFFFFFFFFFFFFFFFFFFFF AND PUSH2 0x8FC DUP3 SWAP1 DUP2 ISZERO MUL SWAP1 PUSH1 0x40 MLOAD PUSH0 PUSH1 0x40 MLOAD DUP1 DUP4 SUB DUP2 DUP6 DUP9 DUP9 CALL SWAP4 POP POP POP POP ISZERO DUP1 ISZERO PUSH2 0x29D JUMPI RETURNDATASIZE PUSH0 DUP1 RETURNDATACOPY RETURNDATASIZE PUSH0 REVERT JUMPDEST POP DUP1 PUSH0 DUP1 CALLER PUSH20 0xFFFFFFFFFFFFFFFFFFFFFFFFFFFFFFFFFFFFFFFF AND PUSH20 0xFFFFFFFFFFFFFFFFFFFFFFFFFFFFFFFFFFFFFFFF AND DUP2 MSTORE PUSH1 0x20 ADD SWAP1 DUP2 MSTORE PUSH1 0x20 ADD PUSH0 KECCAK256 PUSH0 DUP3 DUP3 SLOAD PUSH2 0x2E9 SWAP2 SWAP1 PUSH2 0x5AD JUMP JUMPDEST SWAP3 POP POP DUP2 SWAP1 SSTORE POP POP JUMP JUMPDEST PUSH0 DUP1 PUSH0 DUP4 PUSH20 0xFFFFFFFFFFFFFFFFFFFFFFFFFFFFFFFFFFFFFFFF AND PUSH20 0xFFFFFFFFFFFFFFFFFFFFFFFFFFFFFFFFFFFFFFFF AND DUP2 MSTORE PUSH1 0x20 ADD SWAP1 DUP2 MSTORE PUSH1 0x20 ADD PUSH0 KECCAK256 SLOAD SWAP1 POP SWAP2 SWAP1 POP JUMP JUMPDEST PUSH0 DUP1 REVERT JUMPDEST PUSH0 DUP2 SWAP1 POP SWAP2 SWAP1 POP JUMP JUMPDEST PUSH2 0x34E DUP2 PUSH2 0x33C JUMP JUMPDEST DUP2 EQ PUSH2 0x358 JUMPI PUSH0 DUP1 REVERT JUMPDEST POP JUMP JUMPDEST PUSH0 DUP2 CALLDATALOAD SWAP1 POP PUSH2 0x369 DUP2 PUSH2 0x345 JUMP JUMPDEST SWAP3 SWAP2 POP POP JUMP JUMPDEST PUSH0 PUSH1 0x20 DUP3 DUP5 SUB SLT ISZERO PUSH2 0x384 JUMPI PUSH2 0x383 PUSH2 0x338 JUMP JUMPDEST JUMPDEST PUSH0 PUSH2 0x391 DUP5 DUP3 DUP6 ADD PUSH2 0x35B JUMP JUMPDEST SWAP2 POP POP SWAP3 SWAP2 POP POP JUMP JUMPDEST PUSH0 PUSH20 0xFFFFFFFFFFFFFFFFFFFFFFFFFFFFFFFFFFFFFFFF DUP3 AND SWAP1 POP SWAP2 SWAP1 POP JUMP JUMPDEST PUSH0 PUSH2 0x3C3 DUP3 PUSH2 0x39A JUMP JUMPDEST SWAP1 POP SWAP2 SWAP1 POP JUMP JUMPDEST PUSH2 0x3D3 DUP2 PUSH2 0x3B9 JUMP JUMPDEST DUP2 EQ PUSH2 0x3DD JUMPI PUSH0 DUP1 REVERT JUMPDEST POP JUMP JUMPDEST PUSH0 DUP2 CALLDATALOAD SWAP1 POP PUSH2 0x3EE DUP2 PUSH2 0x3CA JUMP JUMPDEST SWAP3 SWAP2 POP POP JUMP JUMPDEST PUSH0 PUSH1 0x20 DUP3 DUP5 SUB SLT ISZERO PUSH2 0x409 JUMPI PUSH2 0x408 PUSH2 0x338 JUMP JUMPDEST JUMPDEST PUSH0 PUSH2 0x416 DUP5 DUP3 DUP6 ADD PUSH2 0x3E0 JUMP JUMPDEST SWAP2 POP POP SWAP3 SWAP2 POP POP JUMP JUMPDEST PUSH2 0x428 DUP2 PUSH2 0x33C JUMP JUMPDEST DUP3 MSTORE POP POP JUMP JUMPDEST PUSH0 PUSH1 0x20 DUP3 ADD SWAP1 POP PUSH2 0x441 PUSH0 DUP4 ADD DUP5 PUSH2 0x41F JUMP JUMPDEST SWAP3 SWAP2 POP POP JUMP JUMPDEST PUSH32 0x4E487B7100000000000000000000000000000000000000000000000000000000 PUSH0 MSTORE PUSH1 0x11 PUSH1 0x4 MSTORE PUSH1 0x24 PUSH0 REVERT JUMPDEST PUSH0 PUSH2 0x47E DUP3 PUSH2 0x33C JUMP JUMPDEST SWAP2 POP PUSH2 0x489 DUP4 PUSH2 0x33C JUMP JUMPDEST SWAP3 POP DUP3 DUP3 ADD SWAP1 POP DUP1 DUP3 GT ISZERO PUSH2 0x4A1 JUMPI PUSH2 0x4A0 PUSH2 0x447 JUMP JUMPDEST JUMPDEST SWAP3 SWAP2 POP POP JUMP JUMPDEST PUSH0 DUP3 DUP3 MSTORE PUSH1 0x20 DUP3 ADD SWAP1 POP SWAP3 SWAP2 POP POP JUMP JUMPDEST PUSH32 0x596F752063616E206F6E6C792077697468647261772061667465722061207765 PUSH0 DUP3 ADD MSTORE PUSH32 0x656B000000000000000000000000000000000000000000000000000000000000 PUSH1 0x20 DUP3 ADD MSTORE POP JUMP JUMPDEST PUSH0 PUSH2 0x511 PUSH1 0x22 DUP4 PUSH2 0x4A7 JUMP JUMPDEST SWAP2 POP PUSH2 0x51C DUP3 PUSH2 0x4B7 JUMP JUMPDEST PUSH1 0x40 DUP3 ADD SWAP1 POP SWAP2 SWAP1 POP JUMP JUMPDEST PUSH0 PUSH1 0x20 DUP3 ADD SWAP1 POP DUP2 DUP2 SUB PUSH0 DUP4 ADD MSTORE PUSH2 0x53E DUP2 PUSH2 0x505 JUMP JUMPDEST SWAP1 POP SWAP2 SWAP1 POP JUMP JUMPDEST PUSH32 0x596F7520646F6E2774206861766520656E6F7567682066756E64730000000000 PUSH0 DUP3 ADD MSTORE POP JUMP JUMPDEST PUSH0 PUSH2 0x579 PUSH1 0x1B DUP4 PUSH2 0x4A7 JUMP JUMPDEST SWAP2 POP PUSH2 0x584 DUP3 PUSH2 0x545 JUMP JUMPDEST PUSH1 0x20 DUP3 ADD SWAP1 POP SWAP2 SWAP1 POP JUMP JUMPDEST PUSH0 PUSH1 0x20 DUP3 ADD SWAP1 POP DUP2 DUP2 SUB PUSH0 DUP4 ADD MSTORE PUSH2 0x5A6 DUP2 PUSH2 0x56D JUMP JUMPDEST SWAP1 POP SWAP2 SWAP1 POP JUMP JUMPDEST PUSH0 PUSH2 0x5B7 DUP3 PUSH2 0x33C JUMP JUMPDEST SWAP2 POP PUSH2 0x5C2 DUP4 PUSH2 0x33C JUMP JUMPDEST SWAP3 POP DUP3 DUP3 SUB SWAP1 POP DUP2 DUP2 GT ISZERO PUSH2 0x5DA JUMPI PUSH2 0x5D9 PUSH2 0x447 JUMP JUMPDEST JUMPDEST SWAP3 SWAP2 POP POP JUMP INVALID LOG2 PUSH5 0x6970667358 0x22 SLT KECCAK256 0xCB 0x26 BALANCE SWAP12 DUP16 RETURN PUSH19 0xEE768B726ADE24D9930142ACA87838226D8AAD ADDRESS 0xEF SGT SHL PUSH32 0xE564736F6C634300081A00330000000000000000000000000000000000000000 "
				},
				"gasEstimates": {
					"creation": {
						"codeDepositCost": "311600",
						"executionCost": "347",
						"totalCost": "311947"
					},
					"external": {
						"balanceOf(address)": "2829",
						"depositEther()": "infinite",
						"withdrawEther(uint256)": "infinite"
					}
				},
				"methodIdentifiers": {
					"balanceOf(address)": "70a08231",
					"depositEther()": "98ea5fca",
					"withdrawEther(uint256)": "3bed33ce"
				}
			},
			"storageLayout": {
				"storage": [
					{
						"astId": 6,
						"contract": "OneWeekLockup.sol:OneWeekLockup",
						"label": "balances",
						"offset": 0,
						"slot": "0",
						"type": "t_mapping(t_address,t_uint256)"
					},
					{
						"astId": 10,
						"contract": "OneWeekLockup.sol:OneWeekLockup",
						"label": "userLastDepositTime",
						"offset": 0,
						"slot": "1",
						"type": "t_mapping(t_address,t_uint256)"
					}
				],
				"types": {
					"t_address": {
						"encoding": "inplace",
						"label": "address",
						"numberOfBytes": "20"
					},
					"t_mapping(t_address,t_uint256)": {
						"encoding": "mapping",
						"key": "t_address",
						"label": "mapping(address => uint256)",
						"numberOfBytes": "32",
						"value": "t_uint256"
					},
					"t_uint256": {
						"encoding": "inplace",
						"label": "uint256",
						"numberOfBytes": "32"
					}
				}
			},
			"userdoc": {
				"kind": "user",
				"methods": {},
				"version": 1
			}
		}
	}
}