{
	"data": {
		"bytecode": {
			"linkReferences": {},
			"object": "60806040525f80553480156011575f80fd5b5061114e8061001f5f395ff3fe608060405234801561000f575f80fd5b5060043610610055575f3560e01c8063117a5b9014610059578063407db5ba1461008f5780634d1975b4146100bf578063d8177369146100dd578063f9f01ee4146100f9575b5f80fd5b610073600480360381019061006e91906106c7565b610115565b60405161008697969594939291906107f9565b60405180910390f35b6100a960048036038101906100a49190610866565b6101aa565b6040516100b69190610914565b60405180910390f35b6100c76104c0565b6040516100d49190610934565b60405180910390f35b6100f760048036038101906100f29190610a79565b6104c5565b005b610113600480360381019061010e9190610aea565b610513565b005b6002602052805f5260405f205f91509050805f015f9054906101000a900473ffffffffffffffffffffffffffffffffffffffff1690806001015f9054906101000a900473ffffffffffffffffffffffffffffffffffffffff1690806002015490806003015490806004015490806005015f9054906101000a900460ff16908060050160019054906101000a900460ff16905087565b606060025f8481526020019081526020015f2060020154821180156101e3575060025f8481526020019081526020015f20600301548211155b610222576040517f08c379a000000000000000000000000000000000000000000000000000000000815260040161021990610b84565b60405180910390fd5b60025f8481526020019081526020015f206004015482111561027b576040518060400160405280601881526020017f596f7572206e756d62657220697320746f6f206772656174000000000000000081525090506104ba565b60025f8481526020019081526020015f20600401548210156102d4576040518060400160405280601881526020017f596f7572206e756d62657220697320746f6f20736d616c6c000000000000000081525090506104ba565b600160025f8581526020019081526020015f206005015f6101000a81548160ff0219169083600181111561030b5761030a610740565b5b021790555060025f8481526020019081526020015f205f015f9054906101000a900473ffffffffffffffffffffffffffffffffffffffff1673ffffffffffffffffffffffffffffffffffffffff163373ffffffffffffffffffffffffffffffffffffffff16036103b6575f60025f8581526020019081526020015f2060050160016101000a81548160ff021916908360018111156103ac576103ab610740565b5b021790555061045b565b60025f8481526020019081526020015f206001015f9054906101000a900473ffffffffffffffffffffffffffffffffffffffff1673ffffffffffffffffffffffffffffffffffffffff163373ffffffffffffffffffffffffffffffffffffffff160361045a57600160025f8581526020019081526020015f2060050160016101000a81548160ff0219169083600181111561045457610453610740565b5b02179055505b5b60015f3373ffffffffffffffffffffffffffffffffffffffff1673ffffffffffffffffffffffffffffffffffffffff1681526020019081526020015f206040516020016104a89190610cc1565b60405160208183030381529060405290505b92915050565b5f5481565b8060015f3373ffffffffffffffffffffffffffffffffffffffff1673ffffffffffffffffffffffffffffffffffffffff1681526020019081526020015f20908161050f9190610e71565b5050565b5f8081548092919061052490610f6d565b91905055505f60025f805481526020019081526020015f20905033815f015f6101000a81548173ffffffffffffffffffffffffffffffffffffffff021916908373ffffffffffffffffffffffffffffffffffffffff16021790555083816001015f6101000a81548173ffffffffffffffffffffffffffffffffffffffff021916908373ffffffffffffffffffffffffffffffffffffffff1602179055508281600201819055508181600301819055505f816005015f6101000a81548160ff021916908360018111156105f9576105f8610740565b5b021790555060018242335f5460405160200161061793929190611019565b604051602081830303815290604052805190602001205f1c6106399190611082565b61064391906110b2565b8160040181905550828160040154101561067d57828261066391906110e5565b816004015f82825461067591906110b2565b925050819055505b50505050565b5f604051905090565b5f80fd5b5f80fd5b5f819050919050565b6106a681610694565b81146106b0575f80fd5b50565b5f813590506106c18161069d565b92915050565b5f602082840312156106dc576106db61068c565b5b5f6106e9848285016106b3565b91505092915050565b5f73ffffffffffffffffffffffffffffffffffffffff82169050919050565b5f61071b826106f2565b9050919050565b61072b81610711565b82525050565b61073a81610694565b82525050565b7f4e487b71000000000000000000000000000000000000000000000000000000005f52602160045260245ffd5b6002811061077e5761077d610740565b5b50565b5f81905061078e8261076d565b919050565b5f61079d82610781565b9050919050565b6107ad81610793565b82525050565b600281106107c4576107c3610740565b5b50565b5f8190506107d4826107b3565b919050565b5f6107e3826107c7565b9050919050565b6107f3816107d9565b82525050565b5f60e08201905061080c5f83018a610722565b6108196020830189610722565b6108266040830188610731565b6108336060830187610731565b6108406080830186610731565b61084d60a08301856107a4565b61085a60c08301846107ea565b98975050505050505050565b5f806040838503121561087c5761087b61068c565b5b5f610889858286016106b3565b925050602061089a858286016106b3565b9150509250929050565b5f81519050919050565b5f82825260208201905092915050565b8281835e5f83830152505050565b5f601f19601f8301169050919050565b5f6108e6826108a4565b6108f081856108ae565b93506109008185602086016108be565b610909816108cc565b840191505092915050565b5f6020820190508181035f83015261092c81846108dc565b905092915050565b5f6020820190506109475f830184610731565b92915050565b5f80fd5b5f80fd5b7f4e487b71000000000000000000000000000000000000000000000000000000005f52604160045260245ffd5b61098b826108cc565b810181811067ffffffffffffffff821117156109aa576109a9610955565b5b80604052505050565b5f6109bc610683565b90506109c88282610982565b919050565b5f67ffffffffffffffff8211156109e7576109e6610955565b5b6109f0826108cc565b9050602081019050919050565b828183375f83830152505050565b5f610a1d610a18846109cd565b6109b3565b905082815260208101848484011115610a3957610a38610951565b5b610a448482856109fd565b509392505050565b5f82601f830112610a6057610a5f61094d565b5b8135610a70848260208601610a0b565b91505092915050565b5f60208284031215610a8e57610a8d61068c565b5b5f82013567ffffffffffffffff811115610aab57610aaa610690565b5b610ab784828501610a4c565b91505092915050565b610ac981610711565b8114610ad3575f80fd5b50565b5f81359050610ae481610ac0565b92915050565b5f805f60608486031215610b0157610b0061068c565b5b5f610b0e86828701610ad6565b9350506020610b1f868287016106b3565b9250506040610b30868287016106b3565b9150509250925092565b7f546865206e756d626572206973206f7574206f66206c696d69747300000000005f82015250565b5f610b6e601b836108ae565b9150610b7982610b3a565b602082019050919050565b5f6020820190508181035f830152610b9b81610b62565b9050919050565b7f5468652077696e6e657220697320000000000000000000000000000000000000815250565b7f4e487b71000000000000000000000000000000000000000000000000000000005f52602260045260245ffd5b5f6002820490506001821680610c0c57607f821691505b602082108103610c1f57610c1e610bc8565b5b50919050565b5f81905092915050565b5f819050815f5260205f209050919050565b5f8154610c4d81610bf5565b610c578186610c25565b9450600182165f8114610c715760018114610c8657610cb8565b60ff1983168652811515820286019350610cb8565b610c8f85610c2f565b5f5b83811015610cb057815481890152600182019150602081019050610c91565b838801955050505b50505092915050565b5f610ccb82610ba2565b600e82019150610cdb8284610c41565b915081905092915050565b5f6020601f8301049050919050565b5f82821b905092915050565b5f60088302610d307fffffffffffffffffffffffffffffffffffffffffffffffffffffffffffffffff82610cf5565b610d3a8683610cf5565b95508019841693508086168417925050509392505050565b5f819050919050565b5f610d75610d70610d6b84610694565b610d52565b610694565b9050919050565b5f819050919050565b610d8e83610d5b565b610da2610d9a82610d7c565b848454610d01565b825550505050565b5f90565b610db6610daa565b610dc1818484610d85565b505050565b5b81811015610de457610dd95f82610dae565b600181019050610dc7565b5050565b601f821115610e2957610dfa81610c2f565b610e0384610ce6565b81016020851015610e12578190505b610e26610e1e85610ce6565b830182610dc6565b50505b505050565b5f82821c905092915050565b5f610e495f1984600802610e2e565b1980831691505092915050565b5f610e618383610e3a565b9150826002028217905092915050565b610e7a826108a4565b67ffffffffffffffff811115610e9357610e92610955565b5b610e9d8254610bf5565b610ea8828285610de8565b5f60209050601f831160018114610ed9575f8415610ec7578287015190505b610ed18582610e56565b865550610f38565b601f198416610ee786610c2f565b5f5b82811015610f0e57848901518255600182019150602085019450602081019050610ee9565b86831015610f2b5784890151610f27601f891682610e3a565b8355505b6001600288020188555050505b505050505050565b7f4e487b71000000000000000000000000000000000000000000000000000000005f52601160045260245ffd5b5f610f7782610694565b91507fffffffffffffffffffffffffffffffffffffffffffffffffffffffffffffffff8203610fa957610fa8610f40565b5b600182019050919050565b5f819050919050565b610fce610fc982610694565b610fb4565b82525050565b5f8160601b9050919050565b5f610fea82610fd4565b9050919050565b5f610ffb82610fe0565b9050919050565b61101361100e82610711565b610ff1565b82525050565b5f6110248286610fbd565b6020820191506110348285611002565b6014820191506110448284610fbd565b602082019150819050949350505050565b7f4e487b71000000000000000000000000000000000000000000000000000000005f52601260045260245ffd5b5f61108c82610694565b915061109783610694565b9250826110a7576110a6611055565b5b828206905092915050565b5f6110bc82610694565b91506110c783610694565b92508282019050808211156110df576110de610f40565b5b92915050565b5f6110ef82610694565b91506110fa83610694565b925082820390508181111561111257611111610f40565b5b9291505056fea264697066735822122030b5fb6f8693fe514b376915a75847e06481c89d94faba4b53c2d2e6df82e01464736f6c634300081a0033",
			"opcodes": "PUSH1 0x80 PUSH1 0x40 MSTORE PUSH0 DUP1 SSTORE CALLVALUE DUP1 ISZERO PUSH1 0x11 JUMPI PUSH0 DUP1 REVERT JUMPDEST POP PUSH2 0x114E DUP1 PUSH2 0x1F PUSH0 CODECOPY PUSH0 RETURN INVALID PUSH1 0x80 PUSH1 0x40 MSTORE CALLVALUE DUP1 ISZERO PUSH2 0xF JUMPI PUSH0 DUP1 REVERT JUMPDEST POP PUSH1 0x4 CALLDATASIZE LT PUSH2 0x55 JUMPI PUSH0 CALLDATALOAD PUSH1 0xE0 SHR DUP1 PUSH4 0x117A5B90 EQ PUSH2 0x59 JUMPI DUP1 PUSH4 0x407DB5BA EQ PUSH2 0x8F JUMPI DUP1 PUSH4 0x4D1975B4 EQ PUSH2 0xBF JUMPI DUP1 PUSH4 0xD8177369 EQ PUSH2 0xDD JUMPI DUP1 PUSH4 0xF9F01EE4 EQ PUSH2 0xF9 JUMPI JUMPDEST PUSH0 DUP1 REVERT JUMPDEST PUSH2 0x73 PUSH1 0x4 DUP1 CALLDATASIZE SUB DUP2 ADD SWAP1 PUSH2 0x6E SWAP2 SWAP1 PUSH2 0x6C7 JUMP JUMPDEST PUSH2 0x115 JUMP JUMPDEST PUSH1 0x40 MLOAD PUSH2 0x86 SWAP8 SWAP7 SWAP6 SWAP5 SWAP4 SWAP3 SWAP2 SWAP1 PUSH2 0x7F9 JUMP JUMPDEST PUSH1 0x40 MLOAD DUP1 SWAP2 SUB SWAP1 RETURN JUMPDEST PUSH2 0xA9 PUSH1 0x4 DUP1 CALLDATASIZE SUB DUP2 ADD SWAP1 PUSH2 0xA4 SWAP2 SWAP1 PUSH2 0x866 JUMP JUMPDEST PUSH2 0x1AA JUMP JUMPDEST PUSH1 0x40 MLOAD PUSH2 0xB6 SWAP2 SWAP1 PUSH2 0x914 JUMP JUMPDEST PUSH1 0x40 MLOAD DUP1 SWAP2 SUB SWAP1 RETURN JUMPDEST PUSH2 0xC7 PUSH2 0x4C0 JUMP JUMPDEST PUSH1 0x40 MLOAD PUSH2 0xD4 SWAP2 SWAP1 PUSH2 0x934 JUMP JUMPDEST PUSH1 0x40 MLOAD DUP1 SWAP2 SUB SWAP1 RETURN JUMPDEST PUSH2 0xF7 PUSH1 0x4 DUP1 CALLDATASIZE SUB DUP2 ADD SWAP1 PUSH2 0xF2 SWAP2 SWAP1 PUSH2 0xA79 JUMP JUMPDEST PUSH2 0x4C5 JUMP JUMPDEST STOP JUMPDEST PUSH2 0x113 PUSH1 0x4 DUP1 CALLDATASIZE SUB DUP2 ADD SWAP1 PUSH2 0x10E SWAP2 SWAP1 PUSH2 0xAEA JUMP JUMPDEST PUSH2 0x513 JUMP JUMPDEST STOP JUMPDEST PUSH1 0x2 PUSH1 0x20 MSTORE DUP1 PUSH0 MSTORE PUSH1 0x40 PUSH0 KECCAK256 PUSH0 SWAP2 POP SWAP1 POP DUP1 PUSH0 ADD PUSH0 SWAP1 SLOAD SWAP1 PUSH2 0x100 EXP SWAP1 DIV PUSH20 0xFFFFFFFFFFFFFFFFFFFFFFFFFFFFFFFFFFFFFFFF AND SWAP1 DUP1 PUSH1 0x1 ADD PUSH0 SWAP1 SLOAD SWAP1 PUSH2 0x100 EXP SWAP1 DIV PUSH20 0xFFFFFFFFFFFFFFFFFFFFFFFFFFFFFFFFFFFFFFFF AND SWAP1 DUP1 PUSH1 0x2 ADD SLOAD SWAP1 DUP1 PUSH1 0x3 ADD SLOAD SWAP1 DUP1 PUSH1 0x4 ADD SLOAD SWAP1 DUP1 PUSH1 0x5 ADD PUSH0 SWAP1 SLOAD SWAP1 PUSH2 0x100 EXP SWAP1 DIV PUSH1 0xFF AND SWAP1 DUP1 PUSH1 0x5 ADD PUSH1 0x1 SWAP1 SLOAD SWAP1 PUSH2 0x100 EXP SWAP1 DIV PUSH1 0xFF AND SWAP1 POP DUP8 JUMP JUMPDEST PUSH1 0x60 PUSH1 0x2 PUSH0 DUP5 DUP2 MSTORE PUSH1 0x20 ADD SWAP1 DUP2 MSTORE PUSH1 0x20 ADD PUSH0 KECCAK256 PUSH1 0x2 ADD SLOAD DUP3 GT DUP1 ISZERO PUSH2 0x1E3 JUMPI POP PUSH1 0x2 PUSH0 DUP5 DUP2 MSTORE PUSH1 0x20 ADD SWAP1 DUP2 MSTORE PUSH1 0x20 ADD PUSH0 KECCAK256 PUSH1 0x3 ADD SLOAD DUP3 GT ISZERO JUMPDEST PUSH2 0x222 JUMPI PUSH1 0x40 MLOAD PUSH32 0x8C379A000000000000000000000000000000000000000000000000000000000 DUP2 MSTORE PUSH1 0x4 ADD PUSH2 0x219 SWAP1 PUSH2 0xB84 JUMP JUMPDEST PUSH1 0x40 MLOAD DUP1 SWAP2 SUB SWAP1 REVERT JUMPDEST PUSH1 0x2 PUSH0 DUP5 DUP2 MSTORE PUSH1 0x20 ADD SWAP1 DUP2 MSTORE PUSH1 0x20 ADD PUSH0 KECCAK256 PUSH1 0x4 ADD SLOAD DUP3 GT ISZERO PUSH2 0x27B JUMPI PUSH1 0x40 MLOAD DUP1 PUSH1 0x40 ADD PUSH1 0x40 MSTORE DUP1 PUSH1 0x18 DUP2 MSTORE PUSH1 0x20 ADD PUSH32 0x596F7572206E756D62657220697320746F6F2067726561740000000000000000 DUP2 MSTORE POP SWAP1 POP PUSH2 0x4BA JUMP JUMPDEST PUSH1 0x2 PUSH0 DUP5 DUP2 MSTORE PUSH1 0x20 ADD SWAP1 DUP2 MSTORE PUSH1 0x20 ADD PUSH0 KECCAK256 PUSH1 0x4 ADD SLOAD DUP3 LT ISZERO PUSH2 0x2D4 JUMPI PUSH1 0x40 MLOAD DUP1 PUSH1 0x40 ADD PUSH1 0x40 MSTORE DUP1 PUSH1 0x18 DUP2 MSTORE PUSH1 0x20 ADD PUSH32 0x596F7572206E756D62657220697320746F6F20736D616C6C0000000000000000 DUP2 MSTORE POP SWAP1 POP PUSH2 0x4BA JUMP JUMPDEST PUSH1 0x1 PUSH1 0x2 PUSH0 DUP6 DUP2 MSTORE PUSH1 0x20 ADD SWAP1 DUP2 MSTORE PUSH1 0x20 ADD PUSH0 KECCAK256 PUSH1 0x5 ADD PUSH0 PUSH2 0x100 EXP DUP2 SLOAD DUP2 PUSH1 0xFF MUL NOT AND SWAP1 DUP4 PUSH1 0x1 DUP2 GT ISZERO PUSH2 0x30B JUMPI PUSH2 0x30A PUSH2 0x740 JUMP JUMPDEST JUMPDEST MUL OR SWAP1 SSTORE POP PUSH1 0x2 PUSH0 DUP5 DUP2 MSTORE PUSH1 0x20 ADD SWAP1 DUP2 MSTORE PUSH1 0x20 ADD PUSH0 KECCAK256 PUSH0 ADD PUSH0 SWAP1 SLOAD SWAP1 PUSH2 0x100 EXP SWAP1 DIV PUSH20 0xFFFFFFFFFFFFFFFFFFFFFFFFFFFFFFFFFFFFFFFF AND PUSH20 0xFFFFFFFFFFFFFFFFFFFFFFFFFFFFFFFFFFFFFFFF AND CALLER PUSH20 0xFFFFFFFFFFFFFFFFFFFFFFFFFFFFFFFFFFFFFFFF AND SUB PUSH2 0x3B6 JUMPI PUSH0 PUSH1 0x2 PUSH0 DUP6 DUP2 MSTORE PUSH1 0x20 ADD SWAP1 DUP2 MSTORE PUSH1 0x20 ADD PUSH0 KECCAK256 PUSH1 0x5 ADD PUSH1 0x1 PUSH2 0x100 EXP DUP2 SLOAD DUP2 PUSH1 0xFF MUL NOT AND SWAP1 DUP4 PUSH1 0x1 DUP2 GT ISZERO PUSH2 0x3AC JUMPI PUSH2 0x3AB PUSH2 0x740 JUMP JUMPDEST JUMPDEST MUL OR SWAP1 SSTORE POP PUSH2 0x45B JUMP JUMPDEST PUSH1 0x2 PUSH0 DUP5 DUP2 MSTORE PUSH1 0x20 ADD SWAP1 DUP2 MSTORE PUSH1 0x20 ADD PUSH0 KECCAK256 PUSH1 0x1 ADD PUSH0 SWAP1 SLOAD SWAP1 PUSH2 0x100 EXP SWAP1 DIV PUSH20 0xFFFFFFFFFFFFFFFFFFFFFFFFFFFFFFFFFFFFFFFF AND PUSH20 0xFFFFFFFFFFFFFFFFFFFFFFFFFFFFFFFFFFFFFFFF AND CALLER PUSH20 0xFFFFFFFFFFFFFFFFFFFFFFFFFFFFFFFFFFFFFFFF AND SUB PUSH2 0x45A JUMPI PUSH1 0x1 PUSH1 0x2 PUSH0 DUP6 DUP2 MSTORE PUSH1 0x20 ADD SWAP1 DUP2 MSTORE PUSH1 0x20 ADD PUSH0 KECCAK256 PUSH1 0x5 ADD PUSH1 0x1 PUSH2 0x100 EXP DUP2 SLOAD DUP2 PUSH1 0xFF MUL NOT AND SWAP1 DUP4 PUSH1 0x1 DUP2 GT ISZERO PUSH2 0x454 JUMPI PUSH2 0x453 PUSH2 0x740 JUMP JUMPDEST JUMPDEST MUL OR SWAP1 SSTORE POP JUMPDEST JUMPDEST PUSH1 0x1 PUSH0 CALLER PUSH20 0xFFFFFFFFFFFFFFFFFFFFFFFFFFFFFFFFFFFFFFFF AND PUSH20 0xFFFFFFFFFFFFFFFFFFFFFFFFFFFFFFFFFFFFFFFF AND DUP2 MSTORE PUSH1 0x20 ADD SWAP1 DUP2 MSTORE PUSH1 0x20 ADD PUSH0 KECCAK256 PUSH1 0x40 MLOAD PUSH1 0x20 ADD PUSH2 0x4A8 SWAP2 SWAP1 PUSH2 0xCC1 JUMP JUMPDEST PUSH1 0x40 MLOAD PUSH1 0x20 DUP2 DUP4 SUB SUB DUP2 MSTORE SWAP1 PUSH1 0x40 MSTORE SWAP1 POP JUMPDEST SWAP3 SWAP2 POP POP JUMP JUMPDEST PUSH0 SLOAD DUP2 JUMP JUMPDEST DUP1 PUSH1 0x1 PUSH0 CALLER PUSH20 0xFFFFFFFFFFFFFFFFFFFFFFFFFFFFFFFFFFFFFFFF AND PUSH20 0xFFFFFFFFFFFFFFFFFFFFFFFFFFFFFFFFFFFFFFFF AND DUP2 MSTORE PUSH1 0x20 ADD SWAP1 DUP2 MSTORE PUSH1 0x20 ADD PUSH0 KECCAK256 SWAP1 DUP2 PUSH2 0x50F SWAP2 SWAP1 PUSH2 0xE71 JUMP JUMPDEST POP POP JUMP JUMPDEST PUSH0 DUP1 DUP2 SLOAD DUP1 SWAP3 SWAP2 SWAP1 PUSH2 0x524 SWAP1 PUSH2 0xF6D JUMP JUMPDEST SWAP2 SWAP1 POP SSTORE POP PUSH0 PUSH1 0x2 PUSH0 DUP1 SLOAD DUP2 MSTORE PUSH1 0x20 ADD SWAP1 DUP2 MSTORE PUSH1 0x20 ADD PUSH0 KECCAK256 SWAP1 POP CALLER DUP2 PUSH0 ADD PUSH0 PUSH2 0x100 EXP DUP2 SLOAD DUP2 PUSH20 0xFFFFFFFFFFFFFFFFFFFFFFFFFFFFFFFFFFFFFFFF MUL NOT AND SWAP1 DUP4 PUSH20 0xFFFFFFFFFFFFFFFFFFFFFFFFFFFFFFFFFFFFFFFF AND MUL OR SWAP1 SSTORE POP DUP4 DUP2 PUSH1 0x1 ADD PUSH0 PUSH2 0x100 EXP DUP2 SLOAD DUP2 PUSH20 0xFFFFFFFFFFFFFFFFFFFFFFFFFFFFFFFFFFFFFFFF MUL NOT AND SWAP1 DUP4 PUSH20 0xFFFFFFFFFFFFFFFFFFFFFFFFFFFFFFFFFFFFFFFF AND MUL OR SWAP1 SSTORE POP DUP3 DUP2 PUSH1 0x2 ADD DUP2 SWAP1 SSTORE POP DUP2 DUP2 PUSH1 0x3 ADD DUP2 SWAP1 SSTORE POP PUSH0 DUP2 PUSH1 0x5 ADD PUSH0 PUSH2 0x100 EXP DUP2 SLOAD DUP2 PUSH1 0xFF MUL NOT AND SWAP1 DUP4 PUSH1 0x1 DUP2 GT ISZERO PUSH2 0x5F9 JUMPI PUSH2 0x5F8 PUSH2 0x740 JUMP JUMPDEST JUMPDEST MUL OR SWAP1 SSTORE POP PUSH1 0x1 DUP3 TIMESTAMP CALLER PUSH0 SLOAD PUSH1 0x40 MLOAD PUSH1 0x20 ADD PUSH2 0x617 SWAP4 SWAP3 SWAP2 SWAP1 PUSH2 0x1019 JUMP JUMPDEST PUSH1 0x40 MLOAD PUSH1 0x20 DUP2 DUP4 SUB SUB DUP2 MSTORE SWAP1 PUSH1 0x40 MSTORE DUP1 MLOAD SWAP1 PUSH1 0x20 ADD KECCAK256 PUSH0 SHR PUSH2 0x639 SWAP2 SWAP1 PUSH2 0x1082 JUMP JUMPDEST PUSH2 0x643 SWAP2 SWAP1 PUSH2 0x10B2 JUMP JUMPDEST DUP2 PUSH1 0x4 ADD DUP2 SWAP1 SSTORE POP DUP3 DUP2 PUSH1 0x4 ADD SLOAD LT ISZERO PUSH2 0x67D JUMPI DUP3 DUP3 PUSH2 0x663 SWAP2 SWAP1 PUSH2 0x10E5 JUMP JUMPDEST DUP2 PUSH1 0x4 ADD PUSH0 DUP3 DUP3 SLOAD PUSH2 0x675 SWAP2 SWAP1 PUSH2 0x10B2 JUMP JUMPDEST SWAP3 POP POP DUP2 SWAP1 SSTORE POP JUMPDEST POP POP POP POP JUMP JUMPDEST PUSH0 PUSH1 0x40 MLOAD SWAP1 POP SWAP1 JUMP JUMPDEST PUSH0 DUP1 REVERT JUMPDEST PUSH0 DUP1 REVERT JUMPDEST PUSH0 DUP2 SWAP1 POP SWAP2 SWAP1 POP JUMP JUMPDEST PUSH2 0x6A6 DUP2 PUSH2 0x694 JUMP JUMPDEST DUP2 EQ PUSH2 0x6B0 JUMPI PUSH0 DUP1 REVERT JUMPDEST POP JUMP JUMPDEST PUSH0 DUP2 CALLDATALOAD SWAP1 POP PUSH2 0x6C1 DUP2 PUSH2 0x69D JUMP JUMPDEST SWAP3 SWAP2 POP POP JUMP JUMPDEST PUSH0 PUSH1 0x20 DUP3 DUP5 SUB SLT ISZERO PUSH2 0x6DC JUMPI PUSH2 0x6DB PUSH2 0x68C JUMP JUMPDEST JUMPDEST PUSH0 PUSH2 0x6E9 DUP5 DUP3 DUP6 ADD PUSH2 0x6B3 JUMP JUMPDEST SWAP2 POP POP SWAP3 SWAP2 POP POP JUMP JUMPDEST PUSH0 PUSH20 0xFFFFFFFFFFFFFFFFFFFFFFFFFFFFFFFFFFFFFFFF DUP3 AND SWAP1 POP SWAP2 SWAP1 POP JUMP JUMPDEST PUSH0 PUSH2 0x71B DUP3 PUSH2 0x6F2 JUMP JUMPDEST SWAP1 POP SWAP2 SWAP1 POP JUMP JUMPDEST PUSH2 0x72B DUP2 PUSH2 0x711 JUMP JUMPDEST DUP3 MSTORE POP POP JUMP JUMPDEST PUSH2 0x73A DUP2 PUSH2 0x694 JUMP JUMPDEST DUP3 MSTORE POP POP JUMP JUMPDEST PUSH32 0x4E487B7100000000000000000000000000000000000000000000000000000000 PUSH0 MSTORE PUSH1 0x21 PUSH1 0x4 MSTORE PUSH1 0x24 PUSH0 REVERT JUMPDEST PUSH1 0x2 DUP2 LT PUSH2 0x77E JUMPI PUSH2 0x77D PUSH2 0x740 JUMP JUMPDEST JUMPDEST POP JUMP JUMPDEST PUSH0 DUP2 SWAP1 POP PUSH2 0x78E DUP3 PUSH2 0x76D JUMP JUMPDEST SWAP2 SWAP1 POP JUMP JUMPDEST PUSH0 PUSH2 0x79D DUP3 PUSH2 0x781 JUMP JUMPDEST SWAP1 POP SWAP2 SWAP1 POP JUMP JUMPDEST PUSH2 0x7AD DUP2 PUSH2 0x793 JUMP JUMPDEST DUP3 MSTORE POP POP JUMP JUMPDEST PUSH1 0x2 DUP2 LT PUSH2 0x7C4 JUMPI PUSH2 0x7C3 PUSH2 0x740 JUMP JUMPDEST JUMPDEST POP JUMP JUMPDEST PUSH0 DUP2 SWAP1 POP PUSH2 0x7D4 DUP3 PUSH2 0x7B3 JUMP JUMPDEST SWAP2 SWAP1 POP JUMP JUMPDEST PUSH0 PUSH2 0x7E3 DUP3 PUSH2 0x7C7 JUMP JUMPDEST SWAP1 POP SWAP2 SWAP1 POP JUMP JUMPDEST PUSH2 0x7F3 DUP2 PUSH2 0x7D9 JUMP JUMPDEST DUP3 MSTORE POP POP JUMP JUMPDEST PUSH0 PUSH1 0xE0 DUP3 ADD SWAP1 POP PUSH2 0x80C PUSH0 DUP4 ADD DUP11 PUSH2 0x722 JUMP JUMPDEST PUSH2 0x819 PUSH1 0x20 DUP4 ADD DUP10 PUSH2 0x722 JUMP JUMPDEST PUSH2 0x826 PUSH1 0x40 DUP4 ADD DUP9 PUSH2 0x731 JUMP JUMPDEST PUSH2 0x833 PUSH1 0x60 DUP4 ADD DUP8 PUSH2 0x731 JUMP JUMPDEST PUSH2 0x840 PUSH1 0x80 DUP4 ADD DUP7 PUSH2 0x731 JUMP JUMPDEST PUSH2 0x84D PUSH1 0xA0 DUP4 ADD DUP6 PUSH2 0x7A4 JUMP JUMPDEST PUSH2 0x85A PUSH1 0xC0 DUP4 ADD DUP5 PUSH2 0x7EA JUMP JUMPDEST SWAP9 SWAP8 POP POP POP POP POP POP POP POP JUMP JUMPDEST PUSH0 DUP1 PUSH1 0x40 DUP4 DUP6 SUB SLT ISZERO PUSH2 0x87C JUMPI PUSH2 0x87B PUSH2 0x68C JUMP JUMPDEST JUMPDEST PUSH0 PUSH2 0x889 DUP6 DUP3 DUP7 ADD PUSH2 0x6B3 JUMP JUMPDEST SWAP3 POP POP PUSH1 0x20 PUSH2 0x89A DUP6 DUP3 DUP7 ADD PUSH2 0x6B3 JUMP JUMPDEST SWAP2 POP POP SWAP3 POP SWAP3 SWAP1 POP JUMP JUMPDEST PUSH0 DUP2 MLOAD SWAP1 POP SWAP2 SWAP1 POP JUMP JUMPDEST PUSH0 DUP3 DUP3 MSTORE PUSH1 0x20 DUP3 ADD SWAP1 POP SWAP3 SWAP2 POP POP JUMP JUMPDEST DUP3 DUP2 DUP4 MCOPY PUSH0 DUP4 DUP4 ADD MSTORE POP POP POP JUMP JUMPDEST PUSH0 PUSH1 0x1F NOT PUSH1 0x1F DUP4 ADD AND SWAP1 POP SWAP2 SWAP1 POP JUMP JUMPDEST PUSH0 PUSH2 0x8E6 DUP3 PUSH2 0x8A4 JUMP JUMPDEST PUSH2 0x8F0 DUP2 DUP6 PUSH2 0x8AE JUMP JUMPDEST SWAP4 POP PUSH2 0x900 DUP2 DUP6 PUSH1 0x20 DUP7 ADD PUSH2 0x8BE JUMP JUMPDEST PUSH2 0x909 DUP2 PUSH2 0x8CC JUMP JUMPDEST DUP5 ADD SWAP2 POP POP SWAP3 SWAP2 POP POP JUMP JUMPDEST PUSH0 PUSH1 0x20 DUP3 ADD SWAP1 POP DUP2 DUP2 SUB PUSH0 DUP4 ADD MSTORE PUSH2 0x92C DUP2 DUP5 PUSH2 0x8DC JUMP JUMPDEST SWAP1 POP SWAP3 SWAP2 POP POP JUMP JUMPDEST PUSH0 PUSH1 0x20 DUP3 ADD SWAP1 POP PUSH2 0x947 PUSH0 DUP4 ADD DUP5 PUSH2 0x731 JUMP JUMPDEST SWAP3 SWAP2 POP POP JUMP JUMPDEST PUSH0 DUP1 REVERT JUMPDEST PUSH0 DUP1 REVERT JUMPDEST PUSH32 0x4E487B7100000000000000000000000000000000000000000000000000000000 PUSH0 MSTORE PUSH1 0x41 PUSH1 0x4 MSTORE PUSH1 0x24 PUSH0 REVERT JUMPDEST PUSH2 0x98B DUP3 PUSH2 0x8CC JUMP JUMPDEST DUP2 ADD DUP2 DUP2 LT PUSH8 0xFFFFFFFFFFFFFFFF DUP3 GT OR ISZERO PUSH2 0x9AA JUMPI PUSH2 0x9A9 PUSH2 0x955 JUMP JUMPDEST JUMPDEST DUP1 PUSH1 0x40 MSTORE POP POP POP JUMP JUMPDEST PUSH0 PUSH2 0x9BC PUSH2 0x683 JUMP JUMPDEST SWAP1 POP PUSH2 0x9C8 DUP3 DUP3 PUSH2 0x982 JUMP JUMPDEST SWAP2 SWAP1 POP JUMP JUMPDEST PUSH0 PUSH8 0xFFFFFFFFFFFFFFFF DUP3 GT ISZERO PUSH2 0x9E7 JUMPI PUSH2 0x9E6 PUSH2 0x955 JUMP JUMPDEST JUMPDEST PUSH2 0x9F0 DUP3 PUSH2 0x8CC JUMP JUMPDEST SWAP1 POP PUSH1 0x20 DUP2 ADD SWAP1 POP SWAP2 SWAP1 POP JUMP JUMPDEST DUP3 DUP2 DUP4 CALLDATACOPY PUSH0 DUP4 DUP4 ADD MSTORE POP POP POP JUMP JUMPDEST PUSH0 PUSH2 0xA1D PUSH2 0xA18 DUP5 PUSH2 0x9CD JUMP JUMPDEST PUSH2 0x9B3 JUMP JUMPDEST SWAP1 POP DUP3 DUP2 MSTORE PUSH1 0x20 DUP2 ADD DUP5 DUP5 DUP5 ADD GT ISZERO PUSH2 0xA39 JUMPI PUSH2 0xA38 PUSH2 0x951 JUMP JUMPDEST JUMPDEST PUSH2 0xA44 DUP5 DUP3 DUP6 PUSH2 0x9FD JUMP JUMPDEST POP SWAP4 SWAP3 POP POP POP JUMP JUMPDEST PUSH0 DUP3 PUSH1 0x1F DUP4 ADD SLT PUSH2 0xA60 JUMPI PUSH2 0xA5F PUSH2 0x94D JUMP JUMPDEST JUMPDEST DUP2 CALLDATALOAD PUSH2 0xA70 DUP5 DUP3 PUSH1 0x20 DUP7 ADD PUSH2 0xA0B JUMP JUMPDEST SWAP2 POP POP SWAP3 SWAP2 POP POP JUMP JUMPDEST PUSH0 PUSH1 0x20 DUP3 DUP5 SUB SLT ISZERO PUSH2 0xA8E JUMPI PUSH2 0xA8D PUSH2 0x68C JUMP JUMPDEST JUMPDEST PUSH0 DUP3 ADD CALLDATALOAD PUSH8 0xFFFFFFFFFFFFFFFF DUP2 GT ISZERO PUSH2 0xAAB JUMPI PUSH2 0xAAA PUSH2 0x690 JUMP JUMPDEST JUMPDEST PUSH2 0xAB7 DUP5 DUP3 DUP6 ADD PUSH2 0xA4C JUMP JUMPDEST SWAP2 POP POP SWAP3 SWAP2 POP POP JUMP JUMPDEST PUSH2 0xAC9 DUP2 PUSH2 0x711 JUMP JUMPDEST DUP2 EQ PUSH2 0xAD3 JUMPI PUSH0 DUP1 REVERT JUMPDEST POP JUMP JUMPDEST PUSH0 DUP2 CALLDATALOAD SWAP1 POP PUSH2 0xAE4 DUP2 PUSH2 0xAC0 JUMP JUMPDEST SWAP3 SWAP2 POP POP JUMP JUMPDEST PUSH0 DUP1 PUSH0 PUSH1 0x60 DUP5 DUP7 SUB SLT ISZERO PUSH2 0xB01 JUMPI PUSH2 0xB00 PUSH2 0x68C JUMP JUMPDEST JUMPDEST PUSH0 PUSH2 0xB0E DUP7 DUP3 DUP8 ADD PUSH2 0xAD6 JUMP JUMPDEST SWAP4 POP POP PUSH1 0x20 PUSH2 0xB1F DUP7 DUP3 DUP8 ADD PUSH2 0x6B3 JUMP JUMPDEST SWAP3 POP POP PUSH1 0x40 PUSH2 0xB30 DUP7 DUP3 DUP8 ADD PUSH2 0x6B3 JUMP JUMPDEST SWAP2 POP POP SWAP3 POP SWAP3 POP SWAP3 JUMP JUMPDEST PUSH32 0x546865206E756D626572206973206F7574206F66206C696D6974730000000000 PUSH0 DUP3 ADD MSTORE POP JUMP JUMPDEST PUSH0 PUSH2 0xB6E PUSH1 0x1B DUP4 PUSH2 0x8AE JUMP JUMPDEST SWAP2 POP PUSH2 0xB79 DUP3 PUSH2 0xB3A JUMP JUMPDEST PUSH1 0x20 DUP3 ADD SWAP1 POP SWAP2 SWAP1 POP JUMP JUMPDEST PUSH0 PUSH1 0x20 DUP3 ADD SWAP1 POP DUP2 DUP2 SUB PUSH0 DUP4 ADD MSTORE PUSH2 0xB9B DUP2 PUSH2 0xB62 JUMP JUMPDEST SWAP1 POP SWAP2 SWAP1 POP JUMP JUMPDEST PUSH32 0x5468652077696E6E657220697320000000000000000000000000000000000000 DUP2 MSTORE POP JUMP JUMPDEST PUSH32 0x4E487B7100000000000000000000000000000000000000000000000000000000 PUSH0 MSTORE PUSH1 0x22 PUSH1 0x4 MSTORE PUSH1 0x24 PUSH0 REVERT JUMPDEST PUSH0 PUSH1 0x2 DUP3 DIV SWAP1 POP PUSH1 0x1 DUP3 AND DUP1 PUSH2 0xC0C JUMPI PUSH1 0x7F DUP3 AND SWAP2 POP JUMPDEST PUSH1 0x20 DUP3 LT DUP2 SUB PUSH2 0xC1F JUMPI PUSH2 0xC1E PUSH2 0xBC8 JUMP JUMPDEST JUMPDEST POP SWAP2 SWAP1 POP JUMP JUMPDEST PUSH0 DUP2 SWAP1 POP SWAP3 SWAP2 POP POP JUMP JUMPDEST PUSH0 DUP2 SWAP1 POP DUP2 PUSH0 MSTORE PUSH1 0x20 PUSH0 KECCAK256 SWAP1 POP SWAP2 SWAP1 POP JUMP JUMPDEST PUSH0 DUP2 SLOAD PUSH2 0xC4D DUP2 PUSH2 0xBF5 JUMP JUMPDEST PUSH2 0xC57 DUP2 DUP7 PUSH2 0xC25 JUMP JUMPDEST SWAP5 POP PUSH1 0x1 DUP3 AND PUSH0 DUP2 EQ PUSH2 0xC71 JUMPI PUSH1 0x1 DUP2 EQ PUSH2 0xC86 JUMPI PUSH2 0xCB8 JUMP JUMPDEST PUSH1 0xFF NOT DUP4 AND DUP7 MSTORE DUP2 ISZERO ISZERO DUP3 MUL DUP7 ADD SWAP4 POP PUSH2 0xCB8 JUMP JUMPDEST PUSH2 0xC8F DUP6 PUSH2 0xC2F JUMP JUMPDEST PUSH0 JUMPDEST DUP4 DUP2 LT ISZERO PUSH2 0xCB0 JUMPI DUP2 SLOAD DUP2 DUP10 ADD MSTORE PUSH1 0x1 DUP3 ADD SWAP2 POP PUSH1 0x20 DUP2 ADD SWAP1 POP PUSH2 0xC91 JUMP JUMPDEST DUP4 DUP9 ADD SWAP6 POP POP POP JUMPDEST POP POP POP SWAP3 SWAP2 POP POP JUMP JUMPDEST PUSH0 PUSH2 0xCCB DUP3 PUSH2 0xBA2 JUMP JUMPDEST PUSH1 0xE DUP3 ADD SWAP2 POP PUSH2 0xCDB DUP3 DUP5 PUSH2 0xC41 JUMP JUMPDEST SWAP2 POP DUP2 SWAP1 POP SWAP3 SWAP2 POP POP JUMP JUMPDEST PUSH0 PUSH1 0x20 PUSH1 0x1F DUP4 ADD DIV SWAP1 POP SWAP2 SWAP1 POP JUMP JUMPDEST PUSH0 DUP3 DUP3 SHL SWAP1 POP SWAP3 SWAP2 POP POP JUMP JUMPDEST PUSH0 PUSH1 0x8 DUP4 MUL PUSH2 0xD30 PUSH32 0xFFFFFFFFFFFFFFFFFFFFFFFFFFFFFFFFFFFFFFFFFFFFFFFFFFFFFFFFFFFFFFFF DUP3 PUSH2 0xCF5 JUMP JUMPDEST PUSH2 0xD3A DUP7 DUP4 PUSH2 0xCF5 JUMP JUMPDEST SWAP6 POP DUP1 NOT DUP5 AND SWAP4 POP DUP1 DUP7 AND DUP5 OR SWAP3 POP POP POP SWAP4 SWAP3 POP POP POP JUMP JUMPDEST PUSH0 DUP2 SWAP1 POP SWAP2 SWAP1 POP JUMP JUMPDEST PUSH0 PUSH2 0xD75 PUSH2 0xD70 PUSH2 0xD6B DUP5 PUSH2 0x694 JUMP JUMPDEST PUSH2 0xD52 JUMP JUMPDEST PUSH2 0x694 JUMP JUMPDEST SWAP1 POP SWAP2 SWAP1 POP JUMP JUMPDEST PUSH0 DUP2 SWAP1 POP SWAP2 SWAP1 POP JUMP JUMPDEST PUSH2 0xD8E DUP4 PUSH2 0xD5B JUMP JUMPDEST PUSH2 0xDA2 PUSH2 0xD9A DUP3 PUSH2 0xD7C JUMP JUMPDEST DUP5 DUP5 SLOAD PUSH2 0xD01 JUMP JUMPDEST DUP3 SSTORE POP POP POP POP JUMP JUMPDEST PUSH0 SWAP1 JUMP JUMPDEST PUSH2 0xDB6 PUSH2 0xDAA JUMP JUMPDEST PUSH2 0xDC1 DUP2 DUP5 DUP5 PUSH2 0xD85 JUMP JUMPDEST POP POP POP JUMP JUMPDEST JUMPDEST DUP2 DUP2 LT ISZERO PUSH2 0xDE4 JUMPI PUSH2 0xDD9 PUSH0 DUP3 PUSH2 0xDAE JUMP JUMPDEST PUSH1 0x1 DUP2 ADD SWAP1 POP PUSH2 0xDC7 JUMP JUMPDEST POP POP JUMP JUMPDEST PUSH1 0x1F DUP3 GT ISZERO PUSH2 0xE29 JUMPI PUSH2 0xDFA DUP2 PUSH2 0xC2F JUMP JUMPDEST PUSH2 0xE03 DUP5 PUSH2 0xCE6 JUMP JUMPDEST DUP2 ADD PUSH1 0x20 DUP6 LT ISZERO PUSH2 0xE12 JUMPI DUP2 SWAP1 POP JUMPDEST PUSH2 0xE26 PUSH2 0xE1E DUP6 PUSH2 0xCE6 JUMP JUMPDEST DUP4 ADD DUP3 PUSH2 0xDC6 JUMP JUMPDEST POP POP JUMPDEST POP POP POP JUMP JUMPDEST PUSH0 DUP3 DUP3 SHR SWAP1 POP SWAP3 SWAP2 POP POP JUMP JUMPDEST PUSH0 PUSH2 0xE49 PUSH0 NOT DUP5 PUSH1 0x8 MUL PUSH2 0xE2E JUMP JUMPDEST NOT DUP1 DUP4 AND SWAP2 POP POP SWAP3 SWAP2 POP POP JUMP JUMPDEST PUSH0 PUSH2 0xE61 DUP4 DUP4 PUSH2 0xE3A JUMP JUMPDEST SWAP2 POP DUP3 PUSH1 0x2 MUL DUP3 OR SWAP1 POP SWAP3 SWAP2 POP POP JUMP JUMPDEST PUSH2 0xE7A DUP3 PUSH2 0x8A4 JUMP JUMPDEST PUSH8 0xFFFFFFFFFFFFFFFF DUP2 GT ISZERO PUSH2 0xE93 JUMPI PUSH2 0xE92 PUSH2 0x955 JUMP JUMPDEST JUMPDEST PUSH2 0xE9D DUP3 SLOAD PUSH2 0xBF5 JUMP JUMPDEST PUSH2 0xEA8 DUP3 DUP3 DUP6 PUSH2 0xDE8 JUMP JUMPDEST PUSH0 PUSH1 0x20 SWAP1 POP PUSH1 0x1F DUP4 GT PUSH1 0x1 DUP2 EQ PUSH2 0xED9 JUMPI PUSH0 DUP5 ISZERO PUSH2 0xEC7 JUMPI DUP3 DUP8 ADD MLOAD SWAP1 POP JUMPDEST PUSH2 0xED1 DUP6 DUP3 PUSH2 0xE56 JUMP JUMPDEST DUP7 SSTORE POP PUSH2 0xF38 JUMP JUMPDEST PUSH1 0x1F NOT DUP5 AND PUSH2 0xEE7 DUP7 PUSH2 0xC2F JUMP JUMPDEST PUSH0 JUMPDEST DUP3 DUP2 LT ISZERO PUSH2 0xF0E JUMPI DUP5 DUP10 ADD MLOAD DUP3 SSTORE PUSH1 0x1 DUP3 ADD SWAP2 POP PUSH1 0x20 DUP6 ADD SWAP5 POP PUSH1 0x20 DUP2 ADD SWAP1 POP PUSH2 0xEE9 JUMP JUMPDEST DUP7 DUP4 LT ISZERO PUSH2 0xF2B JUMPI DUP5 DUP10 ADD MLOAD PUSH2 0xF27 PUSH1 0x1F DUP10 AND DUP3 PUSH2 0xE3A JUMP JUMPDEST DUP4 SSTORE POP JUMPDEST PUSH1 0x1 PUSH1 0x2 DUP9 MUL ADD DUP9 SSTORE POP POP POP JUMPDEST POP POP POP POP POP POP JUMP JUMPDEST PUSH32 0x4E487B7100000000000000000000000000000000000000000000000000000000 PUSH0 MSTORE PUSH1 0x11 PUSH1 0x4 MSTORE PUSH1 0x24 PUSH0 REVERT JUMPDEST PUSH0 PUSH2 0xF77 DUP3 PUSH2 0x694 JUMP JUMPDEST SWAP2 POP PUSH32 0xFFFFFFFFFFFFFFFFFFFFFFFFFFFFFFFFFFFFFFFFFFFFFFFFFFFFFFFFFFFFFFFF DUP3 SUB PUSH2 0xFA9 JUMPI PUSH2 0xFA8 PUSH2 0xF40 JUMP JUMPDEST JUMPDEST PUSH1 0x1 DUP3 ADD SWAP1 POP SWAP2 SWAP1 POP JUMP JUMPDEST PUSH0 DUP2 SWAP1 POP SWAP2 SWAP1 POP JUMP JUMPDEST PUSH2 0xFCE PUSH2 0xFC9 DUP3 PUSH2 0x694 JUMP JUMPDEST PUSH2 0xFB4 JUMP JUMPDEST DUP3 MSTORE POP POP JUMP JUMPDEST PUSH0 DUP2 PUSH1 0x60 SHL SWAP1 POP SWAP2 SWAP1 POP JUMP JUMPDEST PUSH0 PUSH2 0xFEA DUP3 PUSH2 0xFD4 JUMP JUMPDEST SWAP1 POP SWAP2 SWAP1 POP JUMP JUMPDEST PUSH0 PUSH2 0xFFB DUP3 PUSH2 0xFE0 JUMP JUMPDEST SWAP1 POP SWAP2 SWAP1 POP JUMP JUMPDEST PUSH2 0x1013 PUSH2 0x100E DUP3 PUSH2 0x711 JUMP JUMPDEST PUSH2 0xFF1 JUMP JUMPDEST DUP3 MSTORE POP POP JUMP JUMPDEST PUSH0 PUSH2 0x1024 DUP3 DUP7 PUSH2 0xFBD JUMP JUMPDEST PUSH1 0x20 DUP3 ADD SWAP2 POP PUSH2 0x1034 DUP3 DUP6 PUSH2 0x1002 JUMP JUMPDEST PUSH1 0x14 DUP3 ADD SWAP2 POP PUSH2 0x1044 DUP3 DUP5 PUSH2 0xFBD JUMP JUMPDEST PUSH1 0x20 DUP3 ADD SWAP2 POP DUP2 SWAP1 POP SWAP5 SWAP4 POP POP POP POP JUMP JUMPDEST PUSH32 0x4E487B7100000000000000000000000000000000000000000000000000000000 PUSH0 MSTORE PUSH1 0x12 PUSH1 0x4 MSTORE PUSH1 0x24 PUSH0 REVERT JUMPDEST PUSH0 PUSH2 0x108C DUP3 PUSH2 0x694 JUMP JUMPDEST SWAP2 POP PUSH2 0x1097 DUP4 PUSH2 0x694 JUMP JUMPDEST SWAP3 POP DUP3 PUSH2 0x10A7 JUMPI PUSH2 0x10A6 PUSH2 0x1055 JUMP JUMPDEST JUMPDEST DUP3 DUP3 MOD SWAP1 POP SWAP3 SWAP2 POP POP JUMP JUMPDEST PUSH0 PUSH2 0x10BC DUP3 PUSH2 0x694 JUMP JUMPDEST SWAP2 POP PUSH2 0x10C7 DUP4 PUSH2 0x694 JUMP JUMPDEST SWAP3 POP DUP3 DUP3 ADD SWAP1 POP DUP1 DUP3 GT ISZERO PUSH2 0x10DF JUMPI PUSH2 0x10DE PUSH2 0xF40 JUMP JUMPDEST JUMPDEST SWAP3 SWAP2 POP POP JUMP JUMPDEST PUSH0 PUSH2 0x10EF DUP3 PUSH2 0x694 JUMP JUMPDEST SWAP2 POP PUSH2 0x10FA DUP4 PUSH2 0x694 JUMP JUMPDEST SWAP3 POP DUP3 DUP3 SUB SWAP1 POP DUP2 DUP2 GT ISZERO PUSH2 0x1112 JUMPI PUSH2 0x1111 PUSH2 0xF40 JUMP JUMPDEST JUMPDEST SWAP3 SWAP2 POP POP JUMP INVALID LOG2 PUSH5 0x6970667358 0x22 SLT KECCAK256 ADDRESS 0xB5 0xFB PUSH16 0x8693FE514B376915A75847E06481C89D SWAP5 STATICCALL 0xBA 0x4B MSTORE8 0xC2 0xD2 0xE6 0xDF DUP3 0xE0 EQ PUSH5 0x736F6C6343 STOP ADDMOD BYTE STOP CALLER "
		},
		"gasEstimates": {
			"creation": {
				"codeDepositCost": "886000",
				"executionCost": "5925",
				"totalCost": "891925"
			},
			"external": {
				"gameCount()": "2446",
				"games(uint256)": "infinite",
				"guessTheCorrectNumber(uint256,uint256)": "infinite",
				"intitializeGame(address,uint256,uint256)": "infinite",
				"setPlayerName(string)": "infinite"
			}
		},
		"methodIdentifiers": {
			"gameCount()": "4d1975b4",
			"games(uint256)": "117a5b90",
			"guessTheCorrectNumber(uint256,uint256)": "407db5ba",
			"intitializeGame(address,uint256,uint256)": "f9f01ee4",
			"setPlayerName(string)": "d8177369"
		}
	},
	"abi": [
		{
			"inputs": [],
			"name": "gameCount",
			"outputs": [
				{
					"internalType": "uint256",
					"name": "",
					"type": "uint256"
				}
			],
			"stateMutability": "view",
			"type": "function"
		},
		{
			"inputs": [
				{
					"internalType": "uint256",
					"name": "",
					"type": "uint256"
				}
			],
			"name": "games",
			"outputs": [
				{
					"internalType": "address",
					"name": "launcher",
					"type": "address"
				},
				{
					"internalType": "address",
					"name": "challenger",
					"type": "address"
				},
				{
					"internalType": "uint256",
					"name": "lowerLimit",
					"type": "uint256"
				},
				{
					"internalType": "uint256",
					"name": "upperLimit",
					"type": "uint256"
				},
				{
					"internalType": "uint256",
					"name": "randomNumber",
					"type": "uint256"
				},
				{
					"internalType": "enum Pendu.Status",
					"name": "status",
					"type": "uint8"
				},
				{
					"internalType": "enum Pendu.Winner",
					"name": "winner",
					"type": "uint8"
				}
			],
			"stateMutability": "view",
			"type": "function"
		},
		{
			"inputs": [
				{
					"internalType": "uint256",
					"name": "_gameId",
					"type": "uint256"
				},
				{
					"internalType": "uint256",
					"name": "_guessedNumber",
					"type": "uint256"
				}
			],
			"name": "guessTheCorrectNumber",
			"outputs": [
				{
					"internalType": "string",
					"name": "",
					"type": "string"
				}
			],
			"stateMutability": "nonpayable",
			"type": "function"
		},
		{
			"inputs": [
				{
					"internalType": "address",
					"name": "_player2Addr",
					"type": "address"
				},
				{
					"internalType": "uint256",
					"name": "_lowerLimit",
					"type": "uint256"
				},
				{
					"internalType": "uint256",
					"name": "_upperLimit",
					"type": "uint256"
				}
			],
			"name": "intitializeGame",
			"outputs": [],
			"stateMutability": "nonpayable",
			"type": "function"
		},
		{
			"inputs": [
				{
					"internalType": "string",
					"name": "_playerName",
					"type": "string"
				}
			],
			"name": "setPlayerName",
			"outputs": [],
			"stateMutability": "nonpayable",
			"type": "function"
		}
	]
}