{
	"data": {
		"bytecode": {
			"linkReferences": {},
			"object": "6080604052348015600e575f80fd5b506105118061001c5f395ff3fe608060405260043610610037575f3560e01c80637e84cc7a14610042578063da516aa91461006c578063de5f72fd146100965761003e565b3661003e57005b5f80fd5b34801561004d575f80fd5b506100566100a0565b6040516100639190610282565b60405180910390f35b348015610077575f80fd5b506100806100fd565b60405161008d9190610282565b60405180910390f35b61009e610102565b005b5f603c5f546100af91906102c8565b42116100f0576040517f08c379a00000000000000000000000000000000000000000000000000000000081526004016100e7906103a1565b60405180910390fd5b425f819055505f54905090565b5f5481565b6201518060015f3373ffffffffffffffffffffffffffffffffffffffff1673ffffffffffffffffffffffffffffffffffffffff1681526020019081526020015f205461014e91906102c8565b421161018f576040517f08c379a00000000000000000000000000000000000000000000000000000000081526004016101869061042f565b60405180910390fd5b670de0b6b3a76400004710156101da576040517f08c379a00000000000000000000000000000000000000000000000000000000081526004016101d1906104bd565b60405180910390fd5b3373ffffffffffffffffffffffffffffffffffffffff166108fc670de0b6b3a764000090811502906040515f60405180830381858888f19350505050158015610225573d5f803e3d5ffd5b504260015f3373ffffffffffffffffffffffffffffffffffffffff1673ffffffffffffffffffffffffffffffffffffffff1681526020019081526020015f2081905550565b5f819050919050565b61027c8161026a565b82525050565b5f6020820190506102955f830184610273565b92915050565b7f4e487b71000000000000000000000000000000000000000000000000000000005f52601160045260245ffd5b5f6102d28261026a565b91506102dd8361026a565b92508282019050808211156102f5576102f461029b565b5b92915050565b5f82825260208201905092915050565b7f596f752073686f756c64207761697420746865206f6e652d6461792072756c655f8201527f20746f20626520636f6d706c65746564206265666f726520616e6f746865722060208201527f63616c6c00000000000000000000000000000000000000000000000000000000604082015250565b5f61038b6044836102fb565b91506103968261030b565b606082019050919050565b5f6020820190508181035f8301526103b88161037f565b9050919050565b7f506c65617365207761697420756e74696c2074686520656e64206f66207468655f8201527f20667265657a696e6720706572696f6400000000000000000000000000000000602082015250565b5f6104196030836102fb565b9150610424826103bf565b604082019050919050565b5f6020820190508181035f8301526104468161040d565b9050919050565b7f54686520636f6e747261637420646f65736e2774206861766520656e6f7567685f8201527f2066756e64730000000000000000000000000000000000000000000000000000602082015250565b5f6104a76026836102fb565b91506104b28261044d565b604082019050919050565b5f6020820190508181035f8301526104d48161049b565b905091905056fea264697066735822122050bd64d574b70f103e1efb316e30610e1b877174b64f52cbd5fede9bd4f4333d64736f6c634300081a0033",
			"opcodes": "PUSH1 0x80 PUSH1 0x40 MSTORE CALLVALUE DUP1 ISZERO PUSH1 0xE JUMPI PUSH0 DUP1 REVERT JUMPDEST POP PUSH2 0x511 DUP1 PUSH2 0x1C PUSH0 CODECOPY PUSH0 RETURN INVALID PUSH1 0x80 PUSH1 0x40 MSTORE PUSH1 0x4 CALLDATASIZE LT PUSH2 0x37 JUMPI PUSH0 CALLDATALOAD PUSH1 0xE0 SHR DUP1 PUSH4 0x7E84CC7A EQ PUSH2 0x42 JUMPI DUP1 PUSH4 0xDA516AA9 EQ PUSH2 0x6C JUMPI DUP1 PUSH4 0xDE5F72FD EQ PUSH2 0x96 JUMPI PUSH2 0x3E JUMP JUMPDEST CALLDATASIZE PUSH2 0x3E JUMPI STOP JUMPDEST PUSH0 DUP1 REVERT JUMPDEST CALLVALUE DUP1 ISZERO PUSH2 0x4D JUMPI PUSH0 DUP1 REVERT JUMPDEST POP PUSH2 0x56 PUSH2 0xA0 JUMP JUMPDEST PUSH1 0x40 MLOAD PUSH2 0x63 SWAP2 SWAP1 PUSH2 0x282 JUMP JUMPDEST PUSH1 0x40 MLOAD DUP1 SWAP2 SUB SWAP1 RETURN JUMPDEST CALLVALUE DUP1 ISZERO PUSH2 0x77 JUMPI PUSH0 DUP1 REVERT JUMPDEST POP PUSH2 0x80 PUSH2 0xFD JUMP JUMPDEST PUSH1 0x40 MLOAD PUSH2 0x8D SWAP2 SWAP1 PUSH2 0x282 JUMP JUMPDEST PUSH1 0x40 MLOAD DUP1 SWAP2 SUB SWAP1 RETURN JUMPDEST PUSH2 0x9E PUSH2 0x102 JUMP JUMPDEST STOP JUMPDEST PUSH0 PUSH1 0x3C PUSH0 SLOAD PUSH2 0xAF SWAP2 SWAP1 PUSH2 0x2C8 JUMP JUMPDEST TIMESTAMP GT PUSH2 0xF0 JUMPI PUSH1 0x40 MLOAD PUSH32 0x8C379A000000000000000000000000000000000000000000000000000000000 DUP2 MSTORE PUSH1 0x4 ADD PUSH2 0xE7 SWAP1 PUSH2 0x3A1 JUMP JUMPDEST PUSH1 0x40 MLOAD DUP1 SWAP2 SUB SWAP1 REVERT JUMPDEST TIMESTAMP PUSH0 DUP2 SWAP1 SSTORE POP PUSH0 SLOAD SWAP1 POP SWAP1 JUMP JUMPDEST PUSH0 SLOAD DUP2 JUMP JUMPDEST PUSH3 0x15180 PUSH1 0x1 PUSH0 CALLER PUSH20 0xFFFFFFFFFFFFFFFFFFFFFFFFFFFFFFFFFFFFFFFF AND PUSH20 0xFFFFFFFFFFFFFFFFFFFFFFFFFFFFFFFFFFFFFFFF AND DUP2 MSTORE PUSH1 0x20 ADD SWAP1 DUP2 MSTORE PUSH1 0x20 ADD PUSH0 KECCAK256 SLOAD PUSH2 0x14E SWAP2 SWAP1 PUSH2 0x2C8 JUMP JUMPDEST TIMESTAMP GT PUSH2 0x18F JUMPI PUSH1 0x40 MLOAD PUSH32 0x8C379A000000000000000000000000000000000000000000000000000000000 DUP2 MSTORE PUSH1 0x4 ADD PUSH2 0x186 SWAP1 PUSH2 0x42F JUMP JUMPDEST PUSH1 0x40 MLOAD DUP1 SWAP2 SUB SWAP1 REVERT JUMPDEST PUSH8 0xDE0B6B3A7640000 SELFBALANCE LT ISZERO PUSH2 0x1DA JUMPI PUSH1 0x40 MLOAD PUSH32 0x8C379A000000000000000000000000000000000000000000000000000000000 DUP2 MSTORE PUSH1 0x4 ADD PUSH2 0x1D1 SWAP1 PUSH2 0x4BD JUMP JUMPDEST PUSH1 0x40 MLOAD DUP1 SWAP2 SUB SWAP1 REVERT JUMPDEST CALLER PUSH20 0xFFFFFFFFFFFFFFFFFFFFFFFFFFFFFFFFFFFFFFFF AND PUSH2 0x8FC PUSH8 0xDE0B6B3A7640000 SWAP1 DUP2 ISZERO MUL SWAP1 PUSH1 0x40 MLOAD PUSH0 PUSH1 0x40 MLOAD DUP1 DUP4 SUB DUP2 DUP6 DUP9 DUP9 CALL SWAP4 POP POP POP POP ISZERO DUP1 ISZERO PUSH2 0x225 JUMPI RETURNDATASIZE PUSH0 DUP1 RETURNDATACOPY RETURNDATASIZE PUSH0 REVERT JUMPDEST POP TIMESTAMP PUSH1 0x1 PUSH0 CALLER PUSH20 0xFFFFFFFFFFFFFFFFFFFFFFFFFFFFFFFFFFFFFFFF AND PUSH20 0xFFFFFFFFFFFFFFFFFFFFFFFFFFFFFFFFFFFFFFFF AND DUP2 MSTORE PUSH1 0x20 ADD SWAP1 DUP2 MSTORE PUSH1 0x20 ADD PUSH0 KECCAK256 DUP2 SWAP1 SSTORE POP JUMP JUMPDEST PUSH0 DUP2 SWAP1 POP SWAP2 SWAP1 POP JUMP JUMPDEST PUSH2 0x27C DUP2 PUSH2 0x26A JUMP JUMPDEST DUP3 MSTORE POP POP JUMP JUMPDEST PUSH0 PUSH1 0x20 DUP3 ADD SWAP1 POP PUSH2 0x295 PUSH0 DUP4 ADD DUP5 PUSH2 0x273 JUMP JUMPDEST SWAP3 SWAP2 POP POP JUMP JUMPDEST PUSH32 0x4E487B7100000000000000000000000000000000000000000000000000000000 PUSH0 MSTORE PUSH1 0x11 PUSH1 0x4 MSTORE PUSH1 0x24 PUSH0 REVERT JUMPDEST PUSH0 PUSH2 0x2D2 DUP3 PUSH2 0x26A JUMP JUMPDEST SWAP2 POP PUSH2 0x2DD DUP4 PUSH2 0x26A JUMP JUMPDEST SWAP3 POP DUP3 DUP3 ADD SWAP1 POP DUP1 DUP3 GT ISZERO PUSH2 0x2F5 JUMPI PUSH2 0x2F4 PUSH2 0x29B JUMP JUMPDEST JUMPDEST SWAP3 SWAP2 POP POP JUMP JUMPDEST PUSH0 DUP3 DUP3 MSTORE PUSH1 0x20 DUP3 ADD SWAP1 POP SWAP3 SWAP2 POP POP JUMP JUMPDEST PUSH32 0x596F752073686F756C64207761697420746865206F6E652D6461792072756C65 PUSH0 DUP3 ADD MSTORE PUSH32 0x20746F20626520636F6D706C65746564206265666F726520616E6F7468657220 PUSH1 0x20 DUP3 ADD MSTORE PUSH32 0x63616C6C00000000000000000000000000000000000000000000000000000000 PUSH1 0x40 DUP3 ADD MSTORE POP JUMP JUMPDEST PUSH0 PUSH2 0x38B PUSH1 0x44 DUP4 PUSH2 0x2FB JUMP JUMPDEST SWAP2 POP PUSH2 0x396 DUP3 PUSH2 0x30B JUMP JUMPDEST PUSH1 0x60 DUP3 ADD SWAP1 POP SWAP2 SWAP1 POP JUMP JUMPDEST PUSH0 PUSH1 0x20 DUP3 ADD SWAP1 POP DUP2 DUP2 SUB PUSH0 DUP4 ADD MSTORE PUSH2 0x3B8 DUP2 PUSH2 0x37F JUMP JUMPDEST SWAP1 POP SWAP2 SWAP1 POP JUMP JUMPDEST PUSH32 0x506C65617365207761697420756E74696C2074686520656E64206F6620746865 PUSH0 DUP3 ADD MSTORE PUSH32 0x20667265657A696E6720706572696F6400000000000000000000000000000000 PUSH1 0x20 DUP3 ADD MSTORE POP JUMP JUMPDEST PUSH0 PUSH2 0x419 PUSH1 0x30 DUP4 PUSH2 0x2FB JUMP JUMPDEST SWAP2 POP PUSH2 0x424 DUP3 PUSH2 0x3BF JUMP JUMPDEST PUSH1 0x40 DUP3 ADD SWAP1 POP SWAP2 SWAP1 POP JUMP JUMPDEST PUSH0 PUSH1 0x20 DUP3 ADD SWAP1 POP DUP2 DUP2 SUB PUSH0 DUP4 ADD MSTORE PUSH2 0x446 DUP2 PUSH2 0x40D JUMP JUMPDEST SWAP1 POP SWAP2 SWAP1 POP JUMP JUMPDEST PUSH32 0x54686520636F6E747261637420646F65736E2774206861766520656E6F756768 PUSH0 DUP3 ADD MSTORE PUSH32 0x2066756E64730000000000000000000000000000000000000000000000000000 PUSH1 0x20 DUP3 ADD MSTORE POP JUMP JUMPDEST PUSH0 PUSH2 0x4A7 PUSH1 0x26 DUP4 PUSH2 0x2FB JUMP JUMPDEST SWAP2 POP PUSH2 0x4B2 DUP3 PUSH2 0x44D JUMP JUMPDEST PUSH1 0x40 DUP3 ADD SWAP1 POP SWAP2 SWAP1 POP JUMP JUMPDEST PUSH0 PUSH1 0x20 DUP3 ADD SWAP1 POP DUP2 DUP2 SUB PUSH0 DUP4 ADD MSTORE PUSH2 0x4D4 DUP2 PUSH2 0x49B JUMP JUMPDEST SWAP1 POP SWAP2 SWAP1 POP JUMP INVALID LOG2 PUSH5 0x6970667358 0x22 SLT KECCAK256 POP 0xBD PUSH5 0xD574B70F10 RETURNDATACOPY 0x1E 0xFB BALANCE PUSH15 0x30610E1B877174B64F52CBD5FEDE9B 0xD4 DELEGATECALL CALLER RETURNDATASIZE PUSH5 0x736F6C6343 STOP ADDMOD BYTE STOP CALLER "
		},
		"gasEstimates": {
			"creation": {
				"codeDepositCost": "259400",
				"executionCost": "298",
				"totalCost": "259698"
			},
			"external": {
				"faucet()": "infinite",
				"lastCall()": "2424",
				"makeCalls()": "infinite"
			}
		},
		"methodIdentifiers": {
			"faucet()": "de5f72fd",
			"lastCall()": "da516aa9",
			"makeCalls()": "7e84cc7a"
		}
	},
	"abi": [
		{
			"inputs": [],
			"name": "faucet",
			"outputs": [],
			"stateMutability": "payable",
			"type": "function"
		},
		{
			"inputs": [],
			"name": "lastCall",
			"outputs": [
				{
					"internalType": "uint256",
					"name": "",
					"type": "uint256"
				}
			],
			"stateMutability": "view",
			"type": "function"
		},
		{
			"inputs": [],
			"name": "makeCalls",
			"outputs": [
				{
					"internalType": "uint256",
					"name": "",
					"type": "uint256"
				}
			],
			"stateMutability": "nonpayable",
			"type": "function"
		},
		{
			"stateMutability": "payable",
			"type": "receive"
		}
	]
}